{"contracts/LogisticsTracking.sol":{"LogisticsEvents":{"abi":[{"inputs":[],"stateMutability":"nonpayable","type":"constructor"},{"anonymous":false,"inputs":[{"indexed":true,"internalType":"address","name":"provider","type":"address"},{"indexed":false,"internalType":"uint256","name":"timestamp","type":"uint256"}],"name":"ProviderAuthorized","type":"event"},{"anonymous":false,"inputs":[{"indexed":true,"internalType":"address","name":"provider","type":"address"},{"indexed":false,"internalType":"uint256","name":"timestamp","type":"uint256"}],"name":"ProviderRevoked","type":"event"},{"anonymous":false,"inputs":[{"indexed":true,"internalType":"uint256","name":"shipmentId","type":"uint256"},{"indexed":false,"internalType":"uint256","name":"weight","type":"uint256"},{"indexed":false,"internalType":"uint256","name":"price","type":"uint256"},{"indexed":true,"internalType":"uint256","name":"batch","type":"uint256"},{"indexed":false,"internalType":"string","name":"origin","type":"string"},{"indexed":true,"internalType":"address","name":"sender","type":"address"},{"indexed":false,"internalType":"address","name":"receiver","type":"address"},{"indexed":false,"internalType":"string","name":"destination","type":"string"},{"indexed":false,"internalType":"string","name":"description","type":"string"},{"indexed":false,"internalType":"uint256","name":"timestamp","type":"uint256"}],"name":"ShipmentCreated","type":"event"},{"anonymous":false,"inputs":[{"indexed":true,"internalType":"uint256","name":"shipmentId","type":"uint256"},{"indexed":true,"internalType":"enum LogisticsEvents.ShipmentStatus","name":"status","type":"uint8"},{"indexed":true,"internalType":"address","name":"updatedBy","type":"address"},{"indexed":false,"internalType":"uint256","name":"timestamp","type":"uint256"}],"name":"ShipmentStatusChanged","type":"event"},{"anonymous":false,"inputs":[{"indexed":true,"internalType":"uint256","name":"shipmentId","type":"uint256"},{"indexed":false,"internalType":"uint256","name":"weight","type":"uint256"},{"indexed":false,"internalType":"uint256","name":"price","type":"uint256"},{"indexed":true,"internalType":"uint256","name":"batch","type":"uint256"},{"indexed":false,"internalType":"string","name":"origin","type":"string"},{"indexed":true,"internalType":"address","name":"sender","type":"address"},{"indexed":false,"internalType":"address","name":"receiver","type":"address"},{"indexed":false,"internalType":"string","name":"destination","type":"string"},{"indexed":false,"internalType":"string","name":"description","type":"string"},{"indexed":false,"internalType":"bytes32","name":"previousBlockHash","type":"bytes32"},{"indexed":false,"internalType":"uint256","name":"previousShipmentId","type":"uint256"},{"indexed":false,"internalType":"uint256","name":"timestamp","type":"uint256"}],"name":"ShipmentUpdated","type":"event"},{"inputs":[{"internalType":"address","name":"provider","type":"address"}],"name":"authorizeProvider","outputs":[],"stateMutability":"nonpayable","type":"function"},{"inputs":[{"internalType":"address","name":"","type":"address"}],"name":"authorizedProviders","outputs":[{"internalType":"bool","name":"","type":"bool"}],"stateMutability":"view","type":"function"},{"inputs":[{"components":[{"internalType":"uint256","name":"shipmentId","type":"uint256"},{"internalType":"uint256","name":"weight","type":"uint256"},{"internalType":"uint256","name":"price","type":"uint256"},{"internalType":"uint256","name":"batch","type":"uint256"},{"internalType":"string","name":"origin","type":"string"},{"internalType":"address","name":"receiver","type":"address"},{"internalType":"string","name":"destination","type":"string"},{"internalType":"string","name":"description","type":"string"}],"internalType":"struct LogisticsEvents.ShipmentData","name":"data","type":"tuple"}],"name":"createShipment","outputs":[],"stateMutability":"nonpayable","type":"function"},{"inputs":[],"name":"owner","outputs":[{"internalType":"address","name":"","type":"address"}],"stateMutability":"view","type":"function"},{"inputs":[{"internalType":"address","name":"provider","type":"address"}],"name":"revokeProvider","outputs":[],"stateMutability":"nonpayable","type":"function"},{"inputs":[{"internalType":"uint256","name":"","type":"uint256"}],"name":"shipmentExists","outputs":[{"internalType":"bool","name":"","type":"bool"}],"stateMutability":"view","type":"function"},{"inputs":[{"internalType":"address","name":"newOwner","type":"address"}],"name":"transferOwnership","outputs":[],"stateMutability":"nonpayable","type":"function"},{"inputs":[{"components":[{"components":[{"internalType":"uint256","name":"shipmentId","type":"uint256"},{"internalType":"uint256","name":"weight","type":"uint256"},{"internalType":"uint256","name":"price","type":"uint256"},{"internalType":"uint256","name":"batch","type":"uint256"},{"internalType":"string","name":"origin","type":"string"},{"internalType":"address","name":"receiver","type":"address"},{"internalType":"string","name":"destination","type":"string"},{"internalType":"string","name":"description","type":"string"}],"internalType":"struct LogisticsEvents.ShipmentData","name":"shipment","type":"tuple"},{"internalType":"bytes32","name":"previousBlockHash","type":"bytes32"},{"internalType":"uint256","name":"previousShipmentId","type":"uint256"}],"internalType":"struct LogisticsEvents.ShipmentUpdateData","name":"data","type":"tuple"}],"name":"updateShipment","outputs":[],"stateMutability":"nonpayable","type":"function"},{"inputs":[{"internalType":"uint256","name":"shipmentId","type":"uint256"},{"internalType":"enum LogisticsEvents.ShipmentStatus","name":"status","type":"uint8"}],"name":"updateShipmentStatus","outputs":[],"stateMutability":"nonpayable","type":"function"},{"inputs":[{"internalType":"uint256","name":"shipmentId","type":"uint256"}],"name":"verifyShipment","outputs":[{"internalType":"bool","name":"","type":"bool"}],"stateMutability":"view","type":"function"}],"evm":{"assembly":"// RO data = 0/0 bytes\n// RW data = 536/66128 bytes\n// Stack size = 32768 bytes\n\n// Instructions = 6557\n// Code size = 23650 bytes\n\n      : @0 (gas: 2)\n     0: a1 = i32 [0x20220]\n     5: jump @42 if a1 == 0\n      : @1 (gas: 4)\n     9: a0 = 0x30250\n    14: i32 a0 = a0 + 0\n    16: ecalli 9 // 'set_immutable_data'\n    18: jump @42\n      : @2 (gas: 8)\n    21: sp = sp + 0xfffffffffffffff0\n    24: u64 [sp + 0x8] = ra\n    27: u64 [sp] = s0\n    29: a2 = a1\n    31: s0 = a0\n    33: a1 = 0x20\n    36: a0 = a2\n    38: ra = 2, jump @13\n      : @3 [@dyn 1] (gas: 100)\n    43: a1 = u8 [a0 + 0x1]\n    46: a2 = u8 [a0]\n    48: a3 = u8 [a0 + 0x2]\n    51: a4 = u8 [a0 + 0x3]\n    54: a1 = a1 << 0x8\n    57: a1 = a1 | a2\n    60: a3 = a3 << 0x10\n    63: a4 = a4 << 0x18\n    66: a3 = a3 | a4\n    69: a1 = a1 | a3\n    72: a2 = u8 [a0 + 0x5]\n    75: a3 = u8 [a0 + 0x4]\n    78: a4 = u8 [a0 + 0x6]\n    81: a5 = u8 [a0 + 0x7]\n    84: a2 = a2 << 0x8\n    87: a2 = a2 | a3\n    90: a4 = a4 << 0x10\n    93: a5 = a5 << 0x18\n    96: a4 = a4 | a5\n    99: a2 = a2 | a4\n   102: a2 = a2 << 0x20\n   105: t0 = a2 | a1\n   108: a2 = u8 [a0 + 0x9]\n   111: a3 = u8 [a0 + 0x8]\n   114: a4 = u8 [a0 + 0xa]\n   117: a5 = u8 [a0 + 0xb]\n   120: a2 = a2 << 0x8\n   123: a2 = a2 | a3\n   126: a4 = a4 << 0x10\n   129: a5 = a5 << 0x18\n   132: a4 = a4 | a5\n   135: a2 = a2 | a4\n   138: a3 = u8 [a0 + 0xd]\n   141: a4 = u8 [a0 + 0xc]\n   144: a5 = u8 [a0 + 0xe]\n   147: a1 = u8 [a0 + 0xf]\n   150: a3 = a3 << 0x8\n   153: a3 = a3 | a4\n   156: a5 = a5 << 0x10\n   159: a1 = a1 << 0x18\n   162: a1 = a1 | a5\n   165: a1 = a1 | a3\n   168: a1 = a1 << 0x20\n   171: t1 = a1 | a2\n   174: a1 = u8 [a0 + 0x11]\n   177: a3 = u8 [a0 + 0x10]\n   180: a4 = u8 [a0 + 0x12]\n   183: a5 = u8 [a0 + 0x13]\n   186: a1 = a1 << 0x8\n   189: a1 = a1 | a3\n   192: a4 = a4 << 0x10\n   195: a5 = a5 << 0x18\n   198: a4 = a4 | a5\n   201: a1 = a1 | a4\n   204: a3 = u8 [a0 + 0x15]\n   207: a4 = u8 [a0 + 0x14]\n   210: a5 = u8 [a0 + 0x16]\n   213: a2 = u8 [a0 + 0x17]\n   216: a3 = a3 << 0x8\n   219: a3 = a3 | a4\n   222: a5 = a5 << 0x10\n   225: a2 = a2 << 0x18\n   228: a2 = a2 | a5\n   231: a2 = a2 | a3\n   234: a2 = a2 << 0x20\n   237: a3 = a2 | a1\n   240: a1 = u8 [a0 + 0x19]\n   243: a2 = u8 [a0 + 0x18]\n   246: a4 = u8 [a0 + 0x1a]\n   249: a5 = u8 [a0 + 0x1b]\n   252: a1 = a1 << 0x8\n   255: a1 = a1 | a2\n   258: a4 = a4 << 0x10\n   261: a5 = a5 << 0x18\n   264: a4 = a4 | a5\n   267: a1 = a1 | a4\n   270: a2 = u8 [a0 + 0x1d]\n   273: a4 = u8 [a0 + 0x1c]\n   276: a5 = u8 [a0 + 0x1e]\n   279: a0 = u8 [a0 + 0x1f]\n   282: a2 = a2 << 0x8\n   285: a2 = a2 | a4\n   288: a5 = a5 << 0x10\n   291: a0 = a0 << 0x18\n   294: a0 = a0 | a5\n   297: a0 = a0 | a2\n   300: a0 = a0 << 0x20\n   303: a0 = a0 | a1\n   306: a0 = reverse a0\n   308: a1 = reverse a3\n   310: a2 = reverse t1\n   312: a3 = reverse t0\n   314: u64 [s0 + 0x18] = a3\n   317: u64 [s0 + 0x10] = a2\n   320: u64 [s0 + 0x8] = a1\n   323: u64 [s0] = a0\n   325: ra = u64 [sp + 0x8]\n   328: s0 = u64 [sp]\n   330: sp = sp + 0x10\n   333: ret\n      : @4 (gas: 12)\n   335: sp = sp + 0xffffffffffffffd8\n   338: u64 [sp + 0x20] = ra\n   341: u64 [sp + 0x18] = s0\n   344: u64 [sp + 0x10] = s1\n   347: a2 = u64 [a1]\n   349: u64 [sp + 0x8] = a2\n   352: a2 = u64 [a1 + 0x8]\n   355: u64 [sp] = a2\n   357: s0 = u64 [a1 + 0x10]\n   360: s1 = u64 [a1 + 0x18]\n   363: a1 = 0x20\n   366: ra = 4, jump @13\n      : @5 [@dyn 2] (gas: 71)\n   371: a1 = reverse s1\n   373: a2 = reverse s0\n   375: a3 = u64 [sp]\n   377: a3 = reverse a3\n   379: a4 = u64 [sp + 0x8]\n   382: a4 = reverse a4\n   384: u8 [a0 + 0x18] = a4\n   387: u8 [a0 + 0x10] = a3\n   390: u8 [a0 + 0x8] = a2\n   393: u8 [a0] = a1\n   395: a5 = a4 >> 0x38\n   398: u8 [a0 + 0x1f] = a5\n   401: a5 = a4 >> 0x30\n   404: u8 [a0 + 0x1e] = a5\n   407: a5 = a4 >> 0x28\n   410: u8 [a0 + 0x1d] = a5\n   413: a5 = a4 >> 0x20\n   416: u8 [a0 + 0x1c] = a5\n   419: a5 = a4 >> 0x18\n   422: u8 [a0 + 0x1b] = a5\n   425: a5 = a4 >> 0x10\n   428: u8 [a0 + 0x1a] = a5\n   431: a4 = a4 >> 0x8\n   434: u8 [a0 + 0x19] = a4\n   437: a4 = a3 >> 0x38\n   440: u8 [a0 + 0x17] = a4\n   443: a4 = a3 >> 0x30\n   446: u8 [a0 + 0x16] = a4\n   449: a4 = a3 >> 0x28\n   452: u8 [a0 + 0x15] = a4\n   455: a4 = a3 >> 0x20\n   458: u8 [a0 + 0x14] = a4\n   461: a4 = a3 >> 0x18\n   464: u8 [a0 + 0x13] = a4\n   467: a4 = a3 >> 0x10\n   470: u8 [a0 + 0x12] = a4\n   473: a3 = a3 >> 0x8\n   476: u8 [a0 + 0x11] = a3\n   479: a3 = a2 >> 0x38\n   482: u8 [a0 + 0xf] = a3\n   485: a3 = a2 >> 0x30\n   488: u8 [a0 + 0xe] = a3\n   491: a3 = a2 >> 0x28\n   494: u8 [a0 + 0xd] = a3\n   497: a3 = a2 >> 0x20\n   500: u8 [a0 + 0xc] = a3\n   503: a3 = a2 >> 0x18\n   506: u8 [a0 + 0xb] = a3\n   509: a3 = a2 >> 0x10\n   512: u8 [a0 + 0xa] = a3\n   515: a2 = a2 >> 0x8\n   518: u8 [a0 + 0x9] = a2\n   521: a2 = a1 >> 0x38\n   524: u8 [a0 + 0x7] = a2\n   527: a2 = a1 >> 0x30\n   530: u8 [a0 + 0x6] = a2\n   533: a2 = a1 >> 0x28\n   536: u8 [a0 + 0x5] = a2\n   539: a2 = a1 >> 0x20\n   542: u8 [a0 + 0x4] = a2\n   545: a2 = a1 >> 0x18\n   548: u8 [a0 + 0x3] = a2\n   551: a2 = a1 >> 0x10\n   554: u8 [a0 + 0x2] = a2\n   557: a1 = a1 >> 0x8\n   560: u8 [a0 + 0x1] = a1\n   563: ra = u64 [sp + 0x20]\n   566: s0 = u64 [sp + 0x18]\n   569: s1 = u64 [sp + 0x10]\n   572: sp = sp + 0x28\n   575: ret\n      : @6 (gas: 48)\n   577: sp = sp + 0xffffffffffffffa0\n   580: u64 [sp + 0x58] = ra\n   583: u64 [sp + 0x50] = s0\n   586: u64 [sp + 0x48] = s1\n   589: s0 = sp + 0x60\n   592: sp = sp & 0xffffffffffffffe0\n   595: s1 = a0\n   597: a0 = u64 [a1 + 0x18]\n   600: a2 = u64 [a1 + 0x10]\n   603: a3 = u64 [a1 + 0x8]\n   606: a1 = u64 [a1]\n   608: a0 = reverse a0\n   610: a2 = reverse a2\n   612: a3 = reverse a3\n   614: a1 = reverse a1\n   616: u64 [sp + 0x18] = a1\n   619: u64 [sp + 0x10] = a3\n   622: u64 [sp + 0x8] = a2\n   625: u64 [sp] = a0\n   627: u64 [sp + 56] = 0\n   630: u64 [sp + 48] = 0\n   633: u64 [sp + 40] = 0\n   636: u64 [sp + 32] = 0\n   639: u32 [sp + 64] = 0x20\n   643: i32 a1 = sp + 0\n   645: i32 a3 = sp + 0x20\n   648: i32 a4 = sp + 0x40\n   651: a2 = 0xffffffffffffffff\n   654: a0 = 0\n   656: ecalli 5 // 'get_storage'\n   658: a0 = u64 [sp + 0x38]\n   661: a1 = u64 [sp + 0x30]\n   664: a2 = u64 [sp + 0x28]\n   667: a3 = u64 [sp + 0x20]\n   670: a0 = reverse a0\n   672: a1 = reverse a1\n   674: a2 = reverse a2\n   676: a3 = reverse a3\n   678: u64 [s1 + 0x18] = a3\n   681: u64 [s1 + 0x10] = a2\n   684: u64 [s1 + 0x8] = a1\n   687: u64 [s1] = a0\n   689: sp = s0 + 0xffffffffffffffa0\n   692: ra = u64 [sp + 0x58]\n   695: s0 = u64 [sp + 0x50]\n   698: s1 = u64 [sp + 0x48]\n   701: sp = sp + 0x60\n   704: ret\n      : @7 (gas: 40)\n   706: sp = sp + 0xffffffffffffffa0\n   709: u64 [sp + 0x58] = ra\n   712: u64 [sp + 0x50] = s0\n   715: s0 = sp + 0x60\n   718: sp = sp & 0xffffffffffffffe0\n   721: t0 = u64 [a0]\n   723: a3 = u64 [a0 + 0x8]\n   726: a4 = u64 [a0 + 0x10]\n   729: a0 = u64 [a0 + 0x18]\n   732: t1 = u64 [a1]\n   734: a2 = u64 [a1 + 0x8]\n   737: a5 = u64 [a1 + 0x10]\n   740: a1 = u64 [a1 + 0x18]\n   743: t2 = reverse a0\n   745: a4 = reverse a4\n   747: a3 = reverse a3\n   749: a0 = reverse t0\n   751: t0 = reverse a1\n   753: a5 = reverse a5\n   755: a2 = reverse a2\n   757: a1 = reverse t1\n   759: u64 [sp + 0x18] = a0\n   762: u64 [sp + 0x10] = a3\n   765: u64 [sp + 0x8] = a4\n   768: u64 [sp] = t2\n   770: u64 [sp + 0x38] = a1\n   773: u64 [sp + 0x30] = a2\n   776: u64 [sp + 0x28] = a5\n   779: u64 [sp + 0x20] = t0\n   782: i32 a1 = sp + 0\n   784: i32 a3 = sp + 0x20\n   787: a2 = 0xffffffffffffffff\n   790: a4 = 0x20\n   793: a0 = 0\n   795: ecalli 10 // 'set_storage'\n   797: sp = s0 + 0xffffffffffffffa0\n   800: ra = u64 [sp + 0x58]\n   803: s0 = u64 [sp + 0x50]\n   806: sp = sp + 0x60\n   809: ret\n      : @8 (gas: 24)\n   811: sp = sp + 0xffffffffffffff60\n   815: u64 [sp + 0x98] = ra\n   819: u64 [sp + 0x90] = s0\n   823: u64 [sp + 0x88] = s1\n   827: s0 = sp + 0xa0\n   831: sp = sp & 0xffffffffffffffe0\n   834: a4 = u64 [a3]\n   836: u64 [sp + 0x38] = a4\n   839: a4 = u64 [a3 + 0x8]\n   842: u64 [sp + 0x30] = a4\n   845: a4 = u64 [a3 + 0x10]\n   848: u64 [sp + 0x28] = a4\n   851: a3 = u64 [a3 + 0x18]\n   854: u64 [sp + 0x20] = a3\n   857: a3 = u64 [a2]\n   859: u64 [sp + 0x18] = a3\n   862: a3 = u64 [a2 + 0x8]\n   865: u64 [sp + 0x10] = a3\n   868: a3 = u64 [a2 + 0x10]\n   871: u64 [sp + 0x8] = a3\n   874: a2 = u64 [a2 + 0x18]\n   877: u64 [sp] = a2\n   879: s1 = a1\n   881: ra = 6, jump @13\n      : @9 [@dyn 3] (gas: 35)\n   886: a1 = u64 [sp]\n   888: a1 = reverse a1\n   890: a2 = u64 [sp + 0x8]\n   893: a2 = reverse a2\n   895: a3 = u64 [sp + 0x10]\n   898: a3 = reverse a3\n   900: a4 = u64 [sp + 0x18]\n   903: a4 = reverse a4\n   905: u64 [sp + 0x58] = a4\n   908: u64 [sp + 0x50] = a3\n   911: u64 [sp + 0x48] = a2\n   914: u64 [sp + 0x40] = a1\n   917: a1 = u64 [sp + 0x20]\n   920: a1 = reverse a1\n   922: a2 = u64 [sp + 0x28]\n   925: a2 = reverse a2\n   927: a3 = u64 [sp + 0x30]\n   930: a3 = reverse a3\n   932: a4 = u64 [sp + 0x38]\n   935: a4 = reverse a4\n   937: u64 [sp + 0x78] = a4\n   940: u64 [sp + 0x70] = a3\n   943: u64 [sp + 0x68] = a2\n   946: u64 [sp + 0x60] = a1\n   949: i32 a2 = a0 + 0\n   951: i32 a3 = s1 + 0\n   953: i32 a0 = sp + 0x40\n   956: a1 = 0x2\n   959: ecalli 4 // 'deposit_event'\n   961: sp = s0 + 0xffffffffffffff60\n   965: ra = u64 [sp + 0x98]\n   969: s0 = u64 [sp + 0x90]\n   973: s1 = u64 [sp + 0x88]\n   977: sp = sp + 0xa0\n   981: ret\n      : @10 (gas: 41)\n   983: sp = sp + 0xfffffffffffffee0\n   987: u64 [sp + 0x118] = ra\n   991: u64 [sp + 0x110] = s0\n   995: u64 [sp + 0x108] = s1\n   999: s0 = sp + 0x120\n  1003: sp = sp & 0xffffffffffffffe0\n  1006: s1 = u64 [a5]\n  1008: u64 [sp + 0x60] = s1\n  1011: s1 = u64 [a5 + 0x8]\n  1014: u64 [sp + 0x68] = s1\n  1017: s1 = u64 [a5 + 0x10]\n  1020: u64 [sp + 0x70] = s1\n  1023: a5 = u64 [a5 + 0x18]\n  1026: u64 [sp + 0x78] = a5\n  1029: a5 = u64 [a4]\n  1031: u64 [sp + 0x38] = a5\n  1034: a5 = u64 [a4 + 0x8]\n  1037: u64 [sp + 0x40] = a5\n  1040: a5 = u64 [a4 + 0x10]\n  1043: u64 [sp + 0x48] = a5\n  1046: a4 = u64 [a4 + 0x18]\n  1049: u64 [sp + 0x50] = a4\n  1052: t0 = 0x8\n  1055: a4 = u64 [a3]\n  1057: u64 [sp + 0x18] = a4\n  1060: a4 = u64 [a3 + 0x8]\n  1063: u64 [sp + 0x20] = a4\n  1066: a4 = u64 [a3 + 0x10]\n  1069: u64 [sp + 0x28] = a4\n  1072: a3 = u64 [a3 + 0x18]\n  1075: u64 [sp + 0x30] = a3\n  1078: s1 = u64 [a2]\n  1080: a3 = u64 [a2 + 0x8]\n  1083: u64 [sp] = a3\n  1085: a3 = u64 [a2 + 0x10]\n  1088: u64 [sp + 0x8] = a3\n  1091: a2 = u64 [a2 + 0x18]\n  1094: u64 [sp + 0x10] = a2\n  1097: u64 [sp + 0x58] = a1\n  1100: ra = 0xa\n  1103: jump @13\n      : @11 [@dyn 4] (gas: 2)\n  1106: u64 [sp + 0x58] = a1\n  1109: ra = 10, jump @13\n      : @12 [@dyn 5] (gas: 58)\n  1114: a1 = reverse s1\n  1116: u64 [sp + 0x98] = a1\n  1120: a1 = u64 [sp]\n  1122: a1 = reverse a1\n  1124: u64 [sp + 0x90] = a1\n  1128: a1 = u64 [sp + 0x8]\n  1131: a1 = reverse a1\n  1133: u64 [sp + 0x88] = a1\n  1137: a1 = u64 [sp + 0x10]\n  1140: a1 = reverse a1\n  1142: u64 [sp + 0x80] = a1\n  1146: a1 = u64 [sp + 0x18]\n  1149: a1 = reverse a1\n  1151: u64 [sp + 0xb8] = a1\n  1155: a1 = u64 [sp + 0x20]\n  1158: a1 = reverse a1\n  1160: u64 [sp + 0xb0] = a1\n  1164: a1 = u64 [sp + 0x28]\n  1167: a1 = reverse a1\n  1169: u64 [sp + 0xa8] = a1\n  1173: a1 = u64 [sp + 0x30]\n  1176: a1 = reverse a1\n  1178: u64 [sp + 0xa0] = a1\n  1182: a1 = u64 [sp + 0x38]\n  1185: a1 = reverse a1\n  1187: u64 [sp + 0xd8] = a1\n  1191: a1 = u64 [sp + 0x40]\n  1194: a1 = reverse a1\n  1196: u64 [sp + 0xd0] = a1\n  1200: a1 = u64 [sp + 0x48]\n  1203: a1 = reverse a1\n  1205: u64 [sp + 0xc8] = a1\n  1209: a1 = u64 [sp + 0x50]\n  1212: a1 = reverse a1\n  1214: u64 [sp + 0xc0] = a1\n  1218: a1 = u64 [sp + 0x60]\n  1221: a1 = reverse a1\n  1223: u64 [sp + 0xf8] = a1\n  1227: a1 = u64 [sp + 0x68]\n  1230: a1 = reverse a1\n  1232: u64 [sp + 0xf0] = a1\n  1236: a1 = u64 [sp + 0x70]\n  1239: a1 = reverse a1\n  1241: u64 [sp + 0xe8] = a1\n  1245: a1 = u64 [sp + 0x78]\n  1248: a1 = reverse a1\n  1250: u64 [sp + 0xe0] = a1\n  1254: i32 a2 = a0 + 0\n  1256: a3 = i32 [sp + 0x58]\n  1259: i32 a0 = sp + 0x80\n  1263: a1 = 0x4\n  1266: ecalli 4 // 'deposit_event'\n  1268: sp = s0 + 0xfffffffffffffee0\n  1272: ra = u64 [sp + 0x118]\n  1276: s0 = u64 [sp + 0x110]\n  1280: s1 = u64 [sp + 0x108]\n  1284: sp = sp + 0x120\n  1288: ret\n      : @13 (gas: 2)\n  1290: i32 a2 = a0 >> 0x10\n  1293: jump @18 if a2 != 0\n      : @14 (gas: 4)\n  1296: a1 = a1 + a0\n  1299: i32 a1 = a1 + 0x1f\n  1302: a1 = a1 & 0xffffffffffffffe0\n  1305: jump @18 if a1 >u 65536\n      : @15 (gas: 3)\n  1311: a2 = 0x2021c\n  1316: a3 = i32 [0x2021c]\n  1321: jump @17 if a3 >=u a1\n      : @16 (gas: 2)\n  1324: u32 [0x2021c] = a1\n  1329: fallthrough\n      : @17 (gas: 4)\n  1330: a1 = 0x20230\n  1335: i32 a0 = a0 + 0\n  1337: a0 = a0 + a1\n  1340: ret\n      : @18 (gas: 1)\n  1342: trap\n      : @19 (gas: 6)\n  1343: sp = sp + 0xfffffffffffffff0\n  1346: u64 [sp + 0x8] = ra\n  1349: u64 [sp] = s0\n  1351: s0 = a0 & 0x1\n  1354: ecalli 2 // 'call_data_size'\n  1356: fallthrough\n      : @20 (gas: 2)\n  1357: u32 [0x20218] = a0\n  1362: jump @22 if s0 == 0\n      : @21 (gas: 1)\n  1365: ra = 12, jump @23\n      : @22 [@dyn 6] (gas: 1)\n  1369: ra = 14, jump @44\n      : @23 [@dyn 7] (gas: 14)\n  1374: sp = sp + 0xfffffffffffffe60\n  1378: u64 [sp + 0x198] = ra\n  1382: u64 [sp + 0x190] = s0\n  1386: u64 [sp + 0x188] = s1\n  1390: s0 = sp + 0x1a0\n  1394: sp = sp & 0xffffffffffffffe0\n  1397: s1 = sp\n  1399: u64 [s1 + 216] = 0\n  1403: u64 [s1 + 208] = 0\n  1407: u64 [s1 + 192] = 0x80\n  1413: a0 = 0x40\n  1416: a1 = s1 + 0xc0\n  1420: u64 [s1 + 200] = 0\n  1424: ra = 16, jump @4\n      : @24 [@dyn 8] (gas: 7)\n  1429: u64 [s1 + 248] = 0\n  1433: u64 [s1 + 240] = 0\n  1437: u64 [s1 + 232] = 0\n  1441: u64 [s1 + 224] = 0\n  1445: i32 a0 = s1 + 0xe0\n  1449: ecalli 11 // 'value_transferred'\n  1451: fallthrough\n      : @25 (gas: 8)\n  1452: a0 = u64 [s1 + 0xf0]\n  1456: a1 = u64 [s1 + 0xf8]\n  1460: a2 = u64 [s1 + 0xe8]\n  1464: a3 = u64 [s1 + 0xe0]\n  1468: a1 = a1 | a2\n  1471: a0 = a0 | a3\n  1474: a0 = a0 | a1\n  1477: jump @27 if a0 == 0\n      : @26 (gas: 7)\n  1480: a1 = 0x20230\n  1485: i32 a1 = a1 + 0\n  1487: a0 = 0x1\n  1490: a2 = 0\n  1492: ra = 0x28\n  1495: ecalli 8 // 'seal_return'\n  1497: jump @44\n      : @27 (gas: 29)\n  1500: a0 = 0x30230\n  1505: u64 [s1 + 0x38] = a0\n  1508: i32 a0 = a0 + 0\n  1510: u64 [s1 + 0x30] = a0\n  1513: ecalli 3 // 'caller'\n  1515: a2 = u64 [s1 + 0x38]\n  1518: a0 = u64 [a2 + 0x8]\n  1521: a1 = i32 [a2 + 0x10]\n  1524: a2 = u64 [a2]\n  1526: a0 = reverse a0\n  1528: a3 = a0 << 0x20\n  1531: a1 = reverse a1\n  1533: a1 = a1 >> 0x20\n  1536: a1 = a1 | a3\n  1539: u64 [s1 + 0x28] = a1\n  1542: a0 = a0 >> 0x20\n  1545: a1 = reverse a2\n  1547: a2 = a1 << 0x20\n  1550: a0 = a0 | a2\n  1553: u64 [s1 + 0x20] = a0\n  1556: a1 = a1 >> 0x20\n  1559: u64 [s1 + 0x18] = a1\n  1562: u64 [s1 + 280] = 0\n  1566: u64 [s1 + 272] = 0\n  1570: u64 [s1 + 264] = 0\n  1574: u64 [s1 + 256] = 0\n  1578: a0 = s1 + 0xa0\n  1582: a1 = s1 + 0x100\n  1586: ra = 18, jump @6\n      : @28 [@dyn 9] (gas: 19)\n  1591: a0 = u32 [s1 + 0xb4]\n  1595: a0 = a0 << 0x20\n  1598: a1 = u64 [s1 + 0xb8]\n  1602: a2 = u64 [s1 + 0x18]\n  1605: a0 = a0 | a2\n  1608: u64 [s1 + 312] = 0\n  1612: u64 [s1 + 304] = 0\n  1616: u64 [s1 + 296] = 0\n  1620: u64 [s1 + 288] = 0\n  1624: a2 = s1 + 0x100\n  1628: u64 [a2 + 0x58] = a1\n  1631: a1 = u64 [s1 + 0x20]\n  1634: u64 [a2 + 0x48] = a1\n  1637: a1 = u64 [s1 + 0x28]\n  1640: u64 [a2 + 0x40] = a1\n  1643: u64 [a2 + 0x50] = a0\n  1646: a0 = s1 + 0x120\n  1650: a1 = s1 + 0x140\n  1654: ra = 20, jump @7\n      : @29 [@dyn 10] (gas: 6)\n  1659: a0 = u64 [s1 + 0x30]\n  1662: ra = 0x16\n  1665: ecalli 3 // 'caller'\n  1667: a2 = u64 [s1 + 0x38]\n  1670: t0 = 0x18\n  1673: jump @880\n      : @30 [@dyn 11] (gas: 2)\n  1676: a2 = u64 [s1 + 0x38]\n  1679: t0 = 24, jump @880\n      : @31 [@dyn 12] (gas: 7)\n  1684: u64 [s1 + 152] = 0\n  1688: u64 [s1 + 0x90] = a1\n  1692: u64 [s1 + 0x88] = a0\n  1696: a1 = s1 + 0x80\n  1700: u64 [s1 + 0x80] = a3\n  1704: a0 = 0\n  1706: ra = 26, jump @4\n      : @32 [@dyn 13] (gas: 7)\n  1711: u64 [s1 + 120] = 0\n  1714: u64 [s1 + 112] = 0\n  1717: u64 [s1 + 96] = 0x1\n  1721: a0 = 0x20\n  1724: a1 = s1 + 0x60\n  1727: u64 [s1 + 104] = 0\n  1730: ra = 28, jump @4\n      : @33 [@dyn 14] (gas: 7)\n  1735: a0 = sp + 0xffffffffffffffe0\n  1738: a0 = a0 & 0xffffffffffffffe0\n  1741: u64 [s1 + 0x38] = a0\n  1744: sp = a0\n  1746: a2 = 0x2021c\n  1751: a0 = i32 [0x2021c]\n  1756: jump @35 if a0 >u 63\n      : @34 (gas: 2)\n  1760: u32 [0x2021c] = 0x40\n  1766: fallthrough\n      : @35 (gas: 15)\n  1767: a0 = sp + 0xffffffffffffffe0\n  1770: a1 = a0 & 0xffffffffffffffe0\n  1773: u64 [s1 + 0x20] = a1\n  1776: sp = a1\n  1778: a0 = 0x20230\n  1783: u64 [s1 + 0x28] = a0\n  1786: i32 a0 = a0 + 0\n  1788: u64 [s1 + 0x30] = a2\n  1791: i32 a2 = a1 + 0\n  1793: a1 = 0x40\n  1796: ra = 0x1e\n  1799: ecalli 6 // 'hash_keccak_256'\n  1801: a3 = u64 [s1 + 0x20]\n  1804: t0 = 0x20\n  1807: jump @879\n      : @36 [@dyn 15] (gas: 2)\n  1810: a3 = u64 [s1 + 0x20]\n  1813: t0 = 32, jump @879\n      : @37 [@dyn 16] (gas: 7)\n  1818: a1 = u64 [s1 + 0x38]\n  1821: u64 [a1 + 0x18] = a3\n  1824: u64 [a1 + 0x10] = a2\n  1827: u64 [a1 + 0x8] = a4\n  1830: u64 [a1] = a0\n  1832: a0 = s1 + 0x40\n  1835: ra = 34, jump @6\n      : @38 [@dyn 17] (gas: 14)\n  1840: a0 = u64 [s1 + 0x40]\n  1843: a1 = u64 [s1 + 0x48]\n  1846: a2 = u64 [s1 + 0x58]\n  1849: a3 = u64 [s1 + 0x50]\n  1852: a0 = a0 & 0xffffffffffffff00\n  1856: a0 = a0 | 0x1\n  1859: a4 = s1 + 0x100\n  1863: u64 [a4 + 0x78] = a2\n  1866: u64 [a4 + 0x70] = a3\n  1869: u64 [a4 + 0x68] = a1\n  1872: u64 [a4 + 0x60] = a0\n  1875: a1 = s1 + 0x160\n  1879: a0 = u64 [s1 + 0x38]\n  1882: ra = 36, jump @7\n      : @39 [@dyn 18] (gas: 3)\n  1887: a2 = u64 [s1 + 0x30]\n  1890: a0 = i32 [a2]\n  1892: jump @41 if a0 >u 127\n      : @40 (gas: 2)\n  1896: u32 [a2 + 0] = 0x80\n  1900: fallthrough\n      : @41 (gas: 6)\n  1901: a0 = u64 [s1 + 0x28]\n  1904: i32 a0 = a0 + 0x80\n  1908: a1 = 0\n  1910: a2 = 0\n  1912: ecalli 0 // 'call_data_copy'\n  1913: jump @0\n      : @42 (gas: 3)\n  1916: a0 = 0x80\n  1920: a1 = 0\n  1922: ra = 38, jump @13\n      : @43 [@dyn 19] (gas: 6)\n  1927: i32 a1 = a0 + 0\n  1929: a0 = 0\n  1931: a2 = 0\n  1933: ra = 0x28\n  1936: ecalli 8 // 'seal_return'\n  1938: fallthrough\n      : @44 [@dyn 20] (gas: 11)\n  1939: sp = sp + 0xfffffffffffffe10\n  1943: u64 [sp + 0x1e8] = ra\n  1947: u64 [sp + 0x1e0] = s0\n  1951: u64 [sp + 0x1d8] = s1\n  1955: s0 = sp + 0x1f0\n  1959: sp = sp + 0xffffffffffffd6f0\n  1963: sp = sp & 0xffffffffffffffe0\n  1966: s1 = sp\n  1968: t0 = 0x2a\n  1971: a2 = s1 + 0x2118\n  1975: fallthrough\n      : @45 [@dyn 21] (gas: 7)\n  1976: u64 [a2 + 704] = 0\n  1980: u64 [a2 + 696] = 0\n  1984: u64 [a2 + 680] = 0x80\n  1990: a0 = 0x40\n  1993: a1 = s1 + 0x23c0\n  1997: u64 [a2 + 688] = 0\n  2001: ra = 44, jump @4\n      : @46 [@dyn 22] (gas: 4)\n  2006: a0 = 0x20218\n  2011: u64 [s1 + 0x1b8] = a0\n  2015: a0 = i32 [0x20218]\n  2020: jump @48 if a0 >=u 4\n      : @47 (gas: 1)\n  2024: jump @615\n      : @48 (gas: 16)\n  2027: a0 = sp + 0xffffffffffffffe0\n  2030: a0 = a0 & 0xffffffffffffffe0\n  2033: sp = a0\n  2035: u64 [a0 + 24] = 0\n  2038: u64 [a0 + 16] = 0\n  2041: u64 [a0 + 8] = 0\n  2044: u64 [s1 + 0x1b0] = a0\n  2048: u64 [a0 + 0] = 0\n  2050: a0 = s1 + 0x2000\n  2054: i32 a0 = a0 + 0x3e0\n  2058: a1 = 0\n  2060: ra = 0x2e\n  2063: ecalli 1 // 'call_data_load'\n  2065: t0 = 0x30\n  2068: a2 = s1 + 0x2118\n  2072: jump @50\n      : @49 [@dyn 23] (gas: 3)\n  2074: t0 = 0x30\n  2077: a2 = s1 + 0x2118\n  2081: fallthrough\n      : @50 [@dyn 24] (gas: 2)\n  2082: a0 = i32 [a2 + 0x2e4]\n  2086: jump @52 if a0 != 2376452955\n      : @51 (gas: 1)\n  2093: jump @243\n      : @52 (gas: 2)\n  2096: a3 = s1 + 0x2918\n  2100: jump @54 if a0 != 2463195076\n      : @53 (gas: 1)\n  2107: jump @399\n      : @54 (gas: 1)\n  2110: jump @56 if a0 != 2887682958\n      : @55 (gas: 1)\n  2117: jump @366\n      : @56 (gas: 1)\n  2120: jump @90 if a0 == 4076725131\n      : @57 (gas: 1)\n  2128: jump @59 if a0 != 4164732904\n      : @58 (gas: 1)\n  2135: jump @223\n      : @59 (gas: 1)\n  2138: jump @61 if a0 != 288268898\n      : @60 (gas: 1)\n  2145: jump @335\n      : @61 (gas: 1)\n  2148: jump @63 if a0 != 299143052\n      : @62 (gas: 1)\n  2155: jump @255\n      : @63 (gas: 1)\n  2158: jump @121 if a0 == 385331068\n      : @64 (gas: 1)\n  2166: jump @66 if a0 == 1776040674\n      : @65 (gas: 1)\n  2173: jump @420\n      : @66 (gas: 11)\n  2176: u64 [a2 + 1728] = 0\n  2180: u64 [a2 + 1720] = 0\n  2184: u64 [a2 + 1712] = 0\n  2188: u64 [a2 + 1704] = 0\n  2192: a0 = s1 + 0x2000\n  2196: i32 a0 = a0 + 0x7c0\n  2200: ra = 0x32\n  2203: ecalli 11 // 'value_transferred'\n  2205: a0 = 0x2000\n  2209: t0 = 0x34\n  2212: jump @891\n      : @67 [@dyn 25] (gas: 2)\n  2215: a0 = 0x2000\n  2219: t0 = 52, jump @891\n      : @68 [@dyn 26] (gas: 8)\n  2224: a0 = u64 [a4 + 0xb8]\n  2228: a1 = u64 [a4 + 0xc0]\n  2232: a2 = u64 [a4 + 0xb0]\n  2236: a3 = u64 [a4 + 0xa8]\n  2240: a1 = a1 | a2\n  2243: a0 = a0 | a3\n  2246: a0 = a0 | a1\n  2249: jump @70 if a0 == 0\n      : @69 (gas: 1)\n  2252: jump @612\n      : @70 (gas: 1)\n  2255: t0 = 54, jump @890\n      : @71 [@dyn 27] (gas: 1)\n  2260: jump @73 if a1 <u a0\n      : @72 (gas: 1)\n  2263: jump @612\n      : @73 (gas: 5)\n  2266: a0 = s1 + 0x2000\n  2270: i32 a0 = a0 + 0x7e0\n  2274: a1 = 0x4\n  2277: ecalli 1 // 'call_data_load'\n  2279: fallthrough\n      : @74 (gas: 11)\n  2280: a4 = s1 + 0x2118\n  2284: a1 = u64 [a4 + 0x6d8]\n  2288: a0 = u64 [a4 + 0x6e0]\n  2292: a2 = 0x100000000\n  2302: a2 = a2 ^ a1\n  2305: a2 = a2 | a0\n  2308: a3 = a1 >> 0x20\n  2311: a3 = a3 <u 0x1\n  2314: a3 = 0 if a0 != 0\n  2316: a3 = 0 if a2 == 0\n  2318: jump @76 if a3 != 0\n      : @75 (gas: 1)\n  2321: jump @612\n      : @76 (gas: 11)\n  2324: a2 = u64 [a4 + 0x6d0]\n  2328: a3 = u64 [a4 + 0x6c8]\n  2332: a4 = s1 + 0x1918\n  2336: a5 = a4 + 0x200\n  2340: u64 [a5 + 0x88] = a3\n  2344: u64 [a5 + 0x90] = a2\n  2348: u64 [a5 + 0x98] = a1\n  2352: a1 = s1 + 0x1ba0\n  2356: u64 [a5 + 0xa0] = a0\n  2360: a0 = 0\n  2362: ra = 56, jump @4\n      : @77 [@dyn 28] (gas: 3)\n  2367: t0 = 0x3a\n  2370: a2 = s1 + 0x1918\n  2374: fallthrough\n      : @78 [@dyn 29] (gas: 7)\n  2375: u64 [a2 + 640] = 0\n  2379: u64 [a2 + 632] = 0\n  2383: u64 [a2 + 616] = 0x1\n  2388: a0 = 0x20\n  2391: a1 = s1 + 0x1b80\n  2395: u64 [a2 + 624] = 0\n  2399: ra = 60, jump @4\n      : @79 [@dyn 30] (gas: 3)\n  2404: a1 = 0x40\n  2407: a0 = 0\n  2409: ra = 62, jump @13\n      : @80 [@dyn 31] (gas: 4)\n  2414: a1 = sp + 0xffffffffffffffe0\n  2417: a1 = a1 & 0xffffffffffffffe0\n  2420: u64 [s1 + 0x1b8] = a1\n  2424: t0 = 64, jump @870\n      : @81 [@dyn 32] (gas: 5)\n  2429: ra = 0x42\n  2432: ecalli 6 // 'hash_keccak_256'\n  2434: a3 = u64 [s1 + 0x1b8]\n  2438: t0 = 0x44\n  2441: jump @872\n      : @82 [@dyn 33] (gas: 2)\n  2444: a3 = u64 [s1 + 0x1b8]\n  2448: t0 = 68, jump @872\n      : @83 [@dyn 34] (gas: 8)\n  2453: u64 [a4 + 0x700] = a3\n  2457: a3 = a4 + 0x600\n  2461: u64 [a3 + 0xf8] = a2\n  2465: u64 [a3 + 0xf0] = a1\n  2469: u64 [a3 + 0xe8] = a0\n  2473: a0 = s1 + 0x1b60\n  2477: a1 = s1 + 0x2800\n  2481: ra = 70, jump @6\n      : @84 [@dyn 35] (gas: 6)\n  2486: a0 = s1 + 0x1918\n  2490: a0 = u64 [a0 + 0x248]\n  2494: u64 [s1 + 0x1b8] = a0\n  2498: a0 = s1 + 0x1b40\n  2502: a1 = 0x40\n  2505: ra = 72, jump @2\n      : @85 [@dyn 36] (gas: 7)\n  2510: a3 = s1 + 0x1918\n  2514: a5 = a3 + 0x200\n  2518: a4 = u64 [a5 + 0x40]\n  2521: a1 = u64 [a5 + 0x38]\n  2524: a2 = u64 [a5 + 0x30]\n  2527: a0 = u64 [a5 + 0x28]\n  2530: t0 = 74, jump @882\n      : @86 [@dyn 37] (gas: 1)\n  2535: jump @88 if a1 == 0\n      : @87 (gas: 1)\n  2538: jump @558\n      : @88 (gas: 1)\n  2541: t0 = 76, jump @889\n      : @89 [@dyn 38] (gas: 6)\n  2546: i32 a1 = a1 + 0xfffffffffffffb20\n  2550: a1 = a1 + s1\n  2553: u64 [a3 + 528] = 0\n  2557: u64 [s1 + 0x1b8] = a0\n  2561: ra = 0x1c2\n  2565: jump @4\n      : @90 (gas: 9)\n  2568: u64 [a3 + 256] = 0\n  2572: u64 [a3 + 248] = 0\n  2576: u64 [a3 + 240] = 0\n  2580: u64 [a3 + 232] = 0\n  2584: a0 = s1 + 0x3000\n  2588: i32 a0 = a0 + 0xfffffffffffffa00\n  2592: ra = 0x4e\n  2595: ecalli 11 // 'value_transferred'\n  2597: fallthrough\n      : @91 [@dyn 39] (gas: 9)\n  2598: a3 = s1 + 0x2918\n  2602: a0 = u64 [a3 + 0xf8]\n  2606: a1 = u64 [a3 + 0x100]\n  2610: a2 = u64 [a3 + 0xf0]\n  2614: a3 = u64 [a3 + 0xe8]\n  2618: a1 = a1 | a2\n  2621: a0 = a0 | a3\n  2624: a0 = a0 | a1\n  2627: jump @93 if a0 == 0\n      : @92 (gas: 1)\n  2630: jump @612\n      : @93 (gas: 1)\n  2633: t0 = 80, jump @890\n      : @94 [@dyn 40] (gas: 1)\n  2638: jump @96 if a1 <u a0\n      : @95 (gas: 1)\n  2641: jump @612\n      : @96 (gas: 5)\n  2644: a0 = s1 + 0x3000\n  2648: i32 a0 = a0 + 0xfffffffffffffa20\n  2652: a1 = 0x4\n  2655: ecalli 1 // 'call_data_load'\n  2657: fallthrough\n      : @97 (gas: 12)\n  2658: a2 = s1 + 0x2918\n  2662: a3 = u64 [a2 + 0x118]\n  2666: a4 = u64 [a2 + 0x120]\n  2670: a0 = 0x100000000\n  2680: a0 = a0 ^ a3\n  2683: a0 = a0 | a4\n  2686: a1 = a3 >> 0x20\n  2689: a1 = a1 <u 0x1\n  2692: u64 [s1 + 0x170] = a4\n  2696: a1 = 0 if a4 != 0\n  2698: a1 = 0 if a0 == 0\n  2700: jump @99 if a1 != 0\n      : @98 (gas: 1)\n  2703: jump @617\n      : @99 (gas: 11)\n  2706: a0 = u64 [a2 + 0x110]\n  2710: u64 [s1 + 0x198] = a0\n  2714: a0 = u64 [a2 + 0x108]\n  2718: u64 [s1 + 0x190] = a0\n  2722: u64 [s1 + 0x178] = a3\n  2726: a0 = a3 << 0x20\n  2729: a0 = a0 >> 0x20\n  2732: u64 [s1 + 0x188] = a0\n  2736: a0 = s1 + 0x2300\n  2740: a1 = u64 [s1 + 0x1b0]\n  2744: ra = 82, jump @6\n      : @100 [@dyn 41] (gas: 18)\n  2749: a1 = s1 + 0x2118\n  2753: a0 = u64 [a1 + 0x200]\n  2757: u64 [s1 + 0x168] = a0\n  2761: a2 = a1 + 0x100\n  2765: a0 = u64 [a2 + 0xf8]\n  2769: u64 [s1 + 0x1b8] = a0\n  2773: a0 = u64 [a2 + 0xf0]\n  2777: u64 [s1 + 0x1a0] = a0\n  2781: a0 = u64 [a2 + 0xe8]\n  2785: u64 [s1 + 0x1a8] = a0\n  2789: a0 = 0x30230\n  2794: u64 [s1 + 0x180] = a0\n  2798: i32 a0 = a0 + 0\n  2800: ra = 0x54\n  2803: ecalli 3 // 'caller'\n  2805: a2 = u64 [s1 + 0x180]\n  2809: t0 = 0x56\n  2812: jump @871\n      : @101 [@dyn 42] (gas: 2)\n  2815: a2 = u64 [s1 + 0x180]\n  2819: t0 = 86, jump @871\n      : @102 [@dyn 43] (gas: 20)\n  2824: a2 = u64 [s1 + 0x1b8]\n  2828: a2 = a2 << 0x20\n  2831: a2 = a2 >> 0x20\n  2834: a1 = a1 ^ a2\n  2837: a2 = u64 [s1 + 0x1a8]\n  2841: a0 = a0 ^ a2\n  2844: a0 = a0 | a1\n  2847: a1 = u64 [s1 + 0x1a0]\n  2851: a1 = a1 ^ a3\n  2854: a0 = a0 | a1\n  2857: a0 = a0 <u 0x1\n  2860: a1 = s1 + 0x2118\n  2864: u64 [a1 + 480] = 0\n  2868: u64 [a1 + 472] = 0\n  2872: u64 [a1 + 0x1c8] = a0\n  2876: a0 = s1 + 0x22e0\n  2880: u64 [a1 + 464] = 0\n  2884: ra = 0x58\n  2887: t0 = 0x2ec\n  2891: jump @859\n      : @103 [@dyn 44] (gas: 7)\n  2894: a0 = s1 + 0x100\n  2898: a5 = u64 [a0 + 0x88]\n  2902: a4 = u64 [a0 + 0x98]\n  2906: a3 = u64 [a0 + 0x90]\n  2910: a0 = a3 | a4\n  2913: a0 = a0 | a5\n  2916: jump @105 if a0 == 0\n      : @104 (gas: 1)\n  2919: jump @459\n      : @105 (gas: 3)\n  2922: a0 = s1 + 0x21c0\n  2926: a1 = 0x40\n  2929: ra = 90, jump @2\n      : @106 [@dyn 45] (gas: 13)\n  2934: a4 = s1 + 0x2118\n  2938: t0 = u64 [a4 + 0xc0]\n  2942: a5 = u64 [a4 + 0xb8]\n  2946: a3 = u64 [a4 + 0xb0]\n  2950: a0 = u64 [a4 + 0xa8]\n  2954: a2 = a3 | t0\n  2957: a1 = a0 | a5\n  2960: a1 = a1 | a2\n  2963: a1 = a1 >> 0x20\n  2966: a2 = a2 | a5\n  2969: a2 = a2 << 0x20\n  2972: a1 = a1 | a2\n  2975: jump @108 if a1 == 0\n      : @107 (gas: 1)\n  2978: jump @558\n      : @108 (gas: 11)\n  2981: u64 [a4 + 152] = 0\n  2985: u64 [a4 + 144] = 0\n  2989: u64 [a4 + 136] = 0\n  2993: u64 [s1 + 0x1b0] = a3\n  2997: a3 = 0x8c379a000000000\n  3007: a1 = s1 + 0x21a0\n  3011: u64 [a4 + 0xa0] = a3\n  3015: u64 [s1 + 0x1b8] = a0\n  3019: u64 [s1 + 0x1a8] = t0\n  3023: u64 [s1 + 0x1a0] = a5\n  3027: ra = 92, jump @4\n      : @109 [@dyn 46] (gas: 6)\n  3032: a5 = s1 + 0x100\n  3036: a1 = u64 [a5 + 0xb8]\n  3040: a0 = u64 [a5 + 0xa8]\n  3044: a3 = u64 [a5 + 0xa0]\n  3048: a3 = a3 | a0\n  3051: t0 = 94, jump @862\n      : @110 [@dyn 47] (gas: 1)\n  3056: jump @112 if a0 != 0\n      : @111 (gas: 1)\n  3059: jump @558\n      : @112 (gas: 11)\n  3062: i32 a0 = a1 + 0x4\n  3065: a2 = s1 + 0x2118\n  3069: a5 = 0\n  3071: u64 [a2 + 128] = 0\n  3075: u64 [a2 + 120] = 0\n  3078: u64 [a2 + 104] = 0x20\n  3082: a1 = s1 + 0x2180\n  3086: u64 [a2 + 112] = 0\n  3089: u64 [s1 + 0x1a8] = a3\n  3093: u64 [s1 + 0x1a0] = a4\n  3097: ra = 96, jump @4\n      : @113 [@dyn 48] (gas: 1)\n  3102: t0 = 98, jump @867\n      : @114 [@dyn 49] (gas: 1)\n  3107: jump @116 if a0 != 0\n      : @115 (gas: 1)\n  3110: jump @558\n      : @116 (gas: 8)\n  3113: i32 a0 = a1 + 0x24\n  3116: a2 = s1 + 0x2118\n  3120: u64 [a2 + 96] = 0\n  3123: u64 [a2 + 88] = 0\n  3126: u64 [a2 + 72] = 0x19\n  3130: a1 = s1 + 0x2160\n  3134: u64 [a2 + 80] = 0\n  3137: ra = 100, jump @4\n      : @117 [@dyn 50] (gas: 1)\n  3142: t0 = 102, jump @863\n      : @118 [@dyn 51] (gas: 1)\n  3147: jump @120 if a0 != 0\n      : @119 (gas: 1)\n  3150: jump @558\n      : @120 (gas: 13)\n  3153: i32 a0 = a3 + 0x44\n  3156: a1 = u64 [0x20020]\n  3161: a2 = u64 [0x20028]\n  3166: a3 = u64 [0x20030]\n  3171: a4 = s1 + 0x2118\n  3175: u64 [a4 + 0x40] = a1\n  3178: u64 [a4 + 0x38] = a2\n  3181: u64 [a4 + 0x30] = a3\n  3184: a2 = 0x7300000000000000\n  3194: a1 = s1 + 0x2140\n  3198: u64 [a4 + 0x28] = a2\n  3201: ra = 0x26c\n  3205: jump @4\n      : @121 (gas: 9)\n  3208: u64 [a2 + 1408] = 0\n  3212: u64 [a2 + 1400] = 0\n  3216: u64 [a2 + 1392] = 0\n  3220: u64 [a2 + 1384] = 0\n  3224: a0 = s1 + 0x2000\n  3228: i32 a0 = a0 + 0x680\n  3232: ra = 0x68\n  3235: ecalli 11 // 'value_transferred'\n  3237: fallthrough\n      : @122 [@dyn 52] (gas: 10)\n  3238: a3 = s1 + 0x2118\n  3242: a4 = a3 + 0x500\n  3246: a0 = u64 [a4 + 0x78]\n  3249: a1 = u64 [a4 + 0x80]\n  3253: a2 = u64 [a4 + 0x70]\n  3256: a3 = u64 [a4 + 0x68]\n  3259: a1 = a1 | a2\n  3262: a0 = a0 | a3\n  3265: a0 = a0 | a1\n  3268: jump @124 if a0 == 0\n      : @123 (gas: 1)\n  3271: jump @612\n      : @124 (gas: 1)\n  3274: t0 = 106, jump @890\n      : @125 [@dyn 53] (gas: 1)\n  3279: jump @127 if a1 <u a0\n      : @126 (gas: 1)\n  3282: jump @612\n      : @127 (gas: 5)\n  3285: a0 = s1 + 0x2000\n  3289: i32 a0 = a0 + 0x6a0\n  3293: a1 = 0x4\n  3296: ecalli 1 // 'call_data_load'\n  3298: fallthrough\n      : @128 (gas: 8)\n  3299: a3 = s1 + 0x2118\n  3303: t2 = u64 [a3 + 0x5a0]\n  3307: a1 = u64 [a3 + 0x598]\n  3311: a5 = u64 [a3 + 0x590]\n  3315: a4 = a1 | t2\n  3318: a0 = a5 <u 0x1\n  3321: a0 = 0 if a4 != 0\n  3323: jump @130 if a0 != 0\n      : @129 (gas: 1)\n  3326: jump @613\n      : @130 (gas: 31)\n  3329: u64 [s1 + 0x1a0] = a4\n  3333: a2 = u64 [a3 + 0x588]\n  3337: a0 = u64 [s1 + 0x1b8]\n  3341: t1 = u32 [a0]\n  3343: a0 = t1 <u a2\n  3346: a3 = a5 >u 0\n  3348: a3 = a0 if a5 == 0\n  3351: a4 = -a1\n  3353: t0 = a4 - a3\n  3356: a3 = a4 <u a3\n  3359: u64 [s1 + 0x188] = a1\n  3363: a4 = a1 >u 0\n  3365: u64 [s1 + 0x190] = t2\n  3369: a4 = a4 + t2\n  3372: a4 = -a4\n  3374: a4 = a4 - a3\n  3377: a3 = -a5\n  3379: a3 = a3 - a0\n  3382: u64 [s1 + 0x1b0] = a2\n  3386: a1 = t1 - a2\n  3389: a1 = a1 <u 0x104\n  3393: a1 = a1 ^ 0x1\n  3396: a2 = a3 >u 0\n  3398: a2 = a1 if a3 == 0\n  3401: a1 = a4 >s 0\n  3403: a3 = t0 >u 0\n  3405: a3 = a1 if a4 != 0\n  3408: a0 = t0 | a4\n  3411: a2 = a3 if a0 != 0\n  3414: u64 [s1 + 0x1a8] = a5\n  3418: jump @132 if a2 != 0\n      : @131 (gas: 1)\n  3421: jump @612\n      : @132 (gas: 9)\n  3424: a0 = 0x30230\n  3429: u64 [s1 + 0x1b8] = a0\n  3433: i32 a0 = a0 + 0\n  3435: u64 [s1 + 0x180] = a0\n  3439: ra = 0x6c\n  3442: ecalli 3 // 'caller'\n  3444: a2 = u64 [s1 + 0x1b8]\n  3448: t0 = 0x6e\n  3451: jump @874\n      : @133 [@dyn 54] (gas: 2)\n  3454: a2 = u64 [s1 + 0x1b8]\n  3458: t0 = 110, jump @874\n      : @134 [@dyn 55] (gas: 8)\n  3463: u64 [a2 + 512] = 0\n  3467: a4 = a2 + 0x100\n  3471: u64 [a4 + 0xf8] = a1\n  3475: u64 [a4 + 0xf0] = a0\n  3479: a1 = s1 + 0x1b00\n  3483: u64 [a4 + 0xe8] = a3\n  3487: a0 = 0\n  3489: ra = 112, jump @4\n      : @135 [@dyn 56] (gas: 9)\n  3494: a0 = s1 + 0x1918\n  3498: u64 [a0 + 480] = 0\n  3502: u64 [a0 + 472] = 0\n  3506: u64 [a0 + 464] = 0\n  3510: a3 = a0\n  3512: a0 = 0x20\n  3515: a1 = s1 + 0x1ae0\n  3519: u64 [a3 + 456] = 0x1\n  3524: ra = 114, jump @4\n      : @136 [@dyn 57] (gas: 3)\n  3529: a1 = 0x40\n  3532: a0 = 0\n  3534: ra = 116, jump @13\n      : @137 [@dyn 58] (gas: 4)\n  3539: a1 = sp + 0xffffffffffffffe0\n  3542: a1 = a1 & 0xffffffffffffffe0\n  3545: u64 [s1 + 0x198] = a1\n  3549: t0 = 118, jump @870\n      : @138 [@dyn 59] (gas: 5)\n  3554: ra = 0x78\n  3557: ecalli 6 // 'hash_keccak_256'\n  3559: a3 = u64 [s1 + 0x198]\n  3563: t0 = 0x7a\n  3566: jump @872\n      : @139 [@dyn 60] (gas: 2)\n  3569: a3 = u64 [s1 + 0x198]\n  3573: t0 = 122, jump @872\n      : @140 [@dyn 61] (gas: 8)\n  3578: a5 = a4 + 0x500\n  3582: u64 [a5 + 0xc0] = a3\n  3586: u64 [a5 + 0xb8] = a2\n  3590: u64 [a5 + 0xb0] = a1\n  3594: u64 [a5 + 0xa8] = a0\n  3598: a0 = s1 + 0x1ac0\n  3602: a1 = s1 + 0x26c0\n  3606: ra = 124, jump @6\n      : @141 [@dyn 62] (gas: 10)\n  3611: a1 = s1 + 0x1918\n  3615: a0 = u8 [a1 + 0x1a8]\n  3619: u64 [a1 + 416] = 0\n  3623: u64 [a1 + 408] = 0\n  3627: u64 [a1 + 0x188] = a0\n  3631: a0 = s1 + 0x1aa0\n  3635: u64 [a1 + 400] = 0\n  3639: ra = 0x7e\n  3642: t0 = 0x30c\n  3646: jump @859\n      : @142 [@dyn 63] (gas: 9)\n  3649: a0 = 0xfffffffc\n  3659: a3 = s1 + 0x100\n  3663: a2 = u64 [a3 + 0xb0]\n  3667: a0 = a2 <u a0\n  3670: a1 = u64 [a3 + 0xa8]\n  3674: a0 = 0 if a1 != 0\n  3676: a1 = u64 [a3 + 0xa0]\n  3680: a0 = 0 if a1 != 0\n  3682: jump @144 if a0 != 0\n      : @143 (gas: 1)\n  3685: jump @558\n      : @144 (gas: 9)\n  3688: a0 = a2 + 0x4\n  3691: u64 [s1 + 0x178] = a0\n  3695: i32 a1 = a0 + 0\n  3697: a0 = s1 + 0x2000\n  3701: i32 a0 = a0 + 0x6e0\n  3705: ecalli 1 // 'call_data_load'\n  3707: t0 = 0x80\n  3711: a2 = s1 + 0x2118\n  3715: fallthrough\n      : @145 [@dyn 64] (gas: 18)\n  3716: a4 = a2 + 0x500\n  3720: a0 = u64 [a4 + 0xe0]\n  3724: a1 = u64 [a4 + 0xd8]\n  3728: a3 = u64 [a4 + 0xd0]\n  3732: a2 = u64 [a4 + 0xc8]\n  3736: u64 [s1 + 0x170] = a0\n  3740: a4 = s1 + 0x1918\n  3744: a5 = a4 + 0x100\n  3748: u64 [a5 + 0x80] = a0\n  3752: u64 [s1 + 0x168] = a1\n  3756: u64 [a5 + 0x78] = a1\n  3759: u64 [s1 + 0x158] = a3\n  3763: u64 [a5 + 0x70] = a3\n  3766: a1 = s1 + 0x1a80\n  3770: u64 [s1 + 0x160] = a2\n  3774: u64 [a5 + 0x68] = a2\n  3777: a0 = 0\n  3779: ra = 130, jump @4\n      : @146 [@dyn 65] (gas: 3)\n  3785: t0 = 0x84\n  3789: a2 = s1 + 0x1918\n  3793: fallthrough\n      : @147 [@dyn 66] (gas: 7)\n  3794: u64 [a2 + 352] = 0\n  3798: u64 [a2 + 344] = 0\n  3802: u64 [a2 + 328] = 0x2\n  3807: a0 = 0x20\n  3810: a1 = s1 + 0x1a60\n  3814: u64 [a2 + 336] = 0\n  3818: ra = 134, jump @4\n      : @148 [@dyn 67] (gas: 3)\n  3824: a1 = 0x40\n  3827: a0 = 0\n  3829: ra = 136, jump @13\n      : @149 [@dyn 68] (gas: 4)\n  3835: a1 = sp + 0xffffffffffffffe0\n  3838: a1 = a1 & 0xffffffffffffffe0\n  3841: u64 [s1 + 0x198] = a1\n  3845: t0 = 138, jump @870\n      : @150 [@dyn 69] (gas: 5)\n  3851: ra = 0x8c\n  3855: ecalli 6 // 'hash_keccak_256'\n  3857: a3 = u64 [s1 + 0x198]\n  3861: t0 = 0x8e\n  3865: jump @872\n      : @151 [@dyn 70] (gas: 2)\n  3868: a3 = u64 [s1 + 0x198]\n  3872: t0 = 142, jump @872\n      : @152 [@dyn 71] (gas: 8)\n  3878: u64 [a4 + 0x600] = a3\n  3882: a3 = a4 + 0x500\n  3886: u64 [a3 + 0xf8] = a2\n  3890: u64 [a3 + 0xf0] = a1\n  3894: u64 [a3 + 0xe8] = a0\n  3898: a0 = s1 + 0x1a40\n  3902: a1 = s1 + 0x2700\n  3906: ra = 144, jump @6\n      : @153 [@dyn 72] (gas: 3)\n  3912: a0 = s1 + 0x1918\n  3916: a0 = u8 [a0 + 0x128]\n  3920: jump @155 if a0 == 0\n      : @154 (gas: 1)\n  3923: jump @517\n      : @155 (gas: 3)\n  3926: a3 = 0x100000000\n  3936: a0 = 0xffffffdc\n  3946: t0 = 146, jump @888\n      : @156 [@dyn 73] (gas: 1)\n  3952: jump @158 if a0 != 0\n      : @157 (gas: 1)\n  3955: jump @558\n      : @158 (gas: 10)\n  3958: a0 = u64 [s1 + 0x1b0]\n  3962: i32 a1 = a0 + 0x24\n  3965: a0 = s1 + 0x2000\n  3969: i32 a0 = a0 + 0x720\n  3973: u64 [s1 + 0x198] = a3\n  3977: ra = 0x94\n  3981: ecalli 1 // 'call_data_load'\n  3983: a0 = 0x2000\n  3987: t0 = 0x96\n  3991: jump @891\n      : @159 [@dyn 74] (gas: 2)\n  3994: a0 = 0x2000\n  3998: t0 = 150, jump @891\n      : @160 [@dyn 75] (gas: 21)\n  4004: a0 = u64 [a4 + 0x20]\n  4007: a1 = u64 [a4 + 0x18]\n  4010: a2 = u64 [a4 + 0x10]\n  4013: a3 = u64 [a4 + 0x8]\n  4016: u64 [s1 + 0x138] = a0\n  4020: u64 [s1 + 0x128] = a2\n  4024: a0 = a0 | a2\n  4027: u64 [s1 + 0x130] = a1\n  4031: u64 [s1 + 0x120] = a3\n  4035: a1 = a1 | a3\n  4038: a0 = a0 | a1\n  4041: a0 = a0 >u 0\n  4043: a1 = s1 + 0x1918\n  4047: u64 [a1 + 128] = 0\n  4051: u64 [a1 + 120] = 0\n  4054: u64 [a1 + 0x68] = a0\n  4057: a0 = s1 + 0x1980\n  4061: u64 [a1 + 112] = 0\n  4064: ra = 0x98\n  4068: t0 = 0x32c\n  4072: jump @859\n      : @161 [@dyn 76] (gas: 10)\n  4075: a4 = s1 + 0x100\n  4079: a3 = u64 [a4 + 0xa8]\n  4083: a1 = u64 [a4 + 0xb0]\n  4087: a0 = u64 [a4 + 0x98]\n  4091: a0 = a0 + 0xffffffffffffffbc\n  4094: a0 = a1 <u a0\n  4097: a0 = 0 if a3 != 0\n  4099: a2 = u64 [a4 + 0xa0]\n  4103: a0 = 0 if a2 != 0\n  4105: jump @163 if a0 != 0\n      : @162 (gas: 1)\n  4108: jump @558\n      : @163 (gas: 22)\n  4111: a0 = u64 [s1 + 0x178]\n  4115: a0 = a0 <u a1\n  4118: a2 = a3 + a0\n  4121: u64 [s1 + 0x198] = a2\n  4125: a4 = a1\n  4127: a1 = a2 <u a3\n  4130: a1 = a0 if a0 == 0\n  4133: a0 = u64 [s1 + 0x188]\n  4137: a1 = a1 + a0\n  4140: u64 [s1 + 0x150] = a1\n  4144: a0 = a1 <u a0\n  4147: a1 = u64 [s1 + 0x190]\n  4151: a0 = a0 + a1\n  4154: u64 [s1 + 0x148] = a0\n  4158: i32 a1 = a4 + 0x44\n  4161: a0 = s1 + 0x2000\n  4165: i32 a0 = a0 + 0x740\n  4169: ra = 0x9a\n  4173: ecalli 1 // 'call_data_load'\n  4175: a0 = 0x2000\n  4179: t0 = 0x9c\n  4183: jump @891\n      : @164 [@dyn 77] (gas: 2)\n  4186: a0 = 0x2000\n  4190: t0 = 156, jump @891\n      : @165 [@dyn 78] (gas: 21)\n  4196: a0 = u64 [a4 + 0x40]\n  4199: a1 = u64 [a4 + 0x38]\n  4202: a2 = u64 [a4 + 0x30]\n  4205: a3 = u64 [a4 + 0x28]\n  4208: u64 [s1 + 0xb0] = a0\n  4212: u64 [s1 + 0xa0] = a2\n  4216: a0 = a0 | a2\n  4219: u64 [s1 + 0xa8] = a1\n  4223: u64 [s1 + 0x98] = a3\n  4227: a1 = a1 | a3\n  4230: a0 = a0 | a1\n  4233: a0 = a0 >u 0\n  4235: a1 = s1 + 0x1918\n  4239: u64 [a1 + 96] = 0\n  4242: u64 [a1 + 88] = 0\n  4245: u64 [a1 + 0x48] = a0\n  4248: a0 = s1 + 0x1960\n  4252: u64 [a1 + 80] = 0\n  4255: ra = 0x9e\n  4259: t0 = 0x34c\n  4263: jump @859\n      : @166 [@dyn 79] (gas: 9)\n  4266: a0 = u64 [s1 + 0x1b0]\n  4270: a1 = a0 + 0x84\n  4274: a0 = a1 <u a0\n  4277: a2 = a1\n  4279: u64 [s1 + 0x118] = a1\n  4283: a1 = u64 [s1 + 0x1a8]\n  4287: a3 = a1 + a0\n  4290: u64 [s1 + 0x110] = a3\n  4294: t0 = 160, jump @887\n      : @167 [@dyn 80] (gas: 25)\n  4300: u64 [s1 + 0x108] = a4\n  4304: a0 = a4 <u a0\n  4307: a1 = u64 [s1 + 0x190]\n  4311: a1 = a1 + a0\n  4314: u64 [s1 + 0x100] = a1\n  4318: a0 = s1 + 0x1118\n  4322: a5 = a0 + 0x700\n  4326: u64 [a5 + 0xe0] = a1\n  4330: u64 [a5 + 0xd8] = a4\n  4334: u64 [a5 + 0xd0] = a3\n  4338: u64 [a5 + 0xc8] = a2\n  4342: a0 = u64 [s1 + 0x148]\n  4346: a1 = s1 + 0x1918\n  4350: u64 [a1] = a0\n  4352: a0 = u64 [s1 + 0x150]\n  4356: u64 [a1 + 0xfffffffffffffff8] = a0\n  4359: a0 = u64 [s1 + 0x198]\n  4363: u64 [a1 + 0xfffffffffffffff0] = a0\n  4366: a4 = a1\n  4368: a0 = s1 + 0x1920\n  4372: a1 = s1 + 0x1900\n  4376: a2 = s1 + 0x18e0\n  4380: a3 = u64 [s1 + 0x178]\n  4384: u64 [a4 + 0xffffffffffffffe8] = a3\n  4387: ra = 162, jump @724\n      : @168 [@dyn 81] (gas: 18)\n  4393: a3 = s1 + 0x1918\n  4397: a0 = u64 [a3 + 0x38]\n  4400: a1 = u64 [a3 + 0x40]\n  4403: a2 = u64 [a3 + 0x30]\n  4406: a3 = u64 [a3 + 0x28]\n  4409: a1 = a1 | a2\n  4412: a0 = a0 | a3\n  4415: a0 = a0 | a1\n  4418: a0 = a0 >u 0\n  4420: a1 = s1 + 0x1118\n  4424: u64 [a1 + 1984] = 0\n  4428: u64 [a1 + 1976] = 0\n  4432: u64 [a1 + 0x7a8] = a0\n  4436: a0 = s1 + 0x18c0\n  4440: u64 [a1 + 1968] = 0\n  4444: ra = 0xa4\n  4448: t0 = 0x370\n  4452: jump @859\n      : @169 [@dyn 82] (gas: 9)\n  4455: a0 = u64 [s1 + 0x1b0]\n  4459: a1 = a0 + 0xc4\n  4463: a0 = a1 <u a0\n  4466: a2 = a1\n  4468: u64 [s1 + 0xf8] = a1\n  4472: a1 = u64 [s1 + 0x1a8]\n  4476: a3 = a1 + a0\n  4479: u64 [s1 + 0xf0] = a3\n  4483: t0 = 166, jump @887\n      : @170 [@dyn 83] (gas: 24)\n  4489: u64 [s1 + 0xe8] = a4\n  4493: a0 = a4 <u a0\n  4496: a1 = u64 [s1 + 0x190]\n  4500: a0 = a0 + a1\n  4503: u64 [s1 + 0xe0] = a0\n  4507: a1 = s1 + 0x1118\n  4511: a5 = a1 + 0x700\n  4515: u64 [a5 + 0x40] = a0\n  4518: u64 [a5 + 0x38] = a4\n  4521: u64 [a5 + 0x30] = a3\n  4524: u64 [a5 + 0x28] = a2\n  4527: a0 = u64 [s1 + 0x148]\n  4531: u64 [a5 + 0x60] = a0\n  4534: a0 = u64 [s1 + 0x150]\n  4538: u64 [a5 + 0x58] = a0\n  4541: a0 = u64 [s1 + 0x198]\n  4545: u64 [a5 + 0x50] = a0\n  4548: a4 = a1\n  4550: a0 = s1 + 0x1880\n  4554: a1 = s1 + 0x1860\n  4558: a2 = s1 + 0x1840\n  4562: a3 = u64 [s1 + 0x178]\n  4566: u64 [a4 + 0x748] = a3\n  4570: ra = 168, jump @724\n      : @171 [@dyn 84] (gas: 18)\n  4576: a4 = s1 + 0x1118\n  4580: a5 = a4 + 0x700\n  4584: a0 = u64 [a5 + 0x98]\n  4588: a1 = u64 [a5 + 0xa0]\n  4592: a2 = u64 [a5 + 0x90]\n  4596: a3 = u64 [a5 + 0x88]\n  4600: a1 = a1 | a2\n  4603: a0 = a0 | a3\n  4606: a0 = a0 | a1\n  4609: a0 = a0 >u 0\n  4611: u64 [a4 + 1824] = 0\n  4615: u64 [a4 + 1816] = 0\n  4619: u64 [a5 + 0x8] = a0\n  4622: a0 = s1 + 0x1820\n  4626: u64 [a4 + 1808] = 0\n  4630: ra = 0xaa\n  4634: t0 = 0x390\n  4638: jump @859\n      : @172 [@dyn 85] (gas: 9)\n  4641: a0 = u64 [s1 + 0x1b0]\n  4645: a1 = a0 + 0xa4\n  4649: a0 = a1 <u a0\n  4652: a2 = a1\n  4654: u64 [s1 + 0xd8] = a1\n  4658: a1 = u64 [s1 + 0x1a8]\n  4662: a3 = a1 + a0\n  4665: u64 [s1 + 0xd0] = a3\n  4669: t0 = 172, jump @887\n      : @173 [@dyn 86] (gas: 13)\n  4675: u64 [s1 + 0xc8] = a4\n  4679: a0 = a4 <u a0\n  4682: a1 = u64 [s1 + 0x190]\n  4686: a0 = a0 + a1\n  4689: u64 [s1 + 0xc0] = a0\n  4693: a5 = s1 + 0x1118\n  4697: u64 [a5 + 0x6e0] = a0\n  4701: u64 [a5 + 0x6d8] = a4\n  4705: u64 [a5 + 0x6d0] = a3\n  4709: a0 = s1 + 0x1800\n  4713: a1 = s1 + 0x17e0\n  4717: u64 [a5 + 0x6c8] = a2\n  4721: ra = 174, jump @784\n      : @174 [@dyn 87] (gas: 16)\n  4727: a3 = s1 + 0x1118\n  4731: a0 = u32 [a3 + 0x6f8]\n  4735: a4 = a3 + 0x600\n  4739: a1 = u64 [a4 + 0xe8]\n  4743: a2 = u64 [a4 + 0xf0]\n  4747: a0 = a0 | a1\n  4750: a0 = a0 | a2\n  4753: a0 = a0 >u 0\n  4755: u64 [a3 + 1728] = 0\n  4759: u64 [a3 + 1720] = 0\n  4763: u64 [a4 + 0xa8] = a0\n  4767: a0 = s1 + 0x17c0\n  4771: u64 [a3 + 1712] = 0\n  4775: ra = 0xb0\n  4779: t0 = 0x3b6\n  4783: jump @859\n      : @175 [@dyn 88] (gas: 13)\n  4786: a0 = u64 [s1 + 0x170]\n  4790: a2 = s1 + 0x1118\n  4794: a3 = a2 + 0x600\n  4798: u64 [a3 + 0xa0] = a0\n  4802: a0 = u64 [s1 + 0x168]\n  4806: u64 [a3 + 0x98] = a0\n  4810: a0 = u64 [s1 + 0x158]\n  4814: u64 [a3 + 0x90] = a0\n  4818: a1 = s1 + 0x17a0\n  4822: a0 = u64 [s1 + 0x160]\n  4826: u64 [a3 + 0x88] = a0\n  4830: a0 = 0\n  4832: ra = 178, jump @4\n      : @176 [@dyn 89] (gas: 8)\n  4838: a2 = s1 + 0x1118\n  4842: u64 [a2 + 1664] = 0\n  4846: u64 [a2 + 1656] = 0\n  4850: u64 [a2 + 1640] = 0x2\n  4855: a0 = 0x20\n  4858: a1 = s1 + 0x1780\n  4862: u64 [a2 + 1648] = 0\n  4866: ra = 180, jump @4\n      : @177 [@dyn 90] (gas: 7)\n  4872: a0 = sp + 0xffffffffffffffe0\n  4875: a0 = a0 & 0xffffffffffffffe0\n  4878: u64 [s1 + 0x140] = a0\n  4882: sp = a0\n  4884: a1 = 0x40\n  4887: a0 = 0\n  4889: ra = 182, jump @13\n      : @178 [@dyn 91] (gas: 4)\n  4895: a1 = sp + 0xffffffffffffffe0\n  4898: a1 = a1 & 0xffffffffffffffe0\n  4901: u64 [s1 + 0xb8] = a1\n  4905: t0 = 184, jump @870\n      : @179 [@dyn 92] (gas: 5)\n  4911: ra = 0xba\n  4915: ecalli 6 // 'hash_keccak_256'\n  4917: a3 = u64 [s1 + 0xb8]\n  4921: t0 = 0xbc\n  4925: jump @879\n      : @180 [@dyn 93] (gas: 2)\n  4928: a3 = u64 [s1 + 0xb8]\n  4932: t0 = 188, jump @879\n      : @181 [@dyn 94] (gas: 7)\n  4938: a1 = u64 [s1 + 0x140]\n  4942: u64 [a1 + 0x18] = a3\n  4945: u64 [a1 + 0x10] = a2\n  4948: u64 [a1 + 0x8] = a4\n  4951: u64 [a1] = a0\n  4953: a0 = s1 + 0x1760\n  4957: ra = 190, jump @6\n      : @182 [@dyn 95] (gas: 2)\n  4963: a0 = 0x1000\n  4967: t0 = 192, jump @891\n      : @183 [@dyn 96] (gas: 15)\n  4973: a0 = u64 [a4 + 0x48]\n  4976: a1 = u64 [a4 + 0x50]\n  4979: a2 = u64 [a4 + 0x60]\n  4982: a3 = u64 [a4 + 0x58]\n  4985: a0 = a0 & 0xffffffffffffff00\n  4989: a0 = a0 | 0x1\n  4992: a4 = s1 + 0x2118\n  4996: a5 = a4 + 0x600\n  5000: u64 [a5 + 0x60] = a2\n  5003: u64 [a5 + 0x58] = a3\n  5006: u64 [a5 + 0x50] = a1\n  5009: u64 [a5 + 0x48] = a0\n  5012: a1 = s1 + 0x2760\n  5016: a0 = u64 [s1 + 0x140]\n  5020: ra = 194, jump @7\n      : @184 [@dyn 97] (gas: 23)\n  5026: a1 = s1 + 0x1118\n  5030: a0 = u64 [s1 + 0x100]\n  5034: a2 = a1 + 0x500\n  5038: u64 [a2 + 0xe0] = a0\n  5042: a0 = u64 [s1 + 0x108]\n  5046: u64 [a2 + 0xd8] = a0\n  5050: a0 = u64 [s1 + 0x110]\n  5054: u64 [a2 + 0xd0] = a0\n  5058: a0 = u64 [s1 + 0x118]\n  5062: u64 [a2 + 0xc8] = a0\n  5066: a0 = u64 [s1 + 0x148]\n  5070: u64 [a1 + 0x600] = a0\n  5074: a0 = u64 [s1 + 0x150]\n  5078: u64 [a2 + 0xf8] = a0\n  5082: a0 = u64 [s1 + 0x198]\n  5086: u64 [a2 + 0xf0] = a0\n  5090: a4 = a1\n  5092: a0 = s1 + 0x1720\n  5096: a1 = s1 + 0x1700\n  5100: a2 = s1 + 0x16e0\n  5104: a3 = u64 [s1 + 0x178]\n  5108: u64 [a4 + 0x5e8] = a3\n  5112: ra = 196, jump @724\n      : @185 [@dyn 98] (gas: 31)\n  5118: a0 = s1 + 0x1118\n  5122: a2 = a0 + 0x600\n  5126: a1 = u64 [a2 + 0x20]\n  5129: u64 [s1 + 0x108] = a1\n  5133: a1 = u64 [a2 + 0x18]\n  5136: u64 [s1 + 0x110] = a1\n  5140: a1 = u64 [a2 + 0x10]\n  5143: u64 [s1 + 0x118] = a1\n  5147: a1 = u64 [a2 + 0x8]\n  5150: u64 [s1 + 0x140] = a1\n  5154: a1 = u64 [a2 + 0x40]\n  5157: u64 [s1 + 0x88] = a1\n  5161: a1 = u64 [a2 + 0x38]\n  5164: u64 [s1 + 0x90] = a1\n  5168: a1 = u64 [a2 + 0x30]\n  5171: u64 [s1 + 0xb8] = a1\n  5175: a1 = u64 [a2 + 0x28]\n  5178: u64 [s1 + 0x100] = a1\n  5182: a1 = u64 [s1 + 0xc0]\n  5186: a2 = a0 + 0x500\n  5190: u64 [a2 + 0xa0] = a1\n  5194: a1 = u64 [s1 + 0xc8]\n  5198: u64 [a2 + 0x98] = a1\n  5202: a1 = u64 [s1 + 0xd0]\n  5206: u64 [a2 + 0x90] = a1\n  5210: a3 = a0\n  5212: a0 = s1 + 0x16c0\n  5216: a1 = s1 + 0x16a0\n  5220: a2 = u64 [s1 + 0xd8]\n  5224: u64 [a3 + 0x588] = a2\n  5228: ra = 198, jump @784\n      : @186 [@dyn 99] (gas: 29)\n  5234: a1 = s1 + 0x1118\n  5238: a2 = a1 + 0x500\n  5242: a0 = u64 [a2 + 0xb8]\n  5246: u64 [s1 + 0xc8] = a0\n  5250: a0 = u64 [a2 + 0xb0]\n  5254: u64 [s1 + 0xd0] = a0\n  5258: a0 = u64 [a2 + 0xa8]\n  5262: u64 [s1 + 0xd8] = a0\n  5266: a0 = u64 [s1 + 0xe0]\n  5270: u64 [a2 + 0x20] = a0\n  5273: a0 = u64 [s1 + 0xe8]\n  5277: u64 [a2 + 0x18] = a0\n  5280: a0 = u64 [s1 + 0xf0]\n  5284: u64 [a2 + 0x10] = a0\n  5287: a0 = u64 [s1 + 0xf8]\n  5291: u64 [a2 + 0x8] = a0\n  5294: a0 = u64 [s1 + 0x148]\n  5298: u64 [a2 + 0x40] = a0\n  5301: a0 = u64 [s1 + 0x150]\n  5305: u64 [a2 + 0x38] = a0\n  5308: a0 = u64 [s1 + 0x198]\n  5312: u64 [a2 + 0x30] = a0\n  5315: a4 = a1\n  5317: a0 = s1 + 0x1660\n  5321: a1 = s1 + 0x1640\n  5325: a2 = s1 + 0x1620\n  5329: a3 = u64 [s1 + 0x178]\n  5333: u64 [a4 + 0x528] = a3\n  5337: ra = 200, jump @724\n      : @187 [@dyn 100] (gas: 47)\n  5343: a5 = s1 + 0x1118\n  5347: a4 = a5 + 0x500\n  5351: a0 = u64 [a4 + 0x60]\n  5354: u64 [s1 + 0xe0] = a0\n  5358: a0 = u64 [a4 + 0x58]\n  5361: u64 [s1 + 0xe8] = a0\n  5365: a0 = u64 [a4 + 0x50]\n  5368: u64 [s1 + 0xf0] = a0\n  5372: a0 = u64 [a4 + 0x48]\n  5375: u64 [s1 + 0xf8] = a0\n  5379: a1 = u64 [s1 + 0x1b0]\n  5383: a0 = a1 + 0xe4\n  5387: a1 = a0 <u a1\n  5390: a3 = u64 [s1 + 0x1a8]\n  5394: a2 = a3 + a1\n  5397: a3 = a2 <u a3\n  5400: a3 = a1 if a1 == 0\n  5403: a1 = u64 [a4 + 0x80]\n  5407: u64 [s1 + 0x70] = a1\n  5410: a1 = u64 [a4 + 0x78]\n  5413: u64 [s1 + 0x78] = a1\n  5416: a1 = u64 [a4 + 0x70]\n  5419: u64 [s1 + 0x80] = a1\n  5423: a1 = u64 [a4 + 0x68]\n  5426: u64 [s1 + 0xc0] = a1\n  5430: a1 = u64 [s1 + 0x188]\n  5434: a3 = a3 + a1\n  5437: a1 = a3 <u a1\n  5440: a4 = u64 [s1 + 0x190]\n  5444: a1 = a1 + a4\n  5447: a4 = a5 + 0x400\n  5451: u64 [a4 + 0xa0] = a1\n  5455: u64 [a4 + 0x98] = a3\n  5459: u64 [a4 + 0x90] = a2\n  5463: u64 [a4 + 0x88] = a0\n  5467: a0 = u64 [s1 + 0x148]\n  5471: u64 [a4 + 0xc0] = a0\n  5475: a0 = u64 [s1 + 0x150]\n  5479: u64 [a4 + 0xb8] = a0\n  5483: a0 = u64 [s1 + 0x198]\n  5487: u64 [a4 + 0xb0] = a0\n  5491: a0 = s1 + 0x15e0\n  5495: a1 = s1 + 0x15c0\n  5499: a2 = s1 + 0x15a0\n  5503: a3 = u64 [s1 + 0x178]\n  5507: u64 [a4 + 0xa8] = a3\n  5511: ra = 202, jump @724\n      : @188 [@dyn 101] (gas: 3)\n  5517: t0 = 0xcc\n  5521: a1 = s1 + 0x1118\n  5525: fallthrough\n      : @189 [@dyn 102] (gas: 20)\n  5526: a2 = a1 + 0x400\n  5530: a0 = u64 [a2 + 0xe0]\n  5534: u64 [s1 + 0x60] = a0\n  5537: a0 = u64 [a2 + 0xd8]\n  5541: u64 [s1 + 0x68] = a0\n  5544: a0 = u64 [a2 + 0xd0]\n  5548: u64 [s1 + 0x148] = a0\n  5552: a0 = u64 [a2 + 0xc8]\n  5556: u64 [s1 + 0x150] = a0\n  5560: a0 = u64 [a1 + 0x500]\n  5564: u64 [s1 + 0x40] = a0\n  5567: a0 = u64 [a2 + 0xf8]\n  5571: u64 [s1 + 0x48] = a0\n  5574: a0 = u64 [a2 + 0xf0]\n  5578: u64 [s1 + 0x50] = a0\n  5581: a0 = u64 [a2 + 0xe8]\n  5585: u64 [s1 + 0x58] = a0\n  5588: a0 = s1 + 0x1580\n  5592: a1 = 0x40\n  5595: ra = 206, jump @2\n      : @190 [@dyn 103] (gas: 14)\n  5601: a2 = s1 + 0x1118\n  5605: t0 = u64 [a2 + 0x480]\n  5609: a0 = a2 + 0x400\n  5613: a5 = u64 [a0 + 0x78]\n  5616: a4 = u64 [a0 + 0x70]\n  5619: a3 = u64 [a0 + 0x68]\n  5622: a0 = a4 | t0\n  5625: a1 = a3 | a5\n  5628: a1 = a1 | a0\n  5631: a1 = a1 >> 0x20\n  5634: a0 = a0 | a5\n  5637: a0 = a0 << 0x20\n  5640: a0 = a0 | a1\n  5643: jump @192 if a0 == 0\n      : @191 (gas: 1)\n  5646: jump @558\n      : @192 (gas: 15)\n  5649: a0 = u64 [s1 + 0x120]\n  5653: u64 [a2 + 0x448] = a0\n  5657: a0 = u64 [s1 + 0x128]\n  5661: u64 [a2 + 0x450] = a0\n  5665: a0 = u64 [s1 + 0x130]\n  5669: u64 [a2 + 0x458] = a0\n  5673: a1 = s1 + 0x1560\n  5677: a0 = u64 [s1 + 0x138]\n  5681: u64 [a2 + 0x460] = a0\n  5685: a0 = a3\n  5687: u64 [s1 + 0x198] = a3\n  5691: u64 [s1 + 0x190] = a4\n  5695: u64 [s1 + 0x188] = t0\n  5699: u64 [s1 + 0x178] = a5\n  5703: ra = 208, jump @4\n      : @193 [@dyn 104] (gas: 12)\n  5709: a5 = s1 + 0x100\n  5713: a1 = u64 [a5 + 0x98]\n  5717: a0 = u64 [a5 + 0x88]\n  5721: a2 = u64 [a5 + 0x78]\n  5724: a3 = a2 | a0\n  5727: a4 = 0x100000000\n  5737: a0 = 0xffffffe0\n  5747: a0 = a1 <u a0\n  5750: a2 = u64 [a5 + 0x90]\n  5754: a0 = 0 if a2 != 0\n  5756: a0 = 0 if a3 != 0\n  5758: jump @195 if a0 != 0\n      : @194 (gas: 1)\n  5761: jump @558\n      : @195 (gas: 16)\n  5764: i32 a0 = a1 + 0x20\n  5767: a1 = u64 [s1 + 0x98]\n  5771: a2 = s1 + 0x1118\n  5775: u64 [s1 + 0x138] = a3\n  5779: a3 = a2\n  5781: a5 = a2 + 0x400\n  5785: u64 [a5 + 0x28] = a1\n  5788: a1 = u64 [s1 + 0xa0]\n  5792: u64 [a5 + 0x30] = a1\n  5795: a1 = u64 [s1 + 0xa8]\n  5799: u64 [a5 + 0x38] = a1\n  5802: a1 = s1 + 0x1540\n  5806: a2 = u64 [s1 + 0xb0]\n  5810: u64 [a3 + 0x440] = a2\n  5814: u64 [s1 + 0x130] = a4\n  5818: ra = 210, jump @4\n      : @196 [@dyn 105] (gas: 10)\n  5824: a4 = s1 + 0x100\n  5828: a2 = u64 [a4 + 0x90]\n  5832: a1 = u64 [a4 + 0x98]\n  5836: a0 = u64 [a4 + 0x30]\n  5839: a0 = a0 + 0xffffffffffffffc0\n  5842: a0 = a1 <u a0\n  5845: a0 = 0 if a2 != 0\n  5847: a3 = u64 [a4 + 0x38]\n  5850: a0 = 0 if a3 != 0\n  5852: jump @198 if a0 != 0\n      : @197 (gas: 1)\n  5855: jump @558\n      : @198 (gas: 8)\n  5858: i32 a0 = a1 + 0x40\n  5861: a3 = s1 + 0x1118\n  5865: u64 [a3 + 1056] = 0\n  5869: u64 [a3 + 1048] = 0\n  5873: u64 [a3 + 1032] = 0xe0\n  5879: a1 = s1 + 0x1520\n  5883: u64 [a3 + 1040] = 0\n  5887: ra = 212, jump @4\n      : @199 [@dyn 106] (gas: 41)\n  5893: a0 = u64 [s1 + 0x198]\n  5897: a0 = a0 + 0xe0\n  5901: a1 = u64 [s1 + 0x198]\n  5905: a1 = a0 <u a1\n  5908: a3 = u64 [s1 + 0x190]\n  5912: a2 = a3 + a1\n  5915: a3 = a2 <u a3\n  5918: a3 = a1 if a1 == 0\n  5921: a1 = u64 [s1 + 0x178]\n  5925: a3 = a3 + a1\n  5928: a4 = a3 <u a1\n  5931: a1 = u64 [s1 + 0x188]\n  5935: a4 = a4 + a1\n  5938: a1 = s1 + 0x1118\n  5942: a5 = a1 + 0x300\n  5946: u64 [a5 + 0x90] = a2\n  5950: u64 [a5 + 0x88] = a0\n  5954: a0 = u64 [s1 + 0x88]\n  5958: u64 [a5 + 0xc0] = a0\n  5962: a0 = u64 [s1 + 0x90]\n  5966: u64 [a5 + 0xb8] = a0\n  5970: a0 = u64 [s1 + 0xb8]\n  5974: u64 [a5 + 0xb0] = a0\n  5978: a0 = u64 [s1 + 0x100]\n  5982: u64 [a5 + 0xa8] = a0\n  5986: a0 = u64 [s1 + 0x108]\n  5990: u64 [a5 + 0xe0] = a0\n  5994: a0 = u64 [s1 + 0x110]\n  5998: u64 [a5 + 0xd8] = a0\n  6002: a0 = u64 [s1 + 0x118]\n  6006: u64 [a5 + 0xd0] = a0\n  6010: a0 = u64 [s1 + 0x140]\n  6014: u64 [a5 + 0xc8] = a0\n  6018: u64 [a5 + 0x98] = a3\n  6022: a5 = a1\n  6024: a0 = s1 + 0x1500\n  6028: a1 = s1 + 0x14e0\n  6032: a2 = s1 + 0x14c0\n  6036: a3 = s1 + 0x14a0\n  6040: u64 [a5 + 0x3a0] = a4\n  6044: ra = 214, jump @814\n      : @200 [@dyn 107] (gas: 10)\n  6050: a3 = s1 + 0x100\n  6054: a4 = u64 [a3 + 0x98]\n  6058: a2 = 0x100000000\n  6068: a0 = 0xffffffa0\n  6078: a0 = a4 <u a0\n  6081: a1 = u64 [a3 + 0x90]\n  6085: a0 = 0 if a1 != 0\n  6087: a1 = u64 [a3 + 0x38]\n  6090: a0 = 0 if a1 != 0\n  6092: jump @202 if a0 != 0\n      : @201 (gas: 1)\n  6095: jump @558\n      : @202 (gas: 25)\n  6098: a1 = 0xffffffff\n  6108: u64 [s1 + 0x118] = a2\n  6112: a5 = s1 + 0x1118\n  6116: a2 = u64 [a5 + 0x400]\n  6120: u64 [s1 + 0x128] = a2\n  6124: a2 = u64 [a5 + 0x3f8]\n  6128: u64 [s1 + 0x130] = a2\n  6132: a2 = u64 [a5 + 0x3f0]\n  6136: u64 [s1 + 0x140] = a2\n  6140: a2 = u64 [s1 + 0xc8]\n  6144: a2 = a2 & a1\n  6147: a1 = u64 [a5 + 0x3e8]\n  6151: u64 [s1 + 0x120] = a1\n  6155: a1 = u64 [s1 + 0xd0]\n  6159: a1 = a1 & 0xffffffffffffffff\n  6162: a3 = u64 [s1 + 0xd8]\n  6166: a3 = a3 & 0xffffffffffffffff\n  6169: i32 a0 = a4 + 0x60\n  6172: u64 [a5 + 896] = 0\n  6176: a4 = a5 + 0x300\n  6180: u64 [a4 + 0x68] = a3\n  6183: u64 [a4 + 0x70] = a1\n  6186: a1 = s1 + 0x1480\n  6190: u64 [a4 + 0x78] = a2\n  6193: ra = 216, jump @4\n      : @203 [@dyn 108] (gas: 10)\n  6199: a1 = s1 + 0x100\n  6203: a3 = u64 [a1 + 0x38]\n  6206: a5 = u64 [a1 + 0x98]\n  6210: a0 = u64 [a1 + 0x18]\n  6213: a0 = a0 + 0xffffffffffffff80\n  6216: a0 = a5 <u a0\n  6219: a2 = u64 [a1 + 0x90]\n  6223: a0 = 0 if a2 != 0\n  6225: a0 = 0 if a3 != 0\n  6227: jump @205 if a0 != 0\n      : @204 (gas: 1)\n  6230: jump @558\n      : @205 (gas: 32)\n  6233: a1 = u64 [s1 + 0x120]\n  6237: t1 = a1 <u a5\n  6240: t0 = a1\n  6242: a4 = u64 [s1 + 0x140]\n  6246: a1 = a4 ^ a2\n  6249: a2 = a4 <u a2\n  6252: t2 = a4\n  6254: a2 = t1 if a1 == 0\n  6257: a4 = u64 [s1 + 0x178]\n  6261: a1 = u64 [s1 + 0x130]\n  6265: a0 = a1 - a4\n  6268: a3 = a1 <u a4\n  6271: a4 = u64 [s1 + 0x188]\n  6275: a1 = u64 [s1 + 0x128]\n  6279: a4 = a1 - a4\n  6282: a4 = a4 - a3\n  6285: a3 = a0 <u a2\n  6288: a4 = a4 - a3\n  6291: a1 = a0 - a2\n  6294: a2 = u64 [s1 + 0x190]\n  6298: a2 = t2 - a2\n  6301: a2 = a2 - t1\n  6304: a3 = t0 - a5\n  6307: i32 a0 = a5 + 0x80\n  6311: a5 = s1 + 0x1118\n  6315: u64 [a5 + 0x348] = a3\n  6319: a3 = a5 + 0x300\n  6323: u64 [a3 + 0x50] = a2\n  6326: u64 [a3 + 0x58] = a1\n  6329: a1 = s1 + 0x1460\n  6333: u64 [a3 + 0x60] = a4\n  6336: ra = 218, jump @4\n      : @206 [@dyn 109] (gas: 33)\n  6342: a1 = s1 + 0x1118\n  6346: a0 = u64 [s1 + 0x128]\n  6350: a2 = a1 + 0x200\n  6354: u64 [a2 + 0xe0] = a0\n  6358: a0 = u64 [s1 + 0x130]\n  6362: u64 [a2 + 0xd8] = a0\n  6366: a0 = u64 [s1 + 0x140]\n  6370: u64 [a2 + 0xd0] = a0\n  6374: a0 = u64 [s1 + 0x120]\n  6378: u64 [a2 + 0xc8] = a0\n  6382: a0 = u64 [s1 + 0x70]\n  6385: a3 = a1 + 0x300\n  6389: u64 [a3] = a0\n  6391: a0 = u64 [s1 + 0x78]\n  6394: u64 [a2 + 0xf8] = a0\n  6398: a0 = u64 [s1 + 0x80]\n  6402: u64 [a2 + 0xf0] = a0\n  6406: a0 = u64 [s1 + 0xc0]\n  6410: u64 [a2 + 0xe8] = a0\n  6414: a0 = u64 [s1 + 0xe0]\n  6418: u64 [a3 + 0x20] = a0\n  6421: a0 = u64 [s1 + 0xe8]\n  6425: u64 [a3 + 0x18] = a0\n  6428: a0 = u64 [s1 + 0xf0]\n  6432: u64 [a3 + 0x10] = a0\n  6435: a5 = a1\n  6437: a0 = s1 + 0x1440\n  6441: a1 = s1 + 0x1420\n  6445: a2 = s1 + 0x1400\n  6449: a3 = s1 + 0x13e0\n  6453: a4 = u64 [s1 + 0xf8]\n  6457: u64 [a5 + 0x308] = a4\n  6461: ra = 220, jump @814\n      : @207 [@dyn 110] (gas: 11)\n  6467: a2 = s1 + 0x100\n  6471: a4 = u64 [a2 + 0x90]\n  6475: a5 = u64 [a2 + 0x98]\n  6479: a0 = 0x100000000\n  6489: u64 [a2 + 0x40] = a0\n  6492: a0 = 0xffffff60\n  6502: a0 = a5 <u a0\n  6505: a0 = 0 if a4 != 0\n  6507: a1 = u64 [a2 + 0x38]\n  6510: a0 = 0 if a1 != 0\n  6512: jump @209 if a0 != 0\n      : @208 (gas: 1)\n  6515: jump @558\n      : @209 (gas: 36)\n  6518: a2 = s1 + 0x1118\n  6522: t2 = u64 [a2 + 0x328]\n  6526: t0 = u64 [a2 + 0x330]\n  6530: ra = u64 [a2 + 0x340]\n  6534: u64 [s1 + 0x128] = ra\n  6538: a2 = u64 [a2 + 0x338]\n  6542: u64 [s1 + 0x130] = a2\n  6546: t1 = t2 <u a5\n  6549: u64 [s1 + 0x118] = t2\n  6553: a1 = t0 ^ a4\n  6556: a2 = t0 <u a4\n  6559: u64 [s1 + 0x120] = t0\n  6563: a2 = t1 if a1 == 0\n  6566: a3 = u64 [s1 + 0x178]\n  6570: a0 = u64 [s1 + 0x130]\n  6574: a1 = a0 - a3\n  6577: a3 = a0 <u a3\n  6580: a0 = a4\n  6582: a4 = u64 [s1 + 0x188]\n  6586: a4 = ra - a4\n  6589: a4 = a4 - a3\n  6592: a3 = a1 <u a2\n  6595: a4 = a4 - a3\n  6598: a1 = a1 - a2\n  6601: a2 = t0 - a0\n  6604: a2 = a2 - t1\n  6607: a3 = t2 - a5\n  6610: i32 a0 = a5 + 0xa0\n  6614: a5 = s1 + 0x1118\n  6618: u64 [a5 + 0x2a8] = a3\n  6622: a3 = a5 + 0x200\n  6626: u64 [a3 + 0xb0] = a2\n  6630: u64 [a3 + 0xb8] = a1\n  6634: a1 = s1 + 0x13c0\n  6638: u64 [a3 + 0xc0] = a4\n  6642: ra = 222, jump @4\n      : @210 [@dyn 111] (gas: 32)\n  6648: a1 = s1 + 0x1118\n  6652: a0 = u64 [s1 + 0x128]\n  6656: a2 = a1 + 0x200\n  6660: u64 [a2 + 0x40] = a0\n  6663: a0 = u64 [s1 + 0x130]\n  6667: u64 [a2 + 0x38] = a0\n  6670: a0 = u64 [s1 + 0x120]\n  6674: u64 [a2 + 0x30] = a0\n  6677: a0 = u64 [s1 + 0x118]\n  6681: u64 [a2 + 0x28] = a0\n  6684: a0 = u64 [s1 + 0x40]\n  6687: u64 [a2 + 0x60] = a0\n  6690: a0 = u64 [s1 + 0x48]\n  6693: u64 [a2 + 0x58] = a0\n  6696: a0 = u64 [s1 + 0x50]\n  6699: u64 [a2 + 0x50] = a0\n  6702: a0 = u64 [s1 + 0x58]\n  6705: u64 [a2 + 0x48] = a0\n  6708: a0 = u64 [s1 + 0x60]\n  6711: u64 [a2 + 0x80] = a0\n  6715: a0 = u64 [s1 + 0x68]\n  6718: u64 [a2 + 0x78] = a0\n  6721: a0 = u64 [s1 + 0x148]\n  6725: u64 [a2 + 0x70] = a0\n  6728: a5 = a1\n  6730: a0 = s1 + 0x13a0\n  6734: a1 = s1 + 0x1380\n  6738: a2 = s1 + 0x1360\n  6742: a3 = s1 + 0x1340\n  6746: a4 = u64 [s1 + 0x150]\n  6750: u64 [a5 + 0x268] = a4\n  6754: ra = 224, jump @814\n      : @211 [@dyn 112] (gas: 14)\n  6760: a1 = s1 + 0x1118\n  6764: a2 = a1 + 0x200\n  6768: a0 = u64 [a2 + 0xa0]\n  6772: u64 [s1 + 0x130] = a0\n  6776: a0 = u64 [a2 + 0x98]\n  6780: u64 [s1 + 0x128] = a0\n  6784: a0 = u64 [a2 + 0x90]\n  6788: u64 [s1 + 0x148] = a0\n  6792: a0 = u64 [a2 + 0x88]\n  6796: u64 [s1 + 0x150] = a0\n  6800: a0 = s1 + 0x2000\n  6804: i32 a0 = a0 + 0x780\n  6808: ecalli 7 // 'now'\n  6810: fallthrough\n      : @212 (gas: 10)\n  6811: a2 = s1 + 0x100\n  6815: a5 = u64 [a2 + 0x98]\n  6819: a0 = u64 [a2 + 0x40]\n  6822: a0 = a0 + 0xffffffffffffff40\n  6826: a0 = a5 <u a0\n  6829: a1 = u64 [a2 + 0x90]\n  6833: a0 = 0 if a1 != 0\n  6835: a1 = u64 [a2 + 0x38]\n  6838: a0 = 0 if a1 != 0\n  6840: jump @214 if a0 != 0\n      : @213 (gas: 1)\n  6843: jump @558\n      : @214 (gas: 14)\n  6846: a0 = s1 + 0x2118\n  6850: a2 = u64 [a0 + 0x668]\n  6854: a1 = u64 [a0 + 0x670]\n  6858: a3 = u64 [a0 + 0x678]\n  6862: a4 = u64 [a0 + 0x680]\n  6866: i32 a0 = a5 + 0xc0\n  6870: a5 = s1 + 0x1118\n  6874: u64 [a5 + 0x220] = a4\n  6878: a4 = a5 + 0x200\n  6882: u64 [a4 + 0x18] = a3\n  6885: u64 [a4 + 0x10] = a1\n  6888: a1 = s1 + 0x1320\n  6892: u64 [a4 + 0x8] = a2\n  6895: ra = 226, jump @4\n      : @215 [@dyn 113] (gas: 6)\n  6901: a0 = u64 [s1 + 0x180]\n  6905: ra = 0xe4\n  6909: ecalli 3 // 'caller'\n  6911: a0 = 0xffffff9c\n  6921: t0 = 0xe6\n  6925: jump @888\n      : @216 [@dyn 114] (gas: 2)\n  6928: a0 = 0xffffff9c\n  6938: t0 = 230, jump @888\n      : @217 [@dyn 115] (gas: 1)\n  6944: jump @219 if a0 != 0\n      : @218 (gas: 1)\n  6947: jump @558\n      : @219 (gas: 13)\n  6950: a0 = u64 [s1 + 0x1b8]\n  6954: a1 = u32 [a0 + 0x10]\n  6957: u64 [s1 + 0x1a8] = a1\n  6961: a1 = u64 [a0 + 0x8]\n  6964: u64 [s1 + 0x1a0] = a1\n  6968: a0 = u64 [a0]\n  6970: u64 [s1 + 0x1b8] = a0\n  6974: a0 = u64 [s1 + 0x1b0]\n  6978: i32 a1 = a0 + 0x64\n  6981: a0 = s1 + 0x2000\n  6985: i32 a0 = a0 + 0x7a0\n  6989: ecalli 1 // 'call_data_load'\n  6991: fallthrough\n      : @220 (gas: 30)\n  6992: t0 = u64 [s1 + 0x198]\n  6996: t1 = u64 [s1 + 0x150]\n  7000: t2 = t1 <u t0\n  7003: a5 = u64 [s1 + 0x190]\n  7007: a1 = u64 [s1 + 0x148]\n  7011: a3 = a1 ^ a5\n  7014: a2 = a1 <u a5\n  7017: a2 = t2 if a3 == 0\n  7020: a3 = u64 [s1 + 0x178]\n  7024: a4 = u64 [s1 + 0x128]\n  7028: a0 = a4 - a3\n  7031: ra = a4 <u a3\n  7034: a4 = u64 [s1 + 0x188]\n  7038: a3 = u64 [s1 + 0x130]\n  7042: a4 = a3 - a4\n  7045: a4 = a4 - ra\n  7048: a3 = a0 <u a2\n  7051: a4 = a4 - a3\n  7054: a2 = a0 - a2\n  7057: a1 = a1 - a5\n  7060: a0 = a1 - t2\n  7063: a1 = t1 - t0\n  7066: a0 = a0 | a4\n  7069: a3 = a1 | a2\n  7072: a3 = a3 | a0\n  7075: a0 = a0 | a2\n  7078: a3 = a3 >> 0x20\n  7081: a0 = a0 << 0x20\n  7084: a0 = a0 | a3\n  7087: jump @222 if a0 == 0\n      : @221 (gas: 1)\n  7090: jump @558\n      : @222 (gas: 53)\n  7093: a2 = s1 + 0x2118\n  7097: t2 = u64 [a2 + 0x688]\n  7101: ra = u64 [a2 + 0x690]\n  7105: a0 = u64 [a2 + 0x698]\n  7109: a2 = u64 [a2 + 0x6a0]\n  7113: a3 = u64 [s1 + 0x1a0]\n  7117: a3 = reverse a3\n  7119: a4 = a3 << 0x20\n  7122: a5 = u64 [s1 + 0x1a8]\n  7126: a5 = reverse a5\n  7128: a5 = a5 >> 0x20\n  7131: a4 = a4 | a5\n  7134: u64 [s1 + 0x1b0] = a4\n  7138: a4 = u64 [s1 + 0x1b8]\n  7142: a4 = reverse a4\n  7144: a5 = a4 << 0x20\n  7147: a3 = a3 >> 0x20\n  7150: t1 = a5 | a3\n  7153: a3 = a4 >> 0x20\n  7156: t0 = s1 + 0x1118\n  7160: u64 [t0 + 0x1c0] = a2\n  7164: u64 [t0 + 0x1b8] = a0\n  7168: u64 [t0 + 0x1b0] = ra\n  7172: u64 [t0 + 0x1a8] = t2\n  7176: a0 = u64 [s1 + 0x158]\n  7180: u64 [t0 + 0x1d0] = a0\n  7184: a0 = u64 [s1 + 0x160]\n  7188: u64 [t0 + 0x1c8] = a0\n  7192: a0 = u64 [0x200b8]\n  7197: a2 = u64 [0x200c0]\n  7202: a4 = u64 [0x200c8]\n  7207: a5 = u64 [0x200d0]\n  7212: u64 [t0 + 0x200] = a0\n  7216: u64 [t0 + 0x1f8] = a2\n  7220: a2 = t0 + 0x100\n  7224: u64 [a2 + 0xf0] = a4\n  7228: u64 [a2 + 0xe8] = a5\n  7232: u64 [a2 + 0x98] = a3\n  7236: a0 = u64 [s1 + 0x168]\n  7240: u64 [a2 + 0xd8] = a0\n  7244: a0 = u64 [s1 + 0x170]\n  7248: u64 [a2 + 0xe0] = a0\n  7252: u64 [t0 + 0x190] = t1\n  7256: a0 = u64 [s1 + 0x1b0]\n  7260: u64 [a2 + 0x88] = a0\n  7264: a2 = s1 + 0x1300\n  7268: a3 = s1 + 0x12e0\n  7272: a4 = s1 + 0x12c0\n  7276: a5 = s1 + 0x12a0\n  7280: u64 [t0 + 416] = 0\n  7284: a0 = u64 [s1 + 0x198]\n  7288: ra = 0x1fe\n  7292: jump @10\n      : @223 (gas: 9)\n  7295: u64 [a3 + 384] = 0\n  7299: u64 [a3 + 376] = 0\n  7303: u64 [a3 + 368] = 0\n  7307: u64 [a3 + 360] = 0\n  7311: a0 = s1 + 0x3000\n  7315: i32 a0 = a0 + 0xfffffffffffffa80\n  7319: ra = 0xe8\n  7323: ecalli 11 // 'value_transferred'\n  7325: fallthrough\n      : @224 [@dyn 116] (gas: 10)\n  7326: a3 = s1 + 0x2918\n  7330: a4 = a3 + 0x100\n  7334: a0 = u64 [a4 + 0x78]\n  7337: a1 = u64 [a4 + 0x80]\n  7341: a2 = u64 [a4 + 0x70]\n  7344: a3 = u64 [a4 + 0x68]\n  7347: a1 = a1 | a2\n  7350: a0 = a0 | a3\n  7353: a0 = a0 | a1\n  7356: jump @226 if a0 == 0\n      : @225 (gas: 1)\n  7359: jump @612\n      : @226 (gas: 1)\n  7362: t0 = 234, jump @890\n      : @227 [@dyn 117] (gas: 1)\n  7368: jump @229 if a1 <u a0\n      : @228 (gas: 1)\n  7371: jump @612\n      : @229 (gas: 19)\n  7374: a0 = s1 + 0x3000\n  7378: i32 a0 = a0 + 0xfffffffffffffaa0\n  7382: a1 = 0x4\n  7385: ecalli 1 // 'call_data_load'\n  7387: a3 = s1 + 0x2918\n  7391: a4 = a3 + 0x100\n  7395: a0 = u64 [a4 + 0x88]\n  7399: a1 = u64 [a4 + 0x90]\n  7403: a2 = u64 [a4 + 0x98]\n  7407: a3 = u64 [a4 + 0xa0]\n  7411: a4 = s1 + 0x2118\n  7415: a5 = a4 + 0x200\n  7419: u64 [a5 + 0xa0] = a3\n  7423: u64 [a5 + 0x98] = a2\n  7427: u64 [a5 + 0x90] = a1\n  7431: a1 = s1 + 0x23a0\n  7435: u64 [a5 + 0x88] = a0\n  7439: a0 = 0\n  7441: ra = 236, jump @4\n      : @230 [@dyn 118] (gas: 3)\n  7447: t0 = 0xee\n  7451: a2 = s1 + 0x2118\n  7455: fallthrough\n      : @231 [@dyn 119] (gas: 7)\n  7456: u64 [a2 + 640] = 0\n  7460: u64 [a2 + 632] = 0\n  7464: u64 [a2 + 616] = 0x2\n  7469: a0 = 0x20\n  7472: a1 = s1 + 0x2380\n  7476: u64 [a2 + 624] = 0\n  7480: ra = 240, jump @4\n      : @232 [@dyn 120] (gas: 3)\n  7486: a1 = 0x40\n  7489: a0 = 0\n  7491: ra = 242, jump @13\n      : @233 [@dyn 121] (gas: 4)\n  7497: a1 = sp + 0xffffffffffffffe0\n  7500: a1 = a1 & 0xffffffffffffffe0\n  7503: u64 [s1 + 0x1b8] = a1\n  7507: t0 = 244, jump @870\n      : @234 [@dyn 122] (gas: 5)\n  7513: ra = 0xf6\n  7517: ecalli 6 // 'hash_keccak_256'\n  7519: a3 = u64 [s1 + 0x1b8]\n  7523: t0 = 0xf8\n  7527: jump @873\n      : @235 [@dyn 123] (gas: 2)\n  7530: a3 = u64 [s1 + 0x1b8]\n  7534: t0 = 248, jump @873\n      : @236 [@dyn 124] (gas: 8)\n  7540: a5 = a4 + 0x100\n  7544: u64 [a5 + 0xc0] = a3\n  7548: u64 [a5 + 0xb8] = a2\n  7552: u64 [a5 + 0xb0] = a1\n  7556: u64 [a5 + 0xa8] = a0\n  7560: a0 = s1 + 0x2360\n  7564: a1 = s1 + 0x2ac0\n  7568: ra = 250, jump @6\n      : @237 [@dyn 125] (gas: 6)\n  7574: a0 = s1 + 0x2118\n  7578: a0 = u64 [a0 + 0x248]\n  7582: u64 [s1 + 0x1b8] = a0\n  7586: a0 = s1 + 0x2340\n  7590: a1 = 0x40\n  7593: ra = 252, jump @2\n      : @238 [@dyn 126] (gas: 7)\n  7599: a3 = s1 + 0x2118\n  7603: a5 = a3 + 0x200\n  7607: a4 = u64 [a5 + 0x40]\n  7610: a1 = u64 [a5 + 0x38]\n  7613: a2 = u64 [a5 + 0x30]\n  7616: a0 = u64 [a5 + 0x28]\n  7619: t0 = 254, jump @882\n      : @239 [@dyn 127] (gas: 1)\n  7625: jump @241 if a1 == 0\n      : @240 (gas: 1)\n  7628: jump @558\n      : @241 (gas: 1)\n  7631: t0 = 256, jump @889\n      : @242 [@dyn 128] (gas: 6)\n  7637: i32 a1 = a1 + 0x320\n  7641: a1 = a1 + s1\n  7644: u64 [a3 + 528] = 0\n  7648: u64 [s1 + 0x1b8] = a0\n  7652: ra = 0x1c2\n  7656: jump @4\n      : @243 (gas: 10)\n  7659: u64 [a2 + 2016] = 0\n  7663: u64 [a2 + 2008] = 0\n  7667: u64 [a2 + 2000] = 0\n  7671: u64 [a2 + 1992] = 0\n  7675: a0 = s1 + 0x3000\n  7679: i32 a0 = a0 + 0xfffffffffffff8e0\n  7683: ra = 0x102\n  7687: ecalli 11 // 'value_transferred'\n  7689: t0 = 0x104\n  7693: jump @885\n      : @244 [@dyn 129] (gas: 1)\n  7696: t0 = 260, jump @885\n      : @245 [@dyn 130] (gas: 8)\n  7702: a0 = u64 [a4 + 0xd8]\n  7706: a1 = u64 [a4 + 0xe0]\n  7710: a2 = u64 [a4 + 0xd0]\n  7714: a3 = u64 [a4 + 0xc8]\n  7718: a1 = a1 | a2\n  7721: a0 = a0 | a3\n  7724: a0 = a0 | a1\n  7727: jump @247 if a0 == 0\n      : @246 (gas: 1)\n  7730: jump @612\n      : @247 (gas: 3)\n  7733: a0 = u64 [s1 + 0x1b8]\n  7737: a0 = i32 [a0]\n  7739: jump @249 if a0 >u 3\n      : @248 (gas: 1)\n  7743: jump @612\n      : @249 (gas: 3)\n  7746: a0 = s1 + 0x1dc0\n  7750: a1 = u64 [s1 + 0x1b0]\n  7754: ra = 262, jump @6\n      : @250 [@dyn 131] (gas: 12)\n  7760: a1 = s1 + 0x1918\n  7764: a2 = a1 + 0x400\n  7768: a0 = u64 [a2 + 0xb8]\n  7772: a1 = s1 + 0x100\n  7776: u64 [a1 + 0xa8] = a0\n  7780: a0 = u64 [a2 + 0xb0]\n  7784: u64 [a1 + 0xb8] = a0\n  7788: a0 = u64 [a2 + 0xa8]\n  7792: u64 [a1 + 0xb0] = a0\n  7796: a0 = s1 + 0x1da0\n  7800: a1 = 0x40\n  7803: ra = 264, jump @2\n      : @251 [@dyn 132] (gas: 7)\n  7809: a3 = s1 + 0x1918\n  7813: a5 = a3 + 0x400\n  7817: a4 = u64 [a5 + 0xa0]\n  7821: a1 = u64 [a5 + 0x98]\n  7825: a2 = u64 [a5 + 0x90]\n  7829: a0 = u64 [a5 + 0x88]\n  7833: t0 = 266, jump @882\n      : @252 [@dyn 133] (gas: 1)\n  7839: jump @254 if a1 == 0\n      : @253 (gas: 1)\n  7842: jump @558\n      : @254 (gas: 15)\n  7845: a4 = s1 + 0x100\n  7849: a1 = u64 [a4 + 0xa8]\n  7853: a1 = a1 << 0x20\n  7856: a2 = a1 >> 0x20\n  7859: u64 [a3 + 1152] = 0\n  7863: a1 = u64 [a4 + 0xb0]\n  7867: a5 = a3 + 0x400\n  7871: u64 [a5 + 0x68] = a1\n  7874: a1 = u64 [a4 + 0xb8]\n  7878: u64 [a5 + 0x70] = a1\n  7881: a1 = s1 + 0x1d80\n  7885: u64 [a5 + 0x78] = a2\n  7888: u64 [s1 + 0x1b8] = a0\n  7892: ra = 0x1c2\n  7896: jump @4\n      : @255 (gas: 9)\n  7899: u64 [a2 + 928] = 0\n  7903: u64 [a2 + 920] = 0\n  7907: u64 [a2 + 912] = 0\n  7911: u64 [a2 + 904] = 0\n  7915: a0 = s1 + 0x2000\n  7919: i32 a0 = a0 + 0x4a0\n  7923: ra = 0x10c\n  7927: ecalli 11 // 'value_transferred'\n  7929: fallthrough\n      : @256 [@dyn 134] (gas: 10)\n  7930: a3 = s1 + 0x2118\n  7934: a4 = a3 + 0x300\n  7938: a0 = u64 [a4 + 0x98]\n  7942: a1 = u64 [a4 + 0xa0]\n  7946: a2 = u64 [a4 + 0x90]\n  7950: a3 = u64 [a4 + 0x88]\n  7954: a1 = a1 | a2\n  7957: a0 = a0 | a3\n  7960: a0 = a0 | a1\n  7963: jump @258 if a0 == 0\n      : @257 (gas: 1)\n  7966: jump @612\n      : @258 (gas: 1)\n  7969: t0 = 270, jump @890\n      : @259 [@dyn 135] (gas: 1)\n  7975: jump @261 if a1 <u a0\n      : @260 (gas: 1)\n  7978: jump @612\n      : @261 (gas: 5)\n  7981: a0 = s1 + 0x2000\n  7985: i32 a0 = a0 + 0x4c0\n  7989: a1 = 0x4\n  7992: ecalli 1 // 'call_data_load'\n  7994: fallthrough\n      : @262 (gas: 8)\n  7995: a0 = s1 + 0x2118\n  7999: t0 = u64 [a0 + 0x3c0]\n  8003: t1 = u64 [a0 + 0x3b8]\n  8007: a1 = u64 [a0 + 0x3b0]\n  8011: a3 = t1 | t0\n  8014: a2 = a1 <u 0x1\n  8017: a2 = 0 if a3 != 0\n  8019: jump @264 if a2 != 0\n      : @263 (gas: 1)\n  8022: jump @612\n      : @264 (gas: 27)\n  8025: u64 [s1 + 0x180] = a3\n  8029: t2 = u64 [a0 + 0x3a8]\n  8033: a0 = u64 [s1 + 0x1b8]\n  8037: a3 = u32 [a0]\n  8039: a4 = a3 <u t2\n  8042: a5 = a1 >u 0\n  8044: a5 = a4 if a1 == 0\n  8047: a2 = -t1\n  8049: a0 = a2 - a5\n  8052: a2 = a2 <u a5\n  8055: a5 = t1 >u 0\n  8057: a5 = a5 + t0\n  8060: a5 = -a5\n  8062: a5 = a5 - a2\n  8065: a2 = -a1\n  8067: a2 = a2 - a4\n  8070: a3 = a3 - t2\n  8073: a3 = a3 <u 0x64\n  8076: a3 = a3 ^ 0x1\n  8079: a4 = a2 >u 0\n  8081: a4 = a3 if a2 == 0\n  8084: a2 = a5 >s 0\n  8086: a3 = a0 >u 0\n  8088: a3 = a2 if a5 != 0\n  8091: a0 = a0 | a5\n  8094: a4 = a3 if a0 != 0\n  8097: jump @266 if a4 != 0\n      : @265 (gas: 1)\n  8100: jump @612\n      : @266 (gas: 23)\n  8103: a0 = t2 + 0x4\n  8106: u64 [s1 + 0x1b8] = a0\n  8110: u64 [s1 + 0x188] = t2\n  8114: a0 = a0 <u t2\n  8117: a2 = a1 + a0\n  8120: u64 [s1 + 0x1b0] = a2\n  8124: u64 [s1 + 0x178] = a1\n  8128: a2 = a2 <u a1\n  8131: a2 = a0 if a0 == 0\n  8134: a2 = a2 + t1\n  8137: u64 [s1 + 0x1a8] = a2\n  8141: a0 = a2 <u t1\n  8144: a0 = a0 + t0\n  8147: u64 [s1 + 0x1a0] = a0\n  8151: a0 = 0x30230\n  8156: u64 [s1 + 0x198] = a0\n  8160: i32 a0 = a0 + 0\n  8162: u64 [s1 + 0x170] = a0\n  8166: ra = 0x110\n  8170: ecalli 3 // 'caller'\n  8172: a2 = u64 [s1 + 0x198]\n  8176: t0 = 0x112\n  8180: jump @880\n      : @267 [@dyn 136] (gas: 2)\n  8183: a2 = u64 [s1 + 0x198]\n  8187: t0 = 274, jump @880\n      : @268 [@dyn 137] (gas: 9)\n  8193: a2 = s1 + 0x1118\n  8197: u64 [a2 + 384] = 0\n  8201: a4 = a2 + 0x100\n  8205: u64 [a4 + 0x78] = a1\n  8208: u64 [a4 + 0x70] = a0\n  8211: a1 = s1 + 0x1280\n  8215: u64 [a4 + 0x68] = a3\n  8218: a0 = 0\n  8220: ra = 276, jump @4\n      : @269 [@dyn 138] (gas: 8)\n  8226: a2 = s1 + 0x1118\n  8230: u64 [a2 + 352] = 0\n  8234: u64 [a2 + 344] = 0\n  8238: u64 [a2 + 328] = 0x1\n  8243: a0 = 0x20\n  8246: a1 = s1 + 0x1260\n  8250: u64 [a2 + 336] = 0\n  8254: ra = 278, jump @4\n      : @270 [@dyn 139] (gas: 3)\n  8260: a1 = 0x40\n  8263: a0 = 0\n  8265: ra = 280, jump @13\n      : @271 [@dyn 140] (gas: 4)\n  8271: a1 = sp + 0xffffffffffffffe0\n  8274: a1 = a1 & 0xffffffffffffffe0\n  8277: u64 [s1 + 0x190] = a1\n  8281: t0 = 282, jump @870\n      : @272 [@dyn 141] (gas: 4)\n  8287: ra = 0x11c\n  8291: ecalli 6 // 'hash_keccak_256'\n  8293: t0 = 0x11e\n  8297: jump @881\n      : @273 [@dyn 142] (gas: 1)\n  8300: t0 = 286, jump @881\n      : @274 [@dyn 143] (gas: 8)\n  8306: a5 = a4 + 0x300\n  8310: u64 [a5 + 0xe0] = a3\n  8314: u64 [a5 + 0xd8] = a2\n  8318: u64 [a5 + 0xd0] = a1\n  8322: u64 [a5 + 0xc8] = a0\n  8326: a0 = s1 + 0x1240\n  8330: a1 = s1 + 0x24e0\n  8334: ra = 288, jump @6\n      : @275 [@dyn 144] (gas: 10)\n  8340: a1 = s1 + 0x1118\n  8344: a0 = u8 [a1 + 0x128]\n  8348: u64 [a1 + 288] = 0\n  8352: u64 [a1 + 280] = 0\n  8356: u64 [a1 + 0x108] = a0\n  8360: a0 = s1 + 0x1220\n  8364: u64 [a1 + 272] = 0\n  8368: ra = 0x122\n  8372: t0 = 0x30c\n  8376: jump @859\n      : @276 [@dyn 145] (gas: 18)\n  8379: a5 = s1 + 0x100\n  8383: a2 = u64 [a5 + 0xa0]\n  8387: a4 = s1 + 0x1118\n  8391: u64 [a4 + 0xc0] = a2\n  8395: a1 = u64 [a5 + 0xa8]\n  8399: u64 [a4 + 0xb8] = a1\n  8403: a0 = u64 [a5 + 0xb0]\n  8407: u64 [a4 + 0xb0] = a0\n  8411: a3 = u64 [a5 + 0xb8]\n  8415: u64 [a4 + 0xa8] = a3\n  8419: u64 [a4 + 0xe0] = a2\n  8423: u64 [a4 + 0xd8] = a1\n  8427: u64 [a4 + 0xd0] = a0\n  8431: a0 = s1 + 0x1200\n  8435: a1 = s1 + 0x11e0\n  8439: a2 = s1 + 0x11c0\n  8443: u64 [a4 + 0xc8] = a3\n  8447: ra = 292, jump @825\n      : @277 [@dyn 146] (gas: 2)\n  8453: a1 = s1 + 0x1118\n  8457: fallthrough\n      : @278 (gas: 12)\n  8458: a0 = u64 [a1 + 0x100]\n  8462: a2 = u64 [a1 + 0xf8]\n  8466: a3 = u64 [a1 + 0xf0]\n  8470: a1 = u64 [a1 + 0xe8]\n  8474: a0 = a0 | a3\n  8477: a3 = a1 | a2\n  8480: a3 = a3 | a0\n  8483: a3 = a3 >> 0x20\n  8486: a0 = a0 | a2\n  8489: a0 = a0 << 0x20\n  8492: a0 = a0 | a3\n  8495: jump @280 if a0 == 0\n      : @279 (gas: 1)\n  8498: jump @558\n      : @280 (gas: 18)\n  8501: i32 a1 = a1 + 0\n  8503: a0 = s1 + 0x2000\n  8507: i32 a0 = a0 + 0x500\n  8511: ecalli 1 // 'call_data_load'\n  8513: a3 = s1 + 0x2118\n  8517: a4 = a3 + 0x300\n  8521: a0 = u64 [a4 + 0xe8]\n  8525: a1 = u64 [a4 + 0xf0]\n  8529: a2 = u64 [a4 + 0xf8]\n  8533: a3 = u64 [a3 + 0x400]\n  8537: a4 = s1 + 0x1118\n  8541: u64 [a4 + 0xa0] = a3\n  8545: u64 [a4 + 0x98] = a2\n  8549: u64 [a4 + 0x90] = a1\n  8553: a1 = s1 + 0x11a0\n  8557: u64 [a4 + 0x88] = a0\n  8561: a0 = 0\n  8563: ra = 294, jump @4\n      : @281 [@dyn 147] (gas: 8)\n  8569: a2 = s1 + 0x1118\n  8573: u64 [a2 + 128] = 0\n  8577: u64 [a2 + 120] = 0\n  8580: u64 [a2 + 104] = 0x2\n  8584: a0 = 0x20\n  8587: a1 = s1 + 0x1180\n  8591: u64 [a2 + 112] = 0\n  8594: ra = 296, jump @4\n      : @282 [@dyn 148] (gas: 3)\n  8600: a1 = 0x40\n  8603: a0 = 0\n  8605: ra = 298, jump @13\n      : @283 [@dyn 149] (gas: 4)\n  8611: a1 = sp + 0xffffffffffffffe0\n  8614: a1 = a1 & 0xffffffffffffffe0\n  8617: u64 [s1 + 0x190] = a1\n  8621: t0 = 300, jump @870\n      : @284 [@dyn 150] (gas: 4)\n  8627: ra = 0x12e\n  8631: ecalli 6 // 'hash_keccak_256'\n  8633: t0 = 0x130\n  8637: jump @881\n      : @285 [@dyn 151] (gas: 1)\n  8640: t0 = 304, jump @881\n      : @286 [@dyn 152] (gas: 8)\n  8646: a5 = a4 + 0x400\n  8650: u64 [a5 + 0x20] = a3\n  8653: u64 [a5 + 0x18] = a2\n  8656: u64 [a5 + 0x10] = a1\n  8659: u64 [a5 + 0x8] = a0\n  8662: a0 = s1 + 0x1160\n  8666: a1 = s1 + 0x2520\n  8670: ra = 306, jump @6\n      : @287 [@dyn 153] (gas: 10)\n  8676: a1 = s1 + 0x1118\n  8680: a0 = u8 [a1 + 0x48]\n  8683: u64 [a1 + 64] = 0\n  8686: u64 [a1 + 56] = 0\n  8689: u64 [a1 + 0x28] = a0\n  8692: a0 = s1 + 0x1140\n  8696: u64 [a1 + 48] = 0\n  8699: ra = 0x134\n  8703: t0 = 0x3e0\n  8707: jump @859\n      : @288 [@dyn 154] (gas: 21)\n  8710: a5 = s1 + 0x100\n  8714: a2 = u64 [a5 + 0xa0]\n  8718: a4 = s1 + 0x7ff\n  8722: a4 = a4 + 0x119\n  8726: u64 [a4 + 0x7e0] = a2\n  8730: a1 = u64 [a5 + 0xa8]\n  8734: u64 [a4 + 0x7d8] = a1\n  8738: a0 = u64 [a5 + 0xb0]\n  8742: u64 [a4 + 0x7d0] = a0\n  8746: a3 = u64 [a5 + 0xb8]\n  8750: u64 [a4 + 0x7c8] = a3\n  8754: a4 = s1 + 0x1118\n  8758: u64 [a4] = a2\n  8760: a5 = a4 + 0xffffffffffffff00\n  8764: u64 [a5 + 0xf8] = a1\n  8768: u64 [a5 + 0xf0] = a0\n  8772: a0 = s1 + 0x1120\n  8776: a1 = s1 + 0x1100\n  8780: a2 = s1 + 0x10e0\n  8784: u64 [a5 + 0xe8] = a3\n  8788: ra = 310, jump @825\n      : @289 [@dyn 155] (gas: 7)\n  8794: a1 = s1 + 0x1118\n  8798: a0 = u64 [a1 + 0x8]\n  8801: a2 = u64 [a1 + 0x20]\n  8804: a3 = u64 [a1 + 0x10]\n  8807: a4 = u64 [a1 + 0x18]\n  8810: a1 = a0 + 0x20\n  8813: t0 = 312, jump @860\n      : @290 [@dyn 156] (gas: 1)\n  8819: jump @292 if a0 == 0\n      : @291 (gas: 1)\n  8822: jump @558\n      : @292 (gas: 24)\n  8825: i32 a1 = a1 + 0\n  8827: a0 = s1 + 0x2000\n  8831: i32 a0 = a0 + 0x540\n  8835: ecalli 1 // 'call_data_load'\n  8837: a3 = s1 + 0x2118\n  8841: a4 = a3 + 0x400\n  8845: a0 = u64 [a4 + 0x38]\n  8848: a1 = u64 [a4 + 0x40]\n  8851: a2 = u64 [a4 + 0x30]\n  8854: a3 = u64 [a4 + 0x28]\n  8857: a1 = a1 | a2\n  8860: a0 = a0 | a3\n  8863: a0 = a0 | a1\n  8866: a0 = a0 >u 0\n  8868: a1 = s1 + 0x7ff\n  8872: a1 = a1 + 0x119\n  8876: u64 [a1 + 1984] = 0\n  8880: u64 [a1 + 1976] = 0\n  8884: u64 [a1 + 0x7a8] = a0\n  8888: a0 = s1 + 0x10c0\n  8892: u64 [a1 + 1968] = 0\n  8896: ra = 0x13a\n  8900: t0 = 0x32c\n  8904: jump @859\n      : @293 [@dyn 157] (gas: 20)\n  8907: a5 = s1 + 0x100\n  8911: a2 = u64 [a5 + 0xa0]\n  8915: a4 = s1 + 0x7ff\n  8919: a4 = a4 + 0x119\n  8923: u64 [a4 + 0x760] = a2\n  8927: a1 = u64 [a5 + 0xa8]\n  8931: u64 [a4 + 0x758] = a1\n  8935: a0 = u64 [a5 + 0xb0]\n  8939: u64 [a4 + 0x750] = a0\n  8943: a3 = u64 [a5 + 0xb8]\n  8947: a5 = a4 + 0x700\n  8951: u64 [a5 + 0x48] = a3\n  8954: u64 [a5 + 0x80] = a2\n  8958: u64 [a5 + 0x78] = a1\n  8961: u64 [a5 + 0x70] = a0\n  8964: a0 = s1 + 0x10a0\n  8968: a1 = s1 + 0x1080\n  8972: a2 = s1 + 0x1060\n  8976: u64 [a5 + 0x68] = a3\n  8979: ra = 316, jump @825\n      : @294 [@dyn 158] (gas: 9)\n  8985: a1 = s1 + 0x7ff\n  8989: a1 = a1 + 0x119\n  8993: a5 = a1 + 0x700\n  8997: a0 = u64 [a5 + 0x88]\n  9001: a2 = u64 [a5 + 0xa0]\n  9005: a3 = u64 [a5 + 0x90]\n  9009: a4 = u64 [a5 + 0x98]\n  9013: a1 = a0 + 0x40\n  9016: t0 = 318, jump @860\n      : @295 [@dyn 159] (gas: 1)\n  9022: jump @297 if a0 == 0\n      : @296 (gas: 1)\n  9025: jump @558\n      : @297 (gas: 24)\n  9028: i32 a1 = a1 + 0\n  9030: a0 = s1 + 0x2000\n  9034: i32 a0 = a0 + 0x560\n  9038: ecalli 1 // 'call_data_load'\n  9040: a3 = s1 + 0x2118\n  9044: a4 = a3 + 0x400\n  9048: a0 = u64 [a4 + 0x58]\n  9051: a1 = u64 [a4 + 0x60]\n  9054: a2 = u64 [a4 + 0x50]\n  9057: a3 = u64 [a4 + 0x48]\n  9060: a1 = a1 | a2\n  9063: a0 = a0 | a3\n  9066: a0 = a0 | a1\n  9069: a0 = a0 >u 0\n  9071: a1 = s1 + 0x7ff\n  9075: a1 = a1 + 0x119\n  9079: u64 [a1 + 1856] = 0\n  9083: u64 [a1 + 1848] = 0\n  9087: u64 [a1 + 0x728] = a0\n  9091: a0 = s1 + 0x1040\n  9095: u64 [a1 + 1840] = 0\n  9099: ra = 0x140\n  9103: t0 = 0x34c\n  9107: jump @859\n      : @298 [@dyn 160] (gas: 21)\n  9110: a3 = u64 [s1 + 0x1a0]\n  9114: a5 = s1 + 0x7ff\n  9118: a5 = a5 + 0x119\n  9122: u64 [a5 + 0x6e0] = a3\n  9126: a2 = u64 [s1 + 0x1a8]\n  9130: u64 [a5 + 0x6d8] = a2\n  9134: a1 = u64 [s1 + 0x1b0]\n  9138: u64 [a5 + 0x6d0] = a1\n  9142: a0 = u64 [s1 + 0x1b8]\n  9146: u64 [a5 + 0x6c8] = a0\n  9150: a4 = a0\n  9152: u64 [a5 + 0x700] = a3\n  9156: a3 = a5 + 0x600\n  9160: u64 [a3 + 0xf8] = a2\n  9164: u64 [a3 + 0xf0] = a1\n  9168: a0 = s1 + 0x1020\n  9172: a1 = s1 + 0x1000\n  9176: a2 = s1 + 0x7ff\n  9180: a2 = a2 + 0x7e1\n  9184: u64 [a3 + 0xe8] = a4\n  9188: ra = 322, jump @825\n      : @299 [@dyn 161] (gas: 31)\n  9194: a4 = s1 + 0x7ff\n  9198: a4 = a4 + 0x119\n  9202: a1 = a4 + 0x700\n  9206: a0 = u64 [a1 + 0x8]\n  9209: t0 = u64 [a4 + 0x720]\n  9213: a2 = u64 [a1 + 0x10]\n  9216: a3 = u64 [a1 + 0x18]\n  9219: t2 = a0 + 0x80\n  9223: a5 = t2 <u a0\n  9226: t1 = a2 + a5\n  9229: a1 = t1 <u a2\n  9232: a1 = a5 if a5 == 0\n  9235: a1 = a1 + a3\n  9238: a5 = a1 <u a3\n  9241: a5 = a5 + t0\n  9244: u64 [a4 + 0x648] = t2\n  9248: u64 [a4 + 0x680] = t0\n  9252: u64 [a4 + 0x678] = a3\n  9256: a3 = a4 + 0x600\n  9260: u64 [a3 + 0x70] = a2\n  9263: u64 [a3 + 0x68] = a0\n  9266: u64 [a4 + 0x650] = t1\n  9270: u64 [a3 + 0x58] = a1\n  9273: a0 = s1 + 0x7ff\n  9277: a0 = a0 + 0x7a1\n  9281: a1 = s1 + 0x7ff\n  9285: a1 = a1 + 0x781\n  9289: a2 = s1 + 0x7ff\n  9293: a2 = a2 + 0x761\n  9297: u64 [a3 + 0x60] = a5\n  9300: ra = 324, jump @724\n      : @300 [@dyn 162] (gas: 20)\n  9306: a4 = s1 + 0x7ff\n  9310: a4 = a4 + 0x119\n  9314: a5 = a4 + 0x600\n  9318: a0 = u64 [a5 + 0xb8]\n  9322: a1 = u64 [a5 + 0xc0]\n  9326: a2 = u64 [a5 + 0xb0]\n  9330: a3 = u64 [a5 + 0xa8]\n  9334: a1 = a1 | a2\n  9337: a0 = a0 | a3\n  9340: a0 = a0 | a1\n  9343: a0 = a0 >u 0\n  9345: u64 [a4 + 1600] = 0\n  9349: u64 [a4 + 1592] = 0\n  9353: u64 [a5 + 0x28] = a0\n  9356: a0 = s1 + 0x7ff\n  9360: a0 = a0 + 0x741\n  9364: u64 [a4 + 1584] = 0\n  9368: ra = 0x146\n  9372: t0 = 0x370\n  9376: jump @859\n      : @301 [@dyn 163] (gas: 22)\n  9379: a2 = u64 [s1 + 0x1a0]\n  9383: a4 = s1 + 0x7ff\n  9387: a4 = a4 + 0x119\n  9391: a5 = a4 + 0x500\n  9395: u64 [a5 + 0xe0] = a2\n  9399: a1 = u64 [s1 + 0x1a8]\n  9403: u64 [a5 + 0xd8] = a1\n  9407: a0 = u64 [s1 + 0x1b0]\n  9411: u64 [a5 + 0xd0] = a0\n  9415: a3 = u64 [s1 + 0x1b8]\n  9419: u64 [a5 + 0xc8] = a3\n  9423: u64 [a4 + 0x600] = a2\n  9427: u64 [a5 + 0xf8] = a1\n  9431: u64 [a5 + 0xf0] = a0\n  9435: a0 = s1 + 0x7ff\n  9439: a0 = a0 + 0x721\n  9443: a1 = s1 + 0x7ff\n  9447: a1 = a1 + 0x701\n  9451: a2 = s1 + 0x7ff\n  9455: a2 = a2 + 0x6e1\n  9459: u64 [a5 + 0xe8] = a3\n  9463: ra = 328, jump @825\n      : @302 [@dyn 164] (gas: 31)\n  9469: a4 = s1 + 0x7ff\n  9473: a4 = a4 + 0x119\n  9477: a1 = a4 + 0x600\n  9481: a0 = u64 [a1 + 0x8]\n  9484: t0 = u64 [a4 + 0x620]\n  9488: a2 = u64 [a1 + 0x10]\n  9491: a3 = u64 [a1 + 0x18]\n  9494: t2 = a0 + 0xc0\n  9498: a5 = t2 <u a0\n  9501: t1 = a2 + a5\n  9504: a1 = t1 <u a2\n  9507: a1 = a5 if a5 == 0\n  9510: a1 = a1 + a3\n  9513: a5 = a1 <u a3\n  9516: a5 = a5 + t0\n  9519: u64 [a4 + 0x548] = t2\n  9523: u64 [a4 + 0x580] = t0\n  9527: u64 [a4 + 0x578] = a3\n  9531: a3 = a4 + 0x500\n  9535: u64 [a3 + 0x70] = a2\n  9538: u64 [a3 + 0x68] = a0\n  9541: u64 [a4 + 0x550] = t1\n  9545: u64 [a3 + 0x58] = a1\n  9548: a0 = s1 + 0x7ff\n  9552: a0 = a0 + 0x6a1\n  9556: a1 = s1 + 0x7ff\n  9560: a1 = a1 + 0x681\n  9564: a2 = s1 + 0x7ff\n  9568: a2 = a2 + 0x661\n  9572: u64 [a3 + 0x60] = a5\n  9575: ra = 330, jump @724\n      : @303 [@dyn 165] (gas: 20)\n  9581: a4 = s1 + 0x7ff\n  9585: a4 = a4 + 0x119\n  9589: a5 = a4 + 0x500\n  9593: a0 = u64 [a5 + 0xb8]\n  9597: a1 = u64 [a5 + 0xc0]\n  9601: a2 = u64 [a5 + 0xb0]\n  9605: a3 = u64 [a5 + 0xa8]\n  9609: a1 = a1 | a2\n  9612: a0 = a0 | a3\n  9615: a0 = a0 | a1\n  9618: a0 = a0 >u 0\n  9620: u64 [a4 + 1344] = 0\n  9624: u64 [a4 + 1336] = 0\n  9628: u64 [a5 + 0x28] = a0\n  9631: a0 = s1 + 0x7ff\n  9635: a0 = a0 + 0x641\n  9639: u64 [a4 + 1328] = 0\n  9643: ra = 0x14c\n  9647: t0 = 0x390\n  9651: jump @859\n      : @304 [@dyn 166] (gas: 23)\n  9654: a0 = s1 + 0x7ff\n  9658: a0 = a0 + 0x119\n  9662: a4 = u64 [s1 + 0x1a0]\n  9666: a5 = a0 + 0x400\n  9670: u64 [a5 + 0xe0] = a4\n  9674: a2 = u64 [s1 + 0x1a8]\n  9678: u64 [a5 + 0xd8] = a2\n  9682: a1 = u64 [s1 + 0x1b0]\n  9686: u64 [a5 + 0xd0] = a1\n  9690: a3 = u64 [s1 + 0x1b8]\n  9694: u64 [a5 + 0xc8] = a3\n  9698: u64 [a0 + 0x500] = a4\n  9702: u64 [a5 + 0xf8] = a2\n  9706: u64 [a5 + 0xf0] = a1\n  9710: a4 = a0\n  9712: a0 = s1 + 0x7ff\n  9716: a0 = a0 + 0x621\n  9720: a1 = s1 + 0x7ff\n  9724: a1 = a1 + 0x601\n  9728: a2 = s1 + 0x7ff\n  9732: a2 = a2 + 0x5e1\n  9736: u64 [a4 + 0x4e8] = a3\n  9740: ra = 334, jump @825\n      : @305 [@dyn 167] (gas: 26)\n  9746: a1 = s1 + 0x7ff\n  9750: a1 = a1 + 0x119\n  9754: a4 = a1 + 0x500\n  9758: a0 = u64 [a4 + 0x8]\n  9761: t0 = u64 [a1 + 0x520]\n  9765: a2 = u64 [a4 + 0x10]\n  9768: a3 = u64 [a4 + 0x18]\n  9771: a4 = a0 + 0xa0\n  9775: a0 = a4 <u a0\n  9778: a5 = a2 + a0\n  9781: a2 = a5 <u a2\n  9784: a2 = a0 if a0 == 0\n  9787: a2 = a2 + a3\n  9790: a0 = a2 <u a3\n  9793: a3 = t0 + a0\n  9796: a0 = a1 + 0x400\n  9800: u64 [a0 + 0x88] = a4\n  9804: u64 [a0 + 0x90] = a5\n  9808: u64 [a0 + 0x98] = a2\n  9812: a2 = a1\n  9814: a0 = s1 + 0x7ff\n  9818: a0 = a0 + 0x5c1\n  9822: a1 = s1 + 0x7ff\n  9826: a1 = a1 + 0x5a1\n  9830: u64 [a2 + 0x4a0] = a3\n  9834: ra = 336, jump @784\n      : @306 [@dyn 168] (gas: 18)\n  9840: a3 = s1 + 0x7ff\n  9844: a3 = a3 + 0x119\n  9848: a0 = u32 [a3 + 0x4b8]\n  9852: a4 = a3 + 0x400\n  9856: a1 = u64 [a4 + 0xa8]\n  9860: a2 = u64 [a4 + 0xb0]\n  9864: a0 = a0 | a1\n  9867: a0 = a0 | a2\n  9870: a0 = a0 >u 0\n  9872: u64 [a3 + 1152] = 0\n  9876: u64 [a3 + 1144] = 0\n  9880: u64 [a4 + 0x68] = a0\n  9883: a0 = s1 + 0x7ff\n  9887: a0 = a0 + 0x581\n  9891: u64 [a3 + 1136] = 0\n  9895: ra = 0x152\n  9899: t0 = 0x3b6\n  9903: jump @859\n      : @307 [@dyn 169] (gas: 9)\n  9906: a0 = 0xffffffbc\n  9916: a3 = s1 + 0x100\n  9920: a1 = u64 [a3 + 0x88]\n  9924: a0 = a1 <u a0\n  9927: a2 = u64 [a3 + 0x78]\n  9930: a0 = 0 if a2 != 0\n  9932: a2 = u64 [a3 + 0x80]\n  9936: a0 = 0 if a2 != 0\n  9938: jump @309 if a0 != 0\n      : @308 (gas: 1)\n  9941: jump @558\n      : @309 (gas: 5)\n  9944: i32 a1 = a1 + 0x44\n  9947: a0 = s1 + 0x2000\n  9951: i32 a0 = a0 + 0x580\n  9955: ecalli 1 // 'call_data_load'\n  9957: fallthrough\n      : @310 (gas: 17)\n  9958: a0 = s1 + 0x2118\n  9962: t0 = u64 [a0 + 0x480]\n  9966: a1 = a0 + 0x400\n  9970: a4 = u64 [a1 + 0x78]\n  9973: a5 = u64 [a1 + 0x70]\n  9976: a3 = u64 [a1 + 0x68]\n  9979: a0 = a5 | t0\n  9982: a1 = a3 | a4\n  9985: a0 = a0 | a1\n  9988: a2 = s1 + 0x7ff\n  9992: a2 = a2 + 0x119\n  9996: u64 [s1 + 0x190] = t0\n 10000: a1 = s1 + 0x100\n 10004: u64 [a1 + 0x80] = a4\n 10008: u64 [a1 + 0x78] = a5\n 10011: u64 [a1 + 0x68] = a3\n 10014: jump @312 if a0 != 0\n      : @311 (gas: 1)\n 10017: jump @559\n      : @312 (gas: 9)\n 10020: a0 = a2 + 0x400\n 10024: u64 [a0 + 0x48] = a3\n 10027: u64 [a0 + 0x50] = a5\n 10030: u64 [a0 + 0x58] = a4\n 10033: a1 = s1 + 0x7ff\n 10037: a1 = a1 + 0x561\n 10041: u64 [a2 + 0x460] = t0\n 10045: a0 = 0\n 10047: ra = 340, jump @4\n      : @313 [@dyn 170] (gas: 16)\n 10053: a0 = s1 + 0x7ff\n 10057: a0 = a0 + 0x119\n 10061: u64 [a0 + 1088] = 0\n 10065: a0 = s1 + 0x7ff\n 10069: a0 = a0 + 0x119\n 10073: u64 [a0 + 1080] = 0\n 10077: a1 = s1 + 0x7ff\n 10081: a1 = a1 + 0x119\n 10085: u64 [a1 + 1064] = 0x2\n 10090: a0 = 0x20\n 10093: a1 = s1 + 0x7ff\n 10097: a1 = a1 + 0x541\n 10101: a2 = s1 + 0x7ff\n 10105: a2 = a2 + 0x119\n 10109: u64 [a2 + 1072] = 0\n 10113: ra = 342, jump @4\n      : @314 [@dyn 171] (gas: 3)\n 10119: a1 = 0x40\n 10122: a0 = 0\n 10124: ra = 344, jump @13\n      : @315 [@dyn 172] (gas: 4)\n 10130: a1 = sp + 0xffffffffffffffe0\n 10133: a1 = a1 & 0xffffffffffffffe0\n 10136: u64 [s1 + 0x160] = a1\n 10140: t0 = 346, jump @870\n      : @316 [@dyn 173] (gas: 20)\n 10146: ecalli 6 // 'hash_keccak_256'\n 10148: a3 = u64 [s1 + 0x160]\n 10152: a0 = u64 [a3 + 0x18]\n 10155: a1 = u64 [a3 + 0x10]\n 10158: a2 = u64 [a3 + 0x8]\n 10161: a3 = u64 [a3]\n 10163: a0 = reverse a0\n 10165: a1 = reverse a1\n 10167: a2 = reverse a2\n 10169: a3 = reverse a3\n 10171: a4 = s1 + 0x2118\n 10175: a5 = a4 + 0x400\n 10179: u64 [a5 + 0xa0] = a3\n 10183: u64 [a5 + 0x98] = a2\n 10187: u64 [a5 + 0x90] = a1\n 10191: u64 [a5 + 0x88] = a0\n 10195: a0 = s1 + 0x7ff\n 10199: a0 = a0 + 0x521\n 10203: a1 = s1 + 0x25a0\n 10207: ra = 348, jump @6\n      : @317 [@dyn 174] (gas: 4)\n 10213: a2 = s1 + 0x7ff\n 10217: a2 = a2 + 0x119\n 10221: a0 = u8 [a2 + 0x408]\n 10225: jump @319 if a0 == 0\n      : @318 (gas: 1)\n 10228: jump @559\n      : @319 (gas: 4)\n 10231: a0 = s1 + 0x7ff\n 10235: a0 = a0 + 0x501\n 10239: a1 = 0x40\n 10242: ra = 350, jump @2\n      : @320 [@dyn 175] (gas: 15)\n 10248: a2 = s1 + 0x7ff\n 10252: a2 = a2 + 0x119\n 10256: t0 = u64 [a2 + 0x400]\n 10260: a1 = a2 + 0x300\n 10264: a5 = u64 [a1 + 0xf8]\n 10268: a4 = u64 [a1 + 0xf0]\n 10272: a0 = u64 [a1 + 0xe8]\n 10276: a3 = a4 | t0\n 10279: a1 = a0 | a5\n 10282: a1 = a1 | a3\n 10285: a1 = a1 >> 0x20\n 10288: a3 = a3 | a5\n 10291: a3 = a3 << 0x20\n 10294: a1 = a1 | a3\n 10297: jump @322 if a1 == 0\n      : @321 (gas: 1)\n 10300: jump @558\n      : @322 (gas: 12)\n 10303: u64 [a2 + 984] = 0\n 10307: u64 [a2 + 976] = 0\n 10311: u64 [a2 + 968] = 0\n 10315: a3 = 0x8c379a000000000\n 10325: a1 = s1 + 0x7ff\n 10329: a1 = a1 + 0x4e1\n 10333: u64 [a2 + 0x3e0] = a3\n 10337: u64 [s1 + 0x1b8] = a0\n 10341: u64 [s1 + 0x1b0] = a4\n 10345: u64 [s1 + 0x1a0] = t0\n 10349: u64 [s1 + 0x1a8] = a5\n 10353: ra = 352, jump @4\n      : @323 [@dyn 176] (gas: 6)\n 10359: a5 = s1 + 0x100\n 10363: a1 = u64 [a5 + 0xb8]\n 10367: a0 = u64 [a5 + 0xa8]\n 10371: a3 = u64 [a5 + 0xa0]\n 10375: a3 = a3 | a0\n 10378: t0 = 354, jump @862\n      : @324 [@dyn 177] (gas: 1)\n 10384: jump @326 if a0 != 0\n      : @325 (gas: 1)\n 10387: jump @558\n      : @326 (gas: 13)\n 10390: i32 a0 = a1 + 0x4\n 10393: a2 = s1 + 0x7ff\n 10397: a2 = a2 + 0x119\n 10401: u64 [a2 + 960] = 0\n 10405: u64 [a2 + 952] = 0\n 10409: u64 [a2 + 944] = 0\n 10413: a5 = 0x20\n 10416: a1 = s1 + 0x7ff\n 10420: a1 = a1 + 0x4c1\n 10424: u64 [a2 + 0x3a8] = a5\n 10428: u64 [s1 + 0x1a8] = a3\n 10432: u64 [s1 + 0x1a0] = a4\n 10436: ra = 356, jump @4\n      : @327 [@dyn 178] (gas: 1)\n 10442: t0 = 358, jump @867\n      : @328 [@dyn 179] (gas: 1)\n 10448: jump @330 if a0 != 0\n      : @329 (gas: 1)\n 10451: jump @558\n      : @330 (gas: 10)\n 10454: i32 a0 = a1 + 0x24\n 10457: a2 = s1 + 0x7ff\n 10461: a2 = a2 + 0x119\n 10465: u64 [a2 + 928] = 0\n 10469: u64 [a2 + 920] = 0\n 10473: u64 [a2 + 904] = 0x20\n 10478: a1 = s1 + 0x7ff\n 10482: a1 = a1 + 0x4a1\n 10486: u64 [a2 + 912] = 0\n 10490: ra = 360, jump @4\n      : @331 [@dyn 180] (gas: 1)\n 10496: t0 = 362, jump @863\n      : @332 [@dyn 181] (gas: 1)\n 10502: jump @334 if a0 != 0\n      : @333 (gas: 1)\n 10505: jump @558\n      : @334 (gas: 16)\n 10508: i32 a0 = a3 + 0x44\n 10511: a1 = u64 [0x200d8]\n 10516: a4 = s1 + 0x7ff\n 10520: a4 = a4 + 0x119\n 10524: a5 = a4 + 0x300\n 10528: u64 [a5 + 0x80] = a1\n 10532: a1 = u64 [0x200e0]\n 10537: a2 = u64 [0x200e8]\n 10542: a3 = u64 [0x200f0]\n 10547: u64 [a5 + 0x78] = a1\n 10550: u64 [a5 + 0x70] = a2\n 10553: a1 = s1 + 0x7ff\n 10557: a1 = a1 + 0x481\n 10561: u64 [a5 + 0x68] = a3\n 10564: ra = 0x26c\n 10568: jump @4\n      : @335 (gas: 9)\n 10571: u64 [a2 + 768] = 0\n 10575: u64 [a2 + 760] = 0\n 10579: u64 [a2 + 752] = 0\n 10583: u64 [a2 + 744] = 0\n 10587: a0 = s1 + 0x2000\n 10591: i32 a0 = a0 + 0x400\n 10595: ra = 0x16c\n 10599: ecalli 11 // 'value_transferred'\n 10601: fallthrough\n      : @336 [@dyn 182] (gas: 10)\n 10602: a3 = s1 + 0x2118\n 10606: a4 = a3 + 0x200\n 10610: a0 = u64 [a4 + 0xf8]\n 10614: a1 = u64 [a3 + 0x300]\n 10618: a2 = u64 [a4 + 0xf0]\n 10622: a3 = u64 [a4 + 0xe8]\n 10626: a1 = a1 | a2\n 10629: a0 = a0 | a3\n 10632: a0 = a0 | a1\n 10635: jump @338 if a0 == 0\n      : @337 (gas: 1)\n 10638: jump @612\n      : @338 (gas: 1)\n 10641: t0 = 366, jump @890\n      : @339 [@dyn 183] (gas: 1)\n 10647: jump @341 if a1 <u a0\n      : @340 (gas: 1)\n 10650: jump @612\n      : @341 (gas: 6)\n 10653: a0 = s1 + 0x2000\n 10657: i32 a0 = a0 + 0x420\n 10661: a1 = 0x4\n 10664: ra = 0x170\n 10668: ecalli 1 // 'call_data_load'\n 10670: fallthrough\n      : @342 [@dyn 184] (gas: 4)\n 10671: a4 = s1 + 0x2118\n 10675: a0 = u64 [a4 + 0x318]\n 10679: a1 = u64 [a4 + 0x320]\n 10683: t0 = 370, jump @875\n      : @343 [@dyn 185] (gas: 1)\n 10689: jump @345 if a3 != 0\n      : @344 (gas: 1)\n 10692: jump @612\n      : @345 (gas: 10)\n 10695: a1 = u64 [a4 + 0x310]\n 10699: u64 [s1 + 0x1a8] = a1\n 10703: a1 = u64 [a4 + 0x308]\n 10707: u64 [s1 + 0x1b8] = a1\n 10711: a0 = a0 << 0x20\n 10714: a0 = a0 >> 0x20\n 10717: u64 [s1 + 0x1a0] = a0\n 10721: a0 = s1 + 0x460\n 10725: a1 = u64 [s1 + 0x1b0]\n 10729: ra = 372, jump @6\n      : @346 [@dyn 186] (gas: 14)\n 10735: a0 = u64 [s1 + 0x468]\n 10739: u64 [s1 + 0x1b0] = a0\n 10743: a0 = u64 [s1 + 0x460]\n 10747: u64 [s1 + 0x198] = a0\n 10751: a0 = u32 [s1 + 0x470]\n 10755: u64 [s1 + 0x190] = a0\n 10759: a0 = 0x30230\n 10764: u64 [s1 + 0x188] = a0\n 10768: i32 a0 = a0 + 0\n 10770: ra = 0x176\n 10774: ecalli 3 // 'caller'\n 10776: a2 = u64 [s1 + 0x188]\n 10780: t0 = 0x178\n 10784: jump @871\n      : @347 [@dyn 187] (gas: 2)\n 10787: a2 = u64 [s1 + 0x188]\n 10791: t0 = 376, jump @871\n      : @348 [@dyn 188] (gas: 17)\n 10797: a2 = u64 [s1 + 0x190]\n 10801: a1 = a1 ^ a2\n 10804: a2 = u64 [s1 + 0x198]\n 10808: a0 = a0 ^ a2\n 10811: a0 = a0 | a1\n 10814: a1 = u64 [s1 + 0x1b0]\n 10818: a1 = a1 ^ a3\n 10821: a0 = a0 | a1\n 10824: a0 = a0 <u 0x1\n 10827: u64 [s1 + 1112] = 0\n 10831: u64 [s1 + 1104] = 0\n 10835: u64 [s1 + 0x440] = a0\n 10839: a0 = s1 + 0x440\n 10843: u64 [s1 + 1096] = 0\n 10847: ra = 0x17a\n 10851: t0 = 0x2ec\n 10855: jump @859\n      : @349 [@dyn 189] (gas: 7)\n 10858: a2 = s1 + 0x100\n 10862: a0 = u64 [a2 + 0xa8]\n 10866: a1 = u64 [a2 + 0xb8]\n 10870: a0 = a0 | a1\n 10873: a1 = u64 [a2 + 0xa0]\n 10877: a0 = a0 | a1\n 10880: jump @474 if a0 != 0\n      : @350 (gas: 3)\n 10884: a0 = s1 + 0x240\n 10888: a1 = 0x40\n 10891: ra = 380, jump @2\n      : @351 [@dyn 190] (gas: 13)\n 10897: a1 = s1 + 0x200\n 10901: a4 = u64 [a1 + 0x58]\n 10904: a5 = u64 [a1 + 0x50]\n 10907: a3 = u64 [a1 + 0x48]\n 10910: a0 = u64 [a1 + 0x40]\n 10913: a2 = a3 | a4\n 10916: a1 = a0 | a5\n 10919: a1 = a1 | a2\n 10922: a1 = a1 >> 0x20\n 10925: a2 = a2 | a5\n 10928: a2 = a2 << 0x20\n 10931: a1 = a1 | a2\n 10934: jump @353 if a1 == 0\n      : @352 (gas: 1)\n 10937: jump @558\n      : @353 (gas: 11)\n 10940: u64 [s1 + 560] = 0\n 10944: u64 [s1 + 552] = 0\n 10948: u64 [s1 + 544] = 0\n 10952: a2 = 0x8c379a000000000\n 10962: a1 = s1 + 0x220\n 10966: u64 [s1 + 0x238] = a2\n 10970: u64 [s1 + 0x1b8] = a0\n 10974: u64 [s1 + 0x1b0] = a3\n 10978: u64 [s1 + 0x1a8] = a4\n 10982: u64 [s1 + 0x1a0] = a5\n 10986: ra = 382, jump @4\n      : @354 [@dyn 191] (gas: 6)\n 10992: a5 = s1 + 0x100\n 10996: a1 = u64 [a5 + 0xb8]\n 11000: a0 = u64 [a5 + 0xa8]\n 11004: a3 = u64 [a5 + 0xa0]\n 11008: a3 = a3 | a0\n 11011: t0 = 384, jump @862\n      : @355 [@dyn 192] (gas: 1)\n 11017: jump @357 if a0 != 0\n      : @356 (gas: 1)\n 11020: jump @558\n      : @357 (gas: 9)\n 11023: i32 a0 = a1 + 0x4\n 11026: u64 [s1 + 536] = 0\n 11030: u64 [s1 + 528] = 0\n 11034: u64 [s1 + 512] = 0x20\n 11039: a1 = s1 + 0x200\n 11043: u64 [s1 + 520] = 0\n 11047: u64 [s1 + 0x1a8] = a3\n 11051: u64 [s1 + 0x1a0] = a4\n 11055: ra = 386, jump @4\n      : @358 [@dyn 193] (gas: 1)\n 11061: t0 = 388, jump @868\n      : @359 [@dyn 194] (gas: 1)\n 11067: jump @361 if a0 != 0\n      : @360 (gas: 1)\n 11070: jump @558\n      : @361 (gas: 7)\n 11073: i32 a0 = a1 + 0x24\n 11076: u64 [s1 + 504] = 0\n 11080: u64 [s1 + 496] = 0\n 11084: u64 [s1 + 480] = 0x18\n 11089: a1 = s1 + 0x1e0\n 11093: u64 [s1 + 488] = 0\n 11097: ra = 390, jump @4\n      : @362 [@dyn 195] (gas: 1)\n 11103: t0 = 392, jump @883\n      : @363 [@dyn 196] (gas: 1)\n 11109: jump @365 if a0 != 0\n      : @364 (gas: 1)\n 11112: jump @558\n      : @365 (gas: 12)\n 11115: i32 a0 = a2 + 0x44\n 11118: a1 = u64 [0x20020]\n 11123: a2 = u64 [0x20148]\n 11128: a3 = u64 [0x20150]\n 11133: a4 = s1 + 0x100\n 11137: u64 [a4 + 0xd8] = a1\n 11141: u64 [a4 + 0xd0] = a2\n 11145: u64 [a4 + 0xc8] = a3\n 11149: a1 = s1 + 0x1c0\n 11153: u64 [s1 + 448] = 0\n 11157: ra = 0x26c\n 11161: jump @4\n      : @366 (gas: 9)\n 11164: u64 [a3 + 96] = 0\n 11167: u64 [a3 + 88] = 0\n 11170: u64 [a3 + 80] = 0\n 11173: u64 [a3 + 72] = 0\n 11176: a0 = s1 + 0x3000\n 11180: i32 a0 = a0 + 0xfffffffffffff960\n 11184: ra = 0x18a\n 11188: ecalli 11 // 'value_transferred'\n 11190: fallthrough\n      : @367 [@dyn 197] (gas: 9)\n 11191: a3 = s1 + 0x2918\n 11195: a0 = u64 [a3 + 0x58]\n 11198: a1 = u64 [a3 + 0x60]\n 11201: a2 = u64 [a3 + 0x50]\n 11204: a3 = u64 [a3 + 0x48]\n 11207: a1 = a1 | a2\n 11210: a0 = a0 | a3\n 11213: a0 = a0 | a1\n 11216: jump @369 if a0 == 0\n      : @368 (gas: 1)\n 11219: jump @612\n      : @369 (gas: 1)\n 11222: t0 = 396, jump @890\n      : @370 [@dyn 198] (gas: 1)\n 11228: jump @372 if a1 <u a0\n      : @371 (gas: 1)\n 11231: jump @612\n      : @372 (gas: 6)\n 11234: a0 = s1 + 0x3000\n 11238: i32 a0 = a0 + 0xfffffffffffff980\n 11242: a1 = 0x4\n 11245: ra = 0x18e\n 11249: ecalli 1 // 'call_data_load'\n 11251: fallthrough\n      : @373 [@dyn 199] (gas: 4)\n 11252: a4 = s1 + 0x2918\n 11256: a0 = u64 [a4 + 0x78]\n 11259: a1 = u64 [a4 + 0x80]\n 11263: t0 = 400, jump @875\n      : @374 [@dyn 200] (gas: 1)\n 11269: jump @376 if a3 != 0\n      : @375 (gas: 1)\n 11272: jump @612\n      : @376 (gas: 12)\n 11275: a1 = u64 [a4 + 0x70]\n 11278: u64 [s1 + 0x1a8] = a1\n 11282: a1 = u64 [a4 + 0x68]\n 11285: u64 [s1 + 0x1b8] = a1\n 11289: a2 = 0xffffffff\n 11299: u64 [s1 + 0x190] = a2\n 11303: a0 = a0 << 0x20\n 11306: a0 = a0 >> 0x20\n 11309: u64 [s1 + 0x1a0] = a0\n 11313: a0 = s1 + 0x2120\n 11317: a1 = u64 [s1 + 0x1b0]\n 11321: ra = 402, jump @6\n      : @377 [@dyn 201] (gas: 22)\n 11327: a0 = s1 + 0x2118\n 11331: a1 = u64 [a0 + 0x10]\n 11334: u64 [s1 + 0x188] = a1\n 11338: a2 = u64 [a0 + 0x8]\n 11341: u64 [s1 + 0x180] = a2\n 11345: a3 = u64 [a0 + 0x18]\n 11348: u64 [s1 + 0x178] = a3\n 11352: a0 = a1 & 0xffffffffffffffff\n 11355: u64 [s1 + 0x1b0] = a0\n 11359: a0 = a2 & 0xffffffffffffffff\n 11362: u64 [s1 + 0x198] = a0\n 11366: a0 = u64 [s1 + 0x190]\n 11370: a0 = a0 & a3\n 11373: u64 [s1 + 0x190] = a0\n 11377: a0 = 0x30230\n 11382: u64 [s1 + 0x170] = a0\n 11386: i32 a0 = a0 + 0\n 11388: ra = 0x194\n 11392: ecalli 3 // 'caller'\n 11394: a2 = u64 [s1 + 0x170]\n 11398: t0 = 0x196\n 11402: jump @871\n      : @378 [@dyn 202] (gas: 2)\n 11405: a2 = u64 [s1 + 0x170]\n 11409: t0 = 406, jump @871\n      : @379 [@dyn 203] (gas: 20)\n 11415: a2 = u64 [s1 + 0x178]\n 11419: a2 = a2 << 0x20\n 11422: a2 = a2 >> 0x20\n 11425: a1 = a1 ^ a2\n 11428: a2 = u64 [s1 + 0x180]\n 11432: a0 = a0 ^ a2\n 11435: a0 = a0 | a1\n 11438: a1 = u64 [s1 + 0x188]\n 11442: a1 = a1 ^ a3\n 11445: a0 = a0 | a1\n 11448: a0 = a0 <u 0x1\n 11451: a1 = s1 + 0x2118\n 11455: u64 [a1 + 0] = 0\n 11457: u64 [a1 + 4294967288] = 0\n 11460: u64 [a1 + 0xffffffffffffffe8] = a0\n 11463: a0 = s1 + 0x2100\n 11467: u64 [a1 + 4294967280] = 0\n 11470: ra = 0x198\n 11474: t0 = 0x2ec\n 11478: jump @859\n      : @380 [@dyn 204] (gas: 13)\n 11481: a4 = s1 + 0x100\n 11485: a0 = u64 [a4 + 0xa0]\n 11489: a1 = u64 [a4 + 0x90]\n 11493: a0 = a0 ^ a1\n 11496: a1 = u64 [a4 + 0xb8]\n 11500: a2 = u64 [a4 + 0x98]\n 11504: a1 = a1 ^ a2\n 11507: a2 = u64 [a4 + 0xa8]\n 11511: a3 = u64 [a4 + 0xb0]\n 11515: a2 = a2 ^ a3\n 11518: a1 = a1 | a2\n 11521: a0 = a0 | a1\n 11524: jump @493 if a0 != 0\n      : @381 (gas: 3)\n 11528: a0 = s1 + 0x1f00\n 11532: a1 = 0x40\n 11535: ra = 410, jump @2\n      : @382 [@dyn 205] (gas: 2)\n 11541: a2 = s1 + 0x1918\n 11545: fallthrough\n      : @383 (gas: 13)\n 11546: t0 = u64 [a2 + 0x600]\n 11550: a1 = a2 + 0x500\n 11554: a5 = u64 [a1 + 0xf8]\n 11558: a4 = u64 [a1 + 0xf0]\n 11562: a0 = u64 [a1 + 0xe8]\n 11566: a3 = a4 | t0\n 11569: a1 = a0 | a5\n 11572: a1 = a1 | a3\n 11575: a1 = a1 >> 0x20\n 11578: a3 = a3 | a5\n 11581: a3 = a3 << 0x20\n 11584: a1 = a1 | a3\n 11587: jump @385 if a1 == 0\n      : @384 (gas: 1)\n 11590: jump @558\n      : @385 (gas: 11)\n 11593: u64 [a2 + 1496] = 0\n 11597: u64 [a2 + 1488] = 0\n 11601: u64 [a2 + 1480] = 0\n 11605: a3 = 0x8c379a000000000\n 11615: a1 = s1 + 0x1ee0\n 11619: u64 [a2 + 0x5e0] = a3\n 11623: u64 [s1 + 0x1b8] = a0\n 11627: u64 [s1 + 0x1b0] = a4\n 11631: u64 [s1 + 0x1a0] = t0\n 11635: u64 [s1 + 0x1a8] = a5\n 11639: ra = 412, jump @4\n      : @386 [@dyn 206] (gas: 6)\n 11645: a5 = s1 + 0x100\n 11649: a1 = u64 [a5 + 0xb8]\n 11653: a0 = u64 [a5 + 0xa8]\n 11657: a3 = u64 [a5 + 0xa0]\n 11661: a3 = a3 | a0\n 11664: t0 = 414, jump @862\n      : @387 [@dyn 207] (gas: 1)\n 11670: jump @389 if a0 != 0\n      : @388 (gas: 1)\n 11673: jump @558\n      : @389 (gas: 1)\n 11676: t0 = 416, jump @892\n      : @390 [@dyn 208] (gas: 8)\n 11682: u64 [a2 + 1472] = 0\n 11686: u64 [a2 + 1464] = 0\n 11690: u64 [a2 + 1448] = 0x20\n 11695: a1 = s1 + 0x1ec0\n 11699: u64 [a2 + 1456] = 0\n 11703: u64 [s1 + 0x1a8] = a3\n 11707: u64 [s1 + 0x1a0] = a4\n 11711: ra = 418, jump @4\n      : @391 [@dyn 209] (gas: 1)\n 11717: t0 = 420, jump @868\n      : @392 [@dyn 210] (gas: 1)\n 11723: jump @394 if a0 != 0\n      : @393 (gas: 1)\n 11726: jump @558\n      : @394 (gas: 8)\n 11729: i32 a0 = a1 + 0x24\n 11732: a3 = s1 + 0x1918\n 11736: u64 [a3 + 1440] = 0\n 11740: u64 [a3 + 1432] = 0\n 11744: u64 [a3 + 1416] = 0x13\n 11749: a1 = s1 + 0x1ea0\n 11753: u64 [a3 + 1424] = 0\n 11757: ra = 422, jump @4\n      : @395 [@dyn 211] (gas: 1)\n 11763: t0 = 424, jump @863\n      : @396 [@dyn 212] (gas: 1)\n 11769: jump @398 if a0 != 0\n      : @397 (gas: 1)\n 11772: jump @558\n      : @398 (gas: 13)\n 11775: i32 a0 = a3 + 0x44\n 11778: a1 = u64 [0x20070]\n 11783: a2 = u64 [0x20078]\n 11788: a4 = s1 + 0x1918\n 11792: a3 = a4 + 0x500\n 11796: u64 [a3 + 0x80] = a1\n 11800: u64 [a3 + 0x78] = a2\n 11803: a1 = 0x6e65720000000000\n 11813: u64 [a3 + 0x70] = a1\n 11816: a1 = s1 + 0x1e80\n 11820: u64 [a4 + 1384] = 0\n 11824: ra = 0x26c\n 11828: jump @4\n      : @399 (gas: 9)\n 11831: u64 [a3 + 0] = 0\n 11833: u64 [a3 + 4294967288] = 0\n 11836: u64 [a3 + 4294967280] = 0\n 11839: u64 [a3 + 4294967272] = 0\n 11842: a0 = s1 + 0x3000\n 11846: i32 a0 = a0 + 0xfffffffffffff900\n 11850: ra = 0x1aa\n 11854: ecalli 11 // 'value_transferred'\n 11856: fallthrough\n      : @400 [@dyn 213] (gas: 10)\n 11857: a3 = s1 + 0x2918\n 11861: a4 = a3 + 0xffffffffffffff00\n 11865: a0 = u64 [a4 + 0xf8]\n 11869: a1 = u64 [a3]\n 11871: a2 = u64 [a4 + 0xf0]\n 11875: a3 = u64 [a4 + 0xe8]\n 11879: a1 = a1 | a2\n 11882: a0 = a0 | a3\n 11885: a0 = a0 | a1\n 11888: jump @402 if a0 == 0\n      : @401 (gas: 1)\n 11891: jump @612\n      : @402 (gas: 1)\n 11894: t0 = 428, jump @890\n      : @403 [@dyn 214] (gas: 1)\n 11900: jump @405 if a1 <u a0\n      : @404 (gas: 1)\n 11903: jump @612\n      : @405 (gas: 18)\n 11906: a0 = s1 + 0x3000\n 11910: i32 a0 = a0 + 0xfffffffffffff920\n 11914: a1 = 0x4\n 11917: ecalli 1 // 'call_data_load'\n 11919: a3 = s1 + 0x2918\n 11923: a0 = u64 [a3 + 0x8]\n 11926: a1 = u64 [a3 + 0x10]\n 11929: a2 = u64 [a3 + 0x18]\n 11932: a3 = u64 [a3 + 0x20]\n 11935: a4 = s1 + 0x1918\n 11939: a5 = a4 + 0x500\n 11943: u64 [a5 + 0x60] = a3\n 11946: u64 [a5 + 0x58] = a2\n 11949: u64 [a5 + 0x50] = a1\n 11952: a1 = s1 + 0x1e60\n 11956: u64 [a5 + 0x48] = a0\n 11959: a0 = 0\n 11961: ra = 430, jump @4\n      : @406 [@dyn 215] (gas: 3)\n 11967: t0 = 0x1b0\n 11971: a2 = s1 + 0x1918\n 11975: fallthrough\n      : @407 [@dyn 216] (gas: 7)\n 11976: u64 [a2 + 1344] = 0\n 11980: u64 [a2 + 1336] = 0\n 11984: u64 [a2 + 1320] = 0x2\n 11989: a0 = 0x20\n 11992: a1 = s1 + 0x1e40\n 11996: u64 [a2 + 1328] = 0\n 12000: ra = 434, jump @4\n      : @408 [@dyn 217] (gas: 3)\n 12006: a1 = 0x40\n 12009: a0 = 0\n 12011: ra = 436, jump @13\n      : @409 [@dyn 218] (gas: 4)\n 12017: a1 = sp + 0xffffffffffffffe0\n 12020: a1 = a1 & 0xffffffffffffffe0\n 12023: u64 [s1 + 0x1b8] = a1\n 12027: t0 = 438, jump @870\n      : @410 [@dyn 219] (gas: 5)\n 12033: ra = 0x1b8\n 12037: ecalli 6 // 'hash_keccak_256'\n 12039: a3 = u64 [s1 + 0x1b8]\n 12043: t0 = 0x1ba\n 12047: jump @873\n      : @411 [@dyn 220] (gas: 2)\n 12050: a3 = u64 [s1 + 0x1b8]\n 12054: t0 = 442, jump @873\n      : @412 [@dyn 221] (gas: 7)\n 12060: u64 [a4 + 0x40] = a3\n 12063: u64 [a4 + 0x38] = a2\n 12066: u64 [a4 + 0x30] = a1\n 12069: u64 [a4 + 0x28] = a0\n 12072: a0 = s1 + 0x1e20\n 12076: a1 = s1 + 0x2940\n 12080: ra = 444, jump @6\n      : @413 [@dyn 222] (gas: 6)\n 12086: a0 = s1 + 0x1918\n 12090: a0 = u64 [a0 + 0x508]\n 12094: u64 [s1 + 0x1b8] = a0\n 12098: a0 = s1 + 0x1e00\n 12102: a1 = 0x40\n 12105: ra = 446, jump @2\n      : @414 [@dyn 223] (gas: 7)\n 12111: a3 = s1 + 0x1918\n 12115: a4 = u64 [a3 + 0x500]\n 12119: a5 = a3 + 0x400\n 12123: a1 = u64 [a5 + 0xf8]\n 12127: a2 = u64 [a5 + 0xf0]\n 12131: a0 = u64 [a5 + 0xe8]\n 12135: t0 = 448, jump @882\n      : @415 [@dyn 224] (gas: 1)\n 12141: jump @417 if a1 == 0\n      : @416 (gas: 1)\n 12144: jump @558\n      : @417 (gas: 9)\n 12147: a1 = u8 [s1 + 0x1b8]\n 12151: a1 = a1 >u 0\n 12153: u64 [a3 + 1248] = 0\n 12157: u64 [a3 + 1240] = 0\n 12161: u64 [a3 + 0x4c8] = a1\n 12165: a1 = s1 + 0x1de0\n 12169: u64 [a3 + 1232] = 0\n 12173: u64 [s1 + 0x1b8] = a0\n 12177: ra = 450, jump @4\n      : @418 [@dyn 225] (gas: 3)\n 12183: a1 = 0x20\n 12186: a0 = u64 [s1 + 0x1b8]\n 12190: ra = 452, jump @13\n      : @419 [@dyn 226] (gas: 5)\n 12196: i32 a1 = a0 + 0\n 12198: a2 = 0x20\n 12201: a0 = 0\n 12203: ecalli 8 // 'seal_return'\n 12205: fallthrough\n      : @420 (gas: 1)\n 12206: jump @422 if a0 == 2112858400\n      : @421 (gas: 1)\n 12213: jump @615\n      : @422 (gas: 10)\n 12216: u64 [a2 + 1824] = 0\n 12220: u64 [a2 + 1816] = 0\n 12224: u64 [a2 + 1808] = 0\n 12228: u64 [a2 + 1800] = 0\n 12232: a0 = s1 + 0x3000\n 12236: i32 a0 = a0 + 0xfffffffffffff820\n 12240: ra = 0x1c6\n 12244: ecalli 11 // 'value_transferred'\n 12246: t0 = 0x1c8\n 12250: jump @885\n      : @423 [@dyn 227] (gas: 1)\n 12253: t0 = 456, jump @885\n      : @424 [@dyn 228] (gas: 8)\n 12259: a0 = u64 [a4 + 0x18]\n 12262: a1 = u64 [a4 + 0x20]\n 12265: a2 = u64 [a4 + 0x10]\n 12268: a3 = u64 [a4 + 0x8]\n 12271: a1 = a1 | a2\n 12274: a0 = a0 | a3\n 12277: a0 = a0 | a1\n 12280: jump @426 if a0 == 0\n      : @425 (gas: 1)\n 12283: jump @612\n      : @426 (gas: 3)\n 12286: a0 = u64 [s1 + 0x1b8]\n 12290: a0 = i32 [a0]\n 12292: jump @428 if a0 >u 67\n      : @427 (gas: 1)\n 12296: jump @612\n      : @428 (gas: 21)\n 12299: a0 = s1 + 0x3000\n 12303: i32 a0 = a0 + 0xfffffffffffff840\n 12307: a1 = 0x4\n 12310: ecalli 1 // 'call_data_load'\n 12312: a1 = s1 + 0x2118\n 12316: a2 = a1 + 0x700\n 12320: a0 = u64 [a2 + 0x40]\n 12323: u64 [s1 + 0x1a0] = a0\n 12327: a0 = u64 [a2 + 0x38]\n 12330: u64 [s1 + 0x1a8] = a0\n 12334: a0 = u64 [a2 + 0x30]\n 12337: u64 [s1 + 0x1b0] = a0\n 12341: a0 = u64 [a2 + 0x28]\n 12344: u64 [s1 + 0x1b8] = a0\n 12348: a0 = s1 + 0x3000\n 12352: i32 a0 = a0 + 0xfffffffffffff860\n 12356: a1 = 0x24\n 12359: ra = 0x1ca\n 12363: ecalli 1 // 'call_data_load'\n 12365: t0 = 0x1cc\n 12369: jump @885\n      : @429 [@dyn 229] (gas: 1)\n 12372: t0 = 460, jump @885\n      : @430 [@dyn 230] (gas: 14)\n 12378: a2 = u64 [a4 + 0x60]\n 12381: a0 = u64 [a4 + 0x58]\n 12384: a1 = u64 [a4 + 0x48]\n 12387: a3 = u64 [a4 + 0x50]\n 12390: a4 = s1 + 0x100\n 12394: u64 [a4 + 0x68] = a0\n 12397: u64 [a4 + 0x60] = a2\n 12400: a0 = a0 | a2\n 12403: u64 [a4 + 0x70] = a1\n 12406: a1 = a1 <u 0x4\n 12409: u64 [a4 + 0x58] = a3\n 12412: a1 = 0 if a3 != 0\n 12414: a1 = 0 if a0 != 0\n 12416: jump @432 if a1 != 0\n      : @431 (gas: 1)\n 12419: jump @617\n      : @432 (gas: 9)\n 12422: a0 = 0x30230\n 12427: u64 [s1 + 0x198] = a0\n 12431: i32 a0 = a0 + 0\n 12433: u64 [s1 + 0x150] = a0\n 12437: ra = 0x1ce\n 12441: ecalli 3 // 'caller'\n 12443: a2 = u64 [s1 + 0x198]\n 12447: t0 = 0x1d0\n 12451: jump @874\n      : @433 [@dyn 231] (gas: 2)\n 12454: a2 = u64 [s1 + 0x198]\n 12458: t0 = 464, jump @874\n      : @434 [@dyn 232] (gas: 8)\n 12464: u64 [a2 + 1120] = 0\n 12468: a4 = a2 + 0x400\n 12472: u64 [a4 + 0x58] = a1\n 12475: u64 [a4 + 0x50] = a0\n 12478: a1 = s1 + 0x1d60\n 12482: u64 [a4 + 0x48] = a3\n 12485: a0 = 0\n 12487: ra = 466, jump @4\n      : @435 [@dyn 233] (gas: 3)\n 12493: t0 = 0x1d4\n 12497: a2 = s1 + 0x1918\n 12501: fallthrough\n      : @436 [@dyn 234] (gas: 7)\n 12502: u64 [a2 + 1088] = 0\n 12506: u64 [a2 + 1080] = 0\n 12510: u64 [a2 + 1064] = 0x1\n 12515: a0 = 0x20\n 12518: a1 = s1 + 0x1d40\n 12522: u64 [a2 + 1072] = 0\n 12526: ra = 470, jump @4\n      : @437 [@dyn 235] (gas: 3)\n 12532: a1 = 0x40\n 12535: a0 = 0\n 12537: ra = 472, jump @13\n      : @438 [@dyn 236] (gas: 4)\n 12543: a1 = sp + 0xffffffffffffffe0\n 12546: a1 = a1 & 0xffffffffffffffe0\n 12549: u64 [s1 + 0x190] = a1\n 12553: t0 = 474, jump @870\n      : @439 [@dyn 237] (gas: 4)\n 12559: ra = 0x1dc\n 12563: ecalli 6 // 'hash_keccak_256'\n 12565: t0 = 0x1de\n 12569: jump @878\n      : @440 [@dyn 238] (gas: 1)\n 12572: t0 = 478, jump @878\n      : @441 [@dyn 239] (gas: 7)\n 12578: u64 [a5 + 0x80] = a3\n 12582: u64 [a5 + 0x78] = a2\n 12585: u64 [a5 + 0x70] = a1\n 12588: u64 [a5 + 0x68] = a0\n 12591: a0 = s1 + 0x1d20\n 12595: a1 = s1 + 0x2880\n 12599: ra = 480, jump @6\n      : @442 [@dyn 240] (gas: 10)\n 12605: a1 = s1 + 0x1918\n 12609: a0 = u8 [a1 + 0x408]\n 12613: u64 [a1 + 1024] = 0\n 12617: u64 [a1 + 1016] = 0\n 12621: u64 [a1 + 0x3e8] = a0\n 12625: a0 = s1 + 0x1d00\n 12629: u64 [a1 + 1008] = 0\n 12633: ra = 0x1e2\n 12637: t0 = 0x30c\n 12641: jump @859\n      : @443 [@dyn 241] (gas: 13)\n 12644: a0 = u64 [s1 + 0x1a0]\n 12648: a2 = s1 + 0x1918\n 12652: a3 = a2 + 0x300\n 12656: u64 [a3 + 0xe0] = a0\n 12660: a0 = u64 [s1 + 0x1a8]\n 12664: u64 [a3 + 0xd8] = a0\n 12668: a0 = u64 [s1 + 0x1b0]\n 12672: u64 [a3 + 0xd0] = a0\n 12676: a1 = s1 + 0x1ce0\n 12680: a0 = u64 [s1 + 0x1b8]\n 12684: u64 [a3 + 0xc8] = a0\n 12688: a0 = 0\n 12690: ra = 484, jump @4\n      : @444 [@dyn 242] (gas: 3)\n 12696: t0 = 0x1e6\n 12700: a2 = s1 + 0x1918\n 12704: fallthrough\n      : @445 [@dyn 243] (gas: 7)\n 12705: u64 [a2 + 960] = 0\n 12709: u64 [a2 + 952] = 0\n 12713: u64 [a2 + 936] = 0x2\n 12718: a0 = 0x20\n 12721: a1 = s1 + 0x1cc0\n 12725: u64 [a2 + 944] = 0\n 12729: ra = 488, jump @4\n      : @446 [@dyn 244] (gas: 3)\n 12735: a1 = 0x40\n 12738: a0 = 0\n 12740: ra = 490, jump @13\n      : @447 [@dyn 245] (gas: 4)\n 12746: a1 = sp + 0xffffffffffffffe0\n 12749: a1 = a1 & 0xffffffffffffffe0\n 12752: u64 [s1 + 0x190] = a1\n 12756: t0 = 492, jump @870\n      : @448 [@dyn 246] (gas: 4)\n 12762: ra = 0x1ee\n 12766: ecalli 6 // 'hash_keccak_256'\n 12768: t0 = 0x1f0\n 12772: jump @878\n      : @449 [@dyn 247] (gas: 1)\n 12775: t0 = 496, jump @878\n      : @450 [@dyn 248] (gas: 7)\n 12781: u64 [a5 + 0xa0] = a3\n 12785: u64 [a5 + 0x98] = a2\n 12789: u64 [a5 + 0x90] = a1\n 12793: u64 [a5 + 0x88] = a0\n 12797: a0 = s1 + 0x1ca0\n 12801: a1 = s1 + 0x28a0\n 12805: ra = 498, jump @6\n      : @451 [@dyn 249] (gas: 10)\n 12811: a1 = s1 + 0x1918\n 12815: a0 = u8 [a1 + 0x388]\n 12819: u64 [a1 + 896] = 0\n 12823: u64 [a1 + 888] = 0\n 12827: u64 [a1 + 0x368] = a0\n 12831: a0 = s1 + 0x1c80\n 12835: u64 [a1 + 880] = 0\n 12839: ra = 0x1f4\n 12843: t0 = 0x3e0\n 12847: jump @859\n      : @452 [@dyn 250] (gas: 3)\n 12850: a0 = s1 + 0x1c60\n 12854: a1 = 0x40\n 12857: ra = 502, jump @2\n      : @453 [@dyn 251] (gas: 15)\n 12863: a0 = s1 + 0x1918\n 12867: a2 = a0 + 0x300\n 12871: a1 = u64 [a2 + 0x60]\n 12874: u64 [s1 + 0x188] = a1\n 12878: a1 = u64 [a2 + 0x58]\n 12881: u64 [s1 + 0x180] = a1\n 12885: a1 = u64 [a2 + 0x50]\n 12888: u64 [s1 + 0x178] = a1\n 12892: a0 = u64 [a2 + 0x48]\n 12895: u64 [s1 + 0x190] = a0\n 12899: a0 = s1 + 0x3000\n 12903: i32 a0 = a0 + 0xfffffffffffff8c0\n 12907: ra = 0x1f8\n 12911: ecalli 7 // 'now'\n 12913: fallthrough\n      : @454 [@dyn 252] (gas: 14)\n 12914: a3 = s1 + 0x100\n 12918: a0 = u64 [a3 + 0x88]\n 12922: a1 = u64 [a3 + 0x78]\n 12925: a0 = a0 | a1\n 12928: a1 = u64 [a3 + 0x90]\n 12932: a5 = a1\n 12934: a2 = u64 [a3 + 0x80]\n 12938: a1 = a1 | a2\n 12941: a1 = a1 | a0\n 12944: a1 = a1 >> 0x20\n 12947: a0 = a0 | a2\n 12950: a0 = a0 << 0x20\n 12953: a0 = a0 | a1\n 12956: jump @558 if a0 != 0\n      : @455 (gas: 1)\n 12960: t0 = 506, jump @885\n      : @456 [@dyn 253] (gas: 13)\n 12966: a0 = u64 [a4 + 0xa8]\n 12970: a1 = u64 [a4 + 0xb0]\n 12974: a2 = u64 [a4 + 0xb8]\n 12978: a3 = u64 [a4 + 0xc0]\n 12982: a4 = s1 + 0x1918\n 12986: u64 [a4 + 0x340] = a3\n 12990: a3 = a4 + 0x300\n 12994: u64 [a3 + 0x38] = a2\n 12997: u64 [a3 + 0x30] = a1\n 13000: a1 = s1 + 0x1c40\n 13004: u64 [a3 + 0x28] = a0\n 13007: a0 = a5\n 13009: ra = 508, jump @4\n      : @457 [@dyn 254] (gas: 54)\n 13015: a0 = u64 [s1 + 0x150]\n 13019: ecalli 3 // 'caller'\n 13021: a2 = u64 [s1 + 0x198]\n 13025: a0 = u64 [a2 + 0x8]\n 13028: a1 = i32 [a2 + 0x10]\n 13031: a2 = u64 [a2]\n 13033: a3 = reverse a0\n 13035: a0 = a3 << 0x20\n 13038: a1 = reverse a1\n 13040: a1 = a1 >> 0x20\n 13043: t0 = a1 | a0\n 13046: a3 = a3 >> 0x20\n 13049: a2 = reverse a2\n 13051: a1 = a2 << 0x20\n 13054: t1 = a1 | a3\n 13057: a2 = a2 >> 0x20\n 13060: a0 = u64 [s1 + 0x160]\n 13064: a1 = s1 + 0x1918\n 13068: u64 [a1 + 0x2e0] = a0\n 13072: a0 = u64 [s1 + 0x168]\n 13076: u64 [a1 + 0x2d8] = a0\n 13080: a0 = u64 [s1 + 0x158]\n 13084: u64 [a1 + 0x2d0] = a0\n 13088: a0 = u64 [s1 + 0x170]\n 13092: u64 [a1 + 0x2c8] = a0\n 13096: a0 = u64 [s1 + 0x1a0]\n 13100: u64 [a1 + 0x300] = a0\n 13104: a0 = u64 [s1 + 0x1a8]\n 13108: u64 [a1 + 0x2f8] = a0\n 13112: a0 = u64 [s1 + 0x1b0]\n 13116: u64 [a1 + 0x2f0] = a0\n 13120: a0 = u64 [s1 + 0x1b8]\n 13124: u64 [a1 + 0x2e8] = a0\n 13128: a3 = u64 [0x20080]\n 13133: a4 = u64 [0x20088]\n 13138: a5 = u64 [0x20090]\n 13143: a0 = u64 [0x20098]\n 13148: u64 [a1 + 0x320] = a3\n 13152: a3 = a1 + 0x300\n 13156: u64 [a3 + 0x18] = a4\n 13159: u64 [a3 + 0x10] = a5\n 13162: u64 [a3 + 0x8] = a0\n 13165: u64 [a1 + 0x2b8] = a2\n 13169: u64 [a1 + 0x2b0] = t1\n 13173: u64 [a1 + 0x2a8] = t0\n 13177: a0 = a1\n 13179: a1 = 0x20\n 13182: a2 = s1 + 0x1c20\n 13186: a3 = s1 + 0x1c00\n 13190: a4 = s1 + 0x1be0\n 13194: a5 = s1 + 0x1bc0\n 13198: u64 [a0 + 704] = 0\n 13202: a0 = u64 [s1 + 0x190]\n 13206: ra = 510, jump @10\n      : @458 [@dyn 255] (gas: 1)\n 13212: jump @631\n      : @459 (gas: 13)\n 13215: a1 = 0xffffffff\n 13225: a0 = u64 [s1 + 0x1a0]\n 13229: t1 = a0 & 0xffffffffffffffff\n 13232: t0 = u64 [s1 + 0x1b8]\n 13236: a1 = t0 & a1\n 13239: a0 = u64 [s1 + 0x1a8]\n 13243: a0 = a0 & 0xffffffffffffffff\n 13246: a0 = a0 ^ a3\n 13249: a1 = a1 ^ a5\n 13252: a2 = a4 ^ t1\n 13255: a0 = a0 | a2\n 13258: a0 = a0 | a1\n 13261: jump @461 if a0 == 0\n      : @460 (gas: 1)\n 13264: jump @618\n      : @461 (gas: 3)\n 13267: a0 = s1 + 0x2260\n 13271: a1 = 0x40\n 13274: ra = 512, jump @2\n      : @462 [@dyn 256] (gas: 2)\n 13280: a2 = s1 + 0x2118\n 13284: fallthrough\n      : @463 (gas: 13)\n 13285: t0 = u64 [a2 + 0x160]\n 13289: a1 = a2 + 0x100\n 13293: a5 = u64 [a1 + 0x58]\n 13296: a4 = u64 [a1 + 0x50]\n 13299: a0 = u64 [a1 + 0x48]\n 13302: a3 = a4 | t0\n 13305: a1 = a0 | a5\n 13308: a1 = a1 | a3\n 13311: a1 = a1 >> 0x20\n 13314: a3 = a3 | a5\n 13317: a3 = a3 << 0x20\n 13320: a1 = a1 | a3\n 13323: jump @558 if a1 != 0\n      : @464 (gas: 11)\n 13327: u64 [a2 + 312] = 0\n 13331: u64 [a2 + 304] = 0\n 13335: u64 [a2 + 296] = 0\n 13339: a3 = 0x8c379a000000000\n 13349: a1 = s1 + 0x2240\n 13353: u64 [a2 + 0x140] = a3\n 13357: u64 [s1 + 0x1b8] = a0\n 13361: u64 [s1 + 0x1b0] = a4\n 13365: u64 [s1 + 0x1a0] = t0\n 13369: u64 [s1 + 0x1a8] = a5\n 13373: ra = 514, jump @4\n      : @465 [@dyn 257] (gas: 6)\n 13379: a5 = s1 + 0x100\n 13383: a1 = u64 [a5 + 0xb8]\n 13387: a0 = u64 [a5 + 0xa8]\n 13391: a3 = u64 [a5 + 0xa0]\n 13395: a3 = a3 | a0\n 13398: t0 = 516, jump @862\n      : @466 [@dyn 258] (gas: 1)\n 13404: jump @558 if a0 == 0\n      : @467 (gas: 10)\n 13408: i32 a0 = a1 + 0x4\n 13411: a2 = s1 + 0x2118\n 13415: u64 [a2 + 288] = 0\n 13419: u64 [a2 + 280] = 0\n 13423: u64 [a2 + 264] = 0x20\n 13428: a1 = s1 + 0x2220\n 13432: u64 [a2 + 272] = 0\n 13436: u64 [s1 + 0x1a8] = a3\n 13440: u64 [s1 + 0x1a0] = a4\n 13444: ra = 518, jump @4\n      : @468 [@dyn 259] (gas: 1)\n 13450: t0 = 520, jump @867\n      : @469 [@dyn 260] (gas: 1)\n 13456: jump @558 if a0 == 0\n      : @470 (gas: 8)\n 13460: i32 a0 = a1 + 0x24\n 13463: a2 = s1 + 0x2118\n 13467: u64 [a2 + 256] = 0\n 13471: u64 [a2 + 248] = 0\n 13475: u64 [a2 + 232] = 0x1f\n 13480: a1 = s1 + 0x2200\n 13484: u64 [a2 + 240] = 0\n 13488: ra = 522, jump @4\n      : @471 [@dyn 261] (gas: 1)\n 13494: t0 = 524, jump @863\n      : @472 [@dyn 262] (gas: 1)\n 13500: jump @558 if a0 == 0\n      : @473 (gas: 13)\n 13504: i32 a0 = a3 + 0x44\n 13507: a1 = u64 [0x20000]\n 13512: a4 = s1 + 0x2118\n 13516: u64 [a4 + 0xe0] = a1\n 13520: a1 = u64 [0x20008]\n 13525: a2 = u64 [0x20010]\n 13530: a3 = u64 [0x20018]\n 13535: u64 [a4 + 0xd8] = a1\n 13539: u64 [a4 + 0xd0] = a2\n 13543: a1 = s1 + 0x21e0\n 13547: u64 [a4 + 0xc8] = a3\n 13551: ra = 0x26c\n 13555: jump @4\n      : @474 (gas: 10)\n 13558: u64 [s1 + 1080] = 0\n 13562: a0 = u64 [s1 + 0x1b8]\n 13566: u64 [s1 + 0x420] = a0\n 13570: a0 = u64 [s1 + 0x1a8]\n 13574: u64 [s1 + 0x428] = a0\n 13578: a1 = s1 + 0x420\n 13582: a0 = u64 [s1 + 0x1a0]\n 13586: u64 [s1 + 0x430] = a0\n 13590: a0 = 0\n 13592: ra = 526, jump @4\n      : @475 [@dyn 263] (gas: 7)\n 13598: u64 [s1 + 1048] = 0\n 13602: u64 [s1 + 1040] = 0\n 13606: u64 [s1 + 1032] = 0\n 13610: a0 = 0x20\n 13613: a1 = s1 + 0x400\n 13617: u64 [s1 + 1024] = 0x1\n 13622: ra = 528, jump @4\n      : @476 [@dyn 264] (gas: 3)\n 13628: a1 = 0x40\n 13631: a0 = 0\n 13633: ra = 530, jump @13\n      : @477 [@dyn 265] (gas: 4)\n 13639: a1 = sp + 0xffffffffffffffe0\n 13642: a1 = a1 & 0xffffffffffffffe0\n 13645: u64 [s1 + 0x1b0] = a1\n 13649: t0 = 532, jump @870\n      : @478 [@dyn 266] (gas: 19)\n 13655: ecalli 6 // 'hash_keccak_256'\n 13657: a3 = u64 [s1 + 0x1b0]\n 13661: a0 = u64 [a3 + 0x18]\n 13664: a1 = u64 [a3 + 0x10]\n 13667: a2 = u64 [a3 + 0x8]\n 13670: a3 = u64 [a3]\n 13672: a0 = reverse a0\n 13674: a1 = reverse a1\n 13676: a2 = reverse a2\n 13678: a3 = reverse a3\n 13680: a4 = s1 + 0x2118\n 13684: a5 = a4 + 0x300\n 13688: u64 [a5 + 0x40] = a3\n 13691: u64 [a5 + 0x38] = a2\n 13694: u64 [a5 + 0x30] = a1\n 13697: u64 [a5 + 0x28] = a0\n 13700: a0 = s1 + 0x3e0\n 13704: a1 = s1 + 0x2440\n 13708: ra = 534, jump @6\n      : @479 [@dyn 267] (gas: 2)\n 13714: a0 = u8 [s1 + 0x3e0]\n 13718: jump @531 if a0 != 0\n      : @480 (gas: 10)\n 13722: u64 [s1 + 824] = 0\n 13726: a0 = u64 [s1 + 0x1b8]\n 13730: u64 [s1 + 0x320] = a0\n 13734: a0 = u64 [s1 + 0x1a8]\n 13738: u64 [s1 + 0x328] = a0\n 13742: a1 = s1 + 0x320\n 13746: a0 = u64 [s1 + 0x1a0]\n 13750: u64 [s1 + 0x330] = a0\n 13754: a0 = 0\n 13756: ra = 536, jump @4\n      : @481 [@dyn 268] (gas: 7)\n 13762: u64 [s1 + 792] = 0\n 13766: u64 [s1 + 784] = 0\n 13770: u64 [s1 + 768] = 0x1\n 13775: a0 = 0x20\n 13778: a1 = s1 + 0x300\n 13782: u64 [s1 + 776] = 0\n 13786: ra = 538, jump @4\n      : @482 [@dyn 269] (gas: 7)\n 13792: a0 = sp + 0xffffffffffffffe0\n 13795: a0 = a0 & 0xffffffffffffffe0\n 13798: u64 [s1 + 0x1b0] = a0\n 13802: sp = a0\n 13804: a1 = 0x40\n 13807: a0 = 0\n 13809: ra = 540, jump @13\n      : @483 [@dyn 270] (gas: 4)\n 13815: a1 = sp + 0xffffffffffffffe0\n 13818: a1 = a1 & 0xffffffffffffffe0\n 13821: u64 [s1 + 0x198] = a1\n 13825: t0 = 542, jump @870\n      : @484 [@dyn 271] (gas: 4)\n 13831: ra = 0x220\n 13835: ecalli 6 // 'hash_keccak_256'\n 13837: t0 = 0x222\n 13841: jump @876\n      : @485 [@dyn 272] (gas: 1)\n 13844: t0 = 546, jump @876\n      : @486 [@dyn 273] (gas: 2)\n 13850: a0 = s1 + 0x2e0\n 13854: ra = 548, jump @6\n      : @487 [@dyn 274] (gas: 15)\n 13860: a0 = u64 [s1 + 0x2e0]\n 13864: a1 = u64 [s1 + 0x2e8]\n 13868: a2 = u64 [s1 + 0x2f8]\n 13872: a3 = u64 [s1 + 0x2f0]\n 13876: a0 = a0 & 0xffffffffffffff00\n 13880: a0 = a0 | 0x1\n 13883: a4 = s1 + 0x2118\n 13887: a5 = a4 + 0x300\n 13891: u64 [a5 + 0x60] = a2\n 13894: u64 [a5 + 0x58] = a3\n 13897: u64 [a5 + 0x50] = a1\n 13900: u64 [a5 + 0x48] = a0\n 13903: a1 = s1 + 0x2460\n 13907: a0 = u64 [s1 + 0x1b0]\n 13911: ra = 550, jump @7\n      : @488 [@dyn 275] (gas: 3)\n 13917: a0 = s1 + 0x2c0\n 13921: a1 = 0x40\n 13924: ra = 552, jump @2\n      : @489 [@dyn 276] (gas: 13)\n 13930: a1 = s1 + 0x200\n 13934: a0 = u64 [a1 + 0xd8]\n 13938: u64 [s1 + 0x198] = a0\n 13942: a0 = u64 [a1 + 0xd0]\n 13946: u64 [s1 + 0x190] = a0\n 13950: a0 = u64 [a1 + 0xc8]\n 13954: u64 [s1 + 0x188] = a0\n 13958: a0 = u64 [a1 + 0xc0]\n 13962: u64 [s1 + 0x1b0] = a0\n 13966: a0 = s1 + 0x2000\n 13970: i32 a0 = a0 + 0x480\n 13974: ecalli 7 // 'now'\n 13976: fallthrough\n      : @490 (gas: 14)\n 13977: a3 = s1 + 0x100\n 13981: a0 = u64 [a3 + 0x98]\n 13985: a1 = u64 [a3 + 0x88]\n 13989: a0 = a0 | a1\n 13992: a1 = u64 [a3 + 0xb0]\n 13996: a4 = a1\n 13998: a2 = u64 [a3 + 0x90]\n 14002: a1 = a1 | a2\n 14005: a1 = a1 | a0\n 14008: a1 = a1 >> 0x20\n 14011: a0 = a0 | a2\n 14014: a0 = a0 << 0x20\n 14017: a0 = a0 | a1\n 14020: jump @558 if a0 != 0\n      : @491 (gas: 13)\n 14024: a3 = s1 + 0x2118\n 14028: a5 = a3 + 0x300\n 14032: a0 = u64 [a5 + 0x68]\n 14035: a1 = u64 [a5 + 0x70]\n 14038: a2 = u64 [a5 + 0x78]\n 14041: a3 = u64 [a5 + 0x80]\n 14045: u64 [s1 + 0x2b8] = a3\n 14049: u64 [s1 + 0x2b0] = a2\n 14053: u64 [s1 + 0x2a8] = a1\n 14057: a1 = s1 + 0x2a0\n 14061: u64 [s1 + 0x2a0] = a0\n 14065: a0 = a4\n 14067: ra = 554, jump @4\n      : @492 [@dyn 277] (gas: 23)\n 14073: u64 [s1 + 632] = 0\n 14077: a4 = s1 + 0x100\n 14081: a0 = u64 [a4 + 0xa0]\n 14085: a5 = s1 + 0x200\n 14089: u64 [a5 + 0x70] = a0\n 14092: a0 = u64 [a4 + 0xa8]\n 14096: u64 [a5 + 0x68] = a0\n 14099: a0 = u64 [0x20128]\n 14104: a1 = u64 [0x20130]\n 14109: a2 = u64 [0x20138]\n 14114: a3 = u64 [a4 + 0xb8]\n 14118: u64 [a5 + 0x60] = a3\n 14121: u64 [a5 + 0x98] = a0\n 14125: u64 [a5 + 0x90] = a1\n 14129: u64 [a5 + 0x88] = a2\n 14133: a0 = u64 [0x20140]\n 14138: a1 = 0x20\n 14141: a2 = s1 + 0x280\n 14145: a3 = s1 + 0x260\n 14149: u64 [a5 + 0x80] = a0\n 14153: a0 = u64 [s1 + 0x1b0]\n 14157: ra = 0x2e8\n 14161: jump @8\n      : @493 (gas: 3)\n 14164: t0 = 0x22c\n 14168: a2 = s1 + 0x1918\n 14172: fallthrough\n      : @494 [@dyn 278] (gas: 11)\n 14173: u64 [a2 + 2016] = 0\n 14177: a0 = u64 [s1 + 0x1b8]\n 14181: a3 = a2 + 0x700\n 14185: u64 [a3 + 0xc8] = a0\n 14189: a0 = u64 [s1 + 0x1a8]\n 14193: u64 [a3 + 0xd0] = a0\n 14197: a1 = s1 + 0x20e0\n 14201: a0 = u64 [s1 + 0x1a0]\n 14205: u64 [a3 + 0xd8] = a0\n 14209: a0 = 0\n 14211: ra = 558, jump @4\n      : @495 [@dyn 279] (gas: 9)\n 14217: a0 = s1 + 0x1918\n 14221: u64 [a0 + 1984] = 0\n 14225: u64 [a0 + 1976] = 0\n 14229: u64 [a0 + 1968] = 0\n 14233: a3 = a0\n 14235: a0 = 0x20\n 14238: a1 = s1 + 0x20c0\n 14242: u64 [a3 + 1960] = 0x1\n 14247: ra = 560, jump @4\n      : @496 [@dyn 280] (gas: 3)\n 14253: a1 = 0x40\n 14256: a0 = 0\n 14258: ra = 562, jump @13\n      : @497 [@dyn 281] (gas: 4)\n 14264: a1 = sp + 0xffffffffffffffe0\n 14267: a1 = a1 & 0xffffffffffffffe0\n 14270: u64 [s1 + 0x1b0] = a1\n 14274: t0 = 564, jump @870\n      : @498 [@dyn 282] (gas: 5)\n 14280: ra = 0x236\n 14284: ecalli 6 // 'hash_keccak_256'\n 14286: a3 = u64 [s1 + 0x1b0]\n 14290: t0 = 0x238\n 14294: jump @873\n      : @499 [@dyn 283] (gas: 2)\n 14297: a3 = u64 [s1 + 0x1b0]\n 14301: t0 = 568, jump @873\n      : @500 [@dyn 284] (gas: 7)\n 14307: u64 [a4 + 0xa0] = a3\n 14311: u64 [a4 + 0x98] = a2\n 14315: u64 [a4 + 0x90] = a1\n 14319: u64 [a4 + 0x88] = a0\n 14323: a0 = s1 + 0x20a0\n 14327: a1 = s1 + 0x29a0\n 14331: ra = 570, jump @6\n      : @501 [@dyn 285] (gas: 3)\n 14337: t0 = 0x23c\n 14341: a2 = s1 + 0x1918\n 14345: fallthrough\n      : @502 [@dyn 286] (gas: 2)\n 14346: a0 = u8 [a2 + 0x788]\n 14350: jump @546 if a0 != 0\n      : @503 (gas: 3)\n 14354: a0 = s1 + 0x1fa0\n 14358: a1 = 0x40\n 14361: ra = 574, jump @2\n      : @504 [@dyn 287] (gas: 2)\n 14367: a2 = s1 + 0x1918\n 14371: fallthrough\n      : @505 (gas: 13)\n 14372: t0 = u64 [a2 + 0x6a0]\n 14376: a1 = a2 + 0x600\n 14380: a5 = u64 [a1 + 0x98]\n 14384: a4 = u64 [a1 + 0x90]\n 14388: a0 = u64 [a1 + 0x88]\n 14392: a3 = a4 | t0\n 14395: a1 = a0 | a5\n 14398: a1 = a1 | a3\n 14401: a1 = a1 >> 0x20\n 14404: a3 = a3 | a5\n 14407: a3 = a3 << 0x20\n 14410: a1 = a1 | a3\n 14413: jump @558 if a1 != 0\n      : @506 (gas: 11)\n 14417: u64 [a2 + 1656] = 0\n 14421: u64 [a2 + 1648] = 0\n 14425: u64 [a2 + 1640] = 0\n 14429: a3 = 0x8c379a000000000\n 14439: a1 = s1 + 0x1f80\n 14443: u64 [a2 + 0x680] = a3\n 14447: u64 [s1 + 0x1b8] = a0\n 14451: u64 [s1 + 0x1b0] = a4\n 14455: u64 [s1 + 0x1a0] = t0\n 14459: u64 [s1 + 0x1a8] = a5\n 14463: ra = 576, jump @4\n      : @507 [@dyn 288] (gas: 6)\n 14469: a5 = s1 + 0x100\n 14473: a1 = u64 [a5 + 0xb8]\n 14477: a0 = u64 [a5 + 0xa8]\n 14481: a3 = u64 [a5 + 0xa0]\n 14485: a3 = a3 | a0\n 14488: t0 = 578, jump @862\n      : @508 [@dyn 289] (gas: 1)\n 14494: jump @558 if a0 == 0\n      : @509 (gas: 1)\n 14498: t0 = 580, jump @892\n      : @510 [@dyn 290] (gas: 8)\n 14504: u64 [a2 + 1632] = 0\n 14508: u64 [a2 + 1624] = 0\n 14512: u64 [a2 + 1608] = 0x20\n 14517: a1 = s1 + 0x1f60\n 14521: u64 [a2 + 1616] = 0\n 14525: u64 [s1 + 0x1a8] = a3\n 14529: u64 [s1 + 0x1a0] = a4\n 14533: ra = 582, jump @4\n      : @511 [@dyn 291] (gas: 1)\n 14539: t0 = 584, jump @868\n      : @512 [@dyn 292] (gas: 1)\n 14545: jump @558 if a0 == 0\n      : @513 (gas: 8)\n 14549: i32 a0 = a1 + 0x24\n 14552: a3 = s1 + 0x1918\n 14556: u64 [a3 + 1600] = 0\n 14560: u64 [a3 + 1592] = 0\n 14564: u64 [a3 + 1576] = 0x17\n 14569: a1 = s1 + 0x1f40\n 14573: u64 [a3 + 1584] = 0\n 14577: ra = 586, jump @4\n      : @514 [@dyn 293] (gas: 1)\n 14583: t0 = 588, jump @863\n      : @515 [@dyn 294] (gas: 1)\n 14589: jump @558 if a0 == 0\n      : @516 (gas: 13)\n 14593: i32 a0 = a3 + 0x44\n 14596: a1 = u64 [0x20058]\n 14601: a2 = u64 [0x20060]\n 14606: a3 = u64 [0x20068]\n 14611: a4 = s1 + 0x1918\n 14615: a5 = a4 + 0x600\n 14619: u64 [a5 + 0x20] = a1\n 14622: u64 [a5 + 0x18] = a2\n 14625: u64 [a5 + 0x10] = a3\n 14628: a1 = s1 + 0x1f20\n 14632: u64 [a4 + 1544] = 0\n 14636: ra = 0x26c\n 14640: jump @4\n      : @517 (gas: 3)\n 14643: a0 = s1 + 0x1a20\n 14647: a1 = 0x40\n 14650: ra = 590, jump @2\n      : @518 [@dyn 295] (gas: 2)\n 14656: a2 = s1 + 0x1918\n 14660: fallthrough\n      : @519 (gas: 13)\n 14661: t0 = u64 [a2 + 0x120]\n 14665: a1 = a2 + 0x100\n 14669: a5 = u64 [a1 + 0x18]\n 14672: a4 = u64 [a1 + 0x10]\n 14675: a0 = u64 [a1 + 0x8]\n 14678: a3 = a4 | t0\n 14681: a1 = a0 | a5\n 14684: a1 = a1 | a3\n 14687: a1 = a1 >> 0x20\n 14690: a3 = a3 | a5\n 14693: a3 = a3 << 0x20\n 14696: a1 = a1 | a3\n 14699: jump @558 if a1 != 0\n      : @520 (gas: 11)\n 14703: u64 [a2 + 248] = 0\n 14707: u64 [a2 + 240] = 0\n 14711: u64 [a2 + 232] = 0\n 14715: a3 = 0x8c379a000000000\n 14725: a1 = s1 + 0x1a00\n 14729: u64 [a2 + 0x100] = a3\n 14733: u64 [s1 + 0x1b8] = a0\n 14737: u64 [s1 + 0x1b0] = a4\n 14741: u64 [s1 + 0x1a0] = t0\n 14745: u64 [s1 + 0x1a8] = a5\n 14749: ra = 592, jump @4\n      : @521 [@dyn 296] (gas: 6)\n 14755: a5 = s1 + 0x100\n 14759: a1 = u64 [a5 + 0xb8]\n 14763: a0 = u64 [a5 + 0xa8]\n 14767: a3 = u64 [a5 + 0xa0]\n 14771: a3 = a3 | a0\n 14774: t0 = 594, jump @862\n      : @522 [@dyn 297] (gas: 1)\n 14780: jump @558 if a0 == 0\n      : @523 (gas: 1)\n 14784: t0 = 596, jump @892\n      : @524 [@dyn 298] (gas: 9)\n 14790: a5 = 0\n 14792: u64 [a2 + 224] = 0\n 14796: u64 [a2 + 216] = 0\n 14800: u64 [a2 + 200] = 0x20\n 14805: a1 = s1 + 0x19e0\n 14809: u64 [a2 + 208] = 0\n 14813: u64 [s1 + 0x1a8] = a3\n 14817: u64 [s1 + 0x1a0] = a4\n 14821: ra = 598, jump @4\n      : @525 [@dyn 299] (gas: 1)\n 14827: t0 = 600, jump @867\n      : @526 [@dyn 300] (gas: 1)\n 14833: jump @558 if a0 == 0\n      : @527 (gas: 8)\n 14837: i32 a0 = a1 + 0x24\n 14840: a2 = s1 + 0x1918\n 14844: u64 [a2 + 192] = 0\n 14848: u64 [a2 + 184] = 0\n 14852: u64 [a2 + 168] = 0x1a\n 14857: a1 = s1 + 0x19c0\n 14861: u64 [a2 + 176] = 0\n 14865: ra = 602, jump @4\n      : @528 [@dyn 301] (gas: 1)\n 14871: t0 = 604, jump @863\n      : @529 [@dyn 302] (gas: 1)\n 14877: jump @558 if a0 == 0\n      : @530 (gas: 13)\n 14881: i32 a0 = a3 + 0x44\n 14884: a1 = u64 [0x200a0]\n 14889: a2 = u64 [0x200a8]\n 14894: a3 = u64 [0x200b0]\n 14899: a4 = s1 + 0x1918\n 14903: u64 [a4 + 0xa0] = a1\n 14907: u64 [a4 + 0x98] = a2\n 14911: u64 [a4 + 0x90] = a3\n 14915: a2 = 0x7473000000000000\n 14925: a1 = s1 + 0x19a0\n 14929: u64 [a4 + 0x88] = a2\n 14933: ra = 0x26c\n 14937: jump @4\n      : @531 (gas: 3)\n 14940: a0 = s1 + 0x3c0\n 14944: a1 = 0x40\n 14947: ra = 606, jump @2\n      : @532 [@dyn 303] (gas: 13)\n 14953: a1 = s1 + 0x300\n 14957: a4 = u64 [a1 + 0xd8]\n 14961: a5 = u64 [a1 + 0xd0]\n 14965: a3 = u64 [a1 + 0xc8]\n 14969: a0 = u64 [a1 + 0xc0]\n 14973: a2 = a3 | a4\n 14976: a1 = a0 | a5\n 14979: a1 = a1 | a2\n 14982: a1 = a1 >> 0x20\n 14985: a2 = a2 | a5\n 14988: a2 = a2 << 0x20\n 14991: a1 = a1 | a2\n 14994: jump @558 if a1 != 0\n      : @533 (gas: 11)\n 14998: u64 [s1 + 944] = 0\n 15002: u64 [s1 + 936] = 0\n 15006: u64 [s1 + 928] = 0\n 15010: a2 = 0x8c379a000000000\n 15020: a1 = s1 + 0x3a0\n 15024: u64 [s1 + 0x3b8] = a2\n 15028: u64 [s1 + 0x1b8] = a0\n 15032: u64 [s1 + 0x1b0] = a3\n 15036: u64 [s1 + 0x1a8] = a4\n 15040: u64 [s1 + 0x1a0] = a5\n 15044: ra = 608, jump @4\n      : @534 [@dyn 304] (gas: 6)\n 15050: a5 = s1 + 0x100\n 15054: a1 = u64 [a5 + 0xb8]\n 15058: a0 = u64 [a5 + 0xa8]\n 15062: a3 = u64 [a5 + 0xa0]\n 15066: a3 = a3 | a0\n 15069: t0 = 610, jump @862\n      : @535 [@dyn 305] (gas: 1)\n 15075: jump @558 if a0 == 0\n      : @536 (gas: 9)\n 15079: i32 a0 = a1 + 0x4\n 15082: u64 [s1 + 920] = 0\n 15086: u64 [s1 + 912] = 0\n 15090: u64 [s1 + 896] = 0x20\n 15095: a1 = s1 + 0x380\n 15099: u64 [s1 + 904] = 0\n 15103: u64 [s1 + 0x1a8] = a3\n 15107: u64 [s1 + 0x1a0] = a4\n 15111: ra = 612, jump @4\n      : @537 [@dyn 306] (gas: 1)\n 15117: t0 = 614, jump @868\n      : @538 [@dyn 307] (gas: 1)\n 15123: jump @558 if a0 == 0\n      : @539 (gas: 7)\n 15127: i32 a0 = a1 + 0x24\n 15130: u64 [s1 + 888] = 0\n 15134: u64 [s1 + 880] = 0\n 15138: u64 [s1 + 864] = 0x1b\n 15143: a1 = s1 + 0x360\n 15147: u64 [s1 + 872] = 0\n 15151: ra = 616, jump @4\n      : @540 [@dyn 308] (gas: 1)\n 15157: t0 = 618, jump @883\n      : @541 [@dyn 309] (gas: 1)\n 15163: jump @558 if a0 == 0\n      : @542 (gas: 12)\n 15167: i32 a0 = a2 + 0x44\n 15170: a1 = u64 [0x20058]\n 15175: a2 = u64 [0x20118]\n 15180: a3 = u64 [0x20120]\n 15185: a4 = s1 + 0x300\n 15189: u64 [a4 + 0x58] = a1\n 15192: u64 [a4 + 0x50] = a2\n 15195: u64 [a4 + 0x48] = a3\n 15198: a2 = 0x7a65640000000000\n 15208: a1 = s1 + 0x340\n 15212: u64 [a4 + 0x40] = a2\n 15215: ra = 620, jump @4\n      : @543 [@dyn 310] (gas: 3)\n 15221: a1 = 0x64\n 15224: a0 = u64 [s1 + 0x1b8]\n 15228: ra = 622, jump @13\n      : @544 [@dyn 311] (gas: 1)\n 15234: t0 = 624, jump @886\n      : @545 [@dyn 312] (gas: 2)\n 15240: ecalli 8 // 'seal_return'\n 15242: fallthrough\n      : @546 (gas: 11)\n 15243: u64 [a2 + 1920] = 0\n 15247: a0 = u64 [s1 + 0x1b8]\n 15251: a3 = a2 + 0x700\n 15255: u64 [a3 + 0x68] = a0\n 15258: a0 = u64 [s1 + 0x1a8]\n 15262: u64 [a3 + 0x70] = a0\n 15265: a1 = s1 + 0x2080\n 15269: a0 = u64 [s1 + 0x1a0]\n 15273: u64 [a3 + 0x78] = a0\n 15276: a0 = 0\n 15278: ra = 626, jump @4\n      : @547 [@dyn 313] (gas: 3)\n 15284: t0 = 0x274\n 15288: a2 = s1 + 0x1918\n 15292: fallthrough\n      : @548 [@dyn 314] (gas: 7)\n 15293: u64 [a2 + 1888] = 0\n 15297: u64 [a2 + 1880] = 0\n 15301: u64 [a2 + 1864] = 0x1\n 15306: a0 = 0x20\n 15309: a1 = s1 + 0x2060\n 15313: u64 [a2 + 1872] = 0\n 15317: ra = 630, jump @4\n      : @549 [@dyn 315] (gas: 7)\n 15323: a0 = sp + 0xffffffffffffffe0\n 15326: a0 = a0 & 0xffffffffffffffe0\n 15329: u64 [s1 + 0x1b0] = a0\n 15333: sp = a0\n 15335: a1 = 0x40\n 15338: a0 = 0\n 15340: ra = 632, jump @13\n      : @550 [@dyn 316] (gas: 4)\n 15346: a1 = sp + 0xffffffffffffffe0\n 15349: a1 = a1 & 0xffffffffffffffe0\n 15352: u64 [s1 + 0x198] = a1\n 15356: t0 = 634, jump @870\n      : @551 [@dyn 317] (gas: 4)\n 15362: ra = 0x27c\n 15366: ecalli 6 // 'hash_keccak_256'\n 15368: t0 = 0x27e\n 15372: jump @876\n      : @552 [@dyn 318] (gas: 1)\n 15375: t0 = 638, jump @876\n      : @553 [@dyn 319] (gas: 2)\n 15381: a0 = s1 + 0x2040\n 15385: ra = 640, jump @6\n      : @554 [@dyn 320] (gas: 15)\n 15391: a3 = s1 + 0x1918\n 15395: a4 = a3 + 0x700\n 15399: a0 = u64 [a4 + 0x28]\n 15402: a1 = u64 [a4 + 0x40]\n 15405: a2 = u64 [a4 + 0x38]\n 15408: a3 = u64 [a4 + 0x30]\n 15411: a0 = a0 & 0xffffffffffffff00\n 15415: a4 = s1 + 0x2918\n 15419: u64 [a4 + 0xc0] = a1\n 15423: u64 [a4 + 0xb8] = a2\n 15427: u64 [a4 + 0xb0] = a3\n 15431: u64 [a4 + 0xa8] = a0\n 15435: a1 = s1 + 0x29c0\n 15439: a0 = u64 [s1 + 0x1b0]\n 15443: ra = 642, jump @7\n      : @555 [@dyn 321] (gas: 3)\n 15449: a0 = s1 + 0x2020\n 15453: a1 = 0x40\n 15456: ra = 644, jump @2\n      : @556 [@dyn 322] (gas: 14)\n 15462: a0 = s1 + 0x1918\n 15466: a2 = a0 + 0x700\n 15470: a1 = u64 [a2 + 0x20]\n 15473: u64 [s1 + 0x198] = a1\n 15477: a1 = u64 [a2 + 0x18]\n 15480: u64 [s1 + 0x190] = a1\n 15484: a1 = u64 [a2 + 0x10]\n 15487: u64 [s1 + 0x188] = a1\n 15491: a0 = u64 [a2 + 0x8]\n 15494: u64 [s1 + 0x1b0] = a0\n 15498: a0 = s1 + 0x3000\n 15502: i32 a0 = a0 + 0xfffffffffffff9e0\n 15506: ecalli 7 // 'now'\n 15508: fallthrough\n      : @557 (gas: 14)\n 15509: a3 = s1 + 0x100\n 15513: a0 = u64 [a3 + 0x98]\n 15517: a1 = u64 [a3 + 0x88]\n 15521: a0 = a0 | a1\n 15524: a1 = u64 [a3 + 0xb0]\n 15528: a5 = a1\n 15530: a2 = u64 [a3 + 0x90]\n 15534: a1 = a1 | a2\n 15537: a1 = a1 | a0\n 15540: a1 = a1 >> 0x20\n 15543: a0 = a0 | a2\n 15546: a0 = a0 << 0x20\n 15549: a0 = a0 | a1\n 15552: jump @629 if a0 == 0\n      : @558 (gas: 1)\n 15556: trap\n      : @559 (gas: 22)\n 15557: a1 = s1 + 0x100\n 15561: a0 = u64 [a1 + 0xb8]\n 15565: a4 = a2 + 0x300\n 15569: u64 [a4 + 0x8] = a0\n 15572: u64 [a4 + 0x28] = a0\n 15575: a0 = u64 [a1 + 0xb0]\n 15579: u64 [a4 + 0x10] = a0\n 15582: u64 [a4 + 0x30] = a0\n 15585: a0 = u64 [a1 + 0xa8]\n 15589: u64 [a4 + 0x18] = a0\n 15592: u64 [a4 + 0x38] = a0\n 15595: a3 = u64 [a1 + 0xa0]\n 15599: u64 [a4 + 0x20] = a3\n 15602: a0 = s1 + 0x7ff\n 15606: a0 = a0 + 0x461\n 15610: a1 = s1 + 0x7ff\n 15614: a1 = a1 + 0x441\n 15618: a4 = a2\n 15620: a2 = s1 + 0x7ff\n 15624: a2 = a2 + 0x421\n 15628: u64 [a4 + 0x340] = a3\n 15632: ra = 646, jump @825\n      : @560 [@dyn 323] (gas: 15)\n 15638: a1 = s1 + 0x7ff\n 15642: a1 = a1 + 0x119\n 15646: a4 = a1 + 0x300\n 15650: a0 = u64 [a4 + 0x60]\n 15653: a2 = u64 [a4 + 0x58]\n 15656: a3 = u64 [a4 + 0x50]\n 15659: a1 = u64 [a4 + 0x48]\n 15662: a0 = a0 | a3\n 15665: a3 = a1 | a2\n 15668: a3 = a3 | a0\n 15671: a3 = a3 >> 0x20\n 15674: a0 = a0 | a2\n 15677: a0 = a0 << 0x20\n 15680: a0 = a0 | a3\n 15683: jump @558 if a0 != 0\n      : @561 (gas: 37)\n 15686: i32 a1 = a1 + 0\n 15688: a0 = s1 + 0x2000\n 15692: i32 a0 = a0 + 0x5c0\n 15696: ecalli 1 // 'call_data_load'\n 15698: a1 = s1 + 0x2118\n 15702: a2 = a1 + 0x400\n 15706: a0 = u64 [a2 + 0xc0]\n 15710: a5 = s1 + 0x100\n 15714: u64 [a5 + 0x60] = a0\n 15717: a0 = u64 [a2 + 0xb8]\n 15721: u64 [a5 + 0x48] = a0\n 15724: a0 = u64 [a2 + 0xb0]\n 15728: u64 [a5 + 0x50] = a0\n 15731: a0 = u64 [a2 + 0xa8]\n 15735: u64 [a5 + 0x58] = a0\n 15738: a2 = u64 [a5 + 0xa0]\n 15742: a4 = s1 + 0x7ff\n 15746: a4 = a4 + 0x119\n 15750: u64 [a4 + 0x2c0] = a2\n 15754: a1 = u64 [a5 + 0xa8]\n 15758: u64 [a4 + 0x2b8] = a1\n 15762: a0 = u64 [a5 + 0xb0]\n 15766: u64 [a4 + 0x2b0] = a0\n 15770: a3 = u64 [a5 + 0xb8]\n 15774: a5 = a4 + 0x200\n 15778: u64 [a5 + 0xa8] = a3\n 15782: u64 [a5 + 0xe0] = a2\n 15786: u64 [a5 + 0xd8] = a1\n 15790: u64 [a5 + 0xd0] = a0\n 15794: a0 = s1 + 0x7ff\n 15798: a0 = a0 + 0x401\n 15802: a1 = s1 + 0x7ff\n 15806: a1 = a1 + 0x3e1\n 15810: a2 = s1 + 0x7ff\n 15814: a2 = a2 + 0x3c1\n 15818: u64 [a5 + 0xc8] = a3\n 15822: ra = 648, jump @825\n      : @562 [@dyn 324] (gas: 9)\n 15828: a1 = s1 + 0x7ff\n 15832: a1 = a1 + 0x119\n 15836: a5 = a1 + 0x200\n 15840: a0 = u64 [a5 + 0xe8]\n 15844: a2 = u64 [a1 + 0x300]\n 15848: a3 = u64 [a5 + 0xf0]\n 15852: a4 = u64 [a5 + 0xf8]\n 15856: a1 = a0 + 0x20\n 15859: t0 = 650, jump @860\n      : @563 [@dyn 325] (gas: 1)\n 15865: jump @558 if a0 != 0\n      : @564 (gas: 37)\n 15869: i32 a1 = a1 + 0\n 15871: a0 = s1 + 0x2000\n 15875: i32 a0 = a0 + 0x5e0\n 15879: ecalli 1 // 'call_data_load'\n 15881: a1 = s1 + 0x2118\n 15885: a2 = a1 + 0x400\n 15889: a0 = u64 [a2 + 0xe0]\n 15893: a5 = s1 + 0x100\n 15897: u64 [a5 + 0x40] = a0\n 15900: a0 = u64 [a2 + 0xd8]\n 15904: u64 [a5 + 0x38] = a0\n 15907: a0 = u64 [a2 + 0xd0]\n 15911: u64 [a5 + 0x30] = a0\n 15914: a0 = u64 [a2 + 0xc8]\n 15918: u64 [a5 + 0x28] = a0\n 15921: a2 = u64 [a5 + 0xa0]\n 15925: a4 = s1 + 0x7ff\n 15929: a4 = a4 + 0x119\n 15933: u64 [a4 + 0x260] = a2\n 15937: a1 = u64 [a5 + 0xa8]\n 15941: u64 [a4 + 0x258] = a1\n 15945: a0 = u64 [a5 + 0xb0]\n 15949: u64 [a4 + 0x250] = a0\n 15953: a3 = u64 [a5 + 0xb8]\n 15957: a5 = a4 + 0x200\n 15961: u64 [a5 + 0x48] = a3\n 15964: u64 [a5 + 0x80] = a2\n 15968: u64 [a5 + 0x78] = a1\n 15971: u64 [a5 + 0x70] = a0\n 15974: a0 = s1 + 0x7ff\n 15978: a0 = a0 + 0x3a1\n 15982: a1 = s1 + 0x7ff\n 15986: a1 = a1 + 0x381\n 15990: a2 = s1 + 0x7ff\n 15994: a2 = a2 + 0x361\n 15998: u64 [a5 + 0x68] = a3\n 16001: ra = 652, jump @825\n      : @565 [@dyn 326] (gas: 9)\n 16007: a1 = s1 + 0x7ff\n 16011: a1 = a1 + 0x119\n 16015: a5 = a1 + 0x200\n 16019: a0 = u64 [a5 + 0x88]\n 16023: a2 = u64 [a5 + 0xa0]\n 16027: a3 = u64 [a5 + 0x90]\n 16031: a4 = u64 [a5 + 0x98]\n 16035: a1 = a0 + 0x40\n 16038: t0 = 654, jump @860\n      : @566 [@dyn 327] (gas: 1)\n 16044: jump @558 if a0 != 0\n      : @567 (gas: 37)\n 16048: i32 a1 = a1 + 0\n 16050: a0 = s1 + 0x2000\n 16054: i32 a0 = a0 + 0x600\n 16058: ecalli 1 // 'call_data_load'\n 16060: a1 = s1 + 0x2118\n 16064: a0 = u64 [a1 + 0x500]\n 16068: a5 = s1 + 0x100\n 16072: u64 [a5 + 0x20] = a0\n 16075: a2 = a1 + 0x400\n 16079: a0 = u64 [a2 + 0xf8]\n 16083: u64 [a5 + 0x18] = a0\n 16086: a0 = u64 [a2 + 0xf0]\n 16090: u64 [a5 + 0x10] = a0\n 16093: a0 = u64 [a2 + 0xe8]\n 16097: u64 [a5 + 0x8] = a0\n 16100: a2 = u64 [a5 + 0xa0]\n 16104: a4 = s1 + 0x7ff\n 16108: a4 = a4 + 0x119\n 16112: u64 [a4 + 0x200] = a2\n 16116: a1 = u64 [a5 + 0xa8]\n 16120: u64 [a4 + 0x1f8] = a1\n 16124: a0 = u64 [a5 + 0xb0]\n 16128: u64 [a4 + 0x1f0] = a0\n 16132: a3 = u64 [a5 + 0xb8]\n 16136: u64 [a4 + 0x1e8] = a3\n 16140: a5 = a4 + 0x200\n 16144: u64 [a5 + 0x20] = a2\n 16147: u64 [a5 + 0x18] = a1\n 16150: u64 [a5 + 0x10] = a0\n 16153: a0 = s1 + 0x7ff\n 16157: a0 = a0 + 0x341\n 16161: a1 = s1 + 0x7ff\n 16165: a1 = a1 + 0x321\n 16169: a2 = s1 + 0x7ff\n 16173: a2 = a2 + 0x301\n 16177: u64 [a5 + 0x8] = a3\n 16180: ra = 656, jump @825\n      : @568 [@dyn 328] (gas: 9)\n 16186: a1 = s1 + 0x7ff\n 16190: a1 = a1 + 0x119\n 16194: a5 = a1 + 0x200\n 16198: a0 = u64 [a5 + 0x28]\n 16201: a2 = u64 [a5 + 0x40]\n 16204: a3 = u64 [a5 + 0x30]\n 16207: a4 = u64 [a5 + 0x38]\n 16210: a1 = a0 + 0x60\n 16213: t0 = 658, jump @860\n      : @569 [@dyn 329] (gas: 1)\n 16219: jump @558 if a0 != 0\n      : @570 (gas: 37)\n 16223: i32 a1 = a1 + 0\n 16225: a0 = s1 + 0x2000\n 16229: i32 a0 = a0 + 0x620\n 16233: ecalli 1 // 'call_data_load'\n 16235: a1 = s1 + 0x2118\n 16239: a2 = a1 + 0x500\n 16243: a0 = u64 [a2 + 0x20]\n 16246: u64 [s1 + 0x28] = a0\n 16249: a0 = u64 [a2 + 0x18]\n 16252: u64 [s1 + 0x10] = a0\n 16255: a0 = u64 [a2 + 0x10]\n 16258: u64 [s1 + 0x18] = a0\n 16261: a0 = u64 [a2 + 0x8]\n 16264: u64 [s1 + 0x20] = a0\n 16267: a3 = u64 [s1 + 0x1a0]\n 16271: a5 = s1 + 0x7ff\n 16275: a5 = a5 + 0x119\n 16279: u64 [a5 + 0x1a0] = a3\n 16283: a2 = u64 [s1 + 0x1a8]\n 16287: u64 [a5 + 0x198] = a2\n 16291: a1 = u64 [s1 + 0x1b0]\n 16295: u64 [a5 + 0x190] = a1\n 16299: a0 = u64 [s1 + 0x1b8]\n 16303: u64 [a5 + 0x188] = a0\n 16307: a4 = a0\n 16309: u64 [a5 + 0x1c0] = a3\n 16313: a3 = a5 + 0x100\n 16317: u64 [a3 + 0xb8] = a2\n 16321: u64 [a3 + 0xb0] = a1\n 16325: a0 = s1 + 0x7ff\n 16329: a0 = a0 + 0x2e1\n 16333: a1 = s1 + 0x7ff\n 16337: a1 = a1 + 0x2c1\n 16341: a2 = s1 + 0x7ff\n 16345: a2 = a2 + 0x2a1\n 16349: u64 [a3 + 0xa8] = a4\n 16353: ra = 660, jump @825\n      : @571 [@dyn 330] (gas: 30)\n 16359: a4 = s1 + 0x7ff\n 16363: a4 = a4 + 0x119\n 16367: a0 = u64 [a4 + 0x1c8]\n 16371: t0 = u64 [a4 + 0x1e0]\n 16375: a2 = u64 [a4 + 0x1d0]\n 16379: a3 = u64 [a4 + 0x1d8]\n 16383: t2 = a0 + 0x80\n 16387: a5 = t2 <u a0\n 16390: t1 = a2 + a5\n 16393: a1 = t1 <u a2\n 16396: a1 = a5 if a5 == 0\n 16399: a1 = a1 + a3\n 16402: a5 = a1 <u a3\n 16405: a5 = a5 + t0\n 16408: u64 [a4 + 0x108] = t2\n 16412: u64 [a4 + 0x140] = t0\n 16416: u64 [a4 + 0x138] = a3\n 16420: a3 = a4 + 0x100\n 16424: u64 [a3 + 0x30] = a2\n 16427: u64 [a3 + 0x28] = a0\n 16430: u64 [a4 + 0x110] = t1\n 16434: u64 [a3 + 0x18] = a1\n 16437: a0 = s1 + 0x7ff\n 16441: a0 = a0 + 0x261\n 16445: a1 = s1 + 0x7ff\n 16449: a1 = a1 + 0x241\n 16453: a2 = s1 + 0x7ff\n 16457: a2 = a2 + 0x221\n 16461: u64 [a3 + 0x20] = a5\n 16464: ra = 662, jump @724\n      : @572 [@dyn 331] (gas: 39)\n 16470: a1 = s1 + 0x7ff\n 16474: a1 = a1 + 0x119\n 16478: a2 = a1 + 0x100\n 16482: a0 = u64 [a2 + 0x60]\n 16485: u64 [s1 + 0xe8] = a0\n 16489: a0 = u64 [a2 + 0x58]\n 16492: u64 [s1 + 0xf0] = a0\n 16496: a0 = u64 [a2 + 0x50]\n 16499: u64 [s1 + 0xf8] = a0\n 16503: a0 = u64 [a2 + 0x48]\n 16506: u64 [s1 + 0x100] = a0\n 16510: a0 = u64 [a2 + 0x80]\n 16514: u64 [s1 + 0xc8] = a0\n 16518: a0 = u64 [a2 + 0x78]\n 16521: u64 [s1 + 0xd0] = a0\n 16525: a0 = u64 [a2 + 0x70]\n 16528: u64 [s1 + 0xd8] = a0\n 16532: a0 = u64 [a2 + 0x68]\n 16535: u64 [s1 + 0xe0] = a0\n 16539: a0 = u64 [s1 + 0x1a0]\n 16543: u64 [a1 + 0xc0] = a0\n 16547: a4 = u64 [s1 + 0x1a8]\n 16551: u64 [a1 + 0xb8] = a4\n 16555: a2 = u64 [s1 + 0x1b0]\n 16559: u64 [a1 + 0xb0] = a2\n 16563: a3 = u64 [s1 + 0x1b8]\n 16567: u64 [a1 + 0xa8] = a3\n 16571: u64 [a1 + 0xe0] = a0\n 16575: u64 [a1 + 0xd8] = a4\n 16579: u64 [a1 + 0xd0] = a2\n 16583: a4 = a1\n 16585: a0 = s1 + 0x7ff\n 16589: a0 = a0 + 0x201\n 16593: a1 = s1 + 0x7ff\n 16597: a1 = a1 + 0x1e1\n 16601: a2 = s1 + 0x7ff\n 16605: a2 = a2 + 0x1c1\n 16609: u64 [a4 + 0xc8] = a3\n 16613: ra = 664, jump @825\n      : @573 [@dyn 332] (gas: 24)\n 16619: a1 = s1 + 0x7ff\n 16623: a1 = a1 + 0x119\n 16627: a0 = u64 [a1 + 0xe8]\n 16631: t0 = u64 [a1 + 0x100]\n 16635: a2 = u64 [a1 + 0xf0]\n 16639: a3 = u64 [a1 + 0xf8]\n 16643: a4 = a0 + 0xa0\n 16647: a0 = a4 <u a0\n 16650: a5 = a2 + a0\n 16653: a2 = a5 <u a2\n 16656: a2 = a0 if a0 == 0\n 16659: a2 = a2 + a3\n 16662: a0 = a2 <u a3\n 16665: a3 = t0 + a0\n 16668: u64 [a1 + 0x68] = a4\n 16671: u64 [a1 + 0x70] = a5\n 16674: u64 [a1 + 0x78] = a2\n 16677: a2 = a1\n 16679: a0 = s1 + 0x7ff\n 16683: a0 = a0 + 0x1a1\n 16687: a1 = s1 + 0x7ff\n 16691: a1 = a1 + 0x181\n 16695: u64 [a2 + 0x80] = a3\n 16699: ra = 666, jump @784\n      : @574 [@dyn 333] (gas: 29)\n 16705: a4 = s1 + 0x7ff\n 16709: a4 = a4 + 0x119\n 16713: a0 = u64 [a4 + 0x98]\n 16717: u64 [s1 + 0xb0] = a0\n 16721: a0 = u64 [a4 + 0x90]\n 16725: u64 [s1 + 0xb8] = a0\n 16729: a0 = u64 [a4 + 0x88]\n 16733: u64 [s1 + 0xc0] = a0\n 16737: a0 = u64 [s1 + 0x1a0]\n 16741: u64 [a4 + 0x20] = a0\n 16744: a2 = u64 [s1 + 0x1a8]\n 16748: u64 [a4 + 0x18] = a2\n 16751: a1 = u64 [s1 + 0x1b0]\n 16755: a3 = s1 + 0x1000\n 16759: u64 [a3 + 0xfffffffffffff928] = a1\n 16763: a3 = u64 [s1 + 0x1b8]\n 16767: a5 = s1 + 0x1000\n 16771: u64 [a5 + 0xfffffffffffff920] = a3\n 16775: u64 [a4 + 0x40] = a0\n 16778: u64 [a4 + 0x38] = a2\n 16781: u64 [a4 + 0x30] = a1\n 16784: a0 = s1 + 0x7ff\n 16788: a0 = a0 + 0x161\n 16792: a1 = s1 + 0x7ff\n 16796: a1 = a1 + 0x141\n 16800: a2 = s1 + 0x7ff\n 16804: a2 = a2 + 0x121\n 16808: u64 [a4 + 0x28] = a3\n 16811: ra = 668, jump @825\n      : @575 [@dyn 334] (gas: 37)\n 16817: a1 = s1 + 0x7ff\n 16821: a1 = a1 + 0x119\n 16825: a0 = u64 [a1 + 0x48]\n 16828: t0 = u64 [a1 + 0x60]\n 16831: a2 = u64 [a1 + 0x50]\n 16834: a3 = u64 [a1 + 0x58]\n 16837: a4 = a0 + 0xc0\n 16841: a5 = a4 <u a0\n 16844: t1 = a2 + a5\n 16847: a1 = t1 <u a2\n 16850: a1 = a5 if a5 == 0\n 16853: a1 = a1 + a3\n 16856: a5 = a1 <u a3\n 16859: a5 = a5 + t0\n 16862: t2 = s1 + 0x1000\n 16866: u64 [t2 + 0xfffffffffffff8a0] = a4\n 16870: a4 = s1 + 0x1000\n 16874: u64 [a4 + 0xfffffffffffff8d8] = t0\n 16878: a4 = s1 + 0x1000\n 16882: u64 [a4 + 0xfffffffffffff8d0] = a3\n 16886: a3 = s1 + 0x1000\n 16890: u64 [a3 + 0xfffffffffffff8c8] = a2\n 16894: a2 = s1 + 0x1000\n 16898: u64 [a2 + 0xfffffffffffff8c0] = a0\n 16902: a0 = s1 + 0x1000\n 16906: u64 [a0 + 0xfffffffffffff8a8] = t1\n 16910: a0 = s1 + 0x1000\n 16914: u64 [a0 + 0xfffffffffffff8b0] = a1\n 16918: a0 = s1 + 0x7ff\n 16922: a0 = a0 + 0xe1\n 16926: a1 = s1 + 0x7ff\n 16930: a1 = a1 + 0xc1\n 16934: a2 = s1 + 0x7ff\n 16938: a2 = a2 + 0xa1\n 16942: a3 = s1 + 0x1000\n 16946: u64 [a3 + 0xfffffffffffff8b8] = a5\n 16950: ra = 670, jump @724\n      : @576 [@dyn 335] (gas: 51)\n 16956: a0 = s1 + 0x1000\n 16960: a0 = u64 [a0 + 0xfffffffffffff8f8]\n 16964: u64 [s1 + 0x90] = a0\n 16968: a0 = s1 + 0x1000\n 16972: a0 = u64 [a0 + 0xfffffffffffff8f0]\n 16976: u64 [s1 + 0x98] = a0\n 16980: a0 = s1 + 0x1000\n 16984: a0 = u64 [a0 + 0xfffffffffffff8e8]\n 16988: u64 [s1 + 0xa0] = a0\n 16992: a0 = s1 + 0x1000\n 16996: a0 = u64 [a0 + 0xfffffffffffff8e0]\n 17000: u64 [s1 + 0xa8] = a0\n 17004: a1 = s1 + 0x7ff\n 17008: a1 = a1 + 0x119\n 17012: a0 = u64 [a1]\n 17014: u64 [s1 + 0x70] = a0\n 17017: a0 = u64 [a1 + 0xfffffffffffffff8]\n 17020: u64 [s1 + 0x78] = a0\n 17023: a0 = s1 + 0x1000\n 17027: a0 = u64 [a0 + 0xfffffffffffff908]\n 17031: u64 [s1 + 0x80] = a0\n 17035: a0 = s1 + 0x1000\n 17039: a0 = u64 [a0 + 0xfffffffffffff900]\n 17043: u64 [s1 + 0x88] = a0\n 17047: a0 = u64 [s1 + 0x1a0]\n 17051: a1 = s1 + 0x1000\n 17055: u64 [a1 + 0xfffffffffffff858] = a0\n 17059: a2 = u64 [s1 + 0x1a8]\n 17063: a1 = s1 + 0x1000\n 17067: u64 [a1 + 0xfffffffffffff850] = a2\n 17071: a1 = u64 [s1 + 0x1b0]\n 17075: a3 = s1 + 0x1000\n 17079: u64 [a3 + 0xfffffffffffff848] = a1\n 17083: a3 = u64 [s1 + 0x1b8]\n 17087: a4 = s1 + 0x1000\n 17091: u64 [a4 + 0xfffffffffffff840] = a3\n 17095: a4 = s1 + 0x1000\n 17099: u64 [a4 + 0xfffffffffffff878] = a0\n 17103: a0 = s1 + 0x1000\n 17107: u64 [a0 + 0xfffffffffffff870] = a2\n 17111: a0 = s1 + 0x1000\n 17115: u64 [a0 + 0xfffffffffffff868] = a1\n 17119: a0 = s1 + 0x7ff\n 17123: a0 = a0 + 0x81\n 17127: a1 = s1 + 0x7ff\n 17131: a1 = a1 + 0x61\n 17134: a2 = s1 + 0x7ff\n 17138: a2 = a2 + 0x41\n 17141: a4 = s1 + 0x1000\n 17145: u64 [a4 + 0xfffffffffffff860] = a3\n 17149: ra = 672, jump @825\n      : @577 [@dyn 336] (gas: 29)\n 17155: a0 = s1 + 0x1000\n 17159: a0 = u64 [a0 + 0xfffffffffffff880]\n 17163: a1 = s1 + 0x1000\n 17167: t0 = u64 [a1 + 0xfffffffffffff898]\n 17171: a1 = s1 + 0x1000\n 17175: a2 = u64 [a1 + 0xfffffffffffff888]\n 17179: a1 = s1 + 0x1000\n 17183: a3 = u64 [a1 + 0xfffffffffffff890]\n 17187: a4 = a0 + 0xe0\n 17191: a5 = a4 <u a0\n 17194: t1 = a2 + a5\n 17197: a1 = t1 <u a2\n 17200: a1 = a5 if a5 == 0\n 17203: a1 = a1 + a3\n 17206: a5 = a1 <u a3\n 17209: a5 = a5 + t0\n 17212: u64 [s1 + 0x7c0] = a4\n 17216: u64 [s1 + 0x7f8] = t0\n 17220: u64 [s1 + 0x7f0] = a3\n 17224: u64 [s1 + 0x7e8] = a2\n 17228: u64 [s1 + 0x7e0] = a0\n 17232: u64 [s1 + 0x7c8] = t1\n 17236: u64 [s1 + 0x7d0] = a1\n 17240: a0 = s1 + 0x7ff\n 17244: a0 = a0 + 0x1\n 17247: a1 = s1 + 0x7e0\n 17251: a2 = s1 + 0x7c0\n 17255: u64 [s1 + 0x7d8] = a5\n 17259: ra = 674, jump @724\n      : @578 [@dyn 337] (gas: 27)\n 17265: a0 = s1 + 0x1000\n 17269: a0 = u64 [a0 + 0xfffffffffffff818]\n 17273: u64 [s1 + 0x50] = a0\n 17276: a0 = s1 + 0x1000\n 17280: a0 = u64 [a0 + 0xfffffffffffff810]\n 17284: u64 [s1 + 0x58] = a0\n 17287: a0 = s1 + 0x1000\n 17291: a0 = u64 [a0 + 0xfffffffffffff808]\n 17295: u64 [s1 + 0x60] = a0\n 17298: a0 = s1 + 0x1000\n 17302: a0 = u64 [a0 + 0xfffffffffffff800]\n 17306: u64 [s1 + 0x68] = a0\n 17309: a0 = s1 + 0x1000\n 17313: a0 = u64 [a0 + 0xfffffffffffff838]\n 17317: u64 [s1 + 0x30] = a0\n 17320: a0 = s1 + 0x1000\n 17324: a0 = u64 [a0 + 0xfffffffffffff830]\n 17328: u64 [s1 + 0x38] = a0\n 17331: a0 = s1 + 0x1000\n 17335: a0 = u64 [a0 + 0xfffffffffffff828]\n 17339: u64 [s1 + 0x40] = a0\n 17342: a0 = s1 + 0x1000\n 17346: a0 = u64 [a0 + 0xfffffffffffff820]\n 17350: u64 [s1 + 0x48] = a0\n 17353: a0 = s1 + 0x7a0\n 17357: a1 = 0x40\n 17360: ra = 676, jump @2\n      : @579 [@dyn 338] (gas: 15)\n 17366: a4 = s1 + 0x700\n 17370: a2 = u64 [a4 + 0xb8]\n 17374: a3 = u64 [a4 + 0xb0]\n 17378: a0 = u64 [a4 + 0xa8]\n 17382: a1 = u64 [a4 + 0xa0]\n 17386: u64 [s1 + 0x1b0] = a0\n 17390: a0 = a0 | a2\n 17393: u64 [s1 + 0x1b8] = a1\n 17397: a1 = a1 | a3\n 17400: a1 = a1 | a0\n 17403: a1 = a1 >> 0x20\n 17406: a0 = a0 | a3\n 17409: a0 = a0 << 0x20\n 17412: a0 = a0 | a1\n 17415: jump @558 if a0 != 0\n      : @580 (gas: 14)\n 17419: a0 = u64 [s1 + 0x128]\n 17423: a4 = s1 + 0x700\n 17427: u64 [a4 + 0x80] = a0\n 17431: a0 = u64 [s1 + 0x130]\n 17435: u64 [a4 + 0x88] = a0\n 17439: a0 = u64 [s1 + 0x138]\n 17443: u64 [a4 + 0x90] = a0\n 17447: a1 = s1 + 0x780\n 17451: a0 = u64 [s1 + 0x140]\n 17455: u64 [a4 + 0x98] = a0\n 17459: a0 = u64 [s1 + 0x1b8]\n 17463: u64 [s1 + 0x1a8] = a2\n 17467: u64 [s1 + 0x1a0] = a3\n 17471: ra = 678, jump @4\n      : @581 [@dyn 339] (gas: 14)\n 17477: a3 = s1 + 0x100\n 17481: a2 = u64 [a3 + 0xa0]\n 17485: a0 = u64 [a3 + 0xa8]\n 17489: a2 = a2 | a0\n 17492: a0 = 0x100000000\n 17502: u64 [a3 + 0x38] = a0\n 17505: a0 = 0xffffffe0\n 17515: a1 = u64 [a3 + 0xb8]\n 17519: a0 = a1 <u a0\n 17522: a1 = u64 [a3 + 0xb0]\n 17526: a0 = 0 if a1 != 0\n 17528: u64 [a3 + 0x40] = a2\n 17531: a0 = 0 if a2 != 0\n 17533: jump @558 if a0 == 0\n      : @582 (gas: 13)\n 17537: a0 = u64 [s1 + 0x1b8]\n 17541: i32 a0 = a0 + 0x20\n 17544: a1 = u64 [s1 + 0x108]\n 17548: a3 = s1 + 0x700\n 17552: u64 [a3 + 0x60] = a1\n 17555: a1 = u64 [s1 + 0x110]\n 17559: u64 [a3 + 0x68] = a1\n 17562: a1 = u64 [s1 + 0x118]\n 17566: u64 [a3 + 0x70] = a1\n 17569: a1 = s1 + 0x760\n 17573: a2 = u64 [s1 + 0x120]\n 17577: u64 [a3 + 0x78] = a2\n 17580: ra = 680, jump @4\n      : @583 [@dyn 340] (gas: 4)\n 17586: a2 = s1 + 0x100\n 17590: a0 = u64 [a2 + 0x38]\n 17593: a0 = a0 + 0xffffffffffffffc0\n 17596: t0 = 682, jump @869\n      : @584 [@dyn 341] (gas: 1)\n 17602: jump @558 if a0 == 0\n      : @585 (gas: 8)\n 17606: a0 = u64 [s1 + 0x1b8]\n 17610: i32 a0 = a0 + 0x40\n 17613: u64 [s1 + 1880] = 0\n 17617: u64 [s1 + 1872] = 0\n 17621: u64 [s1 + 1856] = 0x120\n 17627: a1 = s1 + 0x740\n 17631: u64 [s1 + 1864] = 0\n 17635: ra = 684, jump @4\n      : @586 [@dyn 342] (gas: 39)\n 17641: a1 = u64 [s1 + 0x1b8]\n 17645: a0 = a1 + 0x120\n 17649: a1 = a0 <u a1\n 17652: a3 = u64 [s1 + 0x1b0]\n 17656: a2 = a3 + a1\n 17659: a3 = a2 <u a3\n 17662: a3 = a1 if a1 == 0\n 17665: a1 = u64 [s1 + 0x1a0]\n 17669: a3 = a3 + a1\n 17672: a4 = a3 <u a1\n 17675: a1 = u64 [s1 + 0x1a8]\n 17679: a4 = a4 + a1\n 17682: a5 = s1 + 0x600\n 17686: u64 [a5 + 0xc8] = a2\n 17690: u64 [a5 + 0xc0] = a0\n 17694: a0 = u64 [s1 + 0xc8]\n 17698: u64 [a5 + 0xf8] = a0\n 17702: a0 = u64 [s1 + 0xd0]\n 17706: u64 [a5 + 0xf0] = a0\n 17710: a0 = u64 [s1 + 0xd8]\n 17714: u64 [a5 + 0xe8] = a0\n 17718: a0 = u64 [s1 + 0xe0]\n 17722: u64 [a5 + 0xe0] = a0\n 17726: a0 = u64 [s1 + 0xe8]\n 17730: a1 = s1 + 0x700\n 17734: u64 [a1 + 0x18] = a0\n 17737: a0 = u64 [s1 + 0xf0]\n 17741: u64 [a1 + 0x10] = a0\n 17744: a0 = u64 [s1 + 0xf8]\n 17748: u64 [a1 + 0x8] = a0\n 17751: a0 = u64 [s1 + 0x100]\n 17755: u64 [a1] = a0\n 17757: u64 [a5 + 0xd0] = a3\n 17761: a0 = s1 + 0x720\n 17765: a1 = s1 + 0x700\n 17769: a2 = s1 + 0x6e0\n 17773: a3 = s1 + 0x6c0\n 17777: u64 [a5 + 0xd8] = a4\n 17781: ra = 686, jump @814\n      : @587 [@dyn 343] (gas: 5)\n 17787: a0 = 0x100000000\n 17797: a2 = s1 + 0x100\n 17801: u64 [a2 + 0x38] = a0\n 17804: a0 = 0xffffffa0\n 17814: t0 = 688, jump @869\n      : @588 [@dyn 344] (gas: 1)\n 17820: jump @558 if a0 == 0\n      : @589 (gas: 25)\n 17824: a1 = 0xffffffff\n 17834: a3 = s1 + 0x700\n 17838: a2 = u64 [a3 + 0x38]\n 17841: u64 [s1 + 0x118] = a2\n 17845: a2 = u64 [a3 + 0x30]\n 17848: u64 [s1 + 0x120] = a2\n 17852: a2 = u64 [a3 + 0x28]\n 17855: u64 [s1 + 0x128] = a2\n 17859: a2 = u64 [a3 + 0x20]\n 17862: u64 [s1 + 0x130] = a2\n 17866: a2 = u64 [s1 + 0xb0]\n 17870: a2 = a2 & a1\n 17873: a1 = u64 [s1 + 0xb8]\n 17877: a1 = a1 & 0xffffffffffffffff\n 17880: a3 = u64 [s1 + 0xc0]\n 17884: a3 = a3 & 0xffffffffffffffff\n 17887: a0 = u64 [s1 + 0x1b8]\n 17891: i32 a0 = a0 + 0x60\n 17894: u64 [s1 + 1720] = 0\n 17898: a4 = s1 + 0x600\n 17902: u64 [a4 + 0xa0] = a3\n 17906: u64 [a4 + 0xa8] = a1\n 17910: a1 = s1 + 0x6a0\n 17914: u64 [a4 + 0xb0] = a2\n 17918: ra = 690, jump @4\n      : @590 [@dyn 345] (gas: 4)\n 17924: a2 = s1 + 0x100\n 17928: a0 = u64 [a2 + 0x38]\n 17931: a0 = a0 + 0xffffffffffffff80\n 17934: t0 = 692, jump @869\n      : @591 [@dyn 346] (gas: 1)\n 17940: jump @558 if a0 == 0\n      : @592 (gas: 31)\n 17944: a5 = u64 [s1 + 0x1b8]\n 17948: a0 = u64 [s1 + 0x130]\n 17952: t0 = a0 <u a5\n 17955: t1 = a0\n 17957: a3 = u64 [s1 + 0x1b0]\n 17961: a0 = u64 [s1 + 0x128]\n 17965: a1 = a0 ^ a3\n 17968: a2 = a0 <u a3\n 17971: t2 = a3\n 17973: a2 = t0 if a1 == 0\n 17976: a3 = u64 [s1 + 0x1a0]\n 17980: a4 = u64 [s1 + 0x120]\n 17984: a1 = a4 - a3\n 17987: ra = a4 <u a3\n 17990: a4 = u64 [s1 + 0x1a8]\n 17994: a3 = u64 [s1 + 0x118]\n 17998: a4 = a3 - a4\n 18001: a4 = a4 - ra\n 18004: a3 = a1 <u a2\n 18007: a4 = a4 - a3\n 18010: a1 = a1 - a2\n 18013: a2 = a0 - t2\n 18016: a2 = a2 - t0\n 18019: a3 = t1 - a5\n 18022: i32 a0 = a5 + 0x80\n 18026: u64 [s1 + 0x680] = a3\n 18030: u64 [s1 + 0x688] = a2\n 18034: u64 [s1 + 0x690] = a1\n 18038: a1 = s1 + 0x680\n 18042: u64 [s1 + 0x698] = a4\n 18046: ra = 694, jump @4\n      : @593 [@dyn 347] (gas: 30)\n 18052: a0 = u64 [s1 + 0x118]\n 18056: a5 = s1 + 0x600\n 18060: u64 [a5 + 0x18] = a0\n 18063: a0 = u64 [s1 + 0x120]\n 18067: u64 [a5 + 0x10] = a0\n 18070: a0 = u64 [s1 + 0x128]\n 18074: u64 [a5 + 0x8] = a0\n 18077: a0 = u64 [s1 + 0x130]\n 18081: u64 [a5] = a0\n 18083: a0 = u64 [s1 + 0x70]\n 18086: u64 [a5 + 0x38] = a0\n 18089: a0 = u64 [s1 + 0x78]\n 18092: u64 [a5 + 0x30] = a0\n 18095: a0 = u64 [s1 + 0x80]\n 18099: u64 [a5 + 0x28] = a0\n 18102: a0 = u64 [s1 + 0x88]\n 18106: u64 [a5 + 0x20] = a0\n 18109: a0 = u64 [s1 + 0x90]\n 18113: u64 [a5 + 0x58] = a0\n 18116: a0 = u64 [s1 + 0x98]\n 18120: u64 [a5 + 0x50] = a0\n 18123: a0 = u64 [s1 + 0xa0]\n 18127: u64 [a5 + 0x48] = a0\n 18130: a0 = s1 + 0x660\n 18134: a1 = s1 + 0x640\n 18138: a2 = s1 + 0x620\n 18142: a3 = s1 + 0x600\n 18146: a4 = u64 [s1 + 0xa8]\n 18150: u64 [a5 + 0x40] = a4\n 18153: ra = 696, jump @814\n      : @594 [@dyn 348] (gas: 5)\n 18159: a0 = 0x100000000\n 18169: a2 = s1 + 0x100\n 18173: u64 [a2 + 0x38] = a0\n 18176: a0 = 0xffffff60\n 18186: t0 = 698, jump @869\n      : @595 [@dyn 349] (gas: 1)\n 18192: jump @558 if a0 == 0\n      : @596 (gas: 38)\n 18196: a2 = s1 + 0x600\n 18200: a0 = u64 [a2 + 0x60]\n 18203: a1 = u64 [a2 + 0x68]\n 18206: t2 = u64 [s1 + 0x678]\n 18210: u64 [s1 + 0x128] = t2\n 18214: a4 = u64 [a2 + 0x70]\n 18217: u64 [s1 + 0x130] = a4\n 18221: a5 = u64 [s1 + 0x1b8]\n 18225: t0 = a0 <u a5\n 18228: t1 = a0\n 18230: u64 [s1 + 0x118] = a0\n 18234: a3 = u64 [s1 + 0x1b0]\n 18238: a0 = a1\n 18240: a1 = a1 ^ a3\n 18243: a2 = a0 <u a3\n 18246: ra = a0\n 18248: u64 [s1 + 0x120] = a0\n 18252: a0 = a3\n 18254: a2 = t0 if a1 == 0\n 18257: a3 = u64 [s1 + 0x1a0]\n 18261: a1 = a4 - a3\n 18264: a3 = a4 <u a3\n 18267: a4 = u64 [s1 + 0x1a8]\n 18271: a4 = t2 - a4\n 18274: a4 = a4 - a3\n 18277: a3 = a1 <u a2\n 18280: a4 = a4 - a3\n 18283: a1 = a1 - a2\n 18286: a2 = ra - a0\n 18289: a2 = a2 - t0\n 18292: a3 = t1 - a5\n 18295: i32 a0 = a5 + 0xa0\n 18299: u64 [s1 + 0x5e0] = a3\n 18303: u64 [s1 + 0x5e8] = a2\n 18307: u64 [s1 + 0x5f0] = a1\n 18311: a1 = s1 + 0x5e0\n 18315: u64 [s1 + 0x5f8] = a4\n 18319: ra = 700, jump @4\n      : @597 [@dyn 350] (gas: 29)\n 18325: a0 = u64 [s1 + 0x128]\n 18329: u64 [s1 + 0x578] = a0\n 18333: a0 = u64 [s1 + 0x130]\n 18337: u64 [s1 + 0x570] = a0\n 18341: a0 = u64 [s1 + 0x120]\n 18345: u64 [s1 + 0x568] = a0\n 18349: a0 = u64 [s1 + 0x118]\n 18353: u64 [s1 + 0x560] = a0\n 18357: a0 = u64 [s1 + 0x30]\n 18360: u64 [s1 + 0x598] = a0\n 18364: a0 = u64 [s1 + 0x38]\n 18367: u64 [s1 + 0x590] = a0\n 18371: a0 = u64 [s1 + 0x40]\n 18374: u64 [s1 + 0x588] = a0\n 18378: a0 = u64 [s1 + 0x48]\n 18381: u64 [s1 + 0x580] = a0\n 18385: a0 = u64 [s1 + 0x50]\n 18388: u64 [s1 + 0x5b8] = a0\n 18392: a0 = u64 [s1 + 0x58]\n 18395: u64 [s1 + 0x5b0] = a0\n 18399: a0 = u64 [s1 + 0x60]\n 18402: u64 [s1 + 0x5a8] = a0\n 18406: a0 = s1 + 0x5c0\n 18410: a1 = s1 + 0x5a0\n 18414: a2 = s1 + 0x580\n 18418: a3 = s1 + 0x560\n 18422: a4 = u64 [s1 + 0x68]\n 18425: u64 [s1 + 0x5a0] = a4\n 18429: ra = 702, jump @814\n      : @598 [@dyn 351] (gas: 16)\n 18435: a1 = s1 + 0x500\n 18439: a0 = u64 [a1 + 0xd8]\n 18443: u64 [s1 + 0x120] = a0\n 18447: a0 = u64 [a1 + 0xd0]\n 18451: u64 [s1 + 0x118] = a0\n 18455: a0 = u64 [a1 + 0xc8]\n 18459: u64 [s1 + 0x128] = a0\n 18463: a0 = u64 [a1 + 0xc0]\n 18467: u64 [s1 + 0x130] = a0\n 18471: a0 = u64 [s1 + 0x188]\n 18475: i32 a1 = a0 + 0x24\n 18478: a0 = s1 + 0x2000\n 18482: i32 a0 = a0 + 0x640\n 18486: ra = 0x2c0\n 18490: ecalli 1 // 'call_data_load'\n 18492: fallthrough\n      : @599 [@dyn 352] (gas: 4)\n 18493: a2 = s1 + 0x100\n 18497: a0 = u64 [a2 + 0x38]\n 18500: a0 = a0 + 0xffffffffffffff40\n 18504: t0 = 706, jump @869\n      : @600 [@dyn 353] (gas: 1)\n 18510: jump @558 if a0 == 0\n      : @601 (gas: 15)\n 18514: a0 = s1 + 0x2118\n 18518: a5 = a0 + 0x500\n 18522: a2 = u64 [a5 + 0x28]\n 18525: a1 = u64 [a5 + 0x30]\n 18528: a3 = u64 [a5 + 0x38]\n 18531: a4 = u64 [a5 + 0x40]\n 18534: a0 = u64 [s1 + 0x1b8]\n 18538: i32 a0 = a0 + 0xc0\n 18542: a5 = s1 + 0x500\n 18546: u64 [a5 + 0x58] = a4\n 18549: u64 [a5 + 0x50] = a3\n 18552: u64 [a5 + 0x48] = a1\n 18555: a1 = s1 + 0x540\n 18559: u64 [a5 + 0x40] = a2\n 18562: ra = 708, jump @4\n      : @602 [@dyn 354] (gas: 5)\n 18568: a0 = 0x100000000\n 18578: a2 = s1 + 0x100\n 18582: u64 [a2 + 0x88] = a0\n 18586: a0 = 0xffffff20\n 18596: t0 = 710, jump @869\n      : @603 [@dyn 355] (gas: 1)\n 18602: jump @558 if a0 == 0\n      : @604 (gas: 13)\n 18606: a0 = u64 [s1 + 0x1b8]\n 18610: i32 a0 = a0 + 0xe0\n 18614: a1 = u64 [s1 + 0x168]\n 18618: a3 = s1 + 0x500\n 18622: u64 [a3 + 0x20] = a1\n 18625: a1 = u64 [s1 + 0x178]\n 18629: u64 [a3 + 0x28] = a1\n 18632: a1 = u64 [s1 + 0x180]\n 18636: u64 [a3 + 0x30] = a1\n 18639: a1 = s1 + 0x520\n 18643: a2 = u64 [s1 + 0x190]\n 18647: u64 [a3 + 0x38] = a2\n 18650: ra = 712, jump @4\n      : @605 [@dyn 356] (gas: 5)\n 18656: a0 = s1 + 0x2000\n 18660: i32 a0 = a0 + 0x660\n 18664: ra = 0x2ca\n 18668: ecalli 7 // 'now'\n 18670: fallthrough\n      : @606 [@dyn 357] (gas: 4)\n 18671: a2 = s1 + 0x100\n 18675: a0 = u64 [a2 + 0x88]\n 18679: a0 = a0 + 0xffffffffffffff00\n 18683: t0 = 716, jump @869\n      : @607 [@dyn 358] (gas: 1)\n 18689: jump @558 if a0 == 0\n      : @608 (gas: 15)\n 18693: a0 = s1 + 0x2118\n 18697: a5 = a0 + 0x500\n 18701: a2 = u64 [a5 + 0x48]\n 18704: a1 = u64 [a5 + 0x50]\n 18707: a3 = u64 [a5 + 0x58]\n 18710: a4 = u64 [a5 + 0x60]\n 18713: a0 = u64 [s1 + 0x1b8]\n 18717: i32 a0 = a0 + 0x100\n 18721: a5 = s1 + 0x500\n 18725: u64 [a5 + 0x18] = a4\n 18728: u64 [a5 + 0x10] = a3\n 18731: u64 [a5 + 0x8] = a1\n 18734: a1 = s1 + 0x500\n 18738: u64 [a5] = a2\n 18740: ra = 718, jump @4\n      : @609 [@dyn 359] (gas: 3)\n 18746: a0 = u64 [s1 + 0x170]\n 18750: ecalli 3 // 'caller'\n 18752: fallthrough\n      : @610 (gas: 30)\n 18753: t0 = u64 [s1 + 0x130]\n 18757: ra = u64 [s1 + 0x1b8]\n 18761: t1 = t0 <u ra\n 18764: a5 = u64 [s1 + 0x1b0]\n 18768: a1 = u64 [s1 + 0x128]\n 18772: a3 = a1 ^ a5\n 18775: a2 = a1 <u a5\n 18778: a2 = t1 if a3 == 0\n 18781: a3 = u64 [s1 + 0x1a0]\n 18785: a4 = u64 [s1 + 0x118]\n 18789: a0 = a4 - a3\n 18792: t2 = a4 <u a3\n 18795: a4 = u64 [s1 + 0x1a8]\n 18799: a3 = u64 [s1 + 0x120]\n 18803: a4 = a3 - a4\n 18806: a4 = a4 - t2\n 18809: a3 = a0 <u a2\n 18812: a4 = a4 - a3\n 18815: a2 = a0 - a2\n 18818: a1 = a1 - a5\n 18821: a0 = a1 - t1\n 18824: a1 = t0 - ra\n 18827: a0 = a0 | a4\n 18830: a3 = a1 | a2\n 18833: a3 = a3 | a0\n 18836: a0 = a0 | a2\n 18839: a3 = a3 >> 0x20\n 18842: a0 = a0 << 0x20\n 18845: a0 = a0 | a3\n 18848: jump @558 if a0 != 0\n      : @611 (gas: 50)\n 18852: a3 = u64 [s1 + 0x198]\n 18856: a0 = u64 [a3 + 0x8]\n 18859: a2 = i32 [a3 + 0x10]\n 18862: a3 = u64 [a3]\n 18864: a4 = reverse a0\n 18866: a0 = a4 << 0x20\n 18869: a2 = reverse a2\n 18871: a2 = a2 >> 0x20\n 18874: t0 = a2 | a0\n 18877: a4 = a4 >> 0x20\n 18880: a3 = reverse a3\n 18882: a2 = a3 << 0x20\n 18885: t1 = a2 | a4\n 18888: a3 = a3 >> 0x20\n 18891: u64 [s1 + 1176] = 0\n 18895: a0 = u64 [s1 + 0x10]\n 18898: u64 [s1 + 0x4b0] = a0\n 18902: a0 = u64 [s1 + 0x18]\n 18905: u64 [s1 + 0x4a8] = a0\n 18909: a0 = u64 [s1 + 0x20]\n 18912: u64 [s1 + 0x4a0] = a0\n 18916: a0 = u64 [s1 + 0x148]\n 18920: u64 [s1 + 0x4d0] = a0\n 18924: a0 = u64 [s1 + 0x150]\n 18928: u64 [s1 + 0x4c8] = a0\n 18932: a0 = u64 [s1 + 0x158]\n 18936: u64 [s1 + 0x4c0] = a0\n 18940: a4 = u64 [0x200f8]\n 18945: a5 = u64 [0x20100]\n 18950: a0 = u64 [0x20108]\n 18955: a2 = u64 [0x20110]\n 18960: u64 [s1 + 0x4f8] = a4\n 18964: a4 = s1 + 0x400\n 18968: u64 [a4 + 0xf0] = a5\n 18972: u64 [a4 + 0xe8] = a0\n 18976: u64 [a4 + 0xe0] = a2\n 18980: u64 [a4 + 0x90] = a3\n 18984: a0 = u64 [s1 + 0x28]\n 18987: u64 [a4 + 0xb8] = a0\n 18991: a0 = u64 [s1 + 0x160]\n 18995: u64 [a4 + 0xd8] = a0\n 18999: u64 [s1 + 0x488] = t1\n 19003: a2 = s1 + 0x4e0\n 19007: a3 = s1 + 0x4c0\n 19011: a4 = s1 + 0x4a0\n 19015: a5 = s1 + 0x480\n 19019: u64 [s1 + 0x480] = t0\n 19023: a0 = u64 [s1 + 0x1b8]\n 19027: ra = 0x1fe\n 19031: jump @10\n      : @612 (gas: 4)\n 19034: a0 = 0\n 19036: a1 = 0\n 19038: ra = 0x2d0\n 19042: jump @13\n      : @613 (gas: 2)\n 19045: a1 = 0\n 19047: ra = 720, jump @13\n      : @614 [@dyn 360] (gas: 3)\n 19053: i32 a1 = a0 + 0\n 19055: a0 = 0x1\n 19058: jump @616\n      : @615 (gas: 4)\n 19060: a1 = 0x20230\n 19065: i32 a1 = a1 + 0\n 19067: a0 = 0x1\n 19070: fallthrough\n      : @616 (gas: 5)\n 19071: a2 = 0\n 19073: ecalli 8 // 'seal_return'\n 19075: a0 = 0\n 19077: ra = 0x2d0\n 19081: jump @13\n      : @617 (gas: 3)\n 19084: a0 = 0\n 19086: ra = 0x2d0\n 19090: jump @13\n      : @618 (gas: 16)\n 19093: a0 = t0 >> 0x20\n 19096: a0 = a0 << 0x20\n 19099: a1 = u64 [s1 + 0x178]\n 19103: a0 = a0 | a1\n 19106: a1 = u64 [s1 + 0x170]\n 19110: a2 = u64 [s1 + 0x168]\n 19114: a1 = a1 | a2\n 19117: a2 = s1 + 0x2918\n 19121: a5 = a2 + 0x100\n 19125: u64 [a5 + 0x28] = a3\n 19128: u64 [a5 + 0x30] = a4\n 19131: u64 [a5 + 0x40] = a1\n 19134: u64 [a5 + 0x38] = a0\n 19137: a1 = s1 + 0x2a40\n 19141: a0 = u64 [s1 + 0x1b0]\n 19145: ra = 722, jump @7\n      : @619 [@dyn 361] (gas: 12)\n 19151: a0 = s1 + 0x2118\n 19155: u64 [a0 + 448] = 0\n 19159: a1 = u64 [s1 + 0x188]\n 19163: a3 = a0 + 0x100\n 19167: u64 [a3 + 0xb8] = a1\n 19171: a1 = u64 [s1 + 0x198]\n 19175: u64 [a3 + 0xb0] = a1\n 19179: a1 = s1 + 0x22c0\n 19183: a2 = u64 [s1 + 0x190]\n 19187: u64 [a3 + 0xa8] = a2\n 19191: a0 = 0\n 19193: ra = 724, jump @4\n      : @620 [@dyn 362] (gas: 3)\n 19199: t0 = 0x2d6\n 19203: a2 = s1 + 0x2118\n 19207: fallthrough\n      : @621 [@dyn 363] (gas: 7)\n 19208: u64 [a2 + 416] = 0\n 19212: u64 [a2 + 408] = 0\n 19216: u64 [a2 + 392] = 0x1\n 19221: a0 = 0x20\n 19224: a1 = s1 + 0x22a0\n 19228: u64 [a2 + 400] = 0\n 19232: ra = 728, jump @4\n      : @622 [@dyn 364] (gas: 7)\n 19238: a0 = sp + 0xffffffffffffffe0\n 19241: a0 = a0 & 0xffffffffffffffe0\n 19244: u64 [s1 + 0x1b8] = a0\n 19248: sp = a0\n 19250: a1 = 0x40\n 19253: a0 = 0\n 19255: ra = 730, jump @13\n      : @623 [@dyn 365] (gas: 4)\n 19261: a1 = sp + 0xffffffffffffffe0\n 19264: a1 = a1 & 0xffffffffffffffe0\n 19267: u64 [s1 + 0x1b0] = a1\n 19271: t0 = 732, jump @870\n      : @624 [@dyn 366] (gas: 5)\n 19277: ra = 0x2de\n 19281: ecalli 6 // 'hash_keccak_256'\n 19283: a3 = u64 [s1 + 0x1b0]\n 19287: t0 = 0x2e0\n 19291: jump @879\n      : @625 [@dyn 367] (gas: 2)\n 19294: a3 = u64 [s1 + 0x1b0]\n 19298: t0 = 736, jump @879\n      : @626 [@dyn 368] (gas: 7)\n 19304: a1 = u64 [s1 + 0x1b8]\n 19308: u64 [a1 + 0x18] = a3\n 19311: u64 [a1 + 0x10] = a2\n 19314: u64 [a1 + 0x8] = a4\n 19317: u64 [a1] = a0\n 19319: a0 = s1 + 0x2280\n 19323: ra = 738, jump @6\n      : @627 [@dyn 369] (gas: 17)\n 19329: a3 = s1 + 0x2118\n 19333: a4 = a3 + 0x100\n 19337: a0 = u64 [a4 + 0x68]\n 19340: a1 = u64 [a4 + 0x70]\n 19343: a2 = u64 [a4 + 0x80]\n 19347: a3 = u64 [a4 + 0x78]\n 19350: a0 = a0 & 0xffffffffffffff00\n 19354: a0 = a0 | 0x1\n 19357: a4 = s1 + 0x2918\n 19361: a5 = a4 + 0x100\n 19365: u64 [a5 + 0x60] = a2\n 19368: u64 [a5 + 0x58] = a3\n 19371: u64 [a5 + 0x50] = a1\n 19374: u64 [a5 + 0x48] = a0\n 19377: a1 = s1 + 0x2a60\n 19381: a0 = u64 [s1 + 0x1b8]\n 19385: ra = 740, jump @7\n      : @628 [@dyn 370] (gas: 1)\n 19391: jump @631\n      : @629 (gas: 14)\n 19394: a3 = s1 + 0x2918\n 19398: a0 = u64 [a3 + 0xc8]\n 19402: a1 = u64 [a3 + 0xd0]\n 19406: a2 = u64 [a3 + 0xd8]\n 19410: a3 = u64 [a3 + 0xe0]\n 19414: a4 = s1 + 0x1918\n 19418: u64 [a4 + 0x700] = a3\n 19422: a3 = a4 + 0x600\n 19426: u64 [a3 + 0xf8] = a2\n 19430: u64 [a3 + 0xf0] = a1\n 19434: a1 = s1 + 0x2000\n 19438: u64 [a3 + 0xe8] = a0\n 19442: a0 = a5\n 19444: ra = 742, jump @4\n      : @630 [@dyn 371] (gas: 23)\n 19450: a2 = s1 + 0x100\n 19454: a0 = u64 [a2 + 0xa0]\n 19458: a4 = s1 + 0x1918\n 19462: a5 = a4 + 0x600\n 19466: u64 [a5 + 0xb8] = a0\n 19470: a0 = u64 [a2 + 0xa8]\n 19474: u64 [a5 + 0xb0] = a0\n 19478: a0 = u64 [a2 + 0xb8]\n 19482: u64 [a5 + 0xa8] = a0\n 19486: a0 = u64 [0x20038]\n 19491: a1 = u64 [0x20040]\n 19496: a2 = u64 [0x20048]\n 19501: a3 = u64 [0x20050]\n 19506: u64 [a5 + 0xe0] = a0\n 19510: u64 [a5 + 0xd8] = a1\n 19514: u64 [a5 + 0xd0] = a2\n 19518: u64 [a5 + 0xc8] = a3\n 19522: a1 = 0x20\n 19525: a2 = s1 + 0x1fe0\n 19529: a3 = s1 + 0x1fc0\n 19533: u64 [a4 + 1728] = 0\n 19537: a0 = u64 [s1 + 0x1b0]\n 19541: ra = 744, jump @8\n      : @631 [@dyn 372] (gas: 3)\n 19547: a0 = 0\n 19549: a1 = 0\n 19551: ra = 746, jump @13\n      : @632 [@dyn 373] (gas: 3)\n 19557: i32 a1 = a0 + 0\n 19559: a0 = 0\n 19561: jump @616\n      : @633 [@dyn 374] (gas: 1)\n 19564: jump @636 if a0 == 0\n      : @634 (gas: 1)\n 19567: t0 = 750, jump @877\n      : @635 [@dyn 375] (gas: 1)\n 19573: ret\n      : @636 (gas: 3)\n 19575: a0 = sp + 0xa0\n 19579: a1 = 0x40\n 19582: ra = 752, jump @2\n      : @637 [@dyn 376] (gas: 1)\n 19588: t0 = 754, jump @858\n      : @638 [@dyn 377] (gas: 1)\n 19594: jump @650 if a0 != 0\n      : @639 (gas: 1)\n 19597: t0 = 756, jump @865\n      : @640 [@dyn 378] (gas: 1)\n 19603: ra = 758, jump @4\n      : @641 [@dyn 379] (gas: 1)\n 19609: t0 = 760, jump @857\n      : @642 [@dyn 380] (gas: 1)\n 19615: jump @650 if a0 == 0\n      : @643 (gas: 1)\n 19618: t0 = 762, jump @866\n      : @644 [@dyn 381] (gas: 1)\n 19624: ra = 764, jump @4\n      : @645 [@dyn 382] (gas: 1)\n 19630: t0 = 766, jump @864\n      : @646 [@dyn 383] (gas: 1)\n 19636: jump @650 if a0 == 0\n      : @647 (gas: 8)\n 19639: s1 = u64 [sp + 0x18]\n 19642: i32 a0 = s1 + 0x24\n 19645: u64 [sp + 88] = 0\n 19648: u64 [sp + 80] = 0\n 19651: u64 [sp + 64] = 0x1a\n 19655: a1 = sp + 0x40\n 19658: u64 [sp + 72] = 0\n 19661: ra = 768, jump @4\n      : @648 [@dyn 384] (gas: 1)\n 19667: t0 = 770, jump @861\n      : @649 [@dyn 385] (gas: 1)\n 19673: jump @651 if a0 != 0\n      : @650 (gas: 1)\n 19676: trap\n      : @651 (gas: 12)\n 19677: s1 = u64 [sp + 0x18]\n 19680: i32 a0 = s1 + 0x44\n 19683: a1 = u64 [0x20158]\n 19688: a2 = u64 [0x20160]\n 19693: a3 = u64 [0x20168]\n 19698: u64 [sp + 0x38] = a1\n 19701: u64 [sp + 0x30] = a2\n 19704: u64 [sp + 0x28] = a3\n 19707: a2 = 0x6c79000000000000\n 19717: a1 = sp + 0x20\n 19720: u64 [sp + 0x20] = a2\n 19723: ra = 772, jump @4\n      : @652 [@dyn 386] (gas: 3)\n 19729: a1 = 0x64\n 19732: a0 = s1\n 19734: ra = 774, jump @13\n      : @653 [@dyn 387] (gas: 1)\n 19740: t0 = 776, jump @886\n      : @654 [@dyn 388] (gas: 4)\n 19746: ra = 0x30a\n 19750: ecalli 8 // 'seal_return'\n 19752: t0 = 0x30c\n 19756: jump @859\n      : @655 [@dyn 389] (gas: 1)\n 19759: t0 = 780, jump @859\n      : @656 [@dyn 390] (gas: 1)\n 19765: jump @659 if a0 == 0\n      : @657 (gas: 1)\n 19768: t0 = 782, jump @877\n      : @658 [@dyn 391] (gas: 1)\n 19774: ret\n      : @659 (gas: 3)\n 19776: a0 = sp + 0xa0\n 19780: a1 = 0x40\n 19783: ra = 784, jump @2\n      : @660 [@dyn 392] (gas: 1)\n 19789: t0 = 786, jump @858\n      : @661 [@dyn 393] (gas: 1)\n 19795: jump @673 if a0 != 0\n      : @662 (gas: 1)\n 19798: t0 = 788, jump @865\n      : @663 [@dyn 394] (gas: 1)\n 19804: ra = 790, jump @4\n      : @664 [@dyn 395] (gas: 1)\n 19810: t0 = 792, jump @857\n      : @665 [@dyn 396] (gas: 1)\n 19816: jump @673 if a0 == 0\n      : @666 (gas: 1)\n 19819: t0 = 794, jump @866\n      : @667 [@dyn 397] (gas: 1)\n 19825: ra = 796, jump @4\n      : @668 [@dyn 398] (gas: 1)\n 19831: t0 = 798, jump @864\n      : @669 [@dyn 399] (gas: 1)\n 19837: jump @673 if a0 == 0\n      : @670 (gas: 8)\n 19840: s1 = u64 [sp + 0x18]\n 19843: i32 a0 = s1 + 0x24\n 19846: u64 [sp + 88] = 0\n 19849: u64 [sp + 80] = 0\n 19852: u64 [sp + 64] = 0x1d\n 19856: a1 = sp + 0x40\n 19859: u64 [sp + 72] = 0\n 19862: ra = 800, jump @4\n      : @671 [@dyn 400] (gas: 1)\n 19868: t0 = 802, jump @861\n      : @672 [@dyn 401] (gas: 1)\n 19874: jump @674 if a0 != 0\n      : @673 (gas: 1)\n 19877: trap\n      : @674 (gas: 12)\n 19878: s1 = u64 [sp + 0x18]\n 19881: i32 a0 = s1 + 0x44\n 19884: a1 = u64 [0x20170]\n 19889: a2 = u64 [0x20178]\n 19894: a3 = u64 [0x20180]\n 19899: u64 [sp + 0x38] = a1\n 19902: u64 [sp + 0x30] = a2\n 19905: u64 [sp + 0x28] = a3\n 19908: a2 = 0x206f6e6c79000000\n 19918: a1 = sp + 0x20\n 19921: u64 [sp + 0x20] = a2\n 19924: ra = 804, jump @4\n      : @675 [@dyn 402] (gas: 3)\n 19930: a1 = 0x64\n 19933: a0 = s1\n 19935: ra = 806, jump @13\n      : @676 [@dyn 403] (gas: 1)\n 19941: t0 = 808, jump @886\n      : @677 [@dyn 404] (gas: 4)\n 19947: ra = 0x32a\n 19951: ecalli 8 // 'seal_return'\n 19953: t0 = 0x32c\n 19957: jump @859\n      : @678 [@dyn 405] (gas: 1)\n 19960: t0 = 812, jump @859\n      : @679 [@dyn 406] (gas: 1)\n 19966: jump @682 if a0 == 0\n      : @680 (gas: 1)\n 19969: t0 = 814, jump @877\n      : @681 [@dyn 407] (gas: 1)\n 19975: ret\n      : @682 (gas: 3)\n 19977: a0 = sp + 0xa0\n 19981: a1 = 0x40\n 19984: ra = 816, jump @2\n      : @683 [@dyn 408] (gas: 1)\n 19990: t0 = 818, jump @858\n      : @684 [@dyn 409] (gas: 1)\n 19996: jump @696 if a0 != 0\n      : @685 (gas: 1)\n 19999: t0 = 820, jump @865\n      : @686 [@dyn 410] (gas: 1)\n 20005: ra = 822, jump @4\n      : @687 [@dyn 411] (gas: 1)\n 20011: t0 = 824, jump @857\n      : @688 [@dyn 412] (gas: 1)\n 20017: jump @696 if a0 == 0\n      : @689 (gas: 1)\n 20020: t0 = 826, jump @866\n      : @690 [@dyn 413] (gas: 1)\n 20026: ra = 828, jump @4\n      : @691 [@dyn 414] (gas: 1)\n 20032: t0 = 830, jump @864\n      : @692 [@dyn 415] (gas: 1)\n 20038: jump @696 if a0 == 0\n      : @693 (gas: 8)\n 20041: s1 = u64 [sp + 0x18]\n 20044: i32 a0 = s1 + 0x24\n 20047: u64 [sp + 88] = 0\n 20050: u64 [sp + 80] = 0\n 20053: u64 [sp + 64] = 0x1d\n 20057: a1 = sp + 0x40\n 20060: u64 [sp + 72] = 0\n 20063: ra = 832, jump @4\n      : @694 [@dyn 416] (gas: 1)\n 20069: t0 = 834, jump @861\n      : @695 [@dyn 417] (gas: 1)\n 20075: jump @697 if a0 != 0\n      : @696 (gas: 1)\n 20078: trap\n      : @697 (gas: 12)\n 20079: s1 = u64 [sp + 0x18]\n 20082: i32 a0 = s1 + 0x44\n 20085: a1 = u64 [0x20188]\n 20090: a2 = u64 [0x20190]\n 20095: a3 = u64 [0x20198]\n 20100: u64 [sp + 0x38] = a1\n 20103: u64 [sp + 0x30] = a2\n 20106: u64 [sp + 0x28] = a3\n 20109: a2 = 0x68616e2030000000\n 20119: a1 = sp + 0x20\n 20122: u64 [sp + 0x20] = a2\n 20125: ra = 836, jump @4\n      : @698 [@dyn 418] (gas: 3)\n 20131: a1 = 0x64\n 20134: a0 = s1\n 20136: ra = 838, jump @13\n      : @699 [@dyn 419] (gas: 1)\n 20142: t0 = 840, jump @886\n      : @700 [@dyn 420] (gas: 4)\n 20148: ra = 0x34a\n 20152: ecalli 8 // 'seal_return'\n 20154: t0 = 0x34c\n 20158: jump @859\n      : @701 [@dyn 421] (gas: 1)\n 20161: t0 = 844, jump @859\n      : @702 [@dyn 422] (gas: 1)\n 20167: jump @705 if a0 == 0\n      : @703 (gas: 1)\n 20170: t0 = 846, jump @877\n      : @704 [@dyn 423] (gas: 1)\n 20176: ret\n      : @705 (gas: 3)\n 20178: a0 = sp + 0xa0\n 20182: a1 = 0x40\n 20185: ra = 848, jump @2\n      : @706 [@dyn 424] (gas: 1)\n 20191: t0 = 850, jump @858\n      : @707 [@dyn 425] (gas: 1)\n 20197: jump @719 if a0 != 0\n      : @708 (gas: 1)\n 20200: t0 = 852, jump @865\n      : @709 [@dyn 426] (gas: 1)\n 20206: ra = 854, jump @4\n      : @710 [@dyn 427] (gas: 1)\n 20212: t0 = 856, jump @857\n      : @711 [@dyn 428] (gas: 1)\n 20218: jump @719 if a0 == 0\n      : @712 (gas: 1)\n 20221: t0 = 858, jump @866\n      : @713 [@dyn 429] (gas: 1)\n 20227: ra = 860, jump @4\n      : @714 [@dyn 430] (gas: 1)\n 20233: t0 = 862, jump @864\n      : @715 [@dyn 431] (gas: 1)\n 20239: jump @719 if a0 == 0\n      : @716 (gas: 8)\n 20242: s1 = u64 [sp + 0x18]\n 20245: i32 a0 = s1 + 0x24\n 20248: u64 [sp + 88] = 0\n 20251: u64 [sp + 80] = 0\n 20254: u64 [sp + 64] = 0x1c\n 20258: a1 = sp + 0x40\n 20261: u64 [sp + 72] = 0\n 20264: ra = 864, jump @4\n      : @717 [@dyn 432] (gas: 1)\n 20270: t0 = 866, jump @861\n      : @718 [@dyn 433] (gas: 1)\n 20276: jump @720 if a0 != 0\n      : @719 (gas: 1)\n 20279: trap\n      : @720 (gas: 12)\n 20280: s1 = u64 [sp + 0x18]\n 20283: i32 a0 = s1 + 0x44\n 20286: a1 = u64 [0x201a0]\n 20291: a2 = u64 [0x201a8]\n 20296: a3 = u64 [0x201b0]\n 20301: u64 [sp + 0x38] = a1\n 20304: u64 [sp + 0x30] = a2\n 20307: u64 [sp + 0x28] = a3\n 20310: a2 = 0x616e203000000000\n 20320: a1 = sp + 0x20\n 20323: u64 [sp + 0x20] = a2\n 20326: ra = 868, jump @4\n      : @721 [@dyn 434] (gas: 3)\n 20332: a1 = 0x64\n 20335: a0 = s1\n 20337: ra = 870, jump @13\n      : @722 [@dyn 435] (gas: 1)\n 20343: t0 = 872, jump @886\n      : @723 [@dyn 436] (gas: 3)\n 20349: ra = 0x36a\n 20353: ecalli 8 // 'seal_return'\n 20355: fallthrough\n      : @724 [@dyn 437] (gas: 6)\n 20356: sp = sp + 0xffffffffffffff60\n 20360: u64 [sp + 0x98] = ra\n 20364: u64 [sp + 0x90] = s0\n 20368: u64 [sp + 0x88] = s1\n 20372: s0 = sp + 0xa0\n 20376: t0 = 876, jump @884\n      : @725 [@dyn 438] (gas: 2)\n 20382: u64 [sp + 0x20] = a0\n 20385: jump @733 if a3 != 0\n      : @726 (gas: 11)\n 20389: a0 = u64 [a1 + 0x18]\n 20392: u64 [sp + 0x38] = a0\n 20395: a0 = u64 [a1 + 0x10]\n 20398: u64 [sp + 0x30] = a0\n 20401: s1 = u64 [a1 + 0x8]\n 20404: a0 = u64 [a1]\n 20406: u64 [sp + 0x28] = a0\n 20409: i32 a1 = a2 + 0\n 20411: i32 a0 = sp + 0x40\n 20414: ecalli 1 // 'call_data_load'\n 20416: fallthrough\n      : @727 (gas: 51)\n 20417: a0 = 0x20218\n 20422: u64 [sp + 0x8] = a0\n 20425: a2 = u32 [0x20218]\n 20430: a0 = u64 [sp + 0x58]\n 20433: u64 [sp + 0x10] = a0\n 20436: t1 = u64 [sp + 0x50]\n 20439: a1 = u64 [sp + 0x28]\n 20442: a3 = a2 <u a1\n 20445: a4 = s1 >u 0\n 20447: a4 = a3 if s1 == 0\n 20450: t0 = u64 [sp + 0x30]\n 20453: t2 = -t0\n 20455: u64 [sp + 0x18] = s1\n 20458: a5 = s1 + a3\n 20461: a0 = -a5\n 20463: a2 = a2 - a1\n 20466: a3 = a2 + 0xffffffffffffffe1\n 20469: a2 = a3 <u a2\n 20472: a5 = a5 ^ 0xffffffffffffffff\n 20475: a5 = a5 + a2\n 20478: a1 = a5 ^ a0\n 20481: a0 = a5 <u a0\n 20484: a0 = a2 if a1 == 0\n 20487: a1 = t2 <u a4\n 20490: a2 = t0\n 20492: t0 = u64 [sp + 0x10]\n 20495: a2 = a2 >u 0\n 20497: s1 = u64 [sp + 0x38]\n 20500: a2 = a2 + s1\n 20503: a1 = a1 + a2\n 20506: a2 = u64 [sp + 0x48]\n 20509: s1 = t2 - a4\n 20512: a4 = s1 <u 0x1\n 20515: a1 = a1 + a4\n 20518: a4 = u64 [sp + 0x40]\n 20521: s1 = s1 + 0xffffffffffffffff\n 20524: a0 = a0 + s1\n 20527: s1 = a0 <u s1\n 20530: s1 = s1 - a1\n 20533: a1 = a2 ^ a5\n 20536: a5 = a2 <u a5\n 20539: a3 = a4 <u a3\n 20542: a3 = a5 if a1 != 0\n 20545: a1 = t1 <u a0\n 20548: a5 = t0 ^ s1\n 20551: s1 = t0 <s s1\n 20554: s1 = a1 if a5 == 0\n 20557: a0 = t1 ^ a0\n 20560: a0 = a0 | a5\n 20563: a3 = s1 if a0 != 0\n 20566: jump @734 if a3 == 0\n      : @728 (gas: 28)\n 20570: a0 = u64 [sp + 0x28]\n 20573: a5 = a4 + a0\n 20576: a0 = a5 <u a4\n 20579: s1 = u64 [sp + 0x18]\n 20582: s1 = s1 + a2\n 20585: s1 = s1 + a0\n 20588: a1 = s1 ^ a2\n 20591: a2 = s1 <u a2\n 20594: a2 = a0 if a1 == 0\n 20597: a0 = u64 [sp + 0x30]\n 20600: a0 = a0 + t1\n 20603: a3 = a0 + a2\n 20606: a1 = a3 <u a0\n 20609: a0 = a0 <u t1\n 20612: a2 = u64 [sp + 0x38]\n 20615: t0 = t0 + a2\n 20618: a0 = a0 + t0\n 20621: a1 = a1 + a0\n 20624: a0 = a5 | a3\n 20627: u64 [sp + 0x30] = a1\n 20630: a1 = a1 | s1\n 20633: a0 = a0 | a1\n 20636: a0 = a0 >> 0x20\n 20639: u64 [sp + 0x38] = a3\n 20642: a1 = a1 | a3\n 20645: a1 = a1 << 0x20\n 20648: a0 = a0 | a1\n 20651: jump @733 if a0 != 0\n      : @729 (gas: 5)\n 20655: u64 [sp + 0x28] = a5\n 20658: i32 a1 = a5 + 0\n 20660: i32 a0 = sp + 0x60\n 20663: ecalli 1 // 'call_data_load'\n 20665: fallthrough\n      : @730 (gas: 7)\n 20666: ra = u64 [sp + 0x78]\n 20669: a2 = u64 [sp + 0x70]\n 20672: a5 = u64 [sp + 0x68]\n 20675: a0 = a2 | ra\n 20678: a3 = a5 <u 0x1\n 20681: a3 = 0 if a0 != 0\n 20683: jump @735 if a3 == 0\n      : @731 (gas: 51)\n 20687: t1 = u64 [sp + 0x60]\n 20690: a0 = u64 [sp + 0x28]\n 20693: a1 = a0 + 0x20\n 20696: u64 [sp + 0x18] = a1\n 20699: a0 = a1 <u a0\n 20702: a1 = s1 + a0\n 20705: u64 [sp + 0x10] = a1\n 20708: a3 = a1 <u s1\n 20711: a3 = a0 if a0 == 0\n 20714: a0 = u64 [sp + 0x8]\n 20717: s1 = u32 [a0]\n 20719: a0 = u64 [sp + 0x38]\n 20722: a3 = a3 + a0\n 20725: a0 = a3 <u a0\n 20728: a1 = u64 [sp + 0x30]\n 20731: a0 = a0 + a1\n 20734: u64 [sp + 0x8] = a0\n 20737: a4 = s1 <u t1\n 20740: a1 = a5 >u 0\n 20742: a1 = a4 if a5 == 0\n 20745: t0 = -a2\n 20747: a0 = t0 <u a1\n 20750: u64 [sp + 0x28] = a0\n 20753: u64 [sp + 0x30] = a2\n 20756: t2 = a2 >u 0\n 20758: u64 [sp + 0x38] = ra\n 20761: t2 = t2 + ra\n 20764: ra = u64 [sp + 0x8]\n 20767: a0 = -t2\n 20769: a2 = u64 [sp + 0x28]\n 20772: a0 = a0 - a2\n 20775: a2 = u64 [sp + 0x10]\n 20778: a1 = t0 - a1\n 20781: u64 [sp + 0x28] = t1\n 20784: t2 = s1 - t1\n 20787: t1 = a5\n 20789: s1 = -a5\n 20791: s1 = s1 - a4\n 20794: a4 = a2 ^ s1\n 20797: s1 = s1 <u a2\n 20800: t0 = u64 [sp + 0x18]\n 20803: a5 = t2 <u t0\n 20806: a5 = s1 if a4 != 0\n 20809: a4 = a1 <u a3\n 20812: s1 = ra ^ a0\n 20815: a0 = a0 <s ra\n 20818: a0 = a4 if s1 == 0\n 20821: a1 = a1 ^ a3\n 20824: a1 = a1 | s1\n 20827: a5 = a0 if a1 != 0\n 20830: jump @736 if a5 != 0\n      : @732 (gas: 18)\n 20833: a0 = u64 [sp + 0x20]\n 20836: a1 = u64 [sp + 0x28]\n 20839: u64 [a0 + 0x20] = a1\n 20842: u64 [a0] = t0\n 20844: u64 [a0 + 0x28] = t1\n 20847: u64 [a0 + 0x8] = a2\n 20850: a1 = u64 [sp + 0x30]\n 20853: u64 [a0 + 0x30] = a1\n 20856: u64 [a0 + 0x10] = a3\n 20859: a1 = u64 [sp + 0x38]\n 20862: u64 [a0 + 0x38] = a1\n 20865: u64 [a0 + 0x18] = ra\n 20868: sp = s0 + 0xffffffffffffff60\n 20872: ra = u64 [sp + 0x98]\n 20876: s0 = u64 [sp + 0x90]\n 20880: s1 = u64 [sp + 0x88]\n 20884: sp = sp + 0xa0\n 20888: ret\n      : @733 (gas: 1)\n 20890: trap\n      : @734 (gas: 2)\n 20891: a1 = 0x20230\n 20896: jump @737\n      : @735 (gas: 2)\n 20898: a1 = 0x20230\n 20903: jump @737\n      : @736 (gas: 2)\n 20905: a1 = 0x20230\n 20910: fallthrough\n      : @737 (gas: 7)\n 20911: i32 a1 = a1 + 0\n 20913: a0 = 0x1\n 20916: a2 = 0\n 20918: ra = 0x36e\n 20922: ecalli 8 // 'seal_return'\n 20924: t0 = 0x370\n 20928: jump @859\n      : @738 [@dyn 439] (gas: 1)\n 20931: t0 = 880, jump @859\n      : @739 [@dyn 440] (gas: 1)\n 20937: jump @742 if a0 == 0\n      : @740 (gas: 1)\n 20940: t0 = 882, jump @877\n      : @741 [@dyn 441] (gas: 1)\n 20946: ret\n      : @742 (gas: 3)\n 20948: a0 = sp + 0xa0\n 20952: a1 = 0x40\n 20955: ra = 884, jump @2\n      : @743 [@dyn 442] (gas: 1)\n 20961: t0 = 886, jump @858\n      : @744 [@dyn 443] (gas: 1)\n 20967: jump @756 if a0 != 0\n      : @745 (gas: 1)\n 20970: t0 = 888, jump @865\n      : @746 [@dyn 444] (gas: 1)\n 20976: ra = 890, jump @4\n      : @747 [@dyn 445] (gas: 1)\n 20982: t0 = 892, jump @857\n      : @748 [@dyn 446] (gas: 1)\n 20988: jump @756 if a0 == 0\n      : @749 (gas: 1)\n 20991: t0 = 894, jump @866\n      : @750 [@dyn 447] (gas: 1)\n 20997: ra = 896, jump @4\n      : @751 [@dyn 448] (gas: 1)\n 21003: t0 = 898, jump @864\n      : @752 [@dyn 449] (gas: 1)\n 21009: jump @756 if a0 == 0\n      : @753 (gas: 8)\n 21012: s1 = u64 [sp + 0x18]\n 21015: i32 a0 = s1 + 0x24\n 21018: u64 [sp + 88] = 0\n 21021: u64 [sp + 80] = 0\n 21024: u64 [sp + 64] = 0x16\n 21028: a1 = sp + 0x40\n 21031: u64 [sp + 72] = 0\n 21034: ra = 900, jump @4\n      : @754 [@dyn 450] (gas: 1)\n 21040: t0 = 902, jump @861\n      : @755 [@dyn 451] (gas: 1)\n 21046: jump @757 if a0 != 0\n      : @756 (gas: 1)\n 21049: trap\n      : @757 (gas: 11)\n 21050: s1 = u64 [sp + 0x18]\n 21053: i32 a0 = s1 + 0x44\n 21056: a1 = u64 [0x201b8]\n 21061: a2 = u64 [0x201c0]\n 21066: a3 = u64 [0x201c8]\n 21071: u64 [sp + 0x38] = a1\n 21074: u64 [sp + 0x30] = a2\n 21077: u64 [sp + 0x28] = a3\n 21080: a1 = sp + 0x20\n 21083: u64 [sp + 32] = 0\n 21086: ra = 904, jump @4\n      : @758 [@dyn 452] (gas: 3)\n 21092: a1 = 0x64\n 21095: a0 = s1\n 21097: ra = 906, jump @13\n      : @759 [@dyn 453] (gas: 1)\n 21103: t0 = 908, jump @886\n      : @760 [@dyn 454] (gas: 4)\n 21109: ra = 0x38e\n 21113: ecalli 8 // 'seal_return'\n 21115: t0 = 0x390\n 21119: jump @859\n      : @761 [@dyn 455] (gas: 1)\n 21122: t0 = 912, jump @859\n      : @762 [@dyn 456] (gas: 1)\n 21128: jump @765 if a0 == 0\n      : @763 (gas: 1)\n 21131: t0 = 914, jump @877\n      : @764 [@dyn 457] (gas: 1)\n 21137: ret\n      : @765 (gas: 3)\n 21139: a0 = sp + 0xa0\n 21143: a1 = 0x40\n 21146: ra = 916, jump @2\n      : @766 [@dyn 458] (gas: 1)\n 21152: t0 = 918, jump @858\n      : @767 [@dyn 459] (gas: 1)\n 21158: jump @779 if a0 != 0\n      : @768 (gas: 1)\n 21161: t0 = 920, jump @865\n      : @769 [@dyn 460] (gas: 1)\n 21167: ra = 922, jump @4\n      : @770 [@dyn 461] (gas: 1)\n 21173: t0 = 924, jump @857\n      : @771 [@dyn 462] (gas: 1)\n 21179: jump @779 if a0 == 0\n      : @772 (gas: 1)\n 21182: t0 = 926, jump @866\n      : @773 [@dyn 463] (gas: 1)\n 21188: ra = 928, jump @4\n      : @774 [@dyn 464] (gas: 1)\n 21194: t0 = 930, jump @864\n      : @775 [@dyn 465] (gas: 1)\n 21200: jump @779 if a0 == 0\n      : @776 (gas: 8)\n 21203: s1 = u64 [sp + 0x18]\n 21206: i32 a0 = s1 + 0x24\n 21209: u64 [sp + 88] = 0\n 21212: u64 [sp + 80] = 0\n 21215: u64 [sp + 64] = 0x1b\n 21219: a1 = sp + 0x40\n 21222: u64 [sp + 72] = 0\n 21225: ra = 932, jump @4\n      : @777 [@dyn 466] (gas: 1)\n 21231: t0 = 934, jump @861\n      : @778 [@dyn 467] (gas: 1)\n 21237: jump @780 if a0 != 0\n      : @779 (gas: 1)\n 21240: trap\n      : @780 (gas: 12)\n 21241: s1 = u64 [sp + 0x18]\n 21244: i32 a0 = s1 + 0x44\n 21247: a1 = u64 [0x201d0]\n 21252: a2 = u64 [0x201d8]\n 21257: a3 = u64 [0x201e0]\n 21262: u64 [sp + 0x38] = a1\n 21265: u64 [sp + 0x30] = a2\n 21268: u64 [sp + 0x28] = a3\n 21271: a2 = 0x7074790000000000\n 21281: a1 = sp + 0x20\n 21284: u64 [sp + 0x20] = a2\n 21287: ra = 936, jump @4\n      : @781 [@dyn 468] (gas: 3)\n 21293: a1 = 0x64\n 21296: a0 = s1\n 21298: ra = 938, jump @13\n      : @782 [@dyn 469] (gas: 1)\n 21304: t0 = 940, jump @886\n      : @783 [@dyn 470] (gas: 3)\n 21310: ra = 0x3ae\n 21314: ecalli 8 // 'seal_return'\n 21316: fallthrough\n      : @784 [@dyn 471] (gas: 18)\n 21317: sp = sp + 0xffffffffffffffc0\n 21320: u64 [sp + 0x38] = ra\n 21323: u64 [sp + 0x30] = s0\n 21326: u64 [sp + 0x28] = s1\n 21329: s0 = sp + 0x40\n 21332: sp = sp & 0xffffffffffffffe0\n 21335: a2 = u64 [a1 + 0x10]\n 21338: a3 = u64 [a1 + 0x18]\n 21341: a4 = u64 [a1 + 0x8]\n 21344: a1 = u64 [a1]\n 21346: a3 = a3 | a4\n 21349: a4 = a1 | a2\n 21352: a4 = a4 | a3\n 21355: a4 = a4 >> 0x20\n 21358: a2 = a2 | a3\n 21361: a2 = a2 << 0x20\n 21364: a2 = a2 | a4\n 21367: jump @789 if a2 != 0\n      : @785 (gas: 6)\n 21370: s1 = a0\n 21372: i32 a1 = a1 + 0\n 21374: i32 a0 = sp + 0\n 21376: ra = 0x3b0\n 21380: ecalli 1 // 'call_data_load'\n 21382: fallthrough\n      : @786 [@dyn 472] (gas: 3)\n 21383: a0 = u64 [sp + 0x10]\n 21386: a1 = u64 [sp + 0x18]\n 21389: t0 = 946, jump @875\n      : @787 [@dyn 473] (gas: 1)\n 21395: jump @790 if a3 == 0\n      : @788 (gas: 12)\n 21398: a2 = u64 [sp]\n 21400: a3 = u64 [sp + 0x8]\n 21403: u64 [s1] = a2\n 21405: u64 [s1 + 0x8] = a3\n 21408: u64 [s1 + 0x10] = a0\n 21411: u64 [s1 + 0x18] = a1\n 21414: sp = s0 + 0xffffffffffffffc0\n 21417: ra = u64 [sp + 0x38]\n 21420: s0 = u64 [sp + 0x30]\n 21423: s1 = u64 [sp + 0x28]\n 21426: sp = sp + 0x40\n 21429: ret\n      : @789 (gas: 1)\n 21431: trap\n      : @790 (gas: 8)\n 21432: a1 = 0x20230\n 21437: i32 a1 = a1 + 0\n 21439: a0 = 0x1\n 21442: a2 = 0\n 21444: ra = 0x3b4\n 21448: ecalli 8 // 'seal_return'\n 21450: t0 = 0x3b6\n 21454: jump @859\n      : @791 [@dyn 474] (gas: 1)\n 21457: t0 = 950, jump @859\n      : @792 [@dyn 475] (gas: 1)\n 21463: jump @795 if a0 == 0\n      : @793 (gas: 1)\n 21466: t0 = 952, jump @877\n      : @794 [@dyn 476] (gas: 1)\n 21472: ret\n      : @795 (gas: 3)\n 21474: a0 = sp + 0xa0\n 21478: a1 = 0x40\n 21481: ra = 954, jump @2\n      : @796 [@dyn 477] (gas: 1)\n 21487: t0 = 956, jump @858\n      : @797 [@dyn 478] (gas: 1)\n 21493: jump @809 if a0 != 0\n      : @798 (gas: 1)\n 21496: t0 = 958, jump @865\n      : @799 [@dyn 479] (gas: 1)\n 21502: ra = 960, jump @4\n      : @800 [@dyn 480] (gas: 1)\n 21508: t0 = 962, jump @857\n      : @801 [@dyn 481] (gas: 1)\n 21514: jump @809 if a0 == 0\n      : @802 (gas: 1)\n 21517: t0 = 964, jump @866\n      : @803 [@dyn 482] (gas: 1)\n 21523: ra = 966, jump @4\n      : @804 [@dyn 483] (gas: 1)\n 21529: t0 = 968, jump @864\n      : @805 [@dyn 484] (gas: 1)\n 21535: jump @809 if a0 == 0\n      : @806 (gas: 8)\n 21538: s1 = u64 [sp + 0x18]\n 21541: i32 a0 = s1 + 0x24\n 21544: u64 [sp + 88] = 0\n 21547: u64 [sp + 80] = 0\n 21550: u64 [sp + 64] = 0x18\n 21554: a1 = sp + 0x40\n 21557: u64 [sp + 72] = 0\n 21560: ra = 970, jump @4\n      : @807 [@dyn 485] (gas: 1)\n 21566: t0 = 972, jump @861\n      : @808 [@dyn 486] (gas: 1)\n 21572: jump @810 if a0 != 0\n      : @809 (gas: 1)\n 21575: trap\n      : @810 (gas: 11)\n 21576: s1 = u64 [sp + 0x18]\n 21579: i32 a0 = s1 + 0x44\n 21582: a1 = u64 [0x201e8]\n 21587: a2 = u64 [0x201f0]\n 21592: a3 = u64 [0x201f8]\n 21597: u64 [sp + 0x38] = a1\n 21600: u64 [sp + 0x30] = a2\n 21603: u64 [sp + 0x28] = a3\n 21606: a1 = sp + 0x20\n 21609: u64 [sp + 32] = 0\n 21612: ra = 974, jump @4\n      : @811 [@dyn 487] (gas: 3)\n 21618: a1 = 0x64\n 21621: a0 = s1\n 21623: ra = 976, jump @13\n      : @812 [@dyn 488] (gas: 1)\n 21629: t0 = 978, jump @886\n      : @813 [@dyn 489] (gas: 3)\n 21635: ra = 0x3d4\n 21639: ecalli 8 // 'seal_return'\n 21641: fallthrough\n      : @814 [@dyn 490] (gas: 22)\n 21642: sp = sp + 0xffffffffffffff40\n 21646: u64 [sp + 0xb8] = ra\n 21650: u64 [sp + 0xb0] = s0\n 21654: u64 [sp + 0xa8] = s1\n 21658: s0 = sp + 0xc0\n 21662: sp = sp & 0xfffffffffffffff0\n 21665: a5 = u64 [a3 + 0x10]\n 21668: a4 = u64 [a3 + 0x18]\n 21671: s1 = u64 [a3 + 0x8]\n 21674: t0 = u64 [a3]\n 21676: u64 [sp + 0x50] = a4\n 21679: u64 [sp + 0x40] = s1\n 21682: a3 = s1 | a4\n 21685: a4 = t0 | a5\n 21688: a4 = a4 | a3\n 21691: a4 = a4 >> 0x20\n 21694: u64 [sp + 0x58] = a5\n 21697: a3 = a3 | a5\n 21700: a3 = a3 << 0x20\n 21703: a3 = a3 | a4\n 21706: u64 [sp] = a0\n 21708: jump @824 if a3 != 0\n      : @815 (gas: 23)\n 21712: a0 = u64 [a2 + 0x18]\n 21715: a3 = u64 [a2 + 0x10]\n 21718: a4 = u64 [a2 + 0x8]\n 21721: a2 = u64 [a2]\n 21723: a5 = u64 [a1 + 0x18]\n 21726: u64 [sp + 0x18] = a5\n 21729: s1 = u64 [a1 + 0x10]\n 21732: a5 = u64 [a1 + 0x8]\n 21735: u64 [sp + 0x10] = a5\n 21738: a1 = u64 [a1]\n 21740: u64 [sp + 0x8] = a1\n 21743: u64 [sp + 0x20] = a2\n 21746: u64 [sp + 0x80] = a2\n 21750: u64 [sp + 0x28] = a4\n 21753: u64 [sp + 0x88] = a4\n 21757: u64 [sp + 0x30] = a3\n 21760: u64 [sp + 0x90] = a3\n 21764: a1 = sp + 0x80\n 21768: u64 [sp + 0x38] = a0\n 21771: u64 [sp + 0x98] = a0\n 21775: u64 [sp + 0x48] = t0\n 21778: a0 = t0\n 21780: ra = 982, jump @4\n      : @816 [@dyn 491] (gas: 11)\n 21786: t1 = u64 [sp + 0x8]\n 21789: a0 = t1 | s1\n 21792: a1 = u64 [sp + 0x18]\n 21795: a2 = u64 [sp + 0x10]\n 21798: a1 = a1 | a2\n 21801: a0 = a0 | a1\n 21804: a0 = a0 >> 0x20\n 21807: a1 = a1 | s1\n 21810: a1 = a1 << 0x20\n 21813: a0 = a0 | a1\n 21816: jump @824 if a0 != 0\n      : @817 (gas: 15)\n 21820: a2 = u64 [sp + 0x30]\n 21823: a4 = u64 [sp + 0x20]\n 21826: a0 = a4 | a2\n 21829: a1 = u64 [sp + 0x38]\n 21832: a3 = u64 [sp + 0x28]\n 21835: a1 = a1 | a3\n 21838: a0 = a0 | a1\n 21841: a0 = a0 >> 0x20\n 21844: a1 = a1 | a2\n 21847: a1 = a1 << 0x20\n 21850: a0 = a0 | a1\n 21853: a3 = u64 [sp + 0x58]\n 21856: a2 = u64 [sp + 0x50]\n 21859: s1 = u64 [sp + 0x40]\n 21862: jump @824 if a0 != 0\n      : @818 (gas: 9)\n 21866: a1 = a4\n 21868: a0 = a3 | a2\n 21871: a4 = 0xffffffe0\n 21881: a3 = u64 [sp + 0x48]\n 21884: u64 [sp + 0x18] = a4\n 21887: a4 = a3 <u a4\n 21890: a4 = 0 if s1 != 0\n 21892: a4 = 0 if a0 != 0\n 21894: jump @824 if a4 == 0\n      : @819 (gas: 5)\n 21898: i32 t1 = t1 + 0\n 21900: u64 [sp + 0x10] = t1\n 21903: i32 a0 = a3 + 0x20\n 21906: s1 = a1\n 21908: ra = 984, jump @13\n      : @820 [@dyn 492] (gas: 5)\n 21914: i32 a0 = a0 + 0\n 21916: i32 a1 = s1 + 0\n 21918: a2 = u64 [sp + 0x10]\n 21921: ecalli 0 // 'call_data_copy'\n 21922: fallthrough\n      : @821 (gas: 27)\n 21923: a1 = u64 [sp + 0x48]\n 21926: a0 = a1 + s1\n 21929: a1 = a0 <u a1\n 21932: a2 = u64 [sp + 0x28]\n 21935: s1 = u64 [sp + 0x40]\n 21938: a2 = a2 + s1\n 21941: a2 = a2 + a1\n 21944: a3 = a2 ^ s1\n 21947: a4 = a2 <u s1\n 21950: a4 = a1 if a3 == 0\n 21953: a3 = u64 [sp + 0x58]\n 21956: a1 = u64 [sp + 0x30]\n 21959: a1 = a1 + a3\n 21962: t0 = a1 <u a3\n 21965: a5 = u64 [sp + 0x38]\n 21968: a3 = u64 [sp + 0x50]\n 21971: a5 = a5 + a3\n 21974: a3 = a5 + t0\n 21977: a4 = a4 + a1\n 21980: a1 = a4 <u a1\n 21983: a1 = a1 + a3\n 21986: a1 = a1 | a4\n 21989: a3 = u64 [sp + 0x18]\n 21992: a3 = a0 <u a3\n 21995: a3 = 0 if a2 != 0\n 21997: a3 = 0 if a1 != 0\n 21999: jump @824 if a3 == 0\n      : @822 (gas: 7)\n 22003: i32 a0 = a0 + 0x20\n 22006: u64 [sp + 120] = 0\n 22009: u64 [sp + 112] = 0\n 22012: u64 [sp + 104] = 0\n 22015: a1 = sp + 0x60\n 22018: u64 [sp + 96] = 0\n 22021: ra = 986, jump @4\n      : @823 [@dyn 493] (gas: 34)\n 22027: a0 = u64 [sp + 0x20]\n 22030: a0 = a0 + 0x1f\n 22033: a1 = 0x1ffffffe0\n 22043: a0 = a0 & a1\n 22046: a1 = u64 [sp + 0x48]\n 22049: a0 = a0 + a1\n 22052: a1 = a0 <u a1\n 22055: a2 = s1 + a1\n 22058: a3 = a2 <u s1\n 22061: a3 = a1 if a1 == 0\n 22064: a1 = u64 [sp + 0x58]\n 22067: a3 = a3 + a1\n 22070: a1 = a3 <u a1\n 22073: a4 = u64 [sp + 0x50]\n 22076: a1 = a1 + a4\n 22079: a4 = a0 + 0x20\n 22082: a0 = a4 <u a0\n 22085: a5 = a2 + a0\n 22088: a2 = a5 <u a2\n 22091: a2 = a0 if a0 == 0\n 22094: a2 = a2 + a3\n 22097: a0 = a2 <u a3\n 22100: a0 = a0 + a1\n 22103: a1 = u64 [sp]\n 22105: u64 [a1] = a4\n 22107: u64 [a1 + 0x8] = a5\n 22110: u64 [a1 + 0x10] = a2\n 22113: u64 [a1 + 0x18] = a0\n 22116: sp = s0 + 0xffffffffffffff40\n 22120: ra = u64 [sp + 0xb8]\n 22124: s0 = u64 [sp + 0xb0]\n 22128: s1 = u64 [sp + 0xa8]\n 22132: sp = sp + 0xc0\n 22136: ret\n      : @824 (gas: 1)\n 22138: trap\n      : @825 (gas: 6)\n 22139: sp = sp + 0xffffffffffffff80\n 22142: u64 [sp + 0x78] = ra\n 22145: u64 [sp + 0x70] = s0\n 22148: u64 [sp + 0x68] = s1\n 22151: s0 = sp + 0x80\n 22155: t0 = 988, jump @884\n      : @826 [@dyn 494] (gas: 2)\n 22161: u64 [sp + 0x30] = a0\n 22164: jump @830 if a3 != 0\n      : @827 (gas: 11)\n 22168: a0 = u64 [a1 + 0x18]\n 22171: u64 [sp + 0x20] = a0\n 22174: a0 = u64 [a1 + 0x10]\n 22177: u64 [sp + 0x18] = a0\n 22180: s1 = u64 [a1 + 0x8]\n 22183: a0 = u64 [a1]\n 22185: u64 [sp + 0x38] = a0\n 22188: i32 a1 = a2 + 0\n 22190: i32 a0 = sp + 0x40\n 22193: ecalli 1 // 'call_data_load'\n 22195: fallthrough\n      : @828 (gas: 46)\n 22196: ra = u64 [sp + 0x18]\n 22199: t2 = u64 [sp + 0x20]\n 22202: a2 = u32 [0x20218]\n 22207: t0 = u64 [sp + 0x58]\n 22210: t1 = u64 [sp + 0x50]\n 22213: a1 = u64 [sp + 0x38]\n 22216: a3 = a2 <u a1\n 22219: a4 = s1 >u 0\n 22221: a4 = a3 if s1 == 0\n 22224: a0 = -ra\n 22226: u64 [sp + 0x28] = s1\n 22229: a5 = s1 + a3\n 22232: s1 = -a5\n 22234: a2 = a2 - a1\n 22237: a3 = a2 + 0xffffffffffffff01\n 22241: a2 = a3 <u a2\n 22244: a5 = a5 ^ 0xffffffffffffffff\n 22247: a5 = a5 + a2\n 22250: a1 = a5 ^ s1\n 22253: s1 = a5 <u s1\n 22256: s1 = a2 if a1 == 0\n 22259: a1 = a0 <u a4\n 22262: a2 = ra >u 0\n 22264: a2 = a2 + t2\n 22267: a1 = a1 + a2\n 22270: a2 = u64 [sp + 0x48]\n 22273: a0 = a0 - a4\n 22276: a4 = a0 <u 0x1\n 22279: a1 = a1 + a4\n 22282: a4 = u64 [sp + 0x40]\n 22285: a0 = a0 + 0xffffffffffffffff\n 22288: s1 = s1 + a0\n 22291: a0 = s1 <u a0\n 22294: a0 = a0 - a1\n 22297: a1 = a2 ^ a5\n 22300: a5 = a2 <u a5\n 22303: a3 = a4 <u a3\n 22306: a3 = a5 if a1 != 0\n 22309: a1 = t1 <u s1\n 22312: a5 = t0 ^ a0\n 22315: a0 = t0 <s a0\n 22318: a0 = a1 if a5 == 0\n 22321: a1 = t1 ^ s1\n 22324: a1 = a1 | a5\n 22327: a3 = a0 if a1 != 0\n 22330: jump @831 if a3 == 0\n      : @829 (gas: 27)\n 22333: a0 = u64 [sp + 0x38]\n 22336: a0 = a0 + a4\n 22339: a1 = a0 <u a4\n 22342: a3 = u64 [sp + 0x28]\n 22345: a3 = a3 + a2\n 22348: a3 = a3 + a1\n 22351: a4 = a3 ^ a2\n 22354: a2 = a3 <u a2\n 22357: a2 = a1 if a4 == 0\n 22360: a1 = t1 + ra\n 22363: a2 = a2 + a1\n 22366: a4 = a2 <u a1\n 22369: a1 = a1 <u t1\n 22372: t0 = t0 + t2\n 22375: a1 = a1 + t0\n 22378: a1 = a1 + a4\n 22381: a4 = u64 [sp + 0x30]\n 22384: u64 [a4] = a0\n 22386: u64 [a4 + 0x8] = a3\n 22389: u64 [a4 + 0x10] = a2\n 22392: u64 [a4 + 0x18] = a1\n 22395: sp = s0 + 0xffffffffffffff80\n 22398: ra = u64 [sp + 0x78]\n 22401: s0 = u64 [sp + 0x70]\n 22404: s1 = u64 [sp + 0x68]\n 22407: sp = sp + 0x80\n 22411: ret\n      : @830 (gas: 1)\n 22413: trap\n      : @831 (gas: 8)\n 22414: a1 = 0x20230\n 22419: i32 a1 = a1 + 0\n 22421: a0 = 0x1\n 22424: a2 = 0\n 22426: ra = 0x3de\n 22430: ecalli 8 // 'seal_return'\n 22432: t0 = 0x3e0\n 22436: jump @859\n      : @832 [@dyn 495] (gas: 1)\n 22439: t0 = 992, jump @859\n      : @833 [@dyn 496] (gas: 1)\n 22445: jump @836 if a0 == 0\n      : @834 (gas: 1)\n 22448: t0 = 994, jump @877\n      : @835 [@dyn 497] (gas: 1)\n 22454: ret\n      : @836 (gas: 3)\n 22456: a0 = sp + 0xa0\n 22460: a1 = 0x40\n 22463: ra = 996, jump @2\n      : @837 [@dyn 498] (gas: 1)\n 22469: t0 = 998, jump @858\n      : @838 [@dyn 499] (gas: 1)\n 22475: jump @850 if a0 != 0\n      : @839 (gas: 1)\n 22478: t0 = 1000, jump @865\n      : @840 [@dyn 500] (gas: 1)\n 22484: ra = 1002, jump @4\n      : @841 [@dyn 501] (gas: 1)\n 22490: t0 = 1004, jump @857\n      : @842 [@dyn 502] (gas: 1)\n 22496: jump @850 if a0 == 0\n      : @843 (gas: 1)\n 22499: t0 = 1006, jump @866\n      : @844 [@dyn 503] (gas: 1)\n 22505: ra = 1008, jump @4\n      : @845 [@dyn 504] (gas: 1)\n 22511: t0 = 1010, jump @864\n      : @846 [@dyn 505] (gas: 1)\n 22517: jump @850 if a0 == 0\n      : @847 (gas: 8)\n 22520: s1 = u64 [sp + 0x18]\n 22523: i32 a0 = s1 + 0x24\n 22526: u64 [sp + 88] = 0\n 22529: u64 [sp + 80] = 0\n 22532: u64 [sp + 64] = 0x17\n 22536: a1 = sp + 0x40\n 22539: u64 [sp + 72] = 0\n 22542: ra = 1012, jump @4\n      : @848 [@dyn 506] (gas: 1)\n 22548: t0 = 1014, jump @861\n      : @849 [@dyn 507] (gas: 1)\n 22554: jump @851 if a0 != 0\n      : @850 (gas: 1)\n 22557: trap\n      : @851 (gas: 11)\n 22558: s1 = u64 [sp + 0x18]\n 22561: i32 a0 = s1 + 0x44\n 22564: a1 = u64 [0x20200]\n 22569: a2 = u64 [0x20208]\n 22574: a3 = u64 [0x20210]\n 22579: u64 [sp + 0x38] = a1\n 22582: u64 [sp + 0x30] = a2\n 22585: u64 [sp + 0x28] = a3\n 22588: a1 = sp + 0x20\n 22591: u64 [sp + 32] = 0\n 22594: ra = 1016, jump @4\n      : @852 [@dyn 508] (gas: 3)\n 22600: a1 = 0x64\n 22603: a0 = s1\n 22605: ra = 1018, jump @13\n      : @853 [@dyn 509] (gas: 1)\n 22611: t0 = 1020, jump @886\n      : @854 [@dyn 510] (gas: 4)\n 22617: ecalli 8 // 'seal_return'\n 22619: a0 = 0\n 22621: ra = 0x3fe\n 22625: jump @19\n      : @855 [export #0: 'call'] (gas: 2)\n 22628: a0 = 0\n 22630: ra = 1022, jump @19\n      : @856 [@dyn 511] [export #1: 'deploy'] (gas: 2)\n 22636: a0 = 0x1\n 22639: ra = 1024, jump @19\n      : @857 [@dyn 512] (gas: 11)\n 22645: a2 = u64 [sp + 0x8]\n 22648: a2 = a2 | s1\n 22651: s1 = 0x100000000\n 22661: a0 = 0xfffffffc\n 22671: a1 = u64 [sp + 0x18]\n 22674: a0 = a1 <u a0\n 22677: a1 = u64 [sp + 0x10]\n 22680: a0 = 0 if a1 != 0\n 22682: u64 [sp + 0x8] = a2\n 22685: a0 = 0 if a2 != 0\n 22687: jump [t0]\n      : @858 (gas: 15)\n 22689: a2 = u64 [sp + 0xb8]\n 22693: s1 = u64 [sp + 0xb0]\n 22697: a0 = u64 [sp + 0xa8]\n 22701: a1 = u64 [sp + 0xa0]\n 22705: u64 [sp + 0x10] = a0\n 22708: u64 [sp + 0x8] = a2\n 22711: a0 = a0 | a2\n 22714: u64 [sp + 0x18] = a1\n 22717: a1 = a1 | s1\n 22720: a1 = a1 | a0\n 22723: a1 = a1 >> 0x20\n 22726: a0 = a0 | s1\n 22729: a0 = a0 << 0x20\n 22732: a0 = a0 | a1\n 22735: jump [t0]\n      : @859 (gas: 14)\n 22737: sp = sp + 0xffffffffffffff20\n 22741: u64 [sp + 0xd8] = ra\n 22745: u64 [sp + 0xd0] = s0\n 22749: u64 [sp + 0xc8] = s1\n 22753: s0 = sp + 0xe0\n 22757: sp = sp & 0xfffffffffffffff0\n 22760: a1 = u64 [a0 + 0x10]\n 22763: a2 = u64 [a0 + 0x18]\n 22766: a3 = u64 [a0 + 0x8]\n 22769: a0 = u64 [a0]\n 22771: a2 = a2 | a3\n 22774: a0 = a0 | a1\n 22777: a0 = a0 | a2\n 22780: jump [t0]\n      : @860 (gas: 15)\n 22782: a0 = a1 <u a0\n 22785: a5 = a3 + a0\n 22788: a3 = a5 <u a3\n 22791: a3 = a0 if a0 == 0\n 22794: a3 = a3 + a4\n 22797: a0 = a3 <u a4\n 22800: a0 = a0 + a2\n 22803: a2 = a1 | a3\n 22806: a0 = a0 | a5\n 22809: a2 = a2 | a0\n 22812: a2 = a2 >> 0x20\n 22815: a0 = a0 | a3\n 22818: a0 = a0 << 0x20\n 22821: a0 = a0 | a2\n 22824: jump [t0]\n      : @861 (gas: 7)\n 22826: a0 = 0xffffffbc\n 22836: a0 = s1 <u a0\n 22839: a1 = u64 [sp + 0x10]\n 22842: a0 = 0 if a1 != 0\n 22844: a1 = u64 [sp + 0x8]\n 22847: a0 = 0 if a1 != 0\n 22849: jump [t0]\n      : @862 (gas: 7)\n 22851: a4 = 0x100000000\n 22861: a0 = 0xfffffffc\n 22871: a0 = a1 <u a0\n 22874: a2 = u64 [a5 + 0xb0]\n 22878: a0 = 0 if a2 != 0\n 22880: a0 = 0 if a3 != 0\n 22882: jump [t0]\n      : @863 (gas: 9)\n 22884: a2 = s1 + 0x100\n 22888: a3 = u64 [a2 + 0xb8]\n 22892: a0 = 0xffffffbc\n 22902: a0 = a3 <u a0\n 22905: a1 = u64 [a2 + 0xb0]\n 22909: a0 = 0 if a1 != 0\n 22911: a1 = u64 [a2 + 0xa8]\n 22915: a0 = 0 if a1 != 0\n 22917: jump [t0]\n      : @864 (gas: 8)\n 22919: a0 = s1 + 0xffffffffffffffdc\n 22922: a1 = u64 [sp + 0x18]\n 22925: a0 = a1 <u a0\n 22928: a1 = u64 [sp + 0x10]\n 22931: a0 = 0 if a1 != 0\n 22933: a1 = u64 [sp + 0x8]\n 22936: a0 = 0 if a1 != 0\n 22938: jump [t0]\n      : @865 (gas: 8)\n 22940: u64 [sp + 144] = 0\n 22944: u64 [sp + 136] = 0\n 22948: u64 [sp + 128] = 0\n 22952: a0 = 0x8c379a000000000\n 22962: a1 = sp + 0x80\n 22966: u64 [sp + 0x98] = a0\n 22970: a0 = u64 [sp + 0x18]\n 22973: jump [t0]\n      : @866 (gas: 8)\n 22975: a0 = u64 [sp + 0x18]\n 22978: i32 a0 = a0 + 0x4\n 22981: u64 [sp + 120] = 0\n 22984: u64 [sp + 112] = 0\n 22987: u64 [sp + 96] = 0x20\n 22991: a1 = sp + 0x60\n 22994: u64 [sp + 104] = 0\n 22997: jump [t0]\n      : @867 (gas: 10)\n 22999: a2 = s1 + 0x100\n 23003: a4 = u64 [a2 + 0xa8]\n 23007: a3 = u64 [a2 + 0xb0]\n 23011: a1 = u64 [a2 + 0xb8]\n 23015: a0 = u64 [a2 + 0xa0]\n 23019: a0 = a0 + 0xffffffffffffffdc\n 23022: a0 = a1 <u a0\n 23025: a0 = 0 if a3 != 0\n 23027: a0 = 0 if a4 != 0\n 23029: jump [t0]\n      : @868 (gas: 10)\n 23031: a4 = s1 + 0x100\n 23035: a3 = u64 [a4 + 0xa8]\n 23039: a2 = u64 [a4 + 0xb0]\n 23043: a1 = u64 [a4 + 0xb8]\n 23047: a0 = u64 [a4 + 0xa0]\n 23051: a0 = a0 + 0xffffffffffffffdc\n 23054: a0 = a1 <u a0\n 23057: a0 = 0 if a2 != 0\n 23059: a0 = 0 if a3 != 0\n 23061: jump [t0]\n      : @869 (gas: 7)\n 23063: a1 = u64 [a2 + 0xb8]\n 23067: a0 = a1 <u a0\n 23070: a1 = u64 [a2 + 0xb0]\n 23074: a0 = 0 if a1 != 0\n 23076: a1 = u64 [a2 + 0x40]\n 23079: a0 = 0 if a1 != 0\n 23081: jump [t0]\n      : @870 (gas: 5)\n 23083: sp = a1\n 23085: i32 a0 = a0 + 0\n 23087: i32 a2 = a1 + 0\n 23089: a1 = 0x40\n 23092: jump [t0]\n      : @871 (gas: 14)\n 23094: a0 = u64 [a2 + 0x8]\n 23097: a1 = u64 [a2]\n 23099: a2 = i32 [a2 + 0x10]\n 23102: a0 = reverse a0\n 23104: a3 = a0 >> 0x20\n 23107: a1 = reverse a1\n 23109: a4 = a1 << 0x20\n 23112: a3 = a3 | a4\n 23115: a0 = a0 << 0x20\n 23118: a2 = reverse a2\n 23120: a2 = a2 >> 0x20\n 23123: a0 = a0 | a2\n 23126: a1 = a1 >> 0x20\n 23129: jump [t0]\n      : @872 (gas: 10)\n 23131: a0 = u64 [a3 + 0x18]\n 23134: a1 = u64 [a3 + 0x10]\n 23137: a2 = u64 [a3 + 0x8]\n 23140: a3 = u64 [a3]\n 23142: a0 = reverse a0\n 23144: a1 = reverse a1\n 23146: a2 = reverse a2\n 23148: a3 = reverse a3\n 23150: a4 = s1 + 0x2118\n 23154: jump [t0]\n      : @873 (gas: 10)\n 23156: a0 = u64 [a3 + 0x18]\n 23159: a1 = u64 [a3 + 0x10]\n 23162: a2 = u64 [a3 + 0x8]\n 23165: a3 = u64 [a3]\n 23167: a0 = reverse a0\n 23169: a1 = reverse a1\n 23171: a2 = reverse a2\n 23173: a3 = reverse a3\n 23175: a4 = s1 + 0x2918\n 23179: jump [t0]\n      : @874 (gas: 15)\n 23181: a0 = u64 [a2 + 0x8]\n 23184: a1 = i32 [a2 + 0x10]\n 23187: a2 = u64 [a2]\n 23189: a0 = reverse a0\n 23191: a3 = a0 << 0x20\n 23194: a1 = reverse a1\n 23196: a1 = a1 >> 0x20\n 23199: a3 = a3 | a1\n 23202: a0 = a0 >> 0x20\n 23205: a1 = reverse a2\n 23207: a2 = a1 << 0x20\n 23210: a0 = a0 | a2\n 23213: a1 = a1 >> 0x20\n 23216: a2 = s1 + 0x1918\n 23220: jump [t0]\n      : @875 (gas: 8)\n 23222: a2 = 0x100000000\n 23232: a2 = a2 ^ a0\n 23235: a2 = a2 | a1\n 23238: a3 = a0 >> 0x20\n 23241: a3 = a3 <u 0x1\n 23244: a3 = 0 if a1 != 0\n 23246: a3 = 0 if a2 == 0\n 23248: jump [t0]\n      : @876 (gas: 15)\n 23250: a3 = u64 [s1 + 0x198]\n 23254: a0 = u64 [a3 + 0x18]\n 23257: a1 = u64 [a3 + 0x10]\n 23260: a2 = u64 [a3 + 0x8]\n 23263: a3 = u64 [a3]\n 23265: a0 = reverse a0\n 23267: a4 = reverse a1\n 23269: a2 = reverse a2\n 23271: a3 = reverse a3\n 23273: a1 = u64 [s1 + 0x1b0]\n 23277: u64 [a1 + 0x18] = a3\n 23280: u64 [a1 + 0x10] = a2\n 23283: u64 [a1 + 0x8] = a4\n 23286: u64 [a1] = a0\n 23288: jump [t0]\n      : @877 (gas: 6)\n 23290: sp = s0 + 0xffffffffffffff20\n 23294: ra = u64 [sp + 0xd8]\n 23298: s0 = u64 [sp + 0xd0]\n 23302: s1 = u64 [sp + 0xc8]\n 23306: sp = sp + 0xe0\n 23310: jump [t0]\n      : @878 (gas: 12)\n 23312: a3 = u64 [s1 + 0x190]\n 23316: a0 = u64 [a3 + 0x18]\n 23319: a1 = u64 [a3 + 0x10]\n 23322: a2 = u64 [a3 + 0x8]\n 23325: a3 = u64 [a3]\n 23327: a0 = reverse a0\n 23329: a1 = reverse a1\n 23331: a2 = reverse a2\n 23333: a3 = reverse a3\n 23335: a4 = s1 + 0x2118\n 23339: a5 = a4 + 0x700\n 23343: jump [t0]\n      : @879 (gas: 9)\n 23345: a0 = u64 [a3 + 0x18]\n 23348: a1 = u64 [a3 + 0x10]\n 23351: a2 = u64 [a3 + 0x8]\n 23354: a3 = u64 [a3]\n 23356: a0 = reverse a0\n 23358: a4 = reverse a1\n 23360: a2 = reverse a2\n 23362: a3 = reverse a3\n 23364: jump [t0]\n      : @880 (gas: 14)\n 23366: a0 = u64 [a2 + 0x8]\n 23369: a1 = i32 [a2 + 0x10]\n 23372: a2 = u64 [a2]\n 23374: a0 = reverse a0\n 23376: a3 = a0 << 0x20\n 23379: a1 = reverse a1\n 23381: a1 = a1 >> 0x20\n 23384: a3 = a3 | a1\n 23387: a0 = a0 >> 0x20\n 23390: a1 = reverse a2\n 23392: a2 = a1 << 0x20\n 23395: a0 = a0 | a2\n 23398: a1 = a1 >> 0x20\n 23401: jump [t0]\n      : @881 (gas: 11)\n 23403: a3 = u64 [s1 + 0x190]\n 23407: a0 = u64 [a3 + 0x18]\n 23410: a1 = u64 [a3 + 0x10]\n 23413: a2 = u64 [a3 + 0x8]\n 23416: a3 = u64 [a3]\n 23418: a0 = reverse a0\n 23420: a1 = reverse a1\n 23422: a2 = reverse a2\n 23424: a3 = reverse a3\n 23426: a4 = s1 + 0x2118\n 23430: jump [t0]\n      : @882 (gas: 8)\n 23432: a4 = a4 | a2\n 23435: a2 = a0 | a1\n 23438: a2 = a2 | a4\n 23441: a2 = a2 >> 0x20\n 23444: a1 = a1 | a4\n 23447: a1 = a1 << 0x20\n 23450: a1 = a1 | a2\n 23453: jump [t0]\n      : @883 (gas: 9)\n 23455: a3 = s1 + 0x100\n 23459: a2 = u64 [a3 + 0xb8]\n 23463: a0 = 0xffffffbc\n 23473: a0 = a2 <u a0\n 23476: a1 = u64 [a3 + 0xb0]\n 23480: a0 = 0 if a1 != 0\n 23482: a1 = u64 [a3 + 0xa8]\n 23486: a0 = 0 if a1 != 0\n 23488: jump [t0]\n      : @884 (gas: 13)\n 23490: sp = sp & 0xffffffffffffffe0\n 23493: a3 = u64 [a2 + 0x10]\n 23496: a4 = u64 [a2 + 0x18]\n 23499: a5 = u64 [a2 + 0x8]\n 23502: a2 = u64 [a2]\n 23504: a4 = a4 | a5\n 23507: a5 = a2 | a3\n 23510: a5 = a5 | a4\n 23513: a5 = a5 >> 0x20\n 23516: a3 = a3 | a4\n 23519: a3 = a3 << 0x20\n 23522: a3 = a3 | a5\n 23525: jump [t0]\n      : @885 (gas: 4)\n 23527: a0 = 0x2118\n 23531: a3 = s1 + a0\n 23534: a4 = a3 + 0x700\n 23538: jump [t0]\n      : @886 (gas: 4)\n 23540: i32 a1 = a0 + 0\n 23542: a0 = 0x1\n 23545: a2 = 0x64\n 23548: jump [t0]\n      : @887 (gas: 5)\n 23550: a1 = a3 <u a1\n 23553: a1 = a0 if a0 == 0\n 23556: a0 = u64 [s1 + 0x188]\n 23560: a4 = a0 + a1\n 23563: jump [t0]\n      : @888 (gas: 8)\n 23565: a2 = s1 + 0x100\n 23569: a1 = u64 [a2 + 0xb0]\n 23573: a0 = a1 <u a0\n 23576: a1 = u64 [a2 + 0xa8]\n 23580: a0 = 0 if a1 != 0\n 23582: a1 = u64 [a2 + 0xa0]\n 23586: a0 = 0 if a1 != 0\n 23588: jump [t0]\n      : @889 (gas: 7)\n 23590: a1 = u8 [s1 + 0x1b8]\n 23594: a1 = a1 >u 0\n 23596: u64 [a3 + 544] = 0\n 23600: u64 [a3 + 536] = 0\n 23604: u64 [a3 + 0x208] = a1\n 23608: a1 = 0x2000\n 23612: jump [t0]\n      : @890 (gas: 4)\n 23614: a0 = u64 [s1 + 0x1b8]\n 23618: a0 = i32 [a0]\n 23620: a1 = 0x23\n 23623: jump [t0]\n      : @891 (gas: 4)\n 23625: i32 a0 = a0 + 0x118\n 23629: a3 = s1 + a0\n 23632: a4 = a3 + 0x600\n 23636: jump [t0]\n      : @892 (gas: 4)\n 23638: i32 a0 = a1 + 0x4\n 23641: a1 = 0x1918\n 23645: a2 = s1 + a1\n 23648: jump [t0]\n","bytecode":{"linkReferences":{},"object":"50564d0000076f000000000000010700c15002c00080038218656e776f2077654e6120656d617320726e657272756320730072656e776f20742064696c61766e49656e776f2077656e736572646461207231cc878aad73b69b3744d5ac5af9df279af9a5ac62324ce9191bc79a0e8adc5d72656469766f725074756120746f6e200064657a69726f687220746f6e6e6143776f20656b6f76650254c7541e21d2f322496b5802a2f1b711a6eaa391515cf0adb00501284a3596746e656d7069685365726c61204449207369786520796461f1edc9057bbb672e6b05dcc5896c0469021da04a50cb9c8902935e40aa0850ac73756f69766572506e656d70696873206e2073656f642074747369786520746f88d5f3a951ef429fbbf830504447dfbc408da32cd5d1bb28c9fe9829055036ae79646165726c612069726f6874756120447d127db18be15ed6faff86b09af60946a6f71030cf3ad9df2c5dda9ab731b772656469766f727073736572646461206874756120746f4e203a64657a69726f6e6f2072656e776f6874756120746f4e203a64657a69726f72656469766f72706d2074686769655767206562207473757420726574616572756d2065636972507267206562207473687420726574616563206e696769724f656220746f6e6e6100007974706d652074616e69747365446e6e6163206e6f696d6520656220746f2064696c61766e4972657669656365727373657264646120746e656d706968536f6e2073656f642000747369786520740480c40c000000000e0000001c0000002a000000300000003d00000048000000570000005a00000065000000770000008200000063616c6c5f646174615f636f707963616c6c5f646174615f6c6f616463616c6c5f646174615f73697a6563616c6c65726465706f7369745f6576656e746765745f73746f72616765686173685f6b656363616b5f3235366e6f777365616c5f72657475726e7365745f696d6d757461626c655f646174617365745f73746f7261676576616c75655f7472616e73666572726564051302c064580463616c6cc06c58066465706c6f7906c0f56b820002c0625c2b007301760352045a0459055e05950537067b068c069406af06c70612071a0730075f0787079307b807d6071a082208a708b008d4083f09470964096e097d098c099509b609ce09e709f209260a4e0abd0aff0a080b4e0b760bd80bf00b1e0c230c460c4b0ca60ccf0c7e0d870da60dc90dd30de20df10dfa0d1b0e410e840ec90ed20ef00efb0e0b0f1c0f260f480f700f9a0fa40feb0f5a106410aa10cc10291167118911e011211243127712b212e61208131f132f1340134a1363136d13a213fe137214df148d159615e1154d16c0160517a2173718c6184319f819681af51a101b201b9e1cc81c171d201d3e1d491d591d6a1d741d961daf1dc91dd51d101e161e501e811e9f1efa1e271ff71f0120222044204f205f206c2072209420bb20052179219821a321b321c021c621e42106225a227322cb2219233e239623ea235a24a324fd246d25b62512267026b226452787279227a227e527082877289028ca28d028002906296a299729af29c129ef29232a2d2a6a2a912af02a092b352b3b2b5f2b652bb72bdc2bf42b052c3f2c8d2c972cd92c152d7d2d962da22dc52dcb2df32df92d512e7c2ebf2ec82ee62ef12e012f122f1c2f362f4f2f6d2f972fa42fdd2fe32f54305a30a630b030cd30d630f430ff300f311c3122313d3164319831a131bf31ca31da31e731ed310b3232323f327232a632d7329c33e03343345c348a349034b634bc341e353c35473557359235c235e035f735073614361a3624365d366a36f9365d378937ad37b837c837d937e33701380a381f3885389e38a838cb38d138f738fd384039a339bc39c639eb39f139173a1d3a693aca3ae33a0d3b133b353b3b3b753b823b883bb43bbd3bdb3bf23b023c0f3c153c1f3c593c663c163dd43df93d873eac3e3a3f5b3fe73f5640eb404141b1413c4203437143d6434544b244c244e9447b459c45044614468446ef461047954703483d484e488848aa48e048ef4801493a496d4acf4aff4a084b264b3d4b4d4b5e4b684b814bbf4bfa4b5b4c654c6c4c754c844c8a4c934c994c9f4ca84cae4cb44cd34cd94c114d1c4d224d2f4d354d3e4d4d4d534d5c4d624d684d714d774d7d4d9c4da24dda4de54deb4df84dfe4d074e164e1c4e254e2b4e314e3a4e404e464e654e6b4ea34eae4eb44ec14ec74ed04edf4ee54eee4ef44efa4e034f094f0f4f2e4f344f6c4f774f7d4f844f9e4fc351c951d251e151e751f051f651fc5105520b5211523052365264526f527552825288529152a052a652af52b552bb52c452ca52d052ef52f5522d5338533e53455387539353d153d753e053ef53f553fe5304540a54135419541f543e54445472547d5483548a541a559a550b569156a757ad57b657c557cb57d457da57e057e957ef57f55714581a584858535859586c587558390820020251087707330750020383770a09286a079511f07b10087b15648964753308206497501002e4047c78017c797c7a027c7b03978808d4980897aa1097bb18d4ba0ad4a8087c79057c7a047c7b067c7c07979908d4a90997bb1097cc18d4cb0bd4b909979920d489027c79097c7a087c7b0a7c7c0b979908d4a90997bb1097cc18d4cb0bd4b9097c7a0d7c7b0c7c7c0e7c780f97aa08d4ba0a97cc10978818d4c808d4a808978820d498037c78117c7a107c7b127c7c13978808d4a80897bb1097cc18d4cb0bd4b8087c7a157c7b147c7c167c791797aa08d4ba0a97cc10979918d4c909d4a909979920d4890a7c78197c79187c7b1a7c7c1b978808d4980897bb1097cc18d4cb0bd4b8087c791d7c7b1c7c7c1e7c771f979908d4b90997cc10977718d4c707d49707977720d487076f776fa86f396f2a7b5a187b59107b58087b57821008821595111032009511d87b10207b15187b161082897b19088289087b198285108286183308205010049c036f686f59821a6faa821b086fbb787b18787a10787908787898bc38787c1f98bc30787c1e98bc28787c1d98bc20787c1c98bc18787c1b98bc10787c1a98bb08787b1998ab38787b1798ab30787b1698ab28787b1598ab20787b1498ab18787b1398ab10787b1298aa08787a11989a38787a0f989a30787a0e989a28787a0d989a20787a0c989a18787a0b989a10787a0a98990878790998893878790798893078790698892878790598892078790498891878790398891078790298880878780182102082151882161095112832009511a07b10587b15507b16489515608411e06476828718828910828a0882886f776f996faa6f887b18187b1a107b19087b17491138491130491128491120481140208318831a20831b403309ff33070a05821738821830821928821a206f776f886f996faa7b6a187b69107b68087b679551a082105882155082164895116032009511a07b10587b15509515608411e08272827a08827b108277188283828908828c108288186f746fbb6faa6f276f826fcc6f996f387b17187b1a107b1b087b147b18387b19307b1c287b12208318831a203309ff330b2033070a0a9551a08210588215509511603200951160ff7b1098007b1590007b1688009515a0008411e082ab7b1b3882ab087b1b3082ab107b1b2882aa187b1a20829a7b1a18829a087b1a10829a107b1a088299187b196486501006990182186f888219086f99821a106faa821b186fbb7b1b587b1a507b19487b18408218206f888219286f99821a306faa821b386fbb7b1b787b1a707b19687b18608379836a8317403308020a04955160ff8210980082159000821688009511a00032009511e0fe7b1018017b1510017b160801951520018411e082c67b166082c6087b166882c6107b167082cc187b1c7882bc7b1c3882bc087b1c4082bc107b1c4882bb187b1b5033020882ab7b1b1882ab087b1b2082ab107b1b2882aa187b1a308296829a087b1a829a107b1a088299187b19107b185833000a28bb007b185850100ab5006f687b18980082186f887b1890008218086f887b1888008218106f887b1880008218186f887b18b8008218206f887b18b0008218286f887b18a8008218306f887b18a0008218386f887b18d8008218406f887b18d0008218486f887b18c8008218506f887b18c0008218606f887b18f8008218686f887b18f0008218706f887b18e8008218786f887b18e0008379811a58831780003308040a049551e0fe8210180182151001821608019511200132008b7910520931c8780883881f8488e056380000012533091c0202390a1c0202ae8a093d081c02020133083002028377c887073200009511f07b10087b158475010a02013d0718020251050750100c0950100e3a02951160fe7b1098017b1590017b1688019515a0018411e064164926d8004926d0004926c00080003307409568c0004926c800501010bffb4926f8004926f0004926e8004926e0008367e0000a0b018267f0008268f8008269e800826ae000d49808d4a707d487075107173308300202838833070133093300280a0828ba0133073002037b673883777b67300a0382693882970881981082996f77977a206f88988820d4a8087b68289877206f98978920d497077b67209888207b6818492618014926100149260801492600019567a000956800015010120ffc8067b4009777208268b800826918d4970749263801492630014926280149262001956900017b98588268207b98488268287b98407b975095672001956840015010144cfc8267303300160a0382693833021828bd54826938501218b754492698007b6890007b678800956880007b6a8000330750101aa5fa4916784916704916600133072095686049166850101c8dfa9517e08477e07b6738647133091c020239071c020256173f0b20031c020240019517e08478e07b6820648133073002027b672883777b6930838933084033001e0a06826a20330220282254826a205012201c548268387b8a187b89107b8b087b8795674050102216fb826740826848826958826a50847700ff867701956b00017bb9787bba707bb8687bb7609568600182673850102468fb826930819756177f09480980000182672883778000330833090a2887f833078000330850102688fd8378330733093300280a0801951110fe7b10e8017b15e0017b16d8019515f0019511f0d68411e0641633022a95691821014929c0024929b8024929a80280003307409568c0234929b00250102c7ef933071802027b67b801390718020255170407288c429517e08477e064714917184917104917087b67b0014907956700208377e003330833002e0a0133023095691821280a33023095691821018197e40252475bcba58d0a28be15956a18295247c45fd1920a28fc2552478e8b1eac0a28572351478be3fdf2c0015247e8c73cf80a282814524762a22e110a28ea2052478c8fd4110a28701651477caff7161a045147e23adc690a2831274929c0064929b8064929b0064929a806956700208377c0073300320a0b3307002033023428a553330700205012349e5382b7b80082b8c00082b9b00082baa800d49808d4a707d48707510706288e415012366f53ac7806288341956700208377e0073308040a0101956b182182b8d80682b7e00614090000000001000000d38909d47909988a2088aa01947a939a520a0628494182b9d00682bac806956b181995bc00027bca88007bc990007bc898009568a01b7bc7a000330750103815f833023a9569181901492980024929780249296802013307209568801b4929700250103cf0f7330840330750103ea1fb9518e08488e07b68b801501240b3503300420a06826ab80133024428d250826ab801501244cb507bba000795ba00067ba9f8007ba8f0007ba7e8009567601b9568002850104690f895671819827748027b67b8019567401b3308405010484cf6956a181995ac000282cb4082c83882c93082c72850124aa65151080628da3250124c3952838820fbc86808492a10027b67b8013300c201284af7492a0001492af800492af000492ae80095670030837700fa33004e0a0b01956a182982a7f80082a8000182a9f00082aae800d49808d4a707d48707510706281440501250f551ac780628094095670030837720fa3308040a010195691829829a1801829b200114070000000001000000d3a707d4b70798a8208888017b6b700194b8937852080628fd3f829710017b679801829708017b6790017b6a780197a7209877207b678801956700238268b00150105289f795681821828700027b676801958900018297f8007b67b8018297f0007b67a0018297e8007b67a80133073002037b67800183773300540a0382698001330256283a4f82698001501256334f8269b801979920989920d398088269a801d39707d487078268a001d3a808d48707887701956818214928e0014928d8017b87c8019567e0224928d0013300583302ec0228864d95670001827c8800827b9800827a9000d4ba07d4c7075107062838289567c02133084050105aa4f4956b182182b2c00082bcb80082bab00082b7a800d42a09d4c708d49808988820d4c909979920d49808510806282231492b9800492b9000492b88007b6ab001140a00000000a079c3089568a0217bbaa0007b67b8017b62a8017b6ca00150105c7cf5956c000182c8b80082c7a80082caa000d47a0a50125e584d52070628d13083870495691821330c4929800049197849196820956880214919707b6aa8017b6ba00150106036f5501262b94d520706289e308387249569182149196049195849194819956860214919505010640ef55012661e4d52070628763083a7443a082000023a092800023a0a300002956b18217bb8407bb9387bba3014090000000000000073956840217bb92833006c0228caf44929800549297805492970054929680595670020837780063300680a0b01956a182195ab000582b77882b8800082b97082ba68d49808d4a707d4870751070628933d50126a744fac780628883d956700208377a0063308040a0101956a182182a4a00582a8980582ac9005d4480b88c70194b752070628673d7b6ba00182a988058267b8018073d893078ecadac70a9a8bc9ab02d8ab0a7b6888018e8b7b649001c84b0b9abbc9ab0b9acac97a0a7b69b001c99308888804018588018ea9daa8098fb88e2adbb80ad4b207db7a097b6ca80152090628fd3c33073002037b67b80183777b67800133006c0a038269b80133026e28124d8269b80150126e0b4d49290002959b00017bb8f8007bb7f0009568001b7bbae8003307501070aef3956718194927e0014927d8014927d001647a3307209568e01a492ac801015010728bf333084033075010743cf79518e08488e07b6898015012764e4c3300780a06826a980133027a286d4c826a980150127a664c95bc00057bcac0007bc9b8007bc8b0007bc7a8009567c01a9568c02650107c2bf4956818197c87a8014928a001492898017b8788019567a01a4928900133007e33020c0328934a1407fcffffff00000000956a000182a9b000d8790782a8a800948782a8a0009487520706285f2e9597047b6778018378956700208377e0060a01330280009569182101959b000582b7e00082b8d80082bad00082b9c8007b677001956b181995bc00017bc780007b6868017bc8787b6a58017bca709568801a7b6960017bc9683307502082008cf2330284009569181901492960014929580149294801023307209568601a492950015020860065f233084033075020880015f69518e08488e07b68980150228a00264b33008c000a06826a980133028e0028424b826a980150228e003b4b7bba000695ba00057ba9f8007ba8f0007ba7e8009567401a9568002750209000fff2956718197c77280151070628e029140a00000000010000001407dcffffff0000000050229200a34c52070628512d8267b00183782495670020837720077b6a9801330094000a01330700203302960028b24c3307002050229600ab4c82b72082b81882b91082ba087b6738017b692801d497077b6830017b6a2001d4a808d487078e7795681819492880004918787b8768956780194918703300980033022c0328e948956b000182baa80082b8b00082b798009577bcd8780794a782b9a000949752070628b82c82677801d88707c87a097b699801648bd8a908da770882678801c878087b685001d8780782689001c887077b67480183b844956700208377400733009a000a013307002033029c0028f24b3307002050229c00eb4b82b74082b83882b93082ba287b67b0007b69a000d497077b68a8007b6a9800d4a808d487078e77956818194918604918587b87489567601949185033009e0033024c03282a488267b00195788400d8780764897b6818018268a801c8780a7b6a10015022a000384b7b6b0801d87b0782689001c878087b68000195671811957c00077bc8e0007bcbd8007bcad0007bc9c80082674801956818197b87826750017b87f8826798017b87f0648b95672019956800199569e018826a78017bbae85020a200613e956a181982a73882a84082a93082aa28d49808d4a707d487078e77956818114928c0074928b8077b87a8079567c0184928b0073300a40033027003286d478267b0019578c400d8780764897b68f8008268a801c8780a7b6af0005022a6007b4a7b6be800d87b0782689001c887077b67e00095681811958c00077bc7407bcb387bca307bc928826748017bc760826750017bc758826798017bc750648b956780189568601895694018826a78017bba48075020a800aa3d956b181195bc000782c7980082c8a00082c9900082ca8800d49808d4a707d487078e77492b2007492b18077bc70895672018492b10073300aa003302900328b3468267b0019578a400d8780764897b68d8008268a801c8780a7b6ad0005022ac00c1497b6bc800d87b0782689001c887077b67c000956c18117bc7e0067bcbd8067bcad006956700189568e0177bc9c8065020ae00d440956a181180a7f80695ab000682b8e80082b9f000d48707d497078e77492ac006492ab8067bb7a8009567c017492ab0063300b0003302b6032822468267700195691811959a00067ba7a000826768017ba79800826758017ba790009568a017826760017ba7880033075020b2006fee956918114929800649297806492968060233072095688017492970065020b4004dee9517e08477e07b674001647133084033075020b600f1f19518e08488e07b68b8005022b80002473300ba000a06826ab8003302bc0028f447826ab8005022bc00ed47826840017b8a187b89107b8b087b87956760175020be00e4ee330700105022c000e24882b74882b85082b96082ba58847700ff867701956b182195bc00067bc9607bca587bc8507bc74895686027826740015020c20026ef9568181182670001958900057b97e000826708017b97d800826710017b97d000826718017b97c800826748017b870006826750017b97f800826798017b97f000648b95672017956800179569e016826a78017bbae8055020c4008c3b95671811957900068298207b6808018298187b6810018298107b6818018298087b6840018298407b6888008298387b6890008298307b68b8008298287b6800018268c000957900057b98a0008268c8007b9898008268d0007b989000647a9567c0169568a0168269d8007ba988055020c600d93e95681811958900058297b8007b67c8008297b0007b67d0008297a8007b67d8008267e0007b97208267e8007b97188267f0007b97108267f8007b9708826748017b9740826750017b9738826798017b9730648b956760169568401695692016826a78017bba28055020c800ab3a956c181195cb000582b7607b67e00082b7587b67e80082b7507b67f00082b7487b67f8008268b0019587e400d88708826aa801c88a09d8a90ada880a82b880007b687082b8787b687882b8707b68800082b8687b68c00082688801c88a0ad88a08826b9001c8b80895cb00047bb8a0007bba98007bb990007bb78800826748017bb7c000826750017bb7b800826798017bb7b0009567e0159568c0159569a015826a78017bbaa8005020ca00fd393302cc009568181101958900048297e0007b67608297d8007b67688297d0007b6748018297c8007b675001828700057b67408297f8007b67488297f0007b67508297e8007b6758956780153308405020ce003aea956918118292800495970004827c78827b70827a68d42b07d4ca08d47808988820d4c707977720d4870751070628b626826720017b974804826728017b975004826730017b97580495686015826738017b97600464a77b6a98017b6b90017b6288017b6c78015020d00008eb956c000182c8980082c7880082c978d4790a140b00000000010000001407e0ffffff00000000d8780782c99000949794a752070628432683872082689800956918117b6a3801649a959c00047bc8288268a0007bc8308268a8007bc838956840158269b0007ba940047b6b30015020d20095ea956b000182b9900082b8980082b7309577c0d87807949782ba3894a752070628e525838740956a1811492a2004492a1804492a0804e00095682015492a10045020d40050ea826798019577e00082689801d88708826a9001c88a09d8a90ada880a82687801c88a0ad88a0b82688801c88b0b95681811958c00037bc990007bc78800826788007bc7c000826790007bc7b8008267b8007bc7b000826700017bc7a800826708017bc7e000826710017bc7d800826718017bc7d000826740017bc7c8007bca9800648c956700159568e0149569c014956aa0147bcba0035020d600ee3c956a000182ab9800140900000000010000001407a0ffffff00000000d87b0782a89000948782a838948752070628f5241408ffffffff000000007b691801956c181182c900047b69280182c9f8037b69300182c9f0037b6940018269c800d2890982c8e8037b6820018268d0008488ff826ad80084aaff83b760492c800395cb00037bba687bb870956880147bb9785020d8001ee995680001828a38828c9800828718957780d87c0782899000949794a7520706286e2482682001d8c8036482826b4001d39b08d89b0964b4da8309826b780182683001c9b807d8b80a826b880182682801c9b80bc9ab0bd8970ac9ab0bc9970882699001c99409c93909c9c20a83c78000956c18117bca480395ca00037ba9507ba858956860147bab605020da008fe89568181182672801958900027b97e000826730017b97d800826740017b97d000826720017b97c800826770958a00037ba78267787b97f800826780007b97f0008267c0007b97e8008267e0007ba7208267e8007ba7188267f0007ba710648c956740149568201495690014956ae013826bf8007bcb08035020dc004d3b95690001829b9000829c9800140700000000010000007b9740140760ffffff00000000d87c0794b78298389487520706285123956918118294280382923003829040037b602801829938037b693001d8c4037b641801d3b208d8b2097b622001da8309826a780182673001c9a708d8a70a64b7826b8801c9b00bc9ab0bd8980ac9ab0bc99808c97209c93909c9c40a83c7a000956c18117bcaa80295ca00027ba9b0007ba8b8009568c0137babc0005020de005de79568181182672801958900027b9740826730017b9738826720017b9730826718017b97288267407b97608267487b97588267507b97508267587b97488267607b9780008267687b9778826748017b9770648c9567a0139568801395696013956a4013826b50017bcb68025020e000283a95681811958900028297a0007b673001829798007b672801829790007b674801829788007b67500195670020837780070a070195690001829c9800829740957740ffd87c078298900094878298389487520706280922956718218279680682787006827a7806827b800683c7c000956c18117bcb200295cb00027bba187bb810956820137bb9085020e20060e6826780013300e4000a0314079cffffff000000003302e60028004114079cffffff000000005022e600f34052070628a1218267b8018078107b68a8018278087b68a00182777b67b8018267b001837864956700208377a0070a01018262980182635001d82304826c900182684801d3c80ad8c809daa409826a7801826b2801c9ab07d8ab00826b8801826a3001c9ba0bc90b0bd8970ac9ab0bc99709c9c808c94807c92308d4b707d4980ad47a0ad4970798aa20977720d4a707510706281221956918218294880682909006829798068299a006826aa0016faa97ab20826ca8016fcc98cc20d4cb0b7b6bb001826bb8016fbb97bc2098aa20d4ac0398ba20956218117b29c0017b27b8017b20b0017b24a801826758017b27d001826760017b27c8013a07b800023a09c000023a0bc800023a0cd000027b2700027b29f801952900017b9bf0007b9ce8007b9a9800826768017b97d800826770017b97e0007b2390018267b0017b97880095690013956ae012956bc012956ca0124922a001826798013300fe01285be7492a8001492a7801492a7001492a680195670030837780fa3300e8000a0b01956a182995ab000182b77882b8800082b97082ba68d49808d4a707d48707510706289b2d5022ea007c3fac7806288f2d956700308377a0fa3308040a01956a182995ab000182b7880082b8900082b9980082baa000956b182195bc00027bcaa0007bc998007bc890009568a0237bc7880033075020ec003ee43302ee0095691821014929800249297802492968020233072095688023492970025020f00017e433084033075020f200c7e79518e08488e07b68b8015022f400d83c3300f6000a06826ab8013302f800280d3d826ab8015022f800063d95bc00017bcac0007bc9b8007bc8b0007bc7a800956760239568c02a5020fa00b1e495671821827748027b67b801956740233308405020fc006ce2956a182195ac000282cb4082c83882c93082c7285022fe00c53d51080628f81e50220001573e83882003c86808492a10027b67b8013300c2012867e34929e0074929d8074929d0074929c807956700308377e0f8330002010a0b3302040128da3d50220401d73d82b7d80082b8e00082b9d00082bac800d49808d4a707d4870751070628282c8267b801817756170307281b2c9567c01d8268b00150200601f7e395681819958900048297b800956800017b87a8008297b0007b87b8008297a8007b87b0009567a01d330840502008019ae1956a181995ac000482cba00082c8980082c9900082c7880050220a01ef3c51080628221e956b000182b8a800978820988920492a800482b8b00095ac00047bc86882b8b8007bc8709568801d7bc9787b67b8013300c2012877e24929a003492998034929900349298803956700208377a00433000c010a0b01956a182195ab000382b7980082b8a00082b9900082ba8800d49808d4a707d48707510706283c2b50220e011d3dac780628302b956700208377c0043308040a0101956718218272c0038273b8038278b003d4230a88890194a952090628042b7b6a80018274a8038267b801807ad84a0b8e8cda8b0c9a39c9c907d8c9098e3cc82c0c9accc99c0c9a89c9b909c94a0a88aa6485aa018e9bda9a0b8fc98e7adbc90ad4c707db7a0b520b0628b62a9547047b67b8017b648801d84707c878097b69b0017b687801d88909da7709c839097b69a801d83907c827077b67a00133073002037b67980183777b677001330010010a03826998013302120128523b82699801502212014b3b9569181149298001959b00017bb8787bb770956880127bba6833075020140133e1956918114929600149295801492948010133072095686012492950015020160111e1330840330750201801c1e49518e08488e07b68900150221a01d23933001c010a0633021e0128023b50221e01ff3a95bc00037bcae0007bc9d8007bc8d0007bc7c800956740129568e02450202001b3e1956818117c87280149282001492818017b87080195672012492810013300220133020c03281938956c000182c9a000956b18117bb9c00082c8a8007bb8b80082c7b0007bb7b00082cab8007bbaa8007bb9e0007bb8d8007bb7d000956700129568e0119569c0117bbac800502024017c359568181101828700018289f800828af0008288e800d4a707d4980ad47a0a98aa20d49707977720d4a70751070628921b838895670020837700050a01956a182195ab000382b7e80082b8f00082b9f80082aa0004956b18117bbaa0007bb998007bb890009568a0117bb78800330750202601dcdf9569181149298000491978491968023307209568801149197050202801bddf330840330750202a016de39518e08488e07b68900150222c017e3833002e010a063302300128ae3950223001ab3995bc00047bca207bc9187bc8107bc70895676011956820255020320163e0956818117c87484918404918387b872895674011491830330034013302e00328ce36956c000182c9a000956bff0795bb19017bb9e00782c8a8007bb8d80782c7b0007bb7d00782cab8007bbac807956b18117bb995bc00ff7bc8f8007bc7f00095672011956800119569e0107bcae80050203601273495681811828708828920828a10828b18957820502238019136510706284e1a838895670020837740050a01956a182195ab000482b73882b84082b93082ba28d49808d4a707d487078e779568ff07958819014928c0074928b8077b87a8079567c0104928b00733003a0133022c03280936956c000182c9a000956bff0795bb19017bb9600782c8a8007bb8580782c7b0007bb7500782cab80095bc00077bca487bc980007bc8787bc7709567a01095688010956960107bca6850203c0168339568ff0795881901958c000782c7880082c9a00082ca900082cb980095784050223e01c635510706288319838895670020837760050a01956a182195ab000482b75882b86082b95082ba48d49808d4a707d487078e779568ff079588190149284007492838077b87280795674010492830073300400133024c03283e35826aa001956cff0795cc19017bcae0068269a8017bc9d8068268b0017bc8d0068267b8017bc7c806647b7bca000795ca00067ba9f8007ba8f00095672010956800109569ff079599e1077babe800502042019732956bff0795bb190195b8000782870882b22007828910828a1895748000d8740cc8c903d89308dacc08c8a808d8a80cc82c0c7bb448067bb280067bba780695ba00067ba9707ba7687bb350067ba8589567ff079577a1079568ff07958881079569ff07959961077bac6050204401302b956bff0795bb190195bc000682c7b80082c8c00082c9b00082caa800d49808d4a707d487078e77492b4006492b38067bc7289567ff0795774107492b300633004601330270032831348269a001956bff0795bb190195bc00057bc9e0008268a8017bc8d8008267b0017bc7d000826ab8017bcac8007bb900067bc8f8007bc7f0009567ff07957721079568ff07958801079569ff079599e1067bcae800502048018431956bff0795bb190195b8000682870882b22006828910828a189574c000d8740cc8c903d89308dacc08c8a808d8a80cc82c0c7bb448057bb280057bba780595ba00057ba9707ba7687bb350057ba8589567ff079577a1069568ff07958881069569ff07959961067bac6050204a011d2a956bff0795bb190195bc000582c7b80082c8c00082c9b00082caa800d49808d4a707d487078e77492b4005492b38057bc7289567ff0795774106492b300533004c0133029003281e339567ff0795771901826ba001957c00047bcbe0008269a8017bc9d8008268b0017bc8d000826ab8017bcac8007b7b00057bc9f8007bc8f000647b9567ff07957721069568ff07958801069569ff079599e1057bbae80450204e016f309568ff0795881901958b000582b7088282200582b91082ba18957ba000d87b07c8790cd89c09da7709c8a909d8a907c8720a958700047b7b88007b7c90007b79980064899567ff079577c1059568ff079588a1057b9aa00450205001db2c956aff0795aa190180a7b80495ab000482b8a80082b9b000d48707d497078e77492a8004492a78047bb7689567ff0795778105492a7004330052013302b6032822321407bcffffff00000000956a000182a88800d8780782a978949782a98000949752070628ef1583884495670020837780050a0101956718218272800495780004828b78828c70828a68d42c07d4ba08d487079569ff07959919017b629001956800017b8b80007b8c787b8a6852070628a415959700047b7a487b7c507b7b589568ff07958861057b92600433075020540110da9567ff0795771901492740049567ff0795771901492738049568ff079588190149282804023307209568ff07958841059569ff07959919014929300450205601ced93308403307502058017edd9518e08488e07b68600150225a018f320a06826a600182a71882a81082a90882aa6f776f886f996faa956b182195bc00047bcaa0007bc998007bc890007bc788009567ff07957721059568a02550205c0162da9569ff07959919017c97080451070628d1149567ff079577010533084050205e0113d89569ff07959919018292000495980003828cf800828bf0008287e800d42b0ad4c708d4a808988820d4ca0a97aa20d4a8085108062888144929d8034929d0034929c803140a00000000a079c3089568ff079588e1047b9ae0037b67b8017b6bb0017b62a0017b6ca80150206001ded8956c000182c8b80082c7a80082caa000d47a0a50226201b9305207062831148387049569ff07959919014929c0034929b8034929b003330c209568ff079588c1047b9ca8037b6aa8017b6ba001502064018bd8502266010d3152070628f1138387249569ff07959919014929a0034929980349298803209568ff079588a104492990035020680155d850226a01643052070628bb1383a7443a08d80002956bff0795bb190195bc00037bc880003a08e000023a09e800023a0af000027bc8787bc9709568ff07958881047bca6833006c022807d8492900034929f8024929f0024929e802956700208377000433006c010a0b01956a182195ab000282b7f80082a8000382b9f00082bae800d49808d4a707d4870751070628cc2050226e01ad32ac780628c0209567002083772004330804330070010a0101956b182182b7180382b8200350227201fb30520a0628962082b810037b68a80182b808037b68b8019777209877207b67a001956760048268b0015020740158d8826768047b67b001826760047b679801806770047b67900133073002037b6788018377330076010a03826988013302780128163082698801502278010f3082699001d3980882699801d39707d487078268b001d3a808d4870788770149265804492650047b674004956740044926480433007a013302ec02286a2e956900018297a8008298b800d487078298a000d487075207760a9567400233084050207c018ad595680002828b58828c50828a48828740d4ba09d4c708d49808988820d4c909979920d49808510806280b12492630024926280249262002140900000000a079c308956820027b6938027b67b8017b6ab0017b6ba8017b6ca00150207e0165d6956c000182c8b80082c7a80082caa000d47a0a50228001402e52070628b8118387044926180249261002492600022095680002492608027b6aa8017b6ba0015020820120d650228401c22e5207062886118387244926f8014926f0014926e001189568e0014926e80150208601f6d5502288014030520706285c118397443a082000023a094801023a0a500102956b00017bb8d8007bb9d0007bbac8009568c0014926c00133006c0228b6d5491a60491a58491a50491a4895670030837760f933008a010a0b01956a182982a75882a86082a95082aa48d49808d4a707d4870751070628871e50228c016830ac7806287b1e95670030837780f933080433008e010a0101956b182982b77882b8800050229001b72e520a0628521e82b8707b68a80182b8687b68b8011409ffffffff000000007b6990019777209877207b67a001956720218268b0015020920108d6956718218278107b6888018279087b698001827a187b6a78018487ff7b67b0018497ff7b67980182679001d2a7077b67900133073002037b6770018377330094010a03826970013302960128ac2d8269700150229601a52d82697801979920989920d3980882698001d39707d4870782688801d3a808d487078877019568182149084918f87b87e8956700214918f0330098013302ec0228fb2b956b000182b7a00082b89000d3870782b8b80082b99800d3980882b9a80082bab000d3a909d49808d487075207500a9567001f33084050209a0106d395691819018292000695980005828cf800828bf0008287e800d42b0ad4c708d4a808988820d4ca0a97aa20d4a808510806287e0f4929d8054929d0054929c805140a00000000a079c3089568e01e7b9ae0057b67b8017b6bb0017b62a0017b6ca80150209c01d8d3956c000182c8b80082c7a80082caa000d47a0a50229e01b32b520706282b0f5022a001ba2e4929c0054929b8054929a805209568c01e4929b0057b6aa8017b6ba0015020a20190d35022a401322c52070628f60e838724956a1819492aa005492a9805492a8805139568a01e492a90055020a60162d35022a801712b52070628c80e83a7443a087000023a09780002956b181995ba00057ba880007ba9781408000000000072656e7ba8709568801e492b680533006c02281bd3490a491af8491af0491ae895670030837700f93300aa010a0b01956a182995ab00ff82b7f80082a882b9f00082bae800d49808d4a707d4870751070628e71b5022ac01c82dac780628db1b95670030837720f93308040a01956a182982a70882a81082a91882aa20956b181995bc00057bca607bc9587bc8509568601e7bc74833075020ae0196d23302b0019569181901492940054929380549292805023307209568401e492930055020b2016fd233084033075020b4011fd69518e08488e07b68b8015022b601302b3300b8010a06826ab8013302ba0128652b826ab8015022ba015e2b7bba407bb9387bb8307bb7289567201e956840295020bc0111d395671819827708057b67b8019567001e3308405020be01ccd0956a181982ab000595ac000482c8f80082c9f00082c7e8005022c001212c51080628540d7c68b8018e88492ae004492ad8047ba8c8049568e01d492ad0047b67b8015020c201bed13308208267b8015020c4016cd5837833092033070a0801514720a9ef7d0a28bf1a4929200749291807492910074929080795670030837720f83300c6010a0b3302c801280d2c5022c8010a2c82b71882b82082b91082ba08d49808d4a707d48707510706285f1a8267b80181775617430728521a95670030837740f83308040a0195681821958900078297407b67a0018297387b67a8018297307b67b0018297287b67b80195670030837760f83308243300ca010a013302cc0128962b5022cc01932b82b96082b75882b84882ba50956b00017bb7687bb960d497077bb8708888047bba5894a8947852080628091a33073002037b67980183777b6750013300ce010a03826998013302d00128ea29826998015022d001e32949296004959b00047bb8587bb7509568601d7bba4833075020d20188d03302d4019569181901492940044929380449292804013307209568401d492930045020d60161d033084033075020d80111d49518e08488e07b6890015022da0122293300dc010a063302de0128f7295022de01f4297bca80007bc9787bc8707bc7689567201d956880285020e0010ad1956818197c870804492800044928f8037b87e8039567001d4928f0033300e20133020c032870278267a00195691819959a00037ba7e0008267a8017ba7d8008267b0017ba7d0009568e01c8267b8017ba7c80033075020e401bdcf3302e60195691819014929c0034929b8034929a803023307209568c01c4929b0035020e80196cf33084033075020ea0146d39518e08488e07b6890015022ec0157283300ee010a063302f001282c295022f00129297bcaa0007bc998007bc890007bc788009567a01c9568a0285020f2013cd0956818197c87880349288003492878037b8768039567801c492870033300f4013302e00328a2269567601c3308405020f601dccd95671819957900038298607b6888018298587b6880018298507b6878018297487b679001956700308377c0f83300f8010a0701956a000182a7880082a878d4870782a89000648c82a98000d49808d47808988820d49707977720d487075207280a5022fa01472982b7a80082b8b00082b9b80082bac000956b18197bba400395ba00037ba9387ba8309568401c7ba72864c75020fc017ece826750010a038269980182970881981082996f7a97a7206f88988820d4780298aa206f99979820d4a80398992082676001956818197b87e002826768017b87d802826758017b87d002826770017b87c8028267a0017b8700038267a8017b87f8028267b0017b87f0028267b8017b87e8023a0a8000023a0b8800023a0c9000023a079800027b8a2003958a00037bab187bac107ba7087b89b8027b83b0027b82a80264873308209569201c956a001c956be01b956cc01b4927c002826790015020fe0141d028bf181408ffffffff000000008267a0018473ff8262b801d282088267a8018477ffd3a707d3c808d33b09d49707d4870751070628c51695676022330840502000023bcc95691821018292600195980001828c58828b50828748d42b0ad4c708d4a808988820d4ca0a97aa20d4a8085208b908492938014929300149292801140a00000000a079c308956840227b9a40017b67b8017b6bb0017b62a0017b6ca8015020020212cd956c000182c8b80082c7a80082caa000d47a0a50220402ed2451076808838704956918214929200149291801492908012095682022492910017b6aa8017b6ba00150200602cbcc502208024d255107340883872495691821492900014929f8004929e8001f956800224929f00050200a029fcc50220c02ae245107080883a7443a08000002956b18217bb8e0003a080800023a091000023a0a1800027bb8d8007bb9d0009568e0217bbac80033006c02285ccc492638048267b8017b6720048267a8017b672804956820048267a0017b673004330750200e0237cc4926180449261004492608043307209568000449260004015020100219cc330840330750201202c9cf9518e08488e07b68b00150221402da240a06826ab00182a71882a81082a90882aa6f776f886f996faa956b182195bc00037bca407bc9387bc8307bc7289567e0039568402450201602b5cc7c67e0035207c604492638038267b8017b6720038267a8017b672803956820038267a0017b67300333075020180293cb49261803492610034926000301330720956800034926080350201a0275cb9517e08477e07b67b0016471330840330750201c0219cf9518e08488e07b68980150221e022a24330020020a063302220228c12450222202be249567e0025020240223cc8267e0028268e8028269f802826af002847700ff867701956b182195bc00037bc9607bca587bc8507bc748956860248267b001502026026bcc9567c00233084050202802b1c9956800028287d8007b6798018287d0007b6790018287c8007b6788018287c0007b67b00195670020837780040a0701956a000182a7980082a88800d4870782a8b000648b82a99000d49808d47808988820d49707977720d4870752070006956a182195ac000382c76882c87082c97882ca80007b6ab8027b69b0027b68a8029568a0027b67a00264b750202a025cca49267802956b000182b7a000956c00027bc77082b7a8007bc7683a072801023a083001023a0938010282bab8007bca607bc798007bc890007bc988003a0740010233082095698002956a60027bc780008267b0013300e80228dacb33022c0295691819014929e0078267b801959a00077ba7c8008267a8017ba7d0009568e0208267a0017ba7d800330750202e02ccc9956718194927c0074927b8074927b007647a3307209568c020492aa8070150203002a8c933084033075020320258cd9518e08488e07b68b001502234026922330036020a06826ab00133023802289e22826ab0015022380297227bbaa0007bb998007bb890007bb788009567a0209568a02950203a0246ca33023c0295691819017c97880752077d039567a01f33084050203e02fcc795691819018292a00695980006828c9800828b900082878800d42b0ad4c708d4a808988820d4ca0a97aa20d4a80852087704492978064929700649296806140a00000000a079c3089568801f7b9a80067b67b8017b6bb0017b62a0017b6ca80150204002d0c8956c000182c8b80082c7a80082caa000d47a0a50224202ab205107260450224402b423492960064929580649294806209568601f492950067b6aa8017b6ba001502046028ac8502248022c215107f303838724956a1819492a4006492a3806492a2806179568401f492a300650204a025ec850224c026d205107c70383a7443a085800023a096000023a0a680002956b181995bc00067bc8207bc9187bca109568201f492b080633006c02281fc89567201a33084050204e02dbc695691819018292200195980001828c18828b10828708d42b0ad4c708d4a808988820d4ca0a97aa20d4a808520859034929f8004929f0004929e800140a00000000a079c3089568001a7b9a00017b67b8017b6bb0017b62a0017b6ca80150205002b2c7956c000182c8b80082c7a80082caa000d47a0a502252028d1f51070803502254029622330c4929e0004929d8004929c800209568e0194929d0007b6aa8017b6ba001502056026ac750225802ec1f5107d302838724956918194929c0004929b8004929a8001a9568c0194929b00050205a023ec750225c024d1f5107a70283a7443a08a000023a09a800023a0ab00002956b18197bb8a0007bb998007bba9000140900000000000073749568a0197bb9880033006c0228f6c69567c00333084050205e02b2c595680003828bd800828cd000828ac8008287c000d4ba09d4c708d49808988820d4c909979920d49808520832024926b0034926a8034926a003140900000000a079c3089568a0037b69b8037b67b8017b6ab0017b6ba8017b6ca001502060028bc6956c000182c8b80082c7a80082caa000d47a0a50226202661e5107e1018387044926980349269003492680032095688003492688037b6aa8017b6ba0015020640248c650226602ea1e5107b1018387244926780349267003492660031b95686003492668035020680220c650226a026a20510789018397443a085800023a091801023a0a200102956b00037bb8587bb9507bba481409000000000064657a956840037bb94050206c02e0c53308648267b80150206e028ec95022700272200a0801492980078267b801959a00077ba7688267a8017ba770956880208267a0017ba778330750207202a1c5330274029569181901492960074929580749294807013307209568602049295007502076027ac59517e08477e07b67b00164713308403307502078021ec99518e08488e07b68980150227a022f1e33007c020a0633027e0228c61e50227e02c31e956740205020800228c6956a181995ab000782b72882b84082b93882ba30847700ff956b18297bb8c0007bb9b8007bbab0007bb7a8009568c0298267b001502082026fc69567202033084050208402b5c395671819957900078298207b6898018298187b6890018298107b6888018297087b67b001956700308377e0f90a0701956a000182a7980082a88800d4870782a8b000648c82a99000d49808d47808988820d49707977720d487075107020f00956800018287b800959b00037bb7087bb7288287b0007bb7107bb7308287a8007bb7187bb738828aa0007bba209567ff07957761049568ff0795884104649b9569ff07959921047bba4003502086026b199568ff0795881901958b000382b76082b95882ba5082b848d4a707d4980ad47a0a98aa20d49707977720d4a7075207818388956700208377c0050a0195681821958900048297c000956c00017bc7608297b8007bc7488297b0007bc7508297a8007bc75882c9a000956bff0795bb19017bb9c00282c8a8007bb8b80282c7b0007bb7b00282cab80095bc00027bcaa8007bc9e0007bc8d8007bc7d0009567ff07957701049568ff079588e1039569ff079599c1037bcac80050208802ad189568ff0795881901958c000282c7e8008289000382caf00082cbf80095782050228a020b1b5207cbfe8388956700208377e0050a0195681821958900048297e000956c00017bc7408297d8007bc7388297d0007bc7308297c8007bc72882c9a000956bff0795bb19017bb9600282c8a8007bb8580282c7b0007bb7500282cab80095bc00027bca487bc980007bc8787bc7709567ff079577a1039568ff07958881039569ff07959961037bca6850208c02fa179568ff0795881901958c000282c7880082c9a00082ca900082cb980095784050228e02581a520718fe838895670020837700060a019568182182870005956c00017bc720958900048297f8007bc7188297f0007bc7108297e8007bc70882c9a000956bff0795bb19017bb9000282c8a8007bb8f80182c7b0007bb7f00182cab8007bbae80195bc00027bc9207bc8187bc7109567ff07957741039568ff07958821039569ff07959901037bca085020900247179568ff0795881901958c000282c72882c94082ca3082cb3895786050229202a919520769fd838895670020837720060a0195681821958900058297207b67288297187b67108297107b67188297087b6720826aa001956cff0795cc19017bcaa0018269a8017bc998018268b0017bc890018267b8017bc78801647b7bcac00195ca00017ba9b8007ba8b0009567ff079577e1029568ff079588c1029569ff079599a1027baba800502094029a16956bff0795bb190182b7c80182b2e00182b9d00182bad80195748000d8740cc8c903d89308dacc08c8a808d8a80cc82c0c7bb408017bb240017bba380195ba00017ba9307ba7287bb310017ba8189567ff07957761029568ff07958841029569ff07959921027bac2050209602340f9568ff0795881901958900018297607b67e8008297587b67f0008297507b67f8008297487b670001829780007b67c8008297787b67d0008297707b67d8008297687b67e0008267a0017b87c000826ba8017b8bb8008269b0017b89b000826ab8017b8aa8007b87e0007b8bd8007b89d000648b9567ff07957701029568ff079588e1019569ff079599c1017bbac8005020980296159568ff07958819018287e800828200018289f000828af800957ba000d87b07c8790cd89c09da7709c8a909d8a907c8720a7b8b687b8c707b897864899567ff079577a1019568ff07958881017b9a800050209a020a12956bff0795bb190182b798007b67b00082b790007b67b80082b788007b67c0008267a0017bb7208269a8017bb9188268b001956a00107ba828f9826ab801956c00107bca20f97bb7407bb9387bb8309567ff07957761019568ff07958841019569ff07959921017bba2850209c02d0149568ff0795881901828748828260828950828a58957bc000d87b0cc8c903d89308dacc08c8a808d8a80cc82c0c956400107b4ba0f8956b00107bb2d8f8956b00107bbad0f8956a00107ba9c8f8956900107b97c0f8956700107b73a8f8956700107b78b0f89567ff079577e1009568ff079588c1009569ff079599a100956a00107bacb8f850209e024e0d956700108277f8f87b679000956700108277f0f87b679800956700108277e8f87b67a000956700108277e0f87b67a8009568ff079588190182877b67708287f87b677895670010827708f97b67800095670010827700f97b6788008267a001956800107b8758f88269a801956800107b8950f88268b001956a00107ba848f8826ab801956b00107bba40f8956b00107bb778f8956700107b7970f8956700107b7868f89567ff07957781009568ff079588619569ff07959941956b00107bba60f85020a0027e1395670010827780f895680010828298f895680010828988f895680010828a90f8957be000d87b0cc8c903d89308dacc08c8a808d8a80cc82c0c7b6bc0077b62f8077b6af0077b69e8077b67e0077b63c8077b68d0079567ff079577019568e0079569c0077b6cd8075020a202190c95670010827718f87b675095670010827710f87b675895670010827708f87b676095670010827700f87b676895670010827738f87b673095670010827730f87b673895670010827728f87b674095670010827720f87b67489567a0073308405020a40245bc956b000782b9b80082bab00082b7a80082b8a0007b67b001d497077b68b801d4a808d47808988820d4a707977720d487075207bdf882672801956b00077bb78000826730017bb78800826738017bb7900095688007826740017bb798008267b8017b69a8017b6aa0015020a60210bd956a000182a9a00082a7a800d47909140700000000010000007ba7381407e0ffffff0000000082a8b800d8780782a8b00094877ba9409497510747f88267b80183772082680801956a00077ba860826810017ba868826818017ba87095686007826920017ba9785020a802a3bc956900018297389577c05022aa025b15510702f88267b801837740492658074926500749264007200195684007492648075020ac026cbc8268b80195872001d88708826ab001c88a09d8a90ada880a8268a001c88a0ad88a0b8268a801c88b0b956c00067bc9c8007bc7c0008267c8007bc7f8008267d0007bc7f0008267d8007bc7e8008267e0007bc7e0008267e800956800077b87188267f0007b87108267f8007b8708826700017b877bcad00095672007956800079569e006956ac0067bcbd8005020ae02150f14070000000001000000956900017b97381407a0ffffff000000005022b0028114510728f71408ffffffff00000000956a000782a9387b69180182a9307b69200182a9287b69280182a9207b6930018269b000d289098268b8008488ff826ac00084aaff8267b8018377604926b806956b00067bbaa0007bb8a8009568a0067bb9b0005020b20251bb956900018297389577805022b40209145107b0f6826cb80182673001d8c7026473826ab00182672801d3a708d8a70964a4da8209826aa001826b2001c9ab08d8ab00826ba801826a1801c9ba0bc90b0bd8980ac9ab0bc99808c94709c92909c9c30a83c780007b6a80067b6988067b689006956880067b6b98065020b602d1ba82671801956c00067bc718826720017bc710826728017bc708826730017bc78267707bc7388267787bc730826780007bc728826788007bc720826790007bc758826798007bc7508267a0007bc748956760069568400695692006956a0006826ba8007bcb405020b802a10d14070000000001000000956900017b9738140760ffffff000000005022ba020d135107b4f595690006829760829868826478067b642801829b707b6b3001826cb801d8c70264737b671801826ab0016487d3a808d8a70964707b67200164a7da8209826aa001c9ab08d8ab0a826ba801c9b40bc9ab0bd8980ac9ab0bc99808c97009c92909c9c30a83c7a0007b6ae0057b69e8057b68f0059568e0057b6bf8055020bc02c0b9826728017b677805826730017b677005826720017b676805826718017b6760058267307b6798058267387b6790058267407b6788058267487b6780058267507b67b8058267587b67b0058267607b67a8059567c0059568a00595698005956a6005826b687b6ba0055020be028d0c956800058287d8007b6720018287d0007b6718018287c8007b6728018287c0007b6730018267880183782495670020837740063300c0020a010195690001829738957740ff5022c202cf11510776f495671821957c000582c92882c83082ca3882cb408267b8018377c000956c00057bcb587bca507bc848956840057bc9405020c402cdb814070000000001000000956900017b978800140720ffffff000000005022c602731151071af48267b8018377e00082686801956a00057ba820826878017ba828826880017ba83095682005826990017ba9385020c80275b895670020837760063300ca020a07019569000182978800957700ff5022cc021c115107c3f395671821957c000582c94882c85082ca5882cb608267b80183770001956c00057bcb187bca107bc808956800057bc95020ce021bb8826770010a0301826230018260b801d80203826cb00182682801d3c80ad8c809daa309826aa001826b1801c9ab07d8ab04826ba801826a2001c9ba0bc94b0bd8970ac9ab0bc99709c9c808c93807c90208d4b707d4980ad47a0ad4970798aa20977720d4a707520724f3826a980182a70881a91082aa6f7b97b7206f99989920d4790298bb206faa97a920d4b90398aa20492698048267107b67b0048267187b67a8048267207b67a004826748017b67d004826750017b67c804826758017b67c0043a0bf800023a0c0001023a070801023a091001027b6bf804956b00047bbcf0007bb7e8007bb9e0007bba90008267287bb7b800826760017bb7d8007b6388049569e004956ac004956ba004956c80047b6280048267b8013300fe012880b9330733083300d00228a8ba33085020d002a3ba8378330701280d330830020283883307010133090a0833073300d0022881ba33073300d0022878ba98272097772082687801d487078268700182696801d4980895691829959c00017bca287bcb307bc8407bc7389568402a8267b0015020d202f9b7956718214927c00182688801957a00017ba8b800826898017ba8b0009568c022826990017ba9a80033075020d40256b63302d60295691821014929a0014929980149298801013307209568a022492990015020d8022fb69517e08477e07b67b801647133084033075020da02d3b99518e08488e07b68b0015022dc02e40e3300de020a06826ab0013302e00228d60f826ab0015022e002cf0f8268b8017b8a187b89107b8b087b87956780225020e202c6b6956a182195ab000182b76882b87082b9800082ba78847700ff867701956b182995bc00017bc9607bca587bc8507bc7489568602a8267b8015020e40209b7289c00956a182982a7c80082a8d00082a9d80082aae000956b18197bba000795ba00067ba9f8007ba8f000956800207ba7e80064c75020e6025bb5956900018297a000956b181995bc00067bc7b8008297a8007bc7b0008297b8007bc7a8003a073800023a084000023a094800023a0a5000027bc7e0007bc8d8007bc9d0007bcac8003308209569e01f956ac01f492bc0068267b0015020e802d6b6330733085020ea02abb8837833072816fe51070b5022ee028b0e32009517a0003308405020f00297b35022f2021d0c5207525022f4020f0d5020f602bcb45022f802dc0b51073d5022fa021d0d5020fc02a7b45022fe02d90c5107288216188367244911584911504911401a9518404911485020000382b450220203570c520704008216188367443a085801023a096001023a0a6801027b18387b19307b1a281409000000000000796c9518207b19205020040344b4330864646750200603f4b750220803d80e33000a030a0833020c0328a50b50220c03a20b51070b50220e03c20d32009517a00033084050201003ceb250221203540b52075250221403460c50201603f3b350221803130b51073d50221a03540c50201c03deb350221e03100c5107288216188367244911584911504911401d95184049114850202003b9b3502222038e0b520704008216188367443a087001023a097801023a0a8001027b18387b19307b1a281409000000796c6e6f209518207b1920502024037bb33308646467502026032bb7502228030f0e33002a030a0833022c0328dc0a50222c03d90a51070b50222e03f90c32009517a0003308405020300305b2502232038b0a520752502234037d0b502036032ab3502238034a0a51073d50223a038b0b50203c0315b350223e03470b5107288216188367244911584911504911401d95184049114850204003f0b250224203c50a520704008216188367443a088801023a099001023a0a9801027b18387b19307b1a28140900000030206e61689518207b192050204403b2b233086464675020460362b650224803460d33004a030a0833024c0328130a50224c03100a51070b50224e03300c32009517a000330840502050033cb150225203c20952075250225403b40a5020560361b250225803810951073d50225a03c20a50205c034cb250225e037e0a5107288216188367244911584911504911401c9518404911485020600327b250226203fc09520704008216188367443a08a001023a09a801023a0ab001027b18387b19307b1a2814090000000030206e619518207b192050206403e9b133086464675020660399b5502268037d0c33006a030a0801951160ff7b1098007b1590007b1688009515a00050226c032a0c7b1720520af9018287187b17388287107b173082860882877b172883988317400a010133071802027b170838091802028217587b1710821350821828d8890a8e6bda6a0b8212309a247b1618c8a60c9ac7c98909959ae1d89a0985ccffc89c0cd37c08d87c07da8907d8b40864298212108e99821638c86909c89808821948c9b406886b01c8b808821b409566ffc86707d86706c98606d3c908d8c90cd8ab0adb8c0ad87308d3620cd96206dac806d37307d4c707db760a510a4501821728c87b0cd8bc07821618c89606c87606d39608d89609da8709821730c83707c8970ad87a08d83707821938c89202c82707c87808d4ac077b1830d46808d487079877207b1a38d4a808978820d487075207ef007b1c2883c88317600a0101821078821970821c68d4090788ca01947a510ad7008213608217289578207b1818d87807c876087b1810d8680ada770a8217088076821738c87a0ad87a07821830c887077b1708d8360b8ec8dacb089a92d882077b17287b19308e947b1038c804048210089a47821928c99707821910c982087b1328c9360464c39ac6c9b606d3690bd89606821218d8240cdbb60cd8a80bd37006d90707da6b07d3a808d46808db870c520c4b8217208218287b78207b727b73287b79088218307b78307b7a108218387b78387b7018955160ff8210980082159000821688009511a0003200003308300202280f330830020228083308300202018388330701330933006e030a0833027003281107502270030e0751070b502272032e0932009517a000330840502074033aae50227603c00652075250227803b20750207a035faf50227c037f0651073d50227e03c007502080034aaf502282037c07510728821618836724491158491150491140169518404911485020840325af50228603fa06520704008216188367443a08b801023a09c001023a0ac801027b18387b19307b1a2895182049112050208803f1ae330864646750208a03a1b250228c03850933008e030a0833029003285206502290034f0651070b502292036f0832009517a000330840502094037bad50229603010652075250229803f30650209a03a0ae50229c03c00551073d50229e0301075020a0038bae5022a203bd065107288216188367244911584911504911401b9518404911485020a40366ae5022a6033b06520704008216188367443a08d001023a09d801023a0ae001027b18387b19307b1a28140900000000007974709518207b19205020a80328ae33086464675020aa03d8b15022ac03bc083300ae030a08019511c07b10387b15307b16289515408411e0828910828a18828b088288d4ba0ad4980bd4ab0b98bb20d4a909979920d4b9095209406476838883173300b0030a01018217108218185022b2032907510a258219821a087b697b6a087b67107b68189551c08210388215308216289511403200003308300202838833070133093300b4030a083302b6032803055022b603000551070b5022b803200732009517a0003308405020ba032cac5022bc03b2045207525022be03a4055020c00351ad5022c203710451073d5022c403b2055020c6033cad5022c8036e05510728821618836724491158491150491140189518404911485020ca0317ad5022cc03ec04520704008216188367443a08e801023a09f001023a0af801027b18387b19307b1a289518204911205020ce03e3ac33086464675020d00393b05022d20377073300d4030a0801951140ff7b10b8007b15b0007b16a8009515c0008411f082ac1082ab1882a60882a27b1b507b1640d4b60ad4c20bd4ab0b98bb207b1c58d4ca0a97aa20d4ba0a7b17520aae01829718829a10829b088299828c187b1c18828610828c087b1c1082887b18087b19207b1980007b1b287b1b88007b1a307b1a9000951880007b17387b1798007b124864275020d6033bac821308d46307821818821910d49808d48707987720d46808978820d4870752074201821930821b20d49b07821838821a28d4a808d48707987720d49808978820d48707821a588219508216405207140164b8d49a07140be0ffffff00000000821a487b1b18d8ba0b946b947b510bf40083337b131083a72064865020d80376af837783688219100a01821848c86807d88708821928821640c86909c88909d3690ad8690bdaa80b821a58821830c8a808d8a802821c38821a50c8ac0cc82c0ac88b0bd88b08c8a808d4b808821a18d8a70a949a948a510a8b008377204911784911704911689518604911605020da034aab82172095771f1408e0ffffff01000000d28707821848c88707d88708c88609d8690ada880a821858c88a0ad88a08821b50c8b808957b20d87b07c8790cd89c09da7709c8a909d8a907c8870782187b8b7b8c087b89107b8718955140ff8210b8008215b0008216a8009511c0003200009511807b10787b15707b1668951580005022dc0337057b1730520af9008287187b17208287107b171882860882877b173883988317400a01018210188214203809180202821258821350821838d8890a8e6bda6a0b9a077b1628c8a60c9ac6c98909959a01ffd89a0985ccffc89c0cd36c08d86c06da8906d8b7088e09c84909c89808821948c9b707887b01c8b808821b409577ffc87606d87607c98707d3c908d8c90cd8ab0adb8c0ad86308d3720cd97207dac807d36308d4c808db870a510a54821738c8b707d8b708821a28c89a0ac88a0ad39a0bd89a09dab809c80308c88909d8890bd83808c84202c82808c8b808821b307bb77bba087bb9107bb818955180821078821570821668951180003200003308300202838833070133093300de030a083302e003282d015022e0032a0151070b5022e2034a0332009517a0003308405020e40356a85022e603dc005207525022e803ce015020ea037ba95022ec039b0051073d5022ee03dc015020f00366a95022f2039801510728821618836724491158491150491140179518404911485020f40341a95022f6031601520704008216188367443a080002023a090802023a0a1002027b18387b19307b1a289518204911205020f8030da933086464675020fa03bdac5022fc03a1030a0833073300fe0328deac33075020fe03d9ac33070150200004d0ac821908d46909140600000000010000001407fcffffff00000000821818d8780782181094877b1908949732028219b8008216b0008217a8008218a0007b17107b1908d497077b1818d46808d47808988820d46707977720d487073202951120ff7b10d8007b15d0007b16c8009515e0008411f0827810827918827a088277d4a909d48707d497073202d87807c87a0cd8ac0ada770ac8ba0ad8ba07c89707d4a809d4c707d47909989920d4a707977720d4970732021407bcffffff00000000d87607821810948782180894873202140b00000000010000001407fcffffff00000000d8780782c9b000949794a7320295690001829ab8001407bcffffff00000000d87a078298b00094878298a800948732029567dc821818d87807821810948782180894873202492190004921880049218000140700000000a079c308951880007b179800821718320282171883770449117849117049116020951860491168320295690001829ba800829ab0008298b8008297a0009577dcd8780794a794b73202956b000182baa80082b9b00082b8b80082b7a0009577dcd87807949794a732028298b800d878078298b000948782984094873202648183778389330840320282970882988199106f77987a206f88978b20d4ba0a9777206f99989920d49707988820320282a71882a81082a90882aa6f776f886f996faa956b1821320282a71882a81082a90882aa6f776f886f996faa956b1829320282970881981082996f77977a206f88988820d48a0a9877206f98978920d4970798882095691819320214090000000001000000d37909d48909987a2088aa01948a939a3202826a980182a71882a81082a90882aa6f776f8b6f996faa8268b0017b8a187b89107b8b087b873202955120ff8210d8008215d0008216c8009511e0003202826a900182a71882a81082a90882aa6f776f886f996faa956b182195bc0007320282a71882a81082a90882aa6f776f8b6f996faa320282970881981082996f77977a206f88988820d48a0a9877206f98978920d497079888203202826a900182a71882a81082a90882aa6f776f886f996faa956b18213202d49b0bd48709d4b909989920d4b808978820d498083202956a000182a9b8001407bcffffff00000000d8790782a8b000948782a8a800948732028411e0829a10829b18829c088299d4cb0bd4a90cd4bc0c98cc20d4ba0a97aa20d4ca0a320233071821c8760a95ab0007320283783307013309643202d88a08da770882678801c8870b3202956900018298b000d878078298a80094878298a000948732027c68b8018e88492a2002492a18027ba808023308002032028267b8018177330823320283771801c8760a95ab0006320283870433081819c886093202214225a952484992244992244992244992244992244992244992244992244992244992244992542529a524292949a84a494a922449922449922449922449922449922449922449929224294955494a92284925495592922425494a5292aaaa242549492a498a88889424494a92a442a5949224a59492a4922222a28888484992a42449929224492949922414152952a4489122458a142952a44891224589141111254982101286d2a43424424444a48820112122221a119124a19412524a5229494a92444444844824111191244944484a9210111185249284248510c124859492922424490949128924898414315113852a8d88884889114122428810494a1245941225462011482001810412484020111111299208111149929044a41111409254121111111185c48890889042122145122122222242444442449284244422221111116944442449421291464400491295444444121121222222222244299208912492481211119148444492444244442449922422228088880811110949a2484422424812494442481242882401442211111169442249928424228d88484a22a2949228524a24522a4924218a1449848888884244448910524822a44822444444448888888844028848142589228a18111111119148440a224684440429482288221241444444041149000104492422a2884490241189488a4822118988488a9248a22412894422a2884490241189488a24918844a488441089444444444491481111092249921411111191881491082291884892482452444404111111498a48444422524422884422222222828888488a88888844444444444441448444044994822482282211449222882049221149121144444444444444441411114144229148241289444444441411114444444444229148241229222282884422918848248924894424918888888888888888206244221111914824120922224992244922222222a288882022920002485492882812894444041191a49424228288202212492289444444444444444444444411111144041040a294041011111111898844129144824824894a22455222928824492489884822414444444444a244444424122922222288880012404a494444442492484452244992444444440411914824922449924822454444041111111111118d48244a4944444444249120a2002201044924124524a2118948129144244992244992242222a24449444912111111112184101111111111111111119188888868442249920449448a8888888888888288112111410a9208a28844101111114144448288240992201211898888882241444492248a440411111111110922222282242289884422118988888846444424498224228d88484a22a29492524a9252499244241149228910451491082222891444444844908224822812444444441011111111898888888888888888204644244992a4882222222222220a22128904294822882241244944104912894844444444444411111111449224488a2822499214111111118988888888884412110922222222415244114992a488888888484444444444111111111144442289244912119144222222124444444492221211118988888888888888888888202212492449928888241211119120222222921491888848444444444444441111111144442289244912115144440411111149118988880410911425896844244912111149124922a22022222222242222821424111449aa8a88888888202292880411111191244992880820222222828888044922222211111104492222424404419210111142482212898888884644442449822422d188089288882422828888881045118920124924898888884444221109224992244912110144444404111109924484888820481211228220490821222222922411d1489224499044241a89204924028824228248241289442442144524824812492489924844222211894812912046444492244922228088888820222241124484888820481211212208928410110920119192444423a28824499044a448928824918288112111410a9208a288449024114144448288888820892222228244506a20111111512448922449148948118944221191281224492449524988228a48041149a420624448449082248228124492882022222222121111111111051123422282142411449120222222888888888844828844229188884624512449124144444424918228924a494a1211111111111111112184109124224a44444490002291489224890431224992248988082022222288884810898810111104918808114110091121848888484444444441442442908224822249551149121144444444441444844404499482248228124410111189489288201244444444444423225124491211492222220a22221209214422222422221231222222220a22224a84200549045144228888880822464482181111499224222280888888202222410411212222082211112282201242884812118904312249922489880820222222888848104111212222082211112282201242888808202212092222224992444404101111114444248844848888208844848820888410224900912011048d88442252103122242248a2142411449120828824898888880822414422914844342212459224312292482289444414114144244992244911454424128944444444444444444444441011111109a28822221289442222222222124944444482888888481045141189482412111111111149222222124444922488228a489224898888888828222222222282888888489224111149242222224144241289444422918888888888882222222288888888244992a4888808222222222291888888241111110922922492244944444444444444444444441011111111111151928888888888888888888888888848242288888888882449121111119188082212918844242211894844224144444422499288888888888888202212400288442922118944221244124424228808221249228944444444444444229128222222082012401001442291484422914844444410491011292229114944922449444444109148244a924824128944444482002201041149442252444951228924499288888820222222229148241289444444228888888888484434124144244944248904014404104444442291880411d1880822224922224914442312912422894892244992241149a5242589442211111111420811111189888888888854a4a014ca2a522489442422492282888888888882881121114112a52089208a480491a408229248242249228244444444444414444444444408214444242222a8a092a04810240882044190248924083209212409200952104491204191204810040982204912491064124248124012a42088224182224190200812044192249220c8248490248024484110458204458220411024088224492441904908214900499082201a1111412249524a434292a4a4a42449929492244992244992244924499224499224499224899426498a244992a42449524a52929224a92449922449929424491211110d85c2521409121409820441902008922491044126218424499082208a04098a0441822048100449924882209310429200922005413449922425499254d12448294992a4a114458204458220411024088224492441904908214912a42088464444929424499214494a9294442211891424499224912449922449940092549414544e9224499224499224a9489224480248922449922449924a1211114d9208124992529a842429252592244949922449922449922449922449922425499268284591204191204810040982204912491064124248920429082a52902009208024a5222292244992222222494a5292244992240590940a208044151140a2a8242915110144a42489a4888848aa888848aa4894aa524a2949494a525594a4aa28a994a424510049524592aa224945444491a4aa88925455522949498a2455454992a48800124525494992a44854521229225154141151942251220100","opcodes":""},"methodIdentifiers":{"authorizeProvider(address)":"112ea262","authorizedProviders(address)":"69dc3ae2","createShipment((uint256,uint256,uint256,uint256,string,address,string,string))":"16f7af7c","owner()":"8da5cb5b","revokeProvider(address)":"ac1e8b8e","shipmentExists(uint256)":"f83cc7e8","transferOwnership(address)":"f2fde38b","updateShipment(((uint256,uint256,uint256,uint256,string,address,string,string),bytes32,uint256))":"11d48f8c","updateShipmentStatus(uint256,uint8)":"7defa920","verifyShipment(uint256)":"92d15fc4"}},"hash":"91157fd89e4c0d4c87713b4a5640e8ffe45a4ddc3ddbb85ba4a0cd3590e428aa","factoryDependencies":{}}}}